{
  "contractName": "GetLoginLogic",
  "abi": [
    {
      "inputs": [
        {
          "internalType": "contract GetLoginStorage",
          "name": "_getLoginStorage",
          "type": "address"
        }
      ],
      "stateMutability": "nonpayable",
      "type": "constructor"
    },
    {
      "inputs": [],
      "name": "getLoginStorage",
      "outputs": [
        {
          "internalType": "contract GetLoginStorage",
          "name": "",
          "type": "address"
        }
      ],
      "stateMutability": "view",
      "type": "function",
      "constant": true
    },
    {
      "inputs": [],
      "name": "owner",
      "outputs": [
        {
          "internalType": "address",
          "name": "",
          "type": "address"
        }
      ],
      "stateMutability": "view",
      "type": "function",
      "constant": true
    },
    {
      "inputs": [
        {
          "internalType": "address",
          "name": "_address",
          "type": "address"
        }
      ],
      "name": "setOwner",
      "outputs": [],
      "stateMutability": "nonpayable",
      "type": "function"
    },
    {
      "inputs": [
        {
          "internalType": "contract GetLoginStorage",
          "name": "_address",
          "type": "address"
        }
      ],
      "name": "setStorageAddress",
      "outputs": [],
      "stateMutability": "nonpayable",
      "type": "function"
    },
    {
      "inputs": [],
      "name": "init",
      "outputs": [],
      "stateMutability": "nonpayable",
      "type": "function"
    },
    {
      "inputs": [
        {
          "internalType": "uint64",
          "name": "appId",
          "type": "uint64"
        },
        {
          "internalType": "address",
          "name": "wallet",
          "type": "address"
        }
      ],
      "name": "validateAppOwner",
      "outputs": [],
      "stateMutability": "view",
      "type": "function",
      "constant": true
    },
    {
      "inputs": [
        {
          "internalType": "uint64",
          "name": "appId",
          "type": "uint64"
        }
      ],
      "name": "validateAppExists",
      "outputs": [],
      "stateMutability": "view",
      "type": "function",
      "constant": true
    },
    {
      "inputs": [
        {
          "internalType": "address",
          "name": "wallet",
          "type": "address"
        }
      ],
      "name": "validateInviteActive",
      "outputs": [],
      "stateMutability": "view",
      "type": "function",
      "constant": true
    },
    {
      "inputs": [
        {
          "internalType": "address",
          "name": "wallet",
          "type": "address"
        }
      ],
      "name": "validateAddressRegistered",
      "outputs": [],
      "stateMutability": "view",
      "type": "function",
      "constant": true
    },
    {
      "inputs": [
        {
          "internalType": "address",
          "name": "wallet",
          "type": "address"
        }
      ],
      "name": "validateAddressAvailable",
      "outputs": [],
      "stateMutability": "view",
      "type": "function",
      "constant": true
    },
    {
      "inputs": [
        {
          "internalType": "address",
          "name": "wallet",
          "type": "address"
        }
      ],
      "name": "validateInviteAvailable",
      "outputs": [],
      "stateMutability": "view",
      "type": "function",
      "constant": true
    },
    {
      "inputs": [
        {
          "internalType": "string",
          "name": "title",
          "type": "string"
        },
        {
          "internalType": "string",
          "name": "description",
          "type": "string"
        },
        {
          "internalType": "string[]",
          "name": "allowedUrls",
          "type": "string[]"
        },
        {
          "internalType": "address[]",
          "name": "allowedContracts",
          "type": "address[]"
        }
      ],
      "name": "createApplication",
      "outputs": [
        {
          "internalType": "uint64",
          "name": "",
          "type": "uint64"
        }
      ],
      "stateMutability": "nonpayable",
      "type": "function"
    },
    {
      "inputs": [
        {
          "internalType": "uint64",
          "name": "appId",
          "type": "uint64"
        },
        {
          "internalType": "string",
          "name": "title",
          "type": "string"
        },
        {
          "internalType": "string",
          "name": "description",
          "type": "string"
        },
        {
          "internalType": "string[]",
          "name": "allowedUrls",
          "type": "string[]"
        },
        {
          "internalType": "address[]",
          "name": "allowedContracts",
          "type": "address[]"
        }
      ],
      "name": "editApplication",
      "outputs": [],
      "stateMutability": "nonpayable",
      "type": "function"
    },
    {
      "inputs": [
        {
          "internalType": "uint64",
          "name": "appId",
          "type": "uint64"
        },
        {
          "internalType": "string",
          "name": "url",
          "type": "string"
        }
      ],
      "name": "addApplicationUrl",
      "outputs": [],
      "stateMutability": "nonpayable",
      "type": "function"
    },
    {
      "inputs": [
        {
          "internalType": "uint64",
          "name": "appId",
          "type": "uint64"
        },
        {
          "internalType": "address",
          "name": "wallet",
          "type": "address"
        }
      ],
      "name": "addApplicationContract",
      "outputs": [],
      "stateMutability": "nonpayable",
      "type": "function"
    },
    {
      "inputs": [
        {
          "internalType": "uint64",
          "name": "appId",
          "type": "uint64"
        },
        {
          "internalType": "uint256",
          "name": "index",
          "type": "uint256"
        }
      ],
      "name": "deleteApplicationUrl",
      "outputs": [],
      "stateMutability": "nonpayable",
      "type": "function"
    },
    {
      "inputs": [
        {
          "internalType": "uint64",
          "name": "appId",
          "type": "uint64"
        },
        {
          "internalType": "uint256",
          "name": "index",
          "type": "uint256"
        }
      ],
      "name": "deleteApplicationContract",
      "outputs": [],
      "stateMutability": "nonpayable",
      "type": "function"
    },
    {
      "inputs": [
        {
          "internalType": "uint64",
          "name": "appId",
          "type": "uint64"
        }
      ],
      "name": "deleteApplication",
      "outputs": [],
      "stateMutability": "nonpayable",
      "type": "function"
    },
    {
      "inputs": [
        {
          "internalType": "uint64",
          "name": "appId",
          "type": "uint64"
        }
      ],
      "name": "restoreApplication",
      "outputs": [],
      "stateMutability": "nonpayable",
      "type": "function"
    },
    {
      "inputs": [
        {
          "internalType": "bytes32",
          "name": "usernameHash",
          "type": "bytes32"
        }
      ],
      "name": "createUser",
      "outputs": [],
      "stateMutability": "payable",
      "type": "function",
      "payable": true
    },
    {
      "inputs": [
        {
          "internalType": "address payable[]",
          "name": "invites",
          "type": "address[]"
        }
      ],
      "name": "createInvite",
      "outputs": [],
      "stateMutability": "payable",
      "type": "function",
      "payable": true
    },
    {
      "inputs": [
        {
          "internalType": "bytes32",
          "name": "usernameHash",
          "type": "bytes32"
        },
        {
          "internalType": "address payable",
          "name": "walletAddress",
          "type": "address"
        },
        {
          "internalType": "string",
          "name": "ciphertext",
          "type": "string"
        },
        {
          "internalType": "string",
          "name": "iv",
          "type": "string"
        },
        {
          "internalType": "string",
          "name": "salt",
          "type": "string"
        },
        {
          "internalType": "string",
          "name": "mac",
          "type": "string"
        },
        {
          "internalType": "bool",
          "name": "allowReset",
          "type": "bool"
        }
      ],
      "name": "createUserFromInvite",
      "outputs": [],
      "stateMutability": "payable",
      "type": "function",
      "payable": true
    },
    {
      "inputs": [
        {
          "internalType": "address payable",
          "name": "walletAddress",
          "type": "address"
        },
        {
          "internalType": "string",
          "name": "ciphertext",
          "type": "string"
        },
        {
          "internalType": "string",
          "name": "iv",
          "type": "string"
        },
        {
          "internalType": "string",
          "name": "salt",
          "type": "string"
        },
        {
          "internalType": "string",
          "name": "mac",
          "type": "string"
        },
        {
          "components": [
            {
              "internalType": "uint64",
              "name": "appId",
              "type": "uint64"
            },
            {
              "internalType": "string",
              "name": "iv",
              "type": "string"
            },
            {
              "internalType": "string",
              "name": "ephemPublicKey",
              "type": "string"
            },
            {
              "internalType": "string",
              "name": "ciphertext",
              "type": "string"
            },
            {
              "internalType": "string",
              "name": "mac",
              "type": "string"
            }
          ],
          "internalType": "struct GetLoginLogic.SessionData[]",
          "name": "sessions",
          "type": "tuple[]"
        }
      ],
      "name": "changePassword",
      "outputs": [],
      "stateMutability": "payable",
      "type": "function",
      "payable": true
    },
    {
      "inputs": [
        {
          "internalType": "uint64",
          "name": "appId",
          "type": "uint64"
        },
        {
          "internalType": "address payable",
          "name": "wallet",
          "type": "address"
        },
        {
          "internalType": "string",
          "name": "iv",
          "type": "string"
        },
        {
          "internalType": "string",
          "name": "ephemPublicKey",
          "type": "string"
        },
        {
          "internalType": "string",
          "name": "ciphertext",
          "type": "string"
        },
        {
          "internalType": "string",
          "name": "mac",
          "type": "string"
        }
      ],
      "name": "createAppSession",
      "outputs": [],
      "stateMutability": "payable",
      "type": "function",
      "payable": true
    },
    {
      "inputs": [
        {
          "internalType": "address payable",
          "name": "walletAddress",
          "type": "address"
        },
        {
          "internalType": "string",
          "name": "ciphertext",
          "type": "string"
        },
        {
          "internalType": "string",
          "name": "iv",
          "type": "string"
        },
        {
          "internalType": "string",
          "name": "salt",
          "type": "string"
        },
        {
          "internalType": "string",
          "name": "mac",
          "type": "string"
        }
      ],
      "name": "resetPassword",
      "outputs": [],
      "stateMutability": "payable",
      "type": "function",
      "payable": true
    },
    {
      "inputs": [
        {
          "internalType": "string",
          "name": "value",
          "type": "string"
        }
      ],
      "name": "setInviteReset",
      "outputs": [],
      "stateMutability": "nonpayable",
      "type": "function"
    },
    {
      "inputs": [
        {
          "internalType": "string",
          "name": "value",
          "type": "string"
        }
      ],
      "name": "setGlobalOnlyInvites",
      "outputs": [],
      "stateMutability": "nonpayable",
      "type": "function"
    },
    {
      "inputs": [
        {
          "internalType": "uint64",
          "name": "id",
          "type": "uint64"
        }
      ],
      "name": "getApplication",
      "outputs": [
        {
          "components": [
            {
              "internalType": "uint64",
              "name": "id",
              "type": "uint64"
            },
            {
              "internalType": "bytes32",
              "name": "usernameHash",
              "type": "bytes32"
            },
            {
              "internalType": "string",
              "name": "title",
              "type": "string"
            },
            {
              "internalType": "string",
              "name": "description",
              "type": "string"
            },
            {
              "internalType": "string[]",
              "name": "allowedUrls",
              "type": "string[]"
            },
            {
              "internalType": "address[]",
              "name": "allowedContracts",
              "type": "address[]"
            },
            {
              "internalType": "bool",
              "name": "isActive",
              "type": "bool"
            }
          ],
          "internalType": "struct GetLoginStorage.Application",
          "name": "",
          "type": "tuple"
        }
      ],
      "stateMutability": "view",
      "type": "function",
      "constant": true
    },
    {
      "inputs": [
        {
          "internalType": "bytes32",
          "name": "usernameHash",
          "type": "bytes32"
        }
      ],
      "name": "getUserInfo",
      "outputs": [
        {
          "components": [
            {
              "internalType": "bytes32",
              "name": "username",
              "type": "bytes32"
            },
            {
              "internalType": "address",
              "name": "mainAddress",
              "type": "address"
            },
            {
              "internalType": "bool",
              "name": "isActive",
              "type": "bool"
            }
          ],
          "internalType": "struct GetLoginStorage.UserInfo",
          "name": "",
          "type": "tuple"
        }
      ],
      "stateMutability": "view",
      "type": "function",
      "constant": true
    },
    {
      "inputs": [
        {
          "internalType": "bytes32",
          "name": "usernameHash",
          "type": "bytes32"
        }
      ],
      "name": "isUsernameExists",
      "outputs": [
        {
          "internalType": "bool",
          "name": "",
          "type": "bool"
        }
      ],
      "stateMutability": "view",
      "type": "function",
      "constant": true
    },
    {
      "inputs": [
        {
          "internalType": "address",
          "name": "wallet",
          "type": "address"
        }
      ],
      "name": "isAddressRegistered",
      "outputs": [
        {
          "internalType": "bool",
          "name": "",
          "type": "bool"
        }
      ],
      "stateMutability": "view",
      "type": "function",
      "constant": true
    },
    {
      "inputs": [
        {
          "internalType": "uint64",
          "name": "appId",
          "type": "uint64"
        },
        {
          "internalType": "address",
          "name": "checkAddress",
          "type": "address"
        }
      ],
      "name": "isAppOwner",
      "outputs": [
        {
          "internalType": "bool",
          "name": "",
          "type": "bool"
        }
      ],
      "stateMutability": "view",
      "type": "function",
      "constant": true
    },
    {
      "inputs": [
        {
          "internalType": "address",
          "name": "wallet",
          "type": "address"
        }
      ],
      "name": "getUserByAddress",
      "outputs": [
        {
          "components": [
            {
              "internalType": "bytes32",
              "name": "username",
              "type": "bytes32"
            },
            {
              "internalType": "address",
              "name": "mainAddress",
              "type": "address"
            },
            {
              "internalType": "bool",
              "name": "isActive",
              "type": "bool"
            }
          ],
          "internalType": "struct GetLoginStorage.UserInfo",
          "name": "",
          "type": "tuple"
        }
      ],
      "stateMutability": "view",
      "type": "function",
      "constant": true
    },
    {
      "inputs": [
        {
          "internalType": "address",
          "name": "wallet",
          "type": "address"
        }
      ],
      "name": "getUsernameByAddress",
      "outputs": [
        {
          "internalType": "bytes32",
          "name": "",
          "type": "bytes32"
        }
      ],
      "stateMutability": "view",
      "type": "function",
      "constant": true
    },
    {
      "inputs": [
        {
          "internalType": "address",
          "name": "wallet",
          "type": "address"
        }
      ],
      "name": "isActiveInvite",
      "outputs": [
        {
          "internalType": "bool",
          "name": "",
          "type": "bool"
        }
      ],
      "stateMutability": "view",
      "type": "function",
      "constant": true
    },
    {
      "inputs": [
        {
          "internalType": "address",
          "name": "wallet",
          "type": "address"
        }
      ],
      "name": "isInviteAddressUsed",
      "outputs": [
        {
          "internalType": "bool",
          "name": "",
          "type": "bool"
        }
      ],
      "stateMutability": "view",
      "type": "function",
      "constant": true
    },
    {
      "inputs": [
        {
          "internalType": "address",
          "name": "wallet",
          "type": "address"
        }
      ],
      "name": "getInvite",
      "outputs": [
        {
          "components": [
            {
              "internalType": "address",
              "name": "inviteAddress",
              "type": "address"
            },
            {
              "internalType": "bytes32",
              "name": "creatorUsername",
              "type": "bytes32"
            },
            {
              "internalType": "bytes32",
              "name": "registeredUsername",
              "type": "bytes32"
            },
            {
              "internalType": "bool",
              "name": "isActive",
              "type": "bool"
            }
          ],
          "internalType": "struct GetLoginStorage.InviteInfo",
          "name": "",
          "type": "tuple"
        }
      ],
      "stateMutability": "view",
      "type": "function",
      "constant": true
    },
    {
      "inputs": [
        {
          "internalType": "bytes32",
          "name": "usernameHash",
          "type": "bytes32"
        }
      ],
      "name": "getUserSessions",
      "outputs": [
        {
          "components": [
            {
              "internalType": "bytes32",
              "name": "username",
              "type": "bytes32"
            },
            {
              "internalType": "address",
              "name": "wallet",
              "type": "address"
            },
            {
              "internalType": "uint8",
              "name": "sessionType",
              "type": "uint8"
            },
            {
              "internalType": "uint64",
              "name": "appId",
              "type": "uint64"
            }
          ],
          "internalType": "struct GetLoginStorage.UserSession[]",
          "name": "",
          "type": "tuple[]"
        }
      ],
      "stateMutability": "view",
      "type": "function",
      "constant": true
    },
    {
      "inputs": [
        {
          "internalType": "bytes32",
          "name": "usernameHash",
          "type": "bytes32"
        }
      ],
      "name": "getAllSettings",
      "outputs": [
        {
          "components": [
            {
              "internalType": "string",
              "name": "inviteReset",
              "type": "string"
            }
          ],
          "internalType": "struct GetLoginLogic.SettingsData",
          "name": "",
          "type": "tuple"
        }
      ],
      "stateMutability": "view",
      "type": "function",
      "constant": true
    },
    {
      "inputs": [
        {
          "internalType": "bytes32",
          "name": "usernameHash",
          "type": "bytes32"
        },
        {
          "internalType": "string",
          "name": "key",
          "type": "string"
        }
      ],
      "name": "getSettings",
      "outputs": [
        {
          "internalType": "string",
          "name": "",
          "type": "string"
        }
      ],
      "stateMutability": "view",
      "type": "function",
      "constant": true
    },
    {
      "inputs": [
        {
          "internalType": "string",
          "name": "key",
          "type": "string"
        }
      ],
      "name": "getGlobalSettings",
      "outputs": [
        {
          "internalType": "string",
          "name": "",
          "type": "string"
        }
      ],
      "stateMutability": "view",
      "type": "function",
      "constant": true
    },
    {
      "inputs": [
        {
          "internalType": "bytes32",
          "name": "usernameHash",
          "type": "bytes32"
        }
      ],
      "name": "getInviteReset",
      "outputs": [
        {
          "internalType": "string",
          "name": "",
          "type": "string"
        }
      ],
      "stateMutability": "view",
      "type": "function",
      "constant": true
    }
  ],
  "bytecode": "0x60c0604052600c60808190527f696e766974655f7265736574000000000000000000000000000000000000000060a0908152620000409160029190620000fb565b5060408051808201909152600c8082527f696e76697465735f6f6e6c79000000000000000000000000000000000000000060209092019182526200008791600391620000fb565b506004805461ffff1916610201179055348015620000a457600080fd5b5060405162004ae138038062004ae1833981016040819052620000c791620001a1565b6001805433600160a060020a03199182161790915560008054909116600160a060020a039290921691909117905562000229565b8280546200010990620001d3565b90600052602060002090601f0160209004810192826200012d576000855562000178565b82601f106200014857805160ff191683800117855562000178565b8280016001018555821562000178579182015b82811115620001785782518255916020019190600101906200015b565b50620001869291506200018a565b5090565b5b808211156200018657600081556001016200018b565b600060208284031215620001b457600080fd5b8151600160a060020a0381168114620001cc57600080fd5b9392505050565b600281046001821680620001e857607f821691505b6020821081141562000223577f4e487b7100000000000000000000000000000000000000000000000000000000600052602260045260246000fd5b50919050565b6148a880620002396000396000f3fe60806040526004361061026e576000357c010000000000000000000000000000000000000000000000000000000090048063863f99b611610156578063b94f28d2116100d3578063e1c7392a11610097578063e1c7392a1461073b578063ec46474c14610750578063ed1a998d14610770578063ef32358d1461079e578063fd8991cc146107be578063ff6e9740146107de57600080fd5b8063b94f28d2146106a8578063c5ee2740146106c8578063cc35c9fc146106db578063db939c75146106fb578063df8c18d11461071b57600080fd5b8063abc040ca1161011a578063abc040ca14610608578063abf7bfd814610628578063ac7a3cc01461063b578063adff8b0f1461065b578063b3d8b20e1461067b57600080fd5b8063863f99b614610568578063880faf6f146105885780638c3ab381146105a85780638da5cb5b146105c8578063a182c736146105e857600080fd5b806349395fe7116101ef5780636768fcd3116101b35780636768fcd31461049057806369c212f6146104a35780636b51503b146104d05780636f79bc80146104f05780637419d934146105105780637b06c09c1461054857600080fd5b806349395fe7146103e35780634cb81803146103f657806359b910d61461042357806361c65e2c1461044357806364e34e111461047057600080fd5b80631be7c3bd116102365780631be7c3bd1461032a5780631c964f971461036357806320909093146103835780632226e4381461039657806338b6a3a1146103c357600080fd5b8063117714be1461027357806313af4035146102a857806314332258146102ca5780631618ddab146102ea57806316e4f57a146102fd575b600080fd5b34801561027f57600080fd5b5061029361028e366004613769565b6107fe565b60405190151581526020015b60405180910390f35b3480156102b457600080fd5b506102c86102c3366004613769565b61088a565b005b3480156102d657600080fd5b506102c86102e5366004613769565b6108ef565b6102c86102f8366004613846565b610970565b34801561030957600080fd5b5061031d610318366004613ab6565b610cc9565b60405161029f91906145aa565b34801561033657600080fd5b5061034a610345366004613c58565b610cf4565b60405167ffffffffffffffff909116815260200161029f565b34801561036f57600080fd5b506102c861037e366004614073565b610d23565b6102c8610391366004613acf565b610d44565b3480156103a257600080fd5b506103b66103b1366004613f40565b61108d565b60405161029f9190614561565b3480156103cf57600080fd5b506102936103de366004613769565b611177565b6102c86103f1366004613927565b6112bb565b34801561040257600080fd5b50610416610411366004613bee565b6114df565b60405161029f91906144d0565b34801561042f57600080fd5b506102c861043e366004613769565b6115ab565b34801561044f57600080fd5b5061046361045e366004613769565b611607565b60405161029f9190614574565b34801561047c57600080fd5b5061029361048b366004613f7a565b6116ab565b6102c861049e366004613786565b611755565b3480156104af57600080fd5b506104c36104be366004613769565b611b0e565b60405161029f91906145c5565b3480156104dc57600080fd5b506104166104eb366004613ab6565b611c9f565b3480156104fc57600080fd5b506102c861050b366004613bee565b611d35565b34801561051c57600080fd5b5060005461053090600160a060020a031681565b604051600160a060020a03909116815260200161029f565b34801561055457600080fd5b50610293610563366004613769565b611df6565b34801561057457600080fd5b506102c8610583366004613f7a565b611e84565b34801561059457600080fd5b506102c86105a3366004613f7a565b611f0c565b3480156105b457600080fd5b506102c86105c3366004613f40565b611f29565b3480156105d457600080fd5b5060015461053090600160a060020a031681565b3480156105f457600080fd5b506102c8610603366004613769565b611f47565b34801561061457600080fd5b506102c8610623366004614160565b611f9f565b6102c8610636366004613ab6565b611fbc565b34801561064757600080fd5b506102c8610656366004613769565b61214b565b34801561066757600080fd5b506104c3610676366004613ab6565b6121a3565b34801561068757600080fd5b5061069b610696366004613ab6565b61223b565b60405161029f919061434e565b3480156106b457600080fd5b506102c86106c3366004613f40565b6122d5565b6102c86106d6366004613fb3565b6123b8565b3480156106e757600080fd5b506102c86106f63660046140ad565b612516565b34801561070757600080fd5b50610416610716366004613ba7565b61261e565b34801561072757600080fd5b506102c8610736366004613769565b6126ed565b34801561074757600080fd5b506102c8612746565b34801561075c57600080fd5b506102c861076b366004614160565b612a1a565b34801561077c57600080fd5b5061079061078b366004613769565b612a37565b60405190815260200161029f565b3480156107aa57600080fd5b506102936107b9366004613ab6565b612a49565b3480156107ca57600080fd5b506102c86107d9366004613f40565b612a5e565b3480156107ea57600080fd5b506102c86107f9366004613bee565b612a73565b6000805460405160e260020a631871978b028152600160a060020a038481166004830152839216906361c65e2c9060240160806040518083038186803b15801561084757600080fd5b505afa15801561085b573d6000803e3d6000fd5b505050506040513d601f19601f8201168201806040525081019061087f9190613e0a565b606001519392505050565b600154600160a060020a031633146108c05760405160e560020a62461bcd0281526004016108b7906144e3565b60405180910390fd5b6001805473ffffffffffffffffffffffffffffffffffffffff1916600160a060020a0392909216919091179055565b6108f881611df6565b1561096d5760405160e560020a62461bcd028152602060048201526024808201527f54686973206164647265737320616c7265616479207573656420666f7220696e60448201527f766974650000000000000000000000000000000000000000000000000000000060648201526084016108b7565b50565b61097933611f47565b610982866126ed565b600061098d33612a37565b6000546040805180820182526001815260208101849052905160e060020a63c17b5289028152929350600160a060020a039091169163c17b5289916109d7918b9190600401614325565b600060405180830381600087803b1580156109f157600080fd5b505af1158015610a05573d6000803e3d6000fd5b505060008054604080518082018252928352602083018690525160e060020a63c17b5289028152600160a060020a03909116935063c17b52899250610a4e913391600401614325565b600060405180830381600087803b158015610a6857600080fd5b505af1158015610a7c573d6000803e3d6000fd5b505060005460408051606081018252858152600160a060020a038c8116602083015260018284015291517fab0f7ab700000000000000000000000000000000000000000000000000000000815291909216935063ab0f7ab79250610ae491859160040161449d565b600060405180830381600087803b158015610afe57600080fd5b505af1158015610b12573d6000803e3d6000fd5b5050600454610b2b9250839150899060ff166000612b15565b604051600160a060020a038816903480156108fc02916000818181858888f19350505050158015610b60573d6000803e3d6000fd5b506000546040517f6d822b44000000000000000000000000000000000000000000000000000000008152600160a060020a0390911690636d822b4490610bb49084908b908b908b908b908b906004016143c8565b600060405180830381600087803b158015610bce57600080fd5b505af1158015610be2573d6000803e3d6000fd5b5050505060005b8251811015610cbf576000838281518110610c0657610c06614807565b6020908102919091018101516000548151928201516040808401516060850151608086015192517f2f23976c000000000000000000000000000000000000000000000000000000008152959750600160a060020a0390941695632f23976c95610c799591948b94909392916004016145f1565b600060405180830381600087803b158015610c9357600080fd5b505af1158015610ca7573d6000803e3d6000fd5b50505050508080610cb7906147db565b915050610be9565b5050505050505050565b6040805160208101909152606081526040518060200160405280610cec84611c9f565b905292915050565b6000610cff33611f47565b6000610d0a33612a37565b9050610d198187878787612baa565b9695505050505050565b610d2c826122d5565b610d368233611e84565b610d408282612e04565b5050565b610d4d3361214b565b610d5686611177565b15610da65760405160e560020a62461bcd02815260206004820152601a60248201527f4164647265737320616c7265616479207265676973746572656400000000000060448201526064016108b7565b6000805460405160e260020a631871978b028152336004820152600160a060020a03909116906361c65e2c9060240160806040518083038186803b158015610ded57600080fd5b505afa158015610e01573d6000803e3d6000fd5b505050506040513d601f19601f82011682018060405250810190610e259190613e0a565b9050610e318888612e85565b60006060820181905260408083018a9052905490517f0913be41000000000000000000000000000000000000000000000000000000008152600160a060020a0390911690630913be4190610e8b90339085906004016142dc565b600060405180830381600087803b158015610ea557600080fd5b505af1158015610eb9573d6000803e3d6000fd5b5050604051600160a060020a038a1692503480156108fc029250906000818181858888f19350505050158015610ef3573d6000803e3d6000fd5b50610ffe8860028054610f059061479d565b80601f0160208091040260200160405190810160405280929190818152602001828054610f319061479d565b8015610f7e5780601f10610f5357610100808354040283529160200191610f7e565b820191906000526020600020905b815481529060010190602001808311610f6157829003601f168201915b505050505084610fc3576040518060400160405280600581526020017f66616c736500000000000000000000000000000000000000000000000000000081525061305b565b6040518060400160405280600481526020017f747275650000000000000000000000000000000000000000000000000000000081525061305b565b6000546040517f6d822b44000000000000000000000000000000000000000000000000000000008152600160a060020a0390911690636d822b4490611051908b908b908b908b908b908b906004016143c8565b600060405180830381600087803b15801561106b57600080fd5b505af115801561107f573d6000803e3d6000fd5b505050505050505050505050565b6110dc6040518060e00160405280600067ffffffffffffffff16815260200160008019168152602001606081526020016060815260200160608152602001606081526020016000151581525090565b6110e5826122d5565b60005460405160e360020a630444dc8702815267ffffffffffffffff84166004820152600160a060020a0390911690632226e4389060240160006040518083038186803b15801561113557600080fd5b505afa158015611149573d6000803e3d6000fd5b505050506040513d6000823e601f3d908101601f191682016040526111719190810190613d05565b92915050565b600080546040517fdcac263e000000000000000000000000000000000000000000000000000000008152600160a060020a0384811660048301528392169063dcac263e90602401604080518083038186803b1580156111d557600080fd5b505afa1580156111e9573d6000803e3d6000fd5b505050506040513d601f19601f8201168201806040525081019061120d9190613ee8565b805190915015156001146112245750600092915050565b60008054602083015160405160e260020a631945d5e7028152600160a060020a0390921691636517579c9161125f9160040190815260200190565b60606040518083038186803b15801561127757600080fd5b505afa15801561128b573d6000803e3d6000fd5b505050506040513d601f19601f820116820180604052508101906112af9190613e7f565b60400151949350505050565b6112c433611f47565b60005b8151811015611304576112f28282815181106112e5576112e5614807565b60200260200101516108ef565b806112fc816147db565b9150506112c7565b50600061131033612a37565b905060008034118015611324575060008351115b15611338578251611335903461474c565b90505b60005b83518110156114d957600084828151811061135857611358614807565b6020908102919091018101516000805460408051608081018252600160a060020a0380861682529581018a90528082019390935260016060840152517f0913be410000000000000000000000000000000000000000000000000000000081529294509290921691630913be41916113d39185916004016142dc565b600060405180830381600087803b1580156113ed57600080fd5b505af1158015611401573d6000803e3d6000fd5b50505050600083111561144657604051600160a060020a0382169084156108fc029085906000818181858888f19350505050158015611444573d6000803e3d6000fd5b505b6000546040517f2ef9adc300000000000000000000000000000000000000000000000000000000815260048101869052600160a060020a03838116602483015290911690632ef9adc390604401600060405180830381600087803b1580156114ad57600080fd5b505af11580156114c1573d6000803e3d6000fd5b505050505080806114d1906147db565b91505061133b565b50505050565b60606000826040516020016114f4919061451a565b60408051808303601f190181529082905280516020909101206000547fdce2dd1700000000000000000000000000000000000000000000000000000000835260048301829052909250600160a060020a03169063dce2dd179060240160006040518083038186803b15801561156857600080fd5b505afa15801561157c573d6000803e3d6000fd5b505050506040513d6000823e601f3d908101601f191682016040526115a49190810190613c23565b9392505050565b600154600160a060020a031633146115d85760405160e560020a62461bcd0281526004016108b7906144e3565b6000805473ffffffffffffffffffffffffffffffffffffffff1916600160a060020a0392909216919091179055565b60408051608081018252600080825260208201819052918101829052606081019190915260005460405160e260020a631871978b028152600160a060020a038481166004830152909116906361c65e2c9060240160806040518083038186803b15801561167357600080fd5b505afa158015611687573d6000803e3d6000fd5b505050506040513d601f19601f820116820180604052508101906111719190613e0a565b6000806116b783612a37565b60005460405160e360020a630444dc8702815267ffffffffffffffff871660048201529192508291600160a060020a0390911690632226e4389060240160006040518083038186803b15801561170c57600080fd5b505afa158015611720573d6000803e3d6000fd5b505050506040513d6000823e601f3d908101601f191682016040526117489190810190613d05565b6020015114949350505050565b6000805460405160e260020a631871978b028152336004820152600160a060020a03909116906361c65e2c9060240160806040518083038186803b15801561179c57600080fd5b505afa1580156117b0573d6000803e3d6000fd5b505050506040513d601f19601f820116820180604052508101906117d49190613e0a565b6060810151909150156118525760405160e560020a62461bcd02815260206004820152602760248201527f4f6e6c7920696e61637469766520696e766974652063616e207265736574207060448201527f617373776f72640000000000000000000000000000000000000000000000000060648201526084016108b7565b60408101516118cc5760405160e560020a62461bcd02815260206004820152602c60248201527f4f6e6c7920696e76697465207769746820757365726e616d652063616e20726560448201527f7365742070617373776f7264000000000000000000000000000000000000000060648201526084016108b7565b60405160200161190d9060208082526004908201527f7472756500000000000000000000000000000000000000000000000000000000604082015260600190565b604051602081830303815290604052805190602001206119308260400151611c9f565b60405160200161194091906144d0565b60405160208183030381529060405280519060200120146119cc5760405160e560020a62461bcd02815260206004820152602160248201527f53657474696e6773206e6f7420616c6c6f772072657365742070617373776f7260448201527f640000000000000000000000000000000000000000000000000000000000000060648201526084016108b7565b60005460408051808201825260018152838201516020820152905160e060020a63c17b5289028152600160a060020a039092169163c17b528991611a15918a9190600401614325565b600060405180830381600087803b158015611a2f57600080fd5b505af1158015611a43573d6000803e3d6000fd5b5050604051600160a060020a03891692503480156108fc029250906000818181858888f19350505050158015611a7d573d6000803e3d6000fd5b5060005460408083015190517f6d822b44000000000000000000000000000000000000000000000000000000008152600160a060020a0390921691636d822b4491611ad4918a908a908a908a908a906004016143c8565b600060405180830381600087803b158015611aee57600080fd5b505af1158015611b02573d6000803e3d6000fd5b50505050505050505050565b6040805160608101825260008082526020820181905291810191909152600080546040517fdcac263e000000000000000000000000000000000000000000000000000000008152600160a060020a0385811660048301529091169063dcac263e90602401604080518083038186803b158015611b8957600080fd5b505afa158015611b9d573d6000803e3d6000fd5b505050506040513d601f19601f82011682018060405250810190611bc19190613ee8565b8051909150611c155760405160e560020a62461bcd02815260206004820181905260248201527f55736572207769746820746869732061646472657373206e6f7420666f756e6460448201526064016108b7565b600054602082015160405160e260020a631945d5e7028152600160a060020a0390921691636517579c91611c4f9160040190815260200190565b60606040518083038186803b158015611c6757600080fd5b505afa158015611c7b573d6000803e3d6000fd5b505050506040513d601f19601f820116820180604052508101906115a49190613e7f565b60606111718260028054611cb29061479d565b80601f0160208091040260200160405190810160405280929190818152602001828054611cde9061479d565b8015611d2b5780601f10611d0057610100808354040283529160200191611d2b565b820191906000526020600020905b815481529060010190602001808311611d0e57829003601f168201915b505050505061261e565b600154600160a060020a03163314611d625760405160e560020a62461bcd0281526004016108b7906144e3565b61096d60038054611d729061479d565b80601f0160208091040260200160405190810160405280929190818152602001828054611d9e9061479d565b8015611deb5780601f10611dc057610100808354040283529160200191611deb565b820191906000526020600020905b815481529060010190602001808311611dce57829003601f168201915b5050505050826130d2565b6000805460405160e260020a631871978b028152600160a060020a038481166004830152839216906361c65e2c9060240160806040518083038186803b158015611e3f57600080fd5b505afa158015611e53573d6000803e3d6000fd5b505050506040513d601f19601f82011682018060405250810190611e779190613e0a565b6020015115159392505050565b611e8d81611f47565b611e9782826116ab565b610d405760405160e560020a62461bcd02815260206004820152602a60248201527f596f7520646f206e6f7420686176652061636365737320746f2074686973206160448201527f70706c69636174696f6e0000000000000000000000000000000000000000000060648201526084016108b7565b611f15826122d5565b611f1f8233611e84565b610d40828261317e565b611f32816122d5565b611f3c8133611e84565b61096d8160006131d9565b611f5081611177565b61096d5760405160e560020a62461bcd02815260206004820152601660248201527f41646472657373206e6f7420726567697374657265640000000000000000000060448201526064016108b7565b611fa8826122d5565b611fb28233611e84565b610d4082826132ba565b604051602001611ffd9060208082526005908201527f66616c7365000000000000000000000000000000000000000000000000000000604082015260600190565b604051602081830303815290604052805190602001206120a6600380546120239061479d565b80601f016020809104026020016040519081016040528092919081815260200182805461204f9061479d565b801561209c5780601f106120715761010080835404028352916020019161209c565b820191906000526020600020905b81548152906001019060200180831161207f57829003601f168201915b50505050506114df565b6040516020016120b691906144d0565b60405160208183030381529060405280519060200120146121415760405160e560020a62461bcd028152602060048201526024808201527f4e6f7420616c6c6f77656420746f207369676e757020776974686f757420696e60448201527f766974650000000000000000000000000000000000000000000000000000000060648201526084016108b7565b61096d8133612e85565b612154816107fe565b61096d5760405160e560020a62461bcd02815260206004820152601160248201527f496e76697465206e6f742061637469766500000000000000000000000000000060448201526064016108b7565b6040805160608101825260008082526020820181905281830181905254915160e260020a631945d5e7028152600481018490529091600160a060020a031690636517579c9060240160606040518083038186803b15801561220357600080fd5b505afa158015612217573d6000803e3d6000fd5b505050506040513d601f19601f820116820180604052508101906111719190613e7f565b6000546040517fb3d8b20e00000000000000000000000000000000000000000000000000000000815260048101839052606091600160a060020a03169063b3d8b20e9060240160006040518083038186803b15801561229957600080fd5b505afa1580156122ad573d6000803e3d6000fd5b505050506040513d6000823e601f3d908101601f1916820160405261117191908101906139c5565b6000805460405160e360020a630444dc8702815267ffffffffffffffff84166004820152600160a060020a0390911690632226e4389060240160006040518083038186803b15801561232657600080fd5b505afa15801561233a573d6000803e3d6000fd5b505050506040513d6000823e601f3d908101601f191682016040526123629190810190613d05565b90508060c00151610d405760405160e560020a62461bcd02815260206004820152600d60248201527f417070206e6f7420666f756e640000000000000000000000000000000000000060448201526064016108b7565b6123c133611f47565b6123ca866122d5565b60006123d533612a37565b6000546040805180820182526001815260208101849052905160e060020a63c17b5289028152929350600160a060020a039091169163c17b52899161241f918a9190600401614325565b600060405180830381600087803b15801561243957600080fd5b505af115801561244d573d6000803e3d6000fd5b5050604051600160a060020a03891692503480156108fc029250906000818181858888f19350505050158015612487573d6000803e3d6000fd5b506000546040517f2f23976c000000000000000000000000000000000000000000000000000000008152600160a060020a0390911690632f23976c906124db908a9085908a908a908a908a906004016145f1565b600060405180830381600087803b1580156124f557600080fd5b505af1158015612509573d6000803e3d6000fd5b5050505050505050505050565b61251f856122d5565b6125298533611e84565b6000805460405160e360020a630444dc8702815267ffffffffffffffff88166004820152600160a060020a0390911690632226e4389060240160006040518083038186803b15801561257a57600080fd5b505afa15801561258e573d6000803e3d6000fd5b505050506040513d6000823e601f3d908101601f191682016040526125b69190810190613d05565b6040808201879052606082018690526080820185905260a0820184905260005490517f50d2c00e000000000000000000000000000000000000000000000000000000008152919250600160a060020a0316906350d2c00e90611ad4908990859060040161463d565b606060008383604051602001612635929190614450565b60408051808303601f190181529082905280516020909101206000547fdce2dd1700000000000000000000000000000000000000000000000000000000835260048301829052909250600160a060020a03169063dce2dd179060240160006040518083038186803b1580156126a957600080fd5b505afa1580156126bd573d6000803e3d6000fd5b505050506040513d6000823e601f3d908101601f191682016040526126e59190810190613c23565b949350505050565b6126f681611177565b1561096d5760405160e560020a62461bcd02815260206004820152601a60248201527f4164647265737320616c7265616479207265676973746572656400000000000060448201526064016108b7565b600154600160a060020a031633146127735760405160e560020a62461bcd0281526004016108b7906144e3565b6000805460405160e260020a631945d5e70281527ff23ec0bb4210edd5cba85afd05127efcd2fc6a781bfed49188da1081670b22d8600482018190529291600160a060020a031690636517579c9060240160606040518083038186803b1580156127dc57600080fd5b505afa1580156127f0573d6000803e3d6000fd5b505050506040513d601f19601f820116820180604052508101906128149190613e7f565b9050806040015115156001151514610d40576128308233612e85565b60608060006128ac856040518060400160405280600881526020017f4765744c6f67696e0000000000000000000000000000000000000000000000008152506040518060400160405280601381526020017f4765744c6f67696e202d206175746820617070000000000000000000000000008152508686612baa565b90506128ed816040518060400160405280601d81526020017f68747470733a2f2f6c6f63616c686f73743a333030312f6f70656e6964000000815250612e04565b61292c816040518060400160405280601781526020017f68747470733a2f2f6c6f63616c686f73743a333030312f000000000000000000815250612e04565b61294a81739a0cde760277dc3a4b2ac6e9d333af45148ebb6061317e565b612a136003805461295a9061479d565b80601f01602080910402602001604051908101604052809291908181526020018280546129869061479d565b80156129d35780601f106129a8576101008083540402835291602001916129d3565b820191906000526020600020905b8154815290600101906020018083116129b657829003601f168201915b50505050506040518060400160405280600581526020017f66616c73650000000000000000000000000000000000000000000000000000008152506130d2565b5050505050565b612a23826122d5565b612a2d8233611e84565b610d408282613314565b6000612a4282611b0e565b5192915050565b6000612a54826121a3565b6040015192915050565b612a688133611e84565b61096d8160016131d9565b6000612a7e33612a37565b9050610d408160028054612a919061479d565b80601f0160208091040260200160405190810160405280929190818152602001828054612abd9061479d565b8015612b0a5780601f10612adf57610100808354040283529160200191612b0a565b820191906000526020600020905b815481529060010190602001808311612aed57829003601f168201915b50505050508461305b565b6000546040517f9931f4f200000000000000000000000000000000000000000000000000000000815260048101869052600160a060020a03858116602483015260ff8516604483015267ffffffffffffffff8416606483015290911690639931f4f2906084015b600060405180830381600087803b158015612b9657600080fd5b505af1158015610cbf573d6000803e3d6000fd5b60008054604080517f8ad1041900000000000000000000000000000000000000000000000000000000815290518392600160a060020a031691638ad10419916004808301926020929190829003018186803b158015612c0857600080fd5b505afa158015612c1c573d6000803e3d6000fd5b505050506040513d601f19601f82011682018060405250810190612c409190613f5d565b6000546040805160e08101825267ffffffffffffffff84168152602081018b90528082018a9052606081018990526080810188905260a08101879052600160c082015290517f50d2c00e000000000000000000000000000000000000000000000000000000008152929350600160a060020a03909116916350d2c00e91612ccc9185919060040161463d565b600060405180830381600087803b158015612ce657600080fd5b505af1158015612cfa573d6000803e3d6000fd5b505060008054604080517f3122da980000000000000000000000000000000000000000000000000000000081529051600160a060020a039092169450633122da989350600480820193929182900301818387803b158015612d5a57600080fd5b505af1158015612d6e573d6000803e3d6000fd5b50506000546040517fb68baa15000000000000000000000000000000000000000000000000000000008152600481018b905267ffffffffffffffff85166024820152600160a060020a03909116925063b68baa159150604401600060405180830381600087803b158015612de157600080fd5b505af1158015612df5573d6000803e3d6000fd5b50929998505050505050505050565b6000546040517f036fbb74000000000000000000000000000000000000000000000000000000008152600160a060020a039091169063036fbb7490612e4f908590859060040161461a565b600060405180830381600087803b158015612e6957600080fd5b505af1158015612e7d573d6000803e3d6000fd5b505050505050565b612e8e82612a49565b15612ede5760405160e560020a62461bcd02815260206004820152601560248201527f557365726e616d6520616c72656164792075736564000000000000000000000060448201526064016108b7565b612ee781611177565b15612f375760405160e560020a62461bcd02815260206004820152601360248201527f57616c6c657420616c726561647920757365640000000000000000000000000060448201526064016108b7565b60005460408051606081018252848152600160a060020a03848116602083015260018284015291517fab0f7ab7000000000000000000000000000000000000000000000000000000008152919092169163ab0f7ab791612f9b91869160040161449d565b600060405180830381600087803b158015612fb557600080fd5b505af1158015612fc9573d6000803e3d6000fd5b50506000546040805180820182526001815260208101879052905160e060020a63c17b5289028152600160a060020a03909216935063c17b5289925061301491859190600401614325565b600060405180830381600087803b15801561302e57600080fd5b505af1158015613042573d6000803e3d6000fd5b5050600454610d409250849150839060ff166000612b15565b60008383604051602001613070929190614450565b60408051601f198184030181529082905280516020909101206000547f6fb89051000000000000000000000000000000000000000000000000000000008352909250600160a060020a031690636fb8905190612b7c9084908690600401614437565b6000826040516020016130e5919061451a565b60408051601f198184030181529082905280516020909101206000547f6fb89051000000000000000000000000000000000000000000000000000000008352909250600160a060020a031690636fb89051906131479084908690600401614437565b600060405180830381600087803b15801561316157600080fd5b505af1158015613175573d6000803e3d6000fd5b50505050505050565b6000546040517f212109e400000000000000000000000000000000000000000000000000000000815267ffffffffffffffff84166004820152600160a060020a0383811660248301529091169063212109e490604401612e4f565b6000805460405160e360020a630444dc8702815267ffffffffffffffff85166004820152600160a060020a0390911690632226e4389060240160006040518083038186803b15801561322a57600080fd5b505afa15801561323e573d6000803e3d6000fd5b505050506040513d6000823e601f3d908101601f191682016040526132669190810190613d05565b82151560c08201526000546040517f50d2c00e000000000000000000000000000000000000000000000000000000008152919250600160a060020a0316906350d2c00e90613147908690859060040161463d565b6000546040517fabc040ca00000000000000000000000000000000000000000000000000000000815267ffffffffffffffff8416600482015260248101839052600160a060020a039091169063abc040ca90604401612e4f565b6000546040517fec46474c00000000000000000000000000000000000000000000000000000000815267ffffffffffffffff8416600482015260248101839052600160a060020a039091169063ec46474c90604401612e4f565b803561337981614839565b919050565b600082601f83011261338f57600080fd5b813560206133a461339f83614700565b6146cf565b82815281810190858301838502870184018810156133c157600080fd5b60005b858110156133e95781356133d781614839565b845292840192908401906001016133c4565b5090979650505050505050565b600082601f83011261340757600080fd5b8151602061341761339f83614700565b828152818101908583018385028701840188101561343457600080fd5b60005b858110156133e957815161344a81614839565b84529284019290840190600101613437565b600082601f83011261346d57600080fd5b8135602061347d61339f83614700565b828152818101908583018385028701840188101561349a57600080fd5b6000805b868110156134dd57823567ffffffffffffffff8111156134bc578283fd5b6134ca8b88838d01016136bd565b865250938501939185019160010161349e565b509198975050505050505050565b600082601f8301126134fc57600080fd5b8151602061350c61339f83614700565b828152818101908583018385028701840188101561352957600080fd5b6000805b868110156134dd57825167ffffffffffffffff81111561354b578283fd5b6135598b88838d010161370e565b865250938501939185019160010161352d565b600082601f83011261357d57600080fd5b8135602061358d61339f83614700565b82815281810190858301838502870184018810156135aa57600080fd5b60005b858110156133e957813567ffffffffffffffff808211156135cd57600080fd5b9089019060a0828c03601f19018113156135e657600080fd5b6135ee614660565b6135f9898501613753565b81526040808501358481111561360e57600080fd5b61361c8f8c838901016136bd565b8b8401525060608501358481111561363357600080fd5b6136418f8c838901016136bd565b82840152505060808401358381111561365957600080fd5b6136678e8b838801016136bd565b60608301525090830135908282111561367f57600080fd5b61368d8d8a848701016136bd565b6080820152875250505092840192908401906001016135ad565b80356133798161484e565b80516133798161484e565b600082601f8301126136ce57600080fd5b81356136dc61339f82614724565b8181528460208386010111156136f157600080fd5b816020850160208301376000918101602001919091529392505050565b600082601f83011261371f57600080fd5b815161372d61339f82614724565b81815284602083860101111561374257600080fd5b6126e5826020830160208701614771565b80356133798161485c565b80516133798161485c565b60006020828403121561377b57600080fd5b81356115a481614839565b600080600080600060a0868803121561379e57600080fd5b85356137a981614839565b9450602086013567ffffffffffffffff808211156137c657600080fd5b6137d289838a016136bd565b955060408801359150808211156137e857600080fd5b6137f489838a016136bd565b9450606088013591508082111561380a57600080fd5b61381689838a016136bd565b9350608088013591508082111561382c57600080fd5b50613839888289016136bd565b9150509295509295909350565b60008060008060008060c0878903121561385f57600080fd5b6138688761336e565b9550602087013567ffffffffffffffff8082111561388557600080fd5b6138918a838b016136bd565b965060408901359150808211156138a757600080fd5b6138b38a838b016136bd565b955060608901359150808211156138c957600080fd5b6138d58a838b016136bd565b945060808901359150808211156138eb57600080fd5b6138f78a838b016136bd565b935060a089013591508082111561390d57600080fd5b5061391a89828a0161356c565b9150509295509295509295565b6000602080838503121561393a57600080fd5b823567ffffffffffffffff81111561395157600080fd5b8301601f8101851361396257600080fd5b803561397061339f82614700565b818152838101908385018584028501860189101561398d57600080fd5b600094505b838510156139b95780356139a581614839565b835260019490940193918501918501613992565b50979650505050505050565b600060208083850312156139d857600080fd5b825167ffffffffffffffff8111156139ef57600080fd5b8301601f81018513613a0057600080fd5b8051613a0e61339f82614700565b818152838101908385016080808502860187018a1015613a2d57600080fd5b600095505b84861015613aa85780828b031215613a4957600080fd5b613a51614689565b8251815287830151613a6281614839565b8189015260408381015160ff81168114613a7b57600080fd5b90820152606083810151613a8e8161485c565b908201528452600195909501949286019290810190613a32565b509098975050505050505050565b600060208284031215613ac857600080fd5b5035919050565b600080600080600080600060e0888a031215613aea57600080fd5b87359650613afa6020890161336e565b9550604088013567ffffffffffffffff80821115613b1757600080fd5b613b238b838c016136bd565b965060608a0135915080821115613b3957600080fd5b613b458b838c016136bd565b955060808a0135915080821115613b5b57600080fd5b613b678b838c016136bd565b945060a08a0135915080821115613b7d57600080fd5b50613b8a8a828b016136bd565b925050613b9960c089016136a7565b905092959891949750929550565b60008060408385031215613bba57600080fd5b82359150602083013567ffffffffffffffff811115613bd857600080fd5b613be4858286016136bd565b9150509250929050565b600060208284031215613c0057600080fd5b813567ffffffffffffffff811115613c1757600080fd5b6126e5848285016136bd565b600060208284031215613c3557600080fd5b815167ffffffffffffffff811115613c4c57600080fd5b6126e58482850161370e565b60008060008060808587031215613c6e57600080fd5b843567ffffffffffffffff80821115613c8657600080fd5b613c92888389016136bd565b95506020870135915080821115613ca857600080fd5b613cb4888389016136bd565b94506040870135915080821115613cca57600080fd5b613cd68883890161345c565b93506060870135915080821115613cec57600080fd5b50613cf98782880161337e565b91505092959194509250565b600060208284031215613d1757600080fd5b815167ffffffffffffffff80821115613d2f57600080fd5b9083019060e08286031215613d4357600080fd5b613d4b6146ac565b613d548361375e565b815260208301516020820152604083015182811115613d7257600080fd5b613d7e8782860161370e565b604083015250606083015182811115613d9657600080fd5b613da28782860161370e565b606083015250608083015182811115613dba57600080fd5b613dc6878286016134eb565b60808301525060a083015182811115613dde57600080fd5b613dea878286016133f6565b60a083015250613dfc60c084016136b2565b60c082015295945050505050565b600060808284031215613e1c57600080fd5b6040516080810181811067ffffffffffffffff82111715613e3f57613e3f614820565b6040528251613e4d81614839565b8082525060208301516020820152604083015160408201526060830151613e738161484e565b60608201529392505050565b600060608284031215613e9157600080fd5b6040516060810181811067ffffffffffffffff82111715613eb457613eb4614820565b604052825181526020830151613ec981614839565b60208201526040830151613edc8161484e565b60408201529392505050565b600060408284031215613efa57600080fd5b6040516040810181811067ffffffffffffffff82111715613f1d57613f1d614820565b6040528251613f2b8161484e565b81526020928301519281019290925250919050565b600060208284031215613f5257600080fd5b81356115a48161485c565b600060208284031215613f6f57600080fd5b81516115a48161485c565b60008060408385031215613f8d57600080fd5b8235613f988161485c565b91506020830135613fa881614839565b809150509250929050565b60008060008060008060c08789031215613fcc57600080fd5b613fd587613753565b9550613fe36020880161336e565b9450604087013567ffffffffffffffff8082111561400057600080fd5b61400c8a838b016136bd565b9550606089013591508082111561402257600080fd5b61402e8a838b016136bd565b9450608089013591508082111561404457600080fd5b6140508a838b016136bd565b935060a089013591508082111561406657600080fd5b5061391a89828a016136bd565b6000806040838503121561408657600080fd5b82356140918161485c565b9150602083013567ffffffffffffffff811115613bd857600080fd5b600080600080600060a086880312156140c557600080fd5b85356140d08161485c565b9450602086013567ffffffffffffffff808211156140ed57600080fd5b6140f989838a016136bd565b9550604088013591508082111561410f57600080fd5b61411b89838a016136bd565b9450606088013591508082111561413157600080fd5b61413d89838a0161345c565b9350608088013591508082111561415357600080fd5b506138398882890161337e565b6000806040838503121561417357600080fd5b823561417e8161485c565b946020939093013593505050565b600081518084526020808501945080840160005b838110156141c5578151600160a060020a0316875295820195908201906001016141a0565b509495945050505050565b600081518084526141e8816020860160208601614771565b601f01601f19169290920160200192915050565b67ffffffffffffffff8151168252600060208083015181850152604083015160e0604086015261422f60e08601826141d0565b90506060840151858203606087015261424882826141d0565b91505060808401518582036080870152818151808452848401915084858202850101858401935060005b828110156142a057601f1986830301845261428e8286516141d0565b94870194938701939150600101614272565b5060a0880151955088810360a08a01526142ba818761418c565b9550505050505060c08301516142d460c086018215159052565b509392505050565b600160a060020a038316815260a081016115a46020830184600160a060020a03815116825260208101516020830152604081015160408301526060810151151560608301525050565b600160a060020a0383168152606081016115a46020830184805115158252602090810151910152565b602080825282518282018190526000919060409081850190868401855b828110156143bb5781518051855286810151600160a060020a0316878601528581015160ff168686015260609081015167ffffffffffffffff16908501526080909301929085019060010161436b565b5091979650505050505050565b868152600160a060020a038616602082015260c0604082015260006143f060c08301876141d0565b828103606084015261440281876141d0565b9050828103608084015261441681866141d0565b905082810360a084015261442a81856141d0565b9998505050505050505050565b8281526040602082015260006126e560408301846141d0565b82815260606020820152600160608201527f5f00000000000000000000000000000000000000000000000000000000000000608082015260a0604082015260006126e560a08301846141d0565b828152608081016115a4602083018480518252602080820151600160a060020a0316908301526040908101511515910152565b6020815260006115a460208301846141d0565b60208082526017908201527f43616c6c6572206973206e6f7420746865206f776e6572000000000000000000604082015260600190565b60408152600760408201527f676c6f62616c5f0000000000000000000000000000000000000000000000000060608201526080602082015260006115a460808301846141d0565b6020815260006115a460208301846141fc565b8151600160a060020a03168152602080830151908201526040808301519082015260608083015115159082015260808101611171565b60208152600082516020808401526126e560408401826141d0565b81518152602080830151600160a060020a03169082015260408083015115159082015260608101611171565b67ffffffffffffffff8716815285602082015260c0604082015260006143f060c08301876141d0565b67ffffffffffffffff831681526040602082015260006126e560408301846141d0565b67ffffffffffffffff831681526040602082015260006126e560408301846141fc565b60405160a0810167ffffffffffffffff8111828210171561468357614683614820565b60405290565b6040516080810167ffffffffffffffff8111828210171561468357614683614820565b60405160e0810167ffffffffffffffff8111828210171561468357614683614820565b604051601f8201601f1916810167ffffffffffffffff811182821017156146f8576146f8614820565b604052919050565b600067ffffffffffffffff82111561471a5761471a614820565b5060209081020190565b600067ffffffffffffffff82111561473e5761473e614820565b50601f01601f191660200190565b60008261476c5760e060020a634e487b7102600052601260045260246000fd5b500490565b60005b8381101561478c578181015183820152602001614774565b838111156114d95750506000910152565b6002810460018216806147b157607f821691505b602082108114156147d55760e060020a634e487b7102600052602260045260246000fd5b50919050565b60006000198214156148005760e060020a634e487b7102600052601160045260246000fd5b5060010190565b60e060020a634e487b7102600052603260045260246000fd5b60e060020a634e487b7102600052604160045260246000fd5b600160a060020a038116811461096d57600080fd5b801515811461096d57600080fd5b67ffffffffffffffff8116811461096d57600080fdfea2646970667358221220686b7d0fb2e9529e25d711bde6cd56a4cac4c9ad5ab296a3b88da4493eca668364736f6c63430008070033",
  "immutableReferences": {},
  "source": "// SPDX-License-Identifier: UNLICENSED\npragma solidity ^0.8.7;\n\nimport './GetLoginStorage.sol';\n\ncontract GetLoginLogic {\n    GetLoginStorage public getLoginStorage;\n    address public owner;\n\n    // user settings\n    string settingsInviteReset = \"invite_reset\";\n    // global settings\n    string settingsInvitesOnly = \"invites_only\";\n\n    struct SessionData\n    {\n        uint64 appId;\n        string iv;\n        string ephemPublicKey;\n        string ciphertext;\n        string mac;\n    }\n\n    struct SettingsData\n    {\n        string inviteReset;\n    }\n\n    uint8 sessionMain = 1;\n    uint8 sessionApp = 2;\n\n    modifier onlyOwner() {\n        require(msg.sender == owner, \"Caller is not the owner\");\n        _;\n    }\n\n    function setOwner(address _address) onlyOwner public {\n        owner = _address;\n    }\n\n    function setStorageAddress(GetLoginStorage _address) onlyOwner public {\n        getLoginStorage = _address;\n    }\n\n    constructor(GetLoginStorage _getLoginStorage) {\n        owner = msg.sender;\n        getLoginStorage = _getLoginStorage;\n    }\n\n    function init() onlyOwner public {\n        bytes32 usernameHash = keccak256('admin');\n        GetLoginStorage.UserInfo memory info = getLoginStorage.getUser(usernameHash);\n        if (info.isActive != true) {\n            _createUser(usernameHash, msg.sender);\n            string[] memory allowedUrls;\n            address[] memory allowedContracts;\n            uint64 newAppId = _createApplication(usernameHash, 'GetLogin', 'GetLogin - auth app', allowedUrls, allowedContracts);\n            _addApplicationUrl(newAppId, 'https://localhost:3001/openid');\n            _addApplicationUrl(newAppId, 'https://localhost:3001/');\n            _addApplicationContract(newAppId, 0x9A0CDE760277DC3A4B2aC6E9D333Af45148eBb60);\n\n            _setGlobalSettings(settingsInvitesOnly, \"false\");\n        }\n    }\n\n    /* Private methods */\n    function _createUser(bytes32 usernameHash, address ownerWallet) private {\n        require(isUsernameExists(usernameHash) == false, \"Username already used\");\n        require(isAddressRegistered(ownerWallet) == false, \"Wallet already used\");\n\n        getLoginStorage.setUser(usernameHash, GetLoginStorage.UserInfo({username : usernameHash, isActive : true, mainAddress : ownerWallet}));\n        getLoginStorage.setUsersAddressUsername(ownerWallet, GetLoginStorage.Username({username : usernameHash, isActive : true}));\n        _addSessionInit(usernameHash, ownerWallet, sessionMain, 0);\n    }\n\n    function _createApplication(bytes32 usernameHash, string memory title, string memory description, string[] memory allowedUrls, address[] memory allowedContracts) private returns (uint64) {\n        uint64 appId = getLoginStorage.applicationId();\n        getLoginStorage.setApplication(appId, GetLoginStorage.Application({id : appId, usernameHash : usernameHash, title : title, description : description, allowedUrls : allowedUrls, allowedContracts : allowedContracts, isActive : true}));\n        getLoginStorage.incrementApplicationId();\n        getLoginStorage.emitEventAppCreated(usernameHash, appId);\n\n        return appId;\n    }\n\n    function _addApplicationUrl(uint64 appId, string memory url) private {\n        getLoginStorage.pushApplicationUrl(appId, url);\n    }\n\n    function _addApplicationContract(uint64 appId, address wallet) private {\n        getLoginStorage.pushApplicationContract(appId, wallet);\n    }\n\n    function _deleteApplicationUrl(uint64 appId, uint index) private {\n        getLoginStorage.deleteApplicationUrl(appId, index);\n    }\n\n    function _deleteApplicationContract(uint64 appId, uint index) private {\n        getLoginStorage.deleteApplicationContract(appId, index);\n    }\n\n    function _setApplicationActive(uint64 appId, bool isActive) private {\n        GetLoginStorage.Application memory app = getLoginStorage.getApplication(appId);\n        app.isActive = isActive;\n        getLoginStorage.setApplication(appId, app);\n    }\n\n    function _addSessionInit(bytes32 usernameHash, address wallet, uint8 sessionType, uint64 appId) private {\n        getLoginStorage.pushUserSession(usernameHash, wallet, sessionType, appId);\n    }\n\n    function _addSession(address wallet, uint8 sessionType, uint64 appId) private {\n        validateAppExists(appId);\n        validateAddressRegistered(wallet);\n        bytes32 usernameHash = getUsernameByAddress(wallet);\n        //UserSessions[usernameHash].push(UserSession({username : usernameHash, wallet : wallet, sessionType : sessionType, appId : appId}));\n        getLoginStorage.pushUserSession(usernameHash, wallet, sessionType, appId);\n    }\n\n    function _setUserSettings(bytes32 usernameHash, string memory key, string memory value) private {\n        // todo inspect is correct way\n        bytes32 keyHash = keccak256(abi.encode(usernameHash, \"_\", key));\n        getLoginStorage.setSettings(keyHash, value);\n    }\n\n    function _setGlobalSettings(string memory key, string memory value) private {\n        bytes32 keyHash = keccak256(abi.encode(\"global_\", key));\n        getLoginStorage.setSettings(keyHash, value);\n    }\n\n    /* End of private methods */\n\n    /* Validators */\n    function validateAppOwner(uint64 appId, address wallet) public view {\n        // todo check is user address is not session\n        validateAddressRegistered(wallet);\n        require(isAppOwner(appId, wallet), \"You do not have access to this application\");\n    }\n\n    function validateAppExists(uint64 appId) public view {\n        GetLoginStorage.Application memory app = getLoginStorage.getApplication(appId);\n        require(app.isActive, \"App not found\");\n    }\n\n    function validateInviteActive(address wallet) public view {\n        require(isActiveInvite(wallet), \"Invite not active\");\n    }\n\n    function validateAddressRegistered(address wallet) public view {\n        require(isAddressRegistered(wallet), \"Address not registered\");\n    }\n\n    function validateAddressAvailable(address wallet) public view {\n        require(isAddressRegistered(wallet) == false, \"Address already registered\");\n    }\n\n    function validateInviteAvailable(address wallet) public view {\n        require(isInviteAddressUsed(wallet) == false, \"This address already used for invite\");\n    }\n    /* End validators */\n\n    /* Public methods */\n    function createApplication(string memory title, string memory description, string[] memory allowedUrls, address[] memory allowedContracts) public returns (uint64) {\n        // todo only main session can create and edit app (check it in top hierarchy method)?\n        validateAddressRegistered(msg.sender);\n        bytes32 usernameHash = getUsernameByAddress(msg.sender);\n        return _createApplication(usernameHash, title, description, allowedUrls, allowedContracts);\n    }\n\n    function editApplication(uint64 appId, string memory title, string memory description, string[] memory allowedUrls, address[] memory allowedContracts) public {\n        validateAppExists(appId);\n        validateAppOwner(appId, msg.sender);\n        GetLoginStorage.Application memory app = getLoginStorage.getApplication(appId);\n        app.title = title;\n        app.description = description;\n        app.allowedUrls = allowedUrls;\n        app.allowedContracts = allowedContracts;\n        getLoginStorage.setApplication(appId, app);\n    }\n\n    function addApplicationUrl(uint64 appId, string memory url) public {\n        validateAppExists(appId);\n        validateAppOwner(appId, msg.sender);\n        _addApplicationUrl(appId, url);\n    }\n\n    function addApplicationContract(uint64 appId, address wallet) public {\n        validateAppExists(appId);\n        validateAppOwner(appId, msg.sender);\n        _addApplicationContract(appId, wallet);\n    }\n\n    function deleteApplicationUrl(uint64 appId, uint index) public {\n        validateAppExists(appId);\n        validateAppOwner(appId, msg.sender);\n        _deleteApplicationUrl(appId, index);\n    }\n\n    function deleteApplicationContract(uint64 appId, uint index) public {\n        validateAppExists(appId);\n        validateAppOwner(appId, msg.sender);\n        _deleteApplicationContract(appId, index);\n    }\n\n    function deleteApplication(uint64 appId) public {\n        validateAppExists(appId);\n        validateAppOwner(appId, msg.sender);\n        _setApplicationActive(appId, false);\n    }\n\n    function restoreApplication(uint64 appId) public {\n        //validateAppExists(appId);\n        validateAppOwner(appId, msg.sender);\n        _setApplicationActive(appId, true);\n    }\n\n    function createUser(bytes32 usernameHash) public payable {\n        require(keccak256(abi.encode(getGlobalSettings(settingsInvitesOnly))) == keccak256(abi.encode(\"false\")), \"Not allowed to signup without invite\");\n\n        _createUser(usernameHash, msg.sender);\n    }\n\n    function createInvite(address payable[] memory invites) public payable {\n        // todo only main session can create invite\n        validateAddressRegistered(msg.sender);\n        for (uint i = 0; i < invites.length; i++) {\n            validateInviteAvailable(invites[i]);\n        }\n\n        bytes32 creatorUsernameHash = getUsernameByAddress(msg.sender);\n        uint256 val = 0;\n        if (msg.value > 0 && invites.length > 0) {\n            val = msg.value / invites.length;\n        }\n\n        for (uint i = 0; i < invites.length; i++) {\n            address payable inviteAddress = invites[i];\n            getLoginStorage.setInvite(inviteAddress, GetLoginStorage.InviteInfo({inviteAddress : inviteAddress, creatorUsername : creatorUsernameHash, registeredUsername : '', isActive : true}));\n            if (val > 0) {\n                inviteAddress.transfer(val);\n            }\n\n            getLoginStorage.emitEventInviteCreated(creatorUsernameHash, inviteAddress);\n        }\n    }\n\n    function createUserFromInvite(bytes32 usernameHash, address payable walletAddress, string memory ciphertext, string memory iv, string memory salt, string memory mac, bool allowReset) public payable {\n        validateInviteActive(msg.sender);\n        require(isAddressRegistered(walletAddress) == false, \"Address already registered\");\n\n        GetLoginStorage.InviteInfo memory invite = getLoginStorage.getInvite(msg.sender);\n        _createUser(usernameHash, walletAddress);\n        invite.isActive = false;\n        invite.registeredUsername = usernameHash;\n        getLoginStorage.setInvite(msg.sender, invite);\n        walletAddress.transfer(msg.value);\n        _setUserSettings(usernameHash, settingsInviteReset, allowReset ? \"true\" : \"false\");\n        getLoginStorage.emitEventStoreWallet(usernameHash, walletAddress, ciphertext, iv, salt, mac);\n    }\n\n    function changePassword(address payable walletAddress, string memory ciphertext, string memory iv, string memory salt, string memory mac, SessionData[] memory sessions) public payable {\n        validateAddressRegistered(msg.sender);\n        validateAddressAvailable(walletAddress);\n\n        bytes32 usernameHash = getUsernameByAddress(msg.sender);\n        // activate new wallet address\n        getLoginStorage.setUsersAddressUsername(walletAddress, GetLoginStorage.Username({username : usernameHash, isActive : true}));\n        // deactivate old wallet address\n        getLoginStorage.setUsersAddressUsername(msg.sender, GetLoginStorage.Username({username : usernameHash, isActive : false}));\n        // change user's main address\n        getLoginStorage.setUser(usernameHash, GetLoginStorage.UserInfo({username : usernameHash, isActive : true, mainAddress : walletAddress}));\n        // add change to the history todo: why?\n        _addSessionInit(usernameHash, walletAddress, sessionMain, 0);\n        // move all received funds to the new address\n        walletAddress.transfer(msg.value);\n        getLoginStorage.emitEventStoreWallet(usernameHash, walletAddress, ciphertext, iv, salt, mac);\n        // replace all sessions with re-encoded ones\n        for (uint i = 0; i < sessions.length; i++) {\n            SessionData memory session = sessions[i];\n            getLoginStorage.emitEventAppSession(session.appId, usernameHash, session.iv, session.ephemPublicKey, session.ciphertext, session.mac);\n        }\n    }\n\n    function createAppSession(uint64 appId, address payable wallet, string memory iv, string memory ephemPublicKey, string memory ciphertext, string memory mac) public payable {\n        validateAddressRegistered(msg.sender);\n        validateAppExists(appId);\n        bytes32 usernameHash = getUsernameByAddress(msg.sender);\n        // todo check only one main session possible\n        // todo hide user apps ids?\n        getLoginStorage.setUsersAddressUsername(wallet, GetLoginStorage.Username({isActive : true, username : usernameHash}));\n        wallet.transfer(msg.value);\n        getLoginStorage.emitEventAppSession(appId, usernameHash, iv, ephemPublicKey, ciphertext, mac);\n    }\n\n    function resetPassword(address payable walletAddress, string memory ciphertext, string memory iv, string memory salt, string memory mac) public payable {\n        GetLoginStorage.InviteInfo memory invite = getLoginStorage.getInvite(msg.sender);\n        require(invite.isActive == false, \"Only inactive invite can reset password\");\n        // todo check is correct\n        require(invite.registeredUsername != \"\", \"Only invite with username can reset password\");\n        require(keccak256(abi.encode(getInviteReset(invite.registeredUsername))) == keccak256(abi.encode(\"true\")), \"Settings not allow reset password\");\n\n        getLoginStorage.setUsersAddressUsername(walletAddress, GetLoginStorage.Username({username : invite.registeredUsername, isActive : true}));\n        walletAddress.transfer(msg.value);\n        getLoginStorage.emitEventStoreWallet(invite.registeredUsername, walletAddress, ciphertext, iv, salt, mac);\n    }\n\n    /*function addMainSession(address wallet) public payable {\n        validateAddressRegistered(msg.sender);\n        _addSession(wallet, sessionApp, 0);\n    }*/\n\n    function setInviteReset(string memory value) public {\n        bytes32 usernameHash = getUsernameByAddress(msg.sender);\n        _setUserSettings(usernameHash, settingsInviteReset, value);\n    }\n\n    function setGlobalOnlyInvites(string memory value) onlyOwner public {\n        _setGlobalSettings(settingsInvitesOnly, value);\n    }\n\n    /* End of public methods */\n\n    /* View methods */\n    function getApplication(uint64 id) public view returns (GetLoginStorage.Application memory) {\n        validateAppExists(id);\n\n        return getLoginStorage.getApplication(id);\n    }\n\n    function getUserInfo(bytes32 usernameHash) public view returns (GetLoginStorage.UserInfo memory) {\n        //return Users[usernameHash];\n        return getLoginStorage.getUser(usernameHash);\n    }\n\n    function isUsernameExists(bytes32 usernameHash) public view returns (bool) {\n        return getUserInfo(usernameHash).isActive;\n    }\n\n    function isAddressRegistered(address wallet) public view returns (bool) {\n        GetLoginStorage.Username memory currentUser = getLoginStorage.getUsersAddressUsername(wallet);\n        if (currentUser.isActive != true) {\n            return false;\n        }\n\n        GetLoginStorage.UserInfo memory info = getLoginStorage.getUser(currentUser.username);\n\n        return info.isActive;\n    }\n\n    function isAppOwner(uint64 appId, address checkAddress) public view returns (bool) {\n        bytes32 currentUsernameHash = getUsernameByAddress(checkAddress);\n        return getLoginStorage.getApplication(appId).usernameHash == currentUsernameHash;\n    }\n\n    function getUserByAddress(address wallet) public view returns (GetLoginStorage.UserInfo memory) {\n        GetLoginStorage.Username memory currentUser = getLoginStorage.getUsersAddressUsername(wallet);\n        require(currentUser.isActive, \"User with this address not found\");\n        return getLoginStorage.getUser(currentUser.username);\n    }\n\n    function getUsernameByAddress(address wallet) public view returns (bytes32) {\n        return getUserByAddress(wallet).username;\n    }\n\n    function isActiveInvite(address wallet) public view returns (bool) {\n        GetLoginStorage.InviteInfo memory info = getLoginStorage.getInvite(wallet);\n        return info.isActive;\n    }\n\n    function isInviteAddressUsed(address wallet) public view returns (bool) {\n        GetLoginStorage.InviteInfo memory info = getLoginStorage.getInvite(wallet);\n        return info.creatorUsername != '';\n    }\n\n    function getInvite(address wallet) public view returns (GetLoginStorage.InviteInfo memory) {\n        return getLoginStorage.getInvite(wallet);\n    }\n\n    function getUserSessions(bytes32 usernameHash) public view returns (GetLoginStorage.UserSession[] memory) {\n        return getLoginStorage.getUserSessions(usernameHash);\n    }\n\n    function getAllSettings(bytes32 usernameHash) public view returns (SettingsData memory) {\n        return SettingsData({inviteReset : getInviteReset(usernameHash)});\n    }\n\n    function getSettings(bytes32 usernameHash, string memory key) public view returns (string memory) {\n        // todo inspect is correct way / collisions possible\n        bytes32 keyHash = keccak256(abi.encode(usernameHash, \"_\", key));\n        return getLoginStorage.getSettings(keyHash);\n    }\n\n    function getGlobalSettings(string memory key) public view returns (string memory) {\n        bytes32 keyHash = keccak256(abi.encode(\"global_\", key));\n        return getLoginStorage.getSettings(keyHash);\n    }\n\n    function getInviteReset(bytes32 usernameHash) public view returns (string memory) {\n        return getSettings(usernameHash, settingsInviteReset);\n    }\n\n    /* End of view methods */\n}\n",
  "sourcePath": "/Users/sdancer/web/login/src/smart/contracts/GetLoginLogic.sol",
  "compiler": {
    "name": "solc",
    "version": "0.8.7+commit.e28d00a7.Emscripten.clang"
  },
  "schemaVersion": "3.4.3",
  "updatedAt": "2021-08-28T12:25:17.065Z",
  "networkType": "ethereum",
  "devdoc": {
    "kind": "dev",
    "methods": {},
    "version": 1
  },
  "userdoc": {
    "kind": "user",
    "methods": {},
    "version": 1
  }
}