{
  "contractName": "GetLoginLogic",
  "abi": [
    {
      "inputs": [
        {
          "internalType": "contract GetLoginStorage",
          "name": "_getLoginStorage",
          "type": "address"
        }
      ],
      "stateMutability": "nonpayable",
      "type": "constructor"
    },
    {
      "inputs": [],
      "name": "getLoginStorage",
      "outputs": [
        {
          "internalType": "contract GetLoginStorage",
          "name": "",
          "type": "address"
        }
      ],
      "stateMutability": "view",
      "type": "function",
      "constant": true
    },
    {
      "inputs": [],
      "name": "owner",
      "outputs": [
        {
          "internalType": "address",
          "name": "",
          "type": "address"
        }
      ],
      "stateMutability": "view",
      "type": "function",
      "constant": true
    },
    {
      "inputs": [
        {
          "internalType": "address",
          "name": "_address",
          "type": "address"
        }
      ],
      "name": "setOwner",
      "outputs": [],
      "stateMutability": "nonpayable",
      "type": "function"
    },
    {
      "inputs": [
        {
          "internalType": "contract GetLoginStorage",
          "name": "_address",
          "type": "address"
        }
      ],
      "name": "setStorageAddress",
      "outputs": [],
      "stateMutability": "nonpayable",
      "type": "function"
    },
    {
      "inputs": [],
      "name": "init",
      "outputs": [],
      "stateMutability": "nonpayable",
      "type": "function"
    },
    {
      "inputs": [
        {
          "internalType": "uint64",
          "name": "appId",
          "type": "uint64"
        },
        {
          "internalType": "address",
          "name": "wallet",
          "type": "address"
        }
      ],
      "name": "validateAppOwner",
      "outputs": [],
      "stateMutability": "view",
      "type": "function",
      "constant": true
    },
    {
      "inputs": [
        {
          "internalType": "uint64",
          "name": "appId",
          "type": "uint64"
        }
      ],
      "name": "validateAppExists",
      "outputs": [],
      "stateMutability": "view",
      "type": "function",
      "constant": true
    },
    {
      "inputs": [
        {
          "internalType": "address",
          "name": "wallet",
          "type": "address"
        }
      ],
      "name": "validateInviteActive",
      "outputs": [],
      "stateMutability": "view",
      "type": "function",
      "constant": true
    },
    {
      "inputs": [
        {
          "internalType": "address",
          "name": "wallet",
          "type": "address"
        }
      ],
      "name": "validateAddressRegistered",
      "outputs": [],
      "stateMutability": "view",
      "type": "function",
      "constant": true
    },
    {
      "inputs": [
        {
          "internalType": "address",
          "name": "wallet",
          "type": "address"
        }
      ],
      "name": "validateAddressAvailable",
      "outputs": [],
      "stateMutability": "view",
      "type": "function",
      "constant": true
    },
    {
      "inputs": [
        {
          "internalType": "address",
          "name": "wallet",
          "type": "address"
        }
      ],
      "name": "validateInviteAvailable",
      "outputs": [],
      "stateMutability": "view",
      "type": "function",
      "constant": true
    },
    {
      "inputs": [
        {
          "internalType": "string",
          "name": "title",
          "type": "string"
        },
        {
          "internalType": "string",
          "name": "description",
          "type": "string"
        },
        {
          "internalType": "string[]",
          "name": "allowedUrls",
          "type": "string[]"
        },
        {
          "internalType": "address[]",
          "name": "allowedContracts",
          "type": "address[]"
        }
      ],
      "name": "createApplication",
      "outputs": [
        {
          "internalType": "uint64",
          "name": "",
          "type": "uint64"
        }
      ],
      "stateMutability": "nonpayable",
      "type": "function"
    },
    {
      "inputs": [
        {
          "internalType": "uint64",
          "name": "appId",
          "type": "uint64"
        },
        {
          "internalType": "string",
          "name": "title",
          "type": "string"
        },
        {
          "internalType": "string",
          "name": "description",
          "type": "string"
        },
        {
          "internalType": "string[]",
          "name": "allowedUrls",
          "type": "string[]"
        },
        {
          "internalType": "address[]",
          "name": "allowedContracts",
          "type": "address[]"
        }
      ],
      "name": "editApplication",
      "outputs": [],
      "stateMutability": "nonpayable",
      "type": "function"
    },
    {
      "inputs": [
        {
          "internalType": "uint64",
          "name": "appId",
          "type": "uint64"
        },
        {
          "internalType": "string",
          "name": "url",
          "type": "string"
        }
      ],
      "name": "addApplicationUrl",
      "outputs": [],
      "stateMutability": "nonpayable",
      "type": "function"
    },
    {
      "inputs": [
        {
          "internalType": "uint64",
          "name": "appId",
          "type": "uint64"
        },
        {
          "internalType": "address",
          "name": "wallet",
          "type": "address"
        }
      ],
      "name": "addApplicationContract",
      "outputs": [],
      "stateMutability": "nonpayable",
      "type": "function"
    },
    {
      "inputs": [
        {
          "internalType": "uint64",
          "name": "appId",
          "type": "uint64"
        },
        {
          "internalType": "uint256",
          "name": "index",
          "type": "uint256"
        }
      ],
      "name": "deleteApplicationUrl",
      "outputs": [],
      "stateMutability": "nonpayable",
      "type": "function"
    },
    {
      "inputs": [
        {
          "internalType": "uint64",
          "name": "appId",
          "type": "uint64"
        },
        {
          "internalType": "uint256",
          "name": "index",
          "type": "uint256"
        }
      ],
      "name": "deleteApplicationContract",
      "outputs": [],
      "stateMutability": "nonpayable",
      "type": "function"
    },
    {
      "inputs": [
        {
          "internalType": "uint64",
          "name": "appId",
          "type": "uint64"
        }
      ],
      "name": "deleteApplication",
      "outputs": [],
      "stateMutability": "nonpayable",
      "type": "function"
    },
    {
      "inputs": [
        {
          "internalType": "uint64",
          "name": "appId",
          "type": "uint64"
        }
      ],
      "name": "restoreApplication",
      "outputs": [],
      "stateMutability": "nonpayable",
      "type": "function"
    },
    {
      "inputs": [
        {
          "internalType": "bytes32",
          "name": "usernameHash",
          "type": "bytes32"
        }
      ],
      "name": "createUser",
      "outputs": [],
      "stateMutability": "payable",
      "type": "function",
      "payable": true
    },
    {
      "inputs": [
        {
          "internalType": "address payable[]",
          "name": "invites",
          "type": "address[]"
        }
      ],
      "name": "createInvite",
      "outputs": [],
      "stateMutability": "payable",
      "type": "function",
      "payable": true
    },
    {
      "inputs": [
        {
          "internalType": "bytes32",
          "name": "usernameHash",
          "type": "bytes32"
        },
        {
          "internalType": "address payable",
          "name": "walletAddress",
          "type": "address"
        },
        {
          "internalType": "string",
          "name": "ciphertext",
          "type": "string"
        },
        {
          "internalType": "string",
          "name": "iv",
          "type": "string"
        },
        {
          "internalType": "string",
          "name": "salt",
          "type": "string"
        },
        {
          "internalType": "string",
          "name": "mac",
          "type": "string"
        },
        {
          "internalType": "bool",
          "name": "allowReset",
          "type": "bool"
        }
      ],
      "name": "createUserFromInvite",
      "outputs": [],
      "stateMutability": "payable",
      "type": "function",
      "payable": true
    },
    {
      "inputs": [
        {
          "internalType": "address payable",
          "name": "walletAddress",
          "type": "address"
        },
        {
          "internalType": "string",
          "name": "ciphertext",
          "type": "string"
        },
        {
          "internalType": "string",
          "name": "iv",
          "type": "string"
        },
        {
          "internalType": "string",
          "name": "salt",
          "type": "string"
        },
        {
          "internalType": "string",
          "name": "mac",
          "type": "string"
        },
        {
          "components": [
            {
              "internalType": "uint64",
              "name": "appId",
              "type": "uint64"
            },
            {
              "internalType": "string",
              "name": "iv",
              "type": "string"
            },
            {
              "internalType": "string",
              "name": "ephemPublicKey",
              "type": "string"
            },
            {
              "internalType": "string",
              "name": "ciphertext",
              "type": "string"
            },
            {
              "internalType": "string",
              "name": "mac",
              "type": "string"
            }
          ],
          "internalType": "struct GetLoginLogic.SessionData[]",
          "name": "sessions",
          "type": "tuple[]"
        }
      ],
      "name": "changePassword",
      "outputs": [],
      "stateMutability": "payable",
      "type": "function",
      "payable": true
    },
    {
      "inputs": [
        {
          "internalType": "uint64",
          "name": "appId",
          "type": "uint64"
        },
        {
          "internalType": "address payable",
          "name": "wallet",
          "type": "address"
        },
        {
          "internalType": "string",
          "name": "iv",
          "type": "string"
        },
        {
          "internalType": "string",
          "name": "ephemPublicKey",
          "type": "string"
        },
        {
          "internalType": "string",
          "name": "ciphertext",
          "type": "string"
        },
        {
          "internalType": "string",
          "name": "mac",
          "type": "string"
        }
      ],
      "name": "createAppSession",
      "outputs": [],
      "stateMutability": "payable",
      "type": "function",
      "payable": true
    },
    {
      "inputs": [
        {
          "internalType": "address payable",
          "name": "walletAddress",
          "type": "address"
        },
        {
          "internalType": "string",
          "name": "ciphertext",
          "type": "string"
        },
        {
          "internalType": "string",
          "name": "iv",
          "type": "string"
        },
        {
          "internalType": "string",
          "name": "salt",
          "type": "string"
        },
        {
          "internalType": "string",
          "name": "mac",
          "type": "string"
        }
      ],
      "name": "resetPassword",
      "outputs": [],
      "stateMutability": "payable",
      "type": "function",
      "payable": true
    },
    {
      "inputs": [
        {
          "internalType": "string",
          "name": "value",
          "type": "string"
        }
      ],
      "name": "setInviteReset",
      "outputs": [],
      "stateMutability": "nonpayable",
      "type": "function"
    },
    {
      "inputs": [
        {
          "internalType": "uint64",
          "name": "id",
          "type": "uint64"
        }
      ],
      "name": "getApplication",
      "outputs": [
        {
          "components": [
            {
              "internalType": "uint64",
              "name": "id",
              "type": "uint64"
            },
            {
              "internalType": "bytes32",
              "name": "usernameHash",
              "type": "bytes32"
            },
            {
              "internalType": "string",
              "name": "title",
              "type": "string"
            },
            {
              "internalType": "string",
              "name": "description",
              "type": "string"
            },
            {
              "internalType": "string[]",
              "name": "allowedUrls",
              "type": "string[]"
            },
            {
              "internalType": "address[]",
              "name": "allowedContracts",
              "type": "address[]"
            },
            {
              "internalType": "bool",
              "name": "isActive",
              "type": "bool"
            }
          ],
          "internalType": "struct GetLoginStorage.Application",
          "name": "",
          "type": "tuple"
        }
      ],
      "stateMutability": "view",
      "type": "function",
      "constant": true
    },
    {
      "inputs": [
        {
          "internalType": "bytes32",
          "name": "usernameHash",
          "type": "bytes32"
        }
      ],
      "name": "getUserInfo",
      "outputs": [
        {
          "components": [
            {
              "internalType": "bytes32",
              "name": "username",
              "type": "bytes32"
            },
            {
              "internalType": "bool",
              "name": "isActive",
              "type": "bool"
            }
          ],
          "internalType": "struct GetLoginStorage.UserInfo",
          "name": "",
          "type": "tuple"
        }
      ],
      "stateMutability": "view",
      "type": "function",
      "constant": true
    },
    {
      "inputs": [
        {
          "internalType": "bytes32",
          "name": "usernameHash",
          "type": "bytes32"
        }
      ],
      "name": "isUsernameExists",
      "outputs": [
        {
          "internalType": "bool",
          "name": "",
          "type": "bool"
        }
      ],
      "stateMutability": "view",
      "type": "function",
      "constant": true
    },
    {
      "inputs": [
        {
          "internalType": "address",
          "name": "wallet",
          "type": "address"
        }
      ],
      "name": "isAddressRegistered",
      "outputs": [
        {
          "internalType": "bool",
          "name": "",
          "type": "bool"
        }
      ],
      "stateMutability": "view",
      "type": "function",
      "constant": true
    },
    {
      "inputs": [
        {
          "internalType": "uint64",
          "name": "appId",
          "type": "uint64"
        },
        {
          "internalType": "address",
          "name": "checkAddress",
          "type": "address"
        }
      ],
      "name": "isAppOwner",
      "outputs": [
        {
          "internalType": "bool",
          "name": "",
          "type": "bool"
        }
      ],
      "stateMutability": "view",
      "type": "function",
      "constant": true
    },
    {
      "inputs": [
        {
          "internalType": "address",
          "name": "wallet",
          "type": "address"
        }
      ],
      "name": "getUserByAddress",
      "outputs": [
        {
          "components": [
            {
              "internalType": "bytes32",
              "name": "username",
              "type": "bytes32"
            },
            {
              "internalType": "bool",
              "name": "isActive",
              "type": "bool"
            }
          ],
          "internalType": "struct GetLoginStorage.UserInfo",
          "name": "",
          "type": "tuple"
        }
      ],
      "stateMutability": "view",
      "type": "function",
      "constant": true
    },
    {
      "inputs": [
        {
          "internalType": "address",
          "name": "wallet",
          "type": "address"
        }
      ],
      "name": "getUsernameByAddress",
      "outputs": [
        {
          "internalType": "bytes32",
          "name": "",
          "type": "bytes32"
        }
      ],
      "stateMutability": "view",
      "type": "function",
      "constant": true
    },
    {
      "inputs": [
        {
          "internalType": "address",
          "name": "wallet",
          "type": "address"
        }
      ],
      "name": "isActiveInvite",
      "outputs": [
        {
          "internalType": "bool",
          "name": "",
          "type": "bool"
        }
      ],
      "stateMutability": "view",
      "type": "function",
      "constant": true
    },
    {
      "inputs": [
        {
          "internalType": "address",
          "name": "wallet",
          "type": "address"
        }
      ],
      "name": "isInviteAddressUsed",
      "outputs": [
        {
          "internalType": "bool",
          "name": "",
          "type": "bool"
        }
      ],
      "stateMutability": "view",
      "type": "function",
      "constant": true
    },
    {
      "inputs": [
        {
          "internalType": "address",
          "name": "wallet",
          "type": "address"
        }
      ],
      "name": "getInvite",
      "outputs": [
        {
          "components": [
            {
              "internalType": "address",
              "name": "inviteAddress",
              "type": "address"
            },
            {
              "internalType": "bytes32",
              "name": "creatorUsername",
              "type": "bytes32"
            },
            {
              "internalType": "bytes32",
              "name": "registeredUsername",
              "type": "bytes32"
            },
            {
              "internalType": "bool",
              "name": "isActive",
              "type": "bool"
            }
          ],
          "internalType": "struct GetLoginStorage.InviteInfo",
          "name": "",
          "type": "tuple"
        }
      ],
      "stateMutability": "view",
      "type": "function",
      "constant": true
    },
    {
      "inputs": [
        {
          "internalType": "bytes32",
          "name": "usernameHash",
          "type": "bytes32"
        }
      ],
      "name": "getUserSessions",
      "outputs": [
        {
          "components": [
            {
              "internalType": "bytes32",
              "name": "username",
              "type": "bytes32"
            },
            {
              "internalType": "address",
              "name": "wallet",
              "type": "address"
            },
            {
              "internalType": "uint8",
              "name": "sessionType",
              "type": "uint8"
            },
            {
              "internalType": "uint64",
              "name": "appId",
              "type": "uint64"
            }
          ],
          "internalType": "struct GetLoginStorage.UserSession[]",
          "name": "",
          "type": "tuple[]"
        }
      ],
      "stateMutability": "view",
      "type": "function",
      "constant": true
    },
    {
      "inputs": [
        {
          "internalType": "bytes32",
          "name": "usernameHash",
          "type": "bytes32"
        }
      ],
      "name": "getAllSettings",
      "outputs": [
        {
          "components": [
            {
              "internalType": "string",
              "name": "inviteReset",
              "type": "string"
            }
          ],
          "internalType": "struct GetLoginLogic.SettingsData",
          "name": "",
          "type": "tuple"
        }
      ],
      "stateMutability": "view",
      "type": "function",
      "constant": true
    },
    {
      "inputs": [
        {
          "internalType": "bytes32",
          "name": "usernameHash",
          "type": "bytes32"
        },
        {
          "internalType": "string",
          "name": "key",
          "type": "string"
        }
      ],
      "name": "getSettings",
      "outputs": [
        {
          "internalType": "string",
          "name": "",
          "type": "string"
        }
      ],
      "stateMutability": "view",
      "type": "function",
      "constant": true
    },
    {
      "inputs": [
        {
          "internalType": "bytes32",
          "name": "usernameHash",
          "type": "bytes32"
        }
      ],
      "name": "getInviteReset",
      "outputs": [
        {
          "internalType": "string",
          "name": "",
          "type": "string"
        }
      ],
      "stateMutability": "view",
      "type": "function",
      "constant": true
    }
  ],
  "bytecode": "0x60c0604052600c60808190527f696e766974655f7265736574000000000000000000000000000000000000000060a0908152620000409160029190620000b4565b506003805461ffff19166102011790553480156200005d57600080fd5b50604051620044b2380380620044b283398101604081905262000080916200015a565b6001805433600160a060020a03199182161790915560008054909116600160a060020a0392909216919091179055620001e2565b828054620000c2906200018c565b90600052602060002090601f016020900481019282620000e6576000855562000131565b82601f106200010157805160ff191683800117855562000131565b8280016001018555821562000131579182015b828111156200013157825182559160200191906001019062000114565b506200013f92915062000143565b5090565b5b808211156200013f576000815560010162000144565b6000602082840312156200016d57600080fd5b8151600160a060020a03811681146200018557600080fd5b9392505050565b600281046001821680620001a157607f821691505b60208210811415620001dc577f4e487b7100000000000000000000000000000000000000000000000000000000600052602260045260246000fd5b50919050565b6142c080620001f26000396000f3fe608060405260043610610258576000357c010000000000000000000000000000000000000000000000000000000090048063880faf6f1161014b578063c5ee2740116100c8578063ec46474c1161008c578063ec46474c146106fa578063ed1a998d1461071a578063ef32358d14610748578063fd8991cc14610768578063ff6e97401461078857600080fd5b8063c5ee274014610672578063cc35c9fc14610685578063db939c75146106a5578063df8c18d1146106c5578063e1c7392a146106e557600080fd5b8063abf7bfd81161010f578063abf7bfd8146105d2578063ac7a3cc0146105e5578063adff8b0f14610605578063b3d8b20e14610625578063b94f28d21461065257600080fd5b8063880faf6f146105325780638c3ab381146105525780638da5cb5b14610572578063a182c73614610592578063abc040ca146105b257600080fd5b806349395fe7116101d957806369c212f61161019d57806369c212f6146104605780636b51503b1461048d5780637419d934146104ba5780637b06c09c146104f2578063863f99b61461051257600080fd5b806349395fe7146103cd57806359b910d6146103e057806361c65e2c1461040057806364e34e111461042d5780636768fcd31461044d57600080fd5b80631be7c3bd116102205780631be7c3bd146103145780631c964f971461034d578063209090931461036d5780632226e4381461038057806338b6a3a1146103ad57600080fd5b8063117714be1461025d57806313af40351461029257806314332258146102b45780631618ddab146102d457806316e4f57a146102e7575b600080fd5b34801561026957600080fd5b5061027d61027836600461321a565b6107a8565b60405190151581526020015b60405180910390f35b34801561029e57600080fd5b506102b26102ad36600461321a565b610834565b005b3480156102c057600080fd5b506102b26102cf36600461321a565b610899565b6102b26102e23660046132f7565b61091a565b3480156102f357600080fd5b50610307610302366004613567565b610bdd565b6040516102899190613fb2565b34801561032057600080fd5b5061033461032f366004613709565b610c08565b60405167ffffffffffffffff9091168152602001610289565b34801561035957600080fd5b506102b2610368366004613ad5565b610c37565b6102b261037b366004613580565b610c58565b34801561038c57600080fd5b506103a061039b3660046139a2565b610fa1565b6040516102899190613f69565b3480156103b957600080fd5b5061027d6103c836600461321a565b61108b565b6102b26103db3660046133d8565b6111ce565b3480156103ec57600080fd5b506102b26103fb36600461321a565b6113f2565b34801561040c57600080fd5b5061042061041b36600461321a565b61144e565b6040516102899190613f7c565b34801561043957600080fd5b5061027d6104483660046139dc565b6114f2565b6102b261045b366004613237565b61159c565b34801561046c57600080fd5b5061048061047b36600461321a565b611955565b6040516102899190613fcd565b34801561049957600080fd5b506104ad6104a8366004613567565b611ae3565b6040516102899190613f1f565b3480156104c657600080fd5b506000546104da90600160a060020a031681565b604051600160a060020a039091168152602001610289565b3480156104fe57600080fd5b5061027d61050d36600461321a565b611b79565b34801561051e57600080fd5b506102b261052d3660046139dc565b611c07565b34801561053e57600080fd5b506102b261054d3660046139dc565b611c8f565b34801561055e57600080fd5b506102b261056d3660046139a2565b611cac565b34801561057e57600080fd5b506001546104da90600160a060020a031681565b34801561059e57600080fd5b506102b26105ad36600461321a565b611cca565b3480156105be57600080fd5b506102b26105cd366004613bc2565b611d22565b6102b26105e0366004613567565b611d3f565b3480156105f157600080fd5b506102b261060036600461321a565b611d49565b34801561061157600080fd5b50610480610620366004613567565b611da1565b34801561063157600080fd5b50610645610640366004613567565b611e33565b6040516102899190613db0565b34801561065e57600080fd5b506102b261066d3660046139a2565b611ecd565b6102b2610680366004613a15565b611fb0565b34801561069157600080fd5b506102b26106a0366004613b0f565b61210e565b3480156106b157600080fd5b506104ad6106c0366004613658565b612216565b3480156106d157600080fd5b506102b26106e036600461321a565b6122e5565b3480156106f157600080fd5b506102b261233e565b34801561070657600080fd5b506102b2610715366004613bc2565b612548565b34801561072657600080fd5b5061073a61073536600461321a565b612565565b604051908152602001610289565b34801561075457600080fd5b5061027d610763366004613567565b612577565b34801561077457600080fd5b506102b26107833660046139a2565b61258c565b34801561079457600080fd5b506102b26107a336600461369f565b6125a1565b6000805460405160e260020a631871978b028152600160a060020a038481166004830152839216906361c65e2c9060240160806040518083038186803b1580156107f157600080fd5b505afa158015610805573d6000803e3d6000fd5b505050506040513d601f19601f8201168201806040525081019061082991906138bb565b606001519392505050565b600154600160a060020a0316331461086a5760405160e560020a62461bcd02815260040161086190613f32565b60405180910390fd5b6001805473ffffffffffffffffffffffffffffffffffffffff1916600160a060020a0392909216919091179055565b6108a281611b79565b156109175760405160e560020a62461bcd028152602060048201526024808201527f54686973206164647265737320616c7265616479207573656420666f7220696e60448201527f76697465000000000000000000000000000000000000000000000000000000006064820152608401610861565b50565b61092333611cca565b61092c866122e5565b600061093733612565565b6000546040805180820182526001815260208101849052905160e060020a63c17b5289028152929350600160a060020a039091169163c17b528991610981918b9190600401613d87565b600060405180830381600087803b15801561099b57600080fd5b505af11580156109af573d6000803e3d6000fd5b505060008054604080518082018252928352602083018690525160e060020a63c17b5289028152600160a060020a03909116935063c17b528992506109f8913391600401613d87565b600060405180830381600087803b158015610a1257600080fd5b505af1158015610a26573d6000803e3d6000fd5b5050600354610a3f9250839150899060ff166000612643565b604051600160a060020a038816903480156108fc02916000818181858888f19350505050158015610a74573d6000803e3d6000fd5b506000546040517f6d822b44000000000000000000000000000000000000000000000000000000008152600160a060020a0390911690636d822b4490610ac89084908b908b908b908b908b90600401613e2a565b600060405180830381600087803b158015610ae257600080fd5b505af1158015610af6573d6000803e3d6000fd5b5050505060005b8251811015610bd3576000838281518110610b1a57610b1a61421f565b6020908102919091018101516000548151928201516040808401516060850151608086015192517f2f23976c000000000000000000000000000000000000000000000000000000008152959750600160a060020a0390941695632f23976c95610b8d9591948b9490939291600401613fe6565b600060405180830381600087803b158015610ba757600080fd5b505af1158015610bbb573d6000803e3d6000fd5b50505050508080610bcb906141f3565b915050610afd565b5050505050505050565b6040805160208101909152606081526040518060200160405280610c0084611ae3565b905292915050565b6000610c1333611cca565b6000610c1e33612565565b9050610c2d81878787876126d8565b9695505050505050565b610c4082611ecd565b610c4a8233611c07565b610c548282612932565b5050565b610c6133611d49565b610c6a8661108b565b15610cba5760405160e560020a62461bcd02815260206004820152601a60248201527f4164647265737320616c726561647920726567697374657265640000000000006044820152606401610861565b6000805460405160e260020a631871978b028152336004820152600160a060020a03909116906361c65e2c9060240160806040518083038186803b158015610d0157600080fd5b505afa158015610d15573d6000803e3d6000fd5b505050506040513d601f19601f82011682018060405250810190610d3991906138bb565b9050610d4588886129b3565b60006060820181905260408083018a9052905490517f0913be41000000000000000000000000000000000000000000000000000000008152600160a060020a0390911690630913be4190610d9f9033908590600401613d3e565b600060405180830381600087803b158015610db957600080fd5b505af1158015610dcd573d6000803e3d6000fd5b5050604051600160a060020a038a1692503480156108fc029250906000818181858888f19350505050158015610e07573d6000803e3d6000fd5b50610f128860028054610e19906141b5565b80601f0160208091040260200160405190810160405280929190818152602001828054610e45906141b5565b8015610e925780601f10610e6757610100808354040283529160200191610e92565b820191906000526020600020905b815481529060010190602001808311610e7557829003601f168201915b505050505084610ed7576040518060400160405280600581526020017f66616c7365000000000000000000000000000000000000000000000000000000815250612b81565b6040518060400160405280600481526020017f7472756500000000000000000000000000000000000000000000000000000000815250612b81565b6000546040517f6d822b44000000000000000000000000000000000000000000000000000000008152600160a060020a0390911690636d822b4490610f65908b908b908b908b908b908b90600401613e2a565b600060405180830381600087803b158015610f7f57600080fd5b505af1158015610f93573d6000803e3d6000fd5b505050505050505050505050565b610ff06040518060e00160405280600067ffffffffffffffff16815260200160008019168152602001606081526020016060815260200160608152602001606081526020016000151581525090565b610ff982611ecd565b60005460405160e360020a630444dc8702815267ffffffffffffffff84166004820152600160a060020a0390911690632226e4389060240160006040518083038186803b15801561104957600080fd5b505afa15801561105d573d6000803e3d6000fd5b505050506040513d6000823e601f3d908101601f1916820160405261108591908101906137b6565b92915050565b600080546040517fdcac263e000000000000000000000000000000000000000000000000000000008152600160a060020a0384811660048301528392169063dcac263e90602401604080518083038186803b1580156110e957600080fd5b505afa1580156110fd573d6000803e3d6000fd5b505050506040513d601f19601f820116820180604052508101906111219190613968565b805190915015156001146111385750600092915050565b60008054602083015160405160e260020a631945d5e7028152600160a060020a0390921691636517579c916111739160040190815260200190565b604080518083038186803b15801561118a57600080fd5b505afa15801561119e573d6000803e3d6000fd5b505050506040513d601f19601f820116820180604052508101906111c29190613930565b60200151949350505050565b6111d733611cca565b60005b8151811015611217576112058282815181106111f8576111f861421f565b6020026020010151610899565b8061120f816141f3565b9150506111da565b50600061122333612565565b905060008034118015611237575060008351115b1561124b5782516112489034614164565b90505b60005b83518110156113ec57600084828151811061126b5761126b61421f565b6020908102919091018101516000805460408051608081018252600160a060020a0380861682529581018a90528082019390935260016060840152517f0913be410000000000000000000000000000000000000000000000000000000081529294509290921691630913be41916112e6918591600401613d3e565b600060405180830381600087803b15801561130057600080fd5b505af1158015611314573d6000803e3d6000fd5b50505050600083111561135957604051600160a060020a0382169084156108fc029085906000818181858888f19350505050158015611357573d6000803e3d6000fd5b505b6000546040517f2ef9adc300000000000000000000000000000000000000000000000000000000815260048101869052600160a060020a03838116602483015290911690632ef9adc390604401600060405180830381600087803b1580156113c057600080fd5b505af11580156113d4573d6000803e3d6000fd5b505050505080806113e4906141f3565b91505061124e565b50505050565b600154600160a060020a0316331461141f5760405160e560020a62461bcd02815260040161086190613f32565b6000805473ffffffffffffffffffffffffffffffffffffffff1916600160a060020a0392909216919091179055565b60408051608081018252600080825260208201819052918101829052606081019190915260005460405160e260020a631871978b028152600160a060020a038481166004830152909116906361c65e2c9060240160806040518083038186803b1580156114ba57600080fd5b505afa1580156114ce573d6000803e3d6000fd5b505050506040513d601f19601f8201168201806040525081019061108591906138bb565b6000806114fe83612565565b60005460405160e360020a630444dc8702815267ffffffffffffffff871660048201529192508291600160a060020a0390911690632226e4389060240160006040518083038186803b15801561155357600080fd5b505afa158015611567573d6000803e3d6000fd5b505050506040513d6000823e601f3d908101601f1916820160405261158f91908101906137b6565b6020015114949350505050565b6000805460405160e260020a631871978b028152336004820152600160a060020a03909116906361c65e2c9060240160806040518083038186803b1580156115e357600080fd5b505afa1580156115f7573d6000803e3d6000fd5b505050506040513d601f19601f8201168201806040525081019061161b91906138bb565b6060810151909150156116995760405160e560020a62461bcd02815260206004820152602760248201527f4f6e6c7920696e61637469766520696e766974652063616e207265736574207060448201527f617373776f7264000000000000000000000000000000000000000000000000006064820152608401610861565b60408101516117135760405160e560020a62461bcd02815260206004820152602c60248201527f4f6e6c7920696e76697465207769746820757365726e616d652063616e20726560448201527f7365742070617373776f726400000000000000000000000000000000000000006064820152608401610861565b6040516020016117549060208082526004908201527f7472756500000000000000000000000000000000000000000000000000000000604082015260600190565b604051602081830303815290604052805190602001206117778260400151611ae3565b6040516020016117879190613f1f565b60405160208183030381529060405280519060200120146118135760405160e560020a62461bcd02815260206004820152602160248201527f53657474696e6773206e6f7420616c6c6f772072657365742070617373776f7260448201527f64000000000000000000000000000000000000000000000000000000000000006064820152608401610861565b60005460408051808201825260018152838201516020820152905160e060020a63c17b5289028152600160a060020a039092169163c17b52899161185c918a9190600401613d87565b600060405180830381600087803b15801561187657600080fd5b505af115801561188a573d6000803e3d6000fd5b5050604051600160a060020a03891692503480156108fc029250906000818181858888f193505050501580156118c4573d6000803e3d6000fd5b5060005460408083015190517f6d822b44000000000000000000000000000000000000000000000000000000008152600160a060020a0390921691636d822b449161191b918a908a908a908a908a90600401613e2a565b600060405180830381600087803b15801561193557600080fd5b505af1158015611949573d6000803e3d6000fd5b50505050505050505050565b6040805180820190915260008082526020820152600080546040517fdcac263e000000000000000000000000000000000000000000000000000000008152600160a060020a0385811660048301529091169063dcac263e90602401604080518083038186803b1580156119c757600080fd5b505afa1580156119db573d6000803e3d6000fd5b505050506040513d601f19601f820116820180604052508101906119ff9190613968565b8051909150611a535760405160e560020a62461bcd02815260206004820181905260248201527f55736572207769746820746869732061646472657373206e6f7420666f756e646044820152606401610861565b600054602082015160405160e260020a631945d5e7028152600160a060020a0390921691636517579c91611a8d9160040190815260200190565b604080518083038186803b158015611aa457600080fd5b505afa158015611ab8573d6000803e3d6000fd5b505050506040513d601f19601f82011682018060405250810190611adc9190613930565b9392505050565b60606110858260028054611af6906141b5565b80601f0160208091040260200160405190810160405280929190818152602001828054611b22906141b5565b8015611b6f5780601f10611b4457610100808354040283529160200191611b6f565b820191906000526020600020905b815481529060010190602001808311611b5257829003601f168201915b5050505050612216565b6000805460405160e260020a631871978b028152600160a060020a038481166004830152839216906361c65e2c9060240160806040518083038186803b158015611bc257600080fd5b505afa158015611bd6573d6000803e3d6000fd5b505050506040513d601f19601f82011682018060405250810190611bfa91906138bb565b6020015115159392505050565b611c1081611cca565b611c1a82826114f2565b610c545760405160e560020a62461bcd02815260206004820152602a60248201527f596f7520646f206e6f7420686176652061636365737320746f2074686973206160448201527f70706c69636174696f6e000000000000000000000000000000000000000000006064820152608401610861565b611c9882611ecd565b611ca28233611c07565b610c548282612bf8565b611cb581611ecd565b611cbf8133611c07565b610917816000612c53565b611cd38161108b565b6109175760405160e560020a62461bcd02815260206004820152601660248201527f41646472657373206e6f742072656769737465726564000000000000000000006044820152606401610861565b611d2b82611ecd565b611d358233611c07565b610c548282612d6b565b61091781336129b3565b611d52816107a8565b6109175760405160e560020a62461bcd02815260206004820152601160248201527f496e76697465206e6f74206163746976650000000000000000000000000000006044820152606401610861565b604080518082019091526000808252602082015260005460405160e260020a631945d5e702815260048101849052600160a060020a0390911690636517579c90602401604080518083038186803b158015611dfb57600080fd5b505afa158015611e0f573d6000803e3d6000fd5b505050506040513d601f19601f820116820180604052508101906110859190613930565b6000546040517fb3d8b20e00000000000000000000000000000000000000000000000000000000815260048101839052606091600160a060020a03169063b3d8b20e9060240160006040518083038186803b158015611e9157600080fd5b505afa158015611ea5573d6000803e3d6000fd5b505050506040513d6000823e601f3d908101601f191682016040526110859190810190613476565b6000805460405160e360020a630444dc8702815267ffffffffffffffff84166004820152600160a060020a0390911690632226e4389060240160006040518083038186803b158015611f1e57600080fd5b505afa158015611f32573d6000803e3d6000fd5b505050506040513d6000823e601f3d908101601f19168201604052611f5a91908101906137b6565b90508060c00151610c545760405160e560020a62461bcd02815260206004820152600d60248201527f417070206e6f7420666f756e64000000000000000000000000000000000000006044820152606401610861565b611fb933611cca565b611fc286611ecd565b6000611fcd33612565565b6000546040805180820182526001815260208101849052905160e060020a63c17b5289028152929350600160a060020a039091169163c17b528991612017918a9190600401613d87565b600060405180830381600087803b15801561203157600080fd5b505af1158015612045573d6000803e3d6000fd5b5050604051600160a060020a03891692503480156108fc029250906000818181858888f1935050505015801561207f573d6000803e3d6000fd5b506000546040517f2f23976c000000000000000000000000000000000000000000000000000000008152600160a060020a0390911690632f23976c906120d3908a9085908a908a908a908a90600401613fe6565b600060405180830381600087803b1580156120ed57600080fd5b505af1158015612101573d6000803e3d6000fd5b5050505050505050505050565b61211785611ecd565b6121218533611c07565b6000805460405160e360020a630444dc8702815267ffffffffffffffff88166004820152600160a060020a0390911690632226e4389060240160006040518083038186803b15801561217257600080fd5b505afa158015612186573d6000803e3d6000fd5b505050506040513d6000823e601f3d908101601f191682016040526121ae91908101906137b6565b6040808201879052606082018690526080820185905260a0820184905260005490517f50d2c00e000000000000000000000000000000000000000000000000000000008152919250600160a060020a0316906350d2c00e9061191b9089908590600401614032565b60606000838360405160200161222d929190613eb2565b60408051808303601f190181529082905280516020909101206000547fdce2dd1700000000000000000000000000000000000000000000000000000000835260048301829052909250600160a060020a03169063dce2dd179060240160006040518083038186803b1580156122a157600080fd5b505afa1580156122b5573d6000803e3d6000fd5b505050506040513d6000823e601f3d908101601f191682016040526122dd91908101906136d4565b949350505050565b6122ee8161108b565b156109175760405160e560020a62461bcd02815260206004820152601a60248201527f4164647265737320616c726561647920726567697374657265640000000000006044820152606401610861565b600154600160a060020a0316331461236b5760405160e560020a62461bcd02815260040161086190613f32565b6000805460405160e260020a631945d5e70281527ff23ec0bb4210edd5cba85afd05127efcd2fc6a781bfed49188da1081670b22d8600482018190529291600160a060020a031690636517579c90602401604080518083038186803b1580156123d357600080fd5b505afa1580156123e7573d6000803e3d6000fd5b505050506040513d601f19601f8201168201806040525081019061240b9190613930565b9050806020015115156001151514610c545761242782336129b3565b60608060006124a3856040518060400160405280600881526020017f4765744c6f67696e0000000000000000000000000000000000000000000000008152506040518060400160405280601381526020017f4765744c6f67696e202d2061757468206170700000000000000000000000000081525086866126d8565b90506124e4816040518060400160405280601d81526020017f68747470733a2f2f6c6f63616c686f73743a333030312f6f70656e6964000000815250612932565b612523816040518060400160405280601781526020017f68747470733a2f2f6c6f63616c686f73743a333030312f000000000000000000815250612932565b61254181739a0cde760277dc3a4b2ac6e9d333af45148ebb60612bf8565b5050505050565b61255182611ecd565b61255b8233611c07565b610c548282612dc5565b600061257082611955565b5192915050565b600061258282611da1565b6020015192915050565b6125968133611c07565b610917816001612c53565b60006125ac33612565565b9050610c5481600280546125bf906141b5565b80601f01602080910402602001604051908101604052809291908181526020018280546125eb906141b5565b80156126385780601f1061260d57610100808354040283529160200191612638565b820191906000526020600020905b81548152906001019060200180831161261b57829003601f168201915b505050505084612b81565b6000546040517f9931f4f200000000000000000000000000000000000000000000000000000000815260048101869052600160a060020a03858116602483015260ff8516604483015267ffffffffffffffff8416606483015290911690639931f4f2906084015b600060405180830381600087803b1580156126c457600080fd5b505af1158015610bd3573d6000803e3d6000fd5b60008054604080517f8ad1041900000000000000000000000000000000000000000000000000000000815290518392600160a060020a031691638ad10419916004808301926020929190829003018186803b15801561273657600080fd5b505afa15801561274a573d6000803e3d6000fd5b505050506040513d601f19601f8201168201806040525081019061276e91906139bf565b6000546040805160e08101825267ffffffffffffffff84168152602081018b90528082018a9052606081018990526080810188905260a08101879052600160c082015290517f50d2c00e000000000000000000000000000000000000000000000000000000008152929350600160a060020a03909116916350d2c00e916127fa91859190600401614032565b600060405180830381600087803b15801561281457600080fd5b505af1158015612828573d6000803e3d6000fd5b505060008054604080517f3122da980000000000000000000000000000000000000000000000000000000081529051600160a060020a039092169450633122da989350600480820193929182900301818387803b15801561288857600080fd5b505af115801561289c573d6000803e3d6000fd5b50506000546040517fb68baa15000000000000000000000000000000000000000000000000000000008152600481018b905267ffffffffffffffff85166024820152600160a060020a03909116925063b68baa159150604401600060405180830381600087803b15801561290f57600080fd5b505af1158015612923573d6000803e3d6000fd5b50929998505050505050505050565b6000546040517f036fbb74000000000000000000000000000000000000000000000000000000008152600160a060020a039091169063036fbb749061297d908590859060040161400f565b600060405180830381600087803b15801561299757600080fd5b505af11580156129ab573d6000803e3d6000fd5b505050505050565b6129bc82612577565b15612a0c5760405160e560020a62461bcd02815260206004820152601560248201527f557365726e616d6520616c7265616479207573656400000000000000000000006044820152606401610861565b612a158161108b565b15612a655760405160e560020a62461bcd02815260206004820152601360248201527f57616c6c657420616c72656164792075736564000000000000000000000000006044820152606401610861565b6000546040805180820182528481526001602082015290517f58ad5022000000000000000000000000000000000000000000000000000000008152600160a060020a03909216916358ad502291612ac191869190600401613eff565b600060405180830381600087803b158015612adb57600080fd5b505af1158015612aef573d6000803e3d6000fd5b50506000546040805180820182526001815260208101879052905160e060020a63c17b5289028152600160a060020a03909216935063c17b52899250612b3a91859190600401613d87565b600060405180830381600087803b158015612b5457600080fd5b505af1158015612b68573d6000803e3d6000fd5b5050600354610c549250849150839060ff166000612643565b60008383604051602001612b96929190613eb2565b60408051601f198184030181529082905280516020909101206000547f6fb89051000000000000000000000000000000000000000000000000000000008352909250600160a060020a031690636fb89051906126aa9084908690600401613e99565b6000546040517f212109e400000000000000000000000000000000000000000000000000000000815267ffffffffffffffff84166004820152600160a060020a0383811660248301529091169063212109e49060440161297d565b6000805460405160e360020a630444dc8702815267ffffffffffffffff85166004820152600160a060020a0390911690632226e4389060240160006040518083038186803b158015612ca457600080fd5b505afa158015612cb8573d6000803e3d6000fd5b505050506040513d6000823e601f3d908101601f19168201604052612ce091908101906137b6565b82151560c08201526000546040517f50d2c00e000000000000000000000000000000000000000000000000000000008152919250600160a060020a0316906350d2c00e90612d349086908590600401614032565b600060405180830381600087803b158015612d4e57600080fd5b505af1158015612d62573d6000803e3d6000fd5b50505050505050565b6000546040517fabc040ca00000000000000000000000000000000000000000000000000000000815267ffffffffffffffff8416600482015260248101839052600160a060020a039091169063abc040ca9060440161297d565b6000546040517fec46474c00000000000000000000000000000000000000000000000000000000815267ffffffffffffffff8416600482015260248101839052600160a060020a039091169063ec46474c9060440161297d565b8035612e2a81614251565b919050565b600082601f830112612e4057600080fd5b81356020612e55612e5083614118565b6140e7565b8281528181019085830183850287018401881015612e7257600080fd5b60005b85811015612e9a578135612e8881614251565b84529284019290840190600101612e75565b5090979650505050505050565b600082601f830112612eb857600080fd5b81516020612ec8612e5083614118565b8281528181019085830183850287018401881015612ee557600080fd5b60005b85811015612e9a578151612efb81614251565b84529284019290840190600101612ee8565b600082601f830112612f1e57600080fd5b81356020612f2e612e5083614118565b8281528181019085830183850287018401881015612f4b57600080fd5b6000805b86811015612f8e57823567ffffffffffffffff811115612f6d578283fd5b612f7b8b88838d010161316e565b8652509385019391850191600101612f4f565b509198975050505050505050565b600082601f830112612fad57600080fd5b81516020612fbd612e5083614118565b8281528181019085830183850287018401881015612fda57600080fd5b6000805b86811015612f8e57825167ffffffffffffffff811115612ffc578283fd5b61300a8b88838d01016131bf565b8652509385019391850191600101612fde565b600082601f83011261302e57600080fd5b8135602061303e612e5083614118565b828152818101908583018385028701840188101561305b57600080fd5b60005b85811015612e9a57813567ffffffffffffffff8082111561307e57600080fd5b9089019060a0828c03601f190181131561309757600080fd5b61309f614055565b6130aa898501613204565b8152604080850135848111156130bf57600080fd5b6130cd8f8c8389010161316e565b8b840152506060850135848111156130e457600080fd5b6130f28f8c8389010161316e565b8284015250506080808501358481111561310b57600080fd5b6131198f8c8389010161316e565b60608401525091840135918383111561313157600080fd5b61313f8e8b8588010161316e565b908201528752505050928401929084019060010161305e565b8035612e2a81614266565b8051612e2a81614266565b600082601f83011261317f57600080fd5b813561318d612e508261413c565b8181528460208386010111156131a257600080fd5b816020850160208301376000918101602001919091529392505050565b600082601f8301126131d057600080fd5b81516131de612e508261413c565b8181528460208386010111156131f357600080fd5b6122dd826020830160208701614189565b8035612e2a81614274565b8051612e2a81614274565b60006020828403121561322c57600080fd5b8135611adc81614251565b600080600080600060a0868803121561324f57600080fd5b853561325a81614251565b9450602086013567ffffffffffffffff8082111561327757600080fd5b61328389838a0161316e565b9550604088013591508082111561329957600080fd5b6132a589838a0161316e565b945060608801359150808211156132bb57600080fd5b6132c789838a0161316e565b935060808801359150808211156132dd57600080fd5b506132ea8882890161316e565b9150509295509295909350565b60008060008060008060c0878903121561331057600080fd5b61331987612e1f565b9550602087013567ffffffffffffffff8082111561333657600080fd5b6133428a838b0161316e565b9650604089013591508082111561335857600080fd5b6133648a838b0161316e565b9550606089013591508082111561337a57600080fd5b6133868a838b0161316e565b9450608089013591508082111561339c57600080fd5b6133a88a838b0161316e565b935060a08901359150808211156133be57600080fd5b506133cb89828a0161301d565b9150509295509295509295565b600060208083850312156133eb57600080fd5b823567ffffffffffffffff81111561340257600080fd5b8301601f8101851361341357600080fd5b8035613421612e5082614118565b818152838101908385018584028501860189101561343e57600080fd5b600094505b8385101561346a57803561345681614251565b835260019490940193918501918501613443565b50979650505050505050565b6000602080838503121561348957600080fd5b825167ffffffffffffffff8111156134a057600080fd5b8301601f810185136134b157600080fd5b80516134bf612e5082614118565b818152838101908385016080808502860187018a10156134de57600080fd5b600095505b848610156135595780828b0312156134fa57600080fd5b61350261407e565b825181528783015161351381614251565b8189015260408381015160ff8116811461352c57600080fd5b9082015260608381015161353f81614274565b9082015284526001959095019492860192908101906134e3565b509098975050505050505050565b60006020828403121561357957600080fd5b5035919050565b600080600080600080600060e0888a03121561359b57600080fd5b873596506135ab60208901612e1f565b9550604088013567ffffffffffffffff808211156135c857600080fd5b6135d48b838c0161316e565b965060608a01359150808211156135ea57600080fd5b6135f68b838c0161316e565b955060808a013591508082111561360c57600080fd5b6136188b838c0161316e565b945060a08a013591508082111561362e57600080fd5b5061363b8a828b0161316e565b92505061364a60c08901613158565b905092959891949750929550565b6000806040838503121561366b57600080fd5b82359150602083013567ffffffffffffffff81111561368957600080fd5b6136958582860161316e565b9150509250929050565b6000602082840312156136b157600080fd5b813567ffffffffffffffff8111156136c857600080fd5b6122dd8482850161316e565b6000602082840312156136e657600080fd5b815167ffffffffffffffff8111156136fd57600080fd5b6122dd848285016131bf565b6000806000806080858703121561371f57600080fd5b843567ffffffffffffffff8082111561373757600080fd5b6137438883890161316e565b9550602087013591508082111561375957600080fd5b6137658883890161316e565b9450604087013591508082111561377b57600080fd5b61378788838901612f0d565b9350606087013591508082111561379d57600080fd5b506137aa87828801612e2f565b91505092959194509250565b6000602082840312156137c857600080fd5b815167ffffffffffffffff808211156137e057600080fd5b9083019060e082860312156137f457600080fd5b6137fc6140a1565b6138058361320f565b81526020830151602082015260408301518281111561382357600080fd5b61382f878286016131bf565b60408301525060608301518281111561384757600080fd5b613853878286016131bf565b60608301525060808301518281111561386b57600080fd5b61387787828601612f9c565b60808301525060a08301518281111561388f57600080fd5b61389b87828601612ea7565b60a0830152506138ad60c08401613163565b60c082015295945050505050565b6000608082840312156138cd57600080fd5b6040516080810181811067ffffffffffffffff821117156138f0576138f0614238565b60405282516138fe81614251565b808252506020830151602082015260408301516040820152606083015161392481614266565b60608201529392505050565b60006040828403121561394257600080fd5b61394a6140c4565b82518152602083015161395c81614266565b60208201529392505050565b60006040828403121561397a57600080fd5b6139826140c4565b825161398d81614266565b81526020928301519281019290925250919050565b6000602082840312156139b457600080fd5b8135611adc81614274565b6000602082840312156139d157600080fd5b8151611adc81614274565b600080604083850312156139ef57600080fd5b82356139fa81614274565b91506020830135613a0a81614251565b809150509250929050565b60008060008060008060c08789031215613a2e57600080fd5b613a3787613204565b9550613a4560208801612e1f565b9450604087013567ffffffffffffffff80821115613a6257600080fd5b613a6e8a838b0161316e565b95506060890135915080821115613a8457600080fd5b613a908a838b0161316e565b94506080890135915080821115613aa657600080fd5b613ab28a838b0161316e565b935060a0890135915080821115613ac857600080fd5b506133cb89828a0161316e565b60008060408385031215613ae857600080fd5b8235613af381614274565b9150602083013567ffffffffffffffff81111561368957600080fd5b600080600080600060a08688031215613b2757600080fd5b8535613b3281614274565b9450602086013567ffffffffffffffff80821115613b4f57600080fd5b613b5b89838a0161316e565b95506040880135915080821115613b7157600080fd5b613b7d89838a0161316e565b94506060880135915080821115613b9357600080fd5b613b9f89838a01612f0d565b93506080880135915080821115613bb557600080fd5b506132ea88828901612e2f565b60008060408385031215613bd557600080fd5b8235613be081614274565b946020939093013593505050565b600081518084526020808501945080840160005b83811015613c27578151600160a060020a031687529582019590820190600101613c02565b509495945050505050565b60008151808452613c4a816020860160208601614189565b601f01601f19169290920160200192915050565b67ffffffffffffffff8151168252600060208083015181850152604083015160e06040860152613c9160e0860182613c32565b905060608401518582036060870152613caa8282613c32565b91505060808401518582036080870152818151808452848401915084858202850101858401935060005b82811015613d0257601f19868303018452613cf0828651613c32565b94870194938701939150600101613cd4565b5060a0880151955088810360a08a0152613d1c8187613bee565b9550505050505060c0830151613d3660c086018215159052565b509392505050565b600160a060020a038316815260a08101611adc6020830184600160a060020a03815116825260208101516020830152604081015160408301526060810151151560608301525050565b600160a060020a038316815260608101611adc6020830184805115158252602090810151910152565b602080825282518282018190526000919060409081850190868401855b82811015613e1d5781518051855286810151600160a060020a0316878601528581015160ff168686015260609081015167ffffffffffffffff169085015260809093019290850190600101613dcd565b5091979650505050505050565b868152600160a060020a038616602082015260c060408201526000613e5260c0830187613c32565b8281036060840152613e648187613c32565b90508281036080840152613e788186613c32565b905082810360a0840152613e8c8185613c32565b9998505050505050505050565b8281526040602082015260006122dd6040830184613c32565b82815260606020820152600160608201527f5f00000000000000000000000000000000000000000000000000000000000000608082015260a0604082015260006122dd60a0830184613c32565b82815260608101611adc6020830184805182526020908101511515910152565b602081526000611adc6020830184613c32565b60208082526017908201527f43616c6c6572206973206e6f7420746865206f776e6572000000000000000000604082015260600190565b602081526000611adc6020830184613c5e565b8151600160a060020a03168152602080830151908201526040808301519082015260608083015115159082015260808101611085565b60208152600082516020808401526122dd6040840182613c32565b8151815260208083015115159082015260408101611085565b67ffffffffffffffff8716815285602082015260c060408201526000613e5260c0830187613c32565b67ffffffffffffffff831681526040602082015260006122dd6040830184613c32565b67ffffffffffffffff831681526040602082015260006122dd6040830184613c5e565b60405160a0810167ffffffffffffffff8111828210171561407857614078614238565b60405290565b6040516080810167ffffffffffffffff8111828210171561407857614078614238565b60405160e0810167ffffffffffffffff8111828210171561407857614078614238565b6040805190810167ffffffffffffffff8111828210171561407857614078614238565b604051601f8201601f1916810167ffffffffffffffff8111828210171561411057614110614238565b604052919050565b600067ffffffffffffffff82111561413257614132614238565b5060209081020190565b600067ffffffffffffffff82111561415657614156614238565b50601f01601f191660200190565b6000826141845760e060020a634e487b7102600052601260045260246000fd5b500490565b60005b838110156141a457818101518382015260200161418c565b838111156113ec5750506000910152565b6002810460018216806141c957607f821691505b602082108114156141ed5760e060020a634e487b7102600052602260045260246000fd5b50919050565b60006000198214156142185760e060020a634e487b7102600052601160045260246000fd5b5060010190565b60e060020a634e487b7102600052603260045260246000fd5b60e060020a634e487b7102600052604160045260246000fd5b600160a060020a038116811461091757600080fd5b801515811461091757600080fd5b67ffffffffffffffff8116811461091757600080fdfea26469706673582212207dc7d5b51a19786cfe55fce0f34721829b559bd3d726421d567657776b61943d64736f6c63430008070033",
  "immutableReferences": {},
  "source": "// SPDX-License-Identifier: UNLICENSED\npragma solidity ^0.8.7;\n//pragma experimental ABIEncoderV2;\n\nimport './GetLoginStorage.sol';\n\ncontract GetLoginLogic {\n    GetLoginStorage public getLoginStorage;\n    address public owner;\n    string settingsInviteReset = \"invite_reset\";\n\n    struct SessionData\n    {\n        uint64 appId;\n        string iv;\n        string ephemPublicKey;\n        string ciphertext;\n        string mac;\n    }\n\n    struct SettingsData\n    {\n        string inviteReset;\n    }\n\n    uint8 sessionMain = 1;\n    uint8 sessionApp = 2;\n\n    modifier onlyOwner() {\n        require(msg.sender == owner, \"Caller is not the owner\");\n        _;\n    }\n\n    function setOwner(address _address) onlyOwner public {\n        owner = _address;\n    }\n\n    function setStorageAddress(GetLoginStorage _address) onlyOwner public {\n        getLoginStorage = _address;\n    }\n\n    constructor(GetLoginStorage _getLoginStorage) {\n        owner = msg.sender;\n        getLoginStorage = _getLoginStorage;\n    }\n\n    function init() onlyOwner public {\n        bytes32 usernameHash = keccak256('admin');\n        GetLoginStorage.UserInfo memory info = getLoginStorage.getUser(usernameHash);\n        if (info.isActive != true) {\n            _createUser(usernameHash, msg.sender);\n            string[] memory allowedUrls;\n            address[] memory allowedContracts;\n            uint64 newAppId = _createApplication(usernameHash, 'GetLogin', 'GetLogin - auth app', allowedUrls, allowedContracts);\n            _addApplicationUrl(newAppId, 'https://localhost:3001/openid');\n            _addApplicationUrl(newAppId, 'https://localhost:3001/');\n            _addApplicationContract(newAppId, 0x9A0CDE760277DC3A4B2aC6E9D333Af45148eBb60);\n        }\n    }\n\n    /* Private methods */\n    function _createUser(bytes32 usernameHash, address ownerWallet) private {\n        require(isUsernameExists(usernameHash) == false, \"Username already used\");\n        require(isAddressRegistered(ownerWallet) == false, \"Wallet already used\");\n        getLoginStorage.setUser(usernameHash, GetLoginStorage.UserInfo({username : usernameHash, isActive : true}));\n        getLoginStorage.setUsersAddressUsername(ownerWallet, GetLoginStorage.Username({username : usernameHash, isActive : true}));\n        _addSessionInit(usernameHash, ownerWallet, sessionMain, 0);\n    }\n\n    function _createApplication(bytes32 usernameHash, string memory title, string memory description, string[] memory allowedUrls, address[] memory allowedContracts) private returns (uint64) {\n        uint64 appId = getLoginStorage.applicationId();\n        getLoginStorage.setApplication(appId, GetLoginStorage.Application({id : appId, usernameHash : usernameHash, title : title, description : description, allowedUrls : allowedUrls, allowedContracts : allowedContracts, isActive : true}));\n        getLoginStorage.incrementApplicationId();\n        getLoginStorage.emitEventAppCreated(usernameHash, appId);\n\n        return appId;\n    }\n\n    function _addApplicationUrl(uint64 appId, string memory url) private {\n        getLoginStorage.pushApplicationUrl(appId, url);\n    }\n\n    function _addApplicationContract(uint64 appId, address wallet) private {\n        getLoginStorage.pushApplicationContract(appId, wallet);\n    }\n\n    function _deleteApplicationUrl(uint64 appId, uint index) private {\n        getLoginStorage.deleteApplicationUrl(appId, index);\n    }\n\n    function _deleteApplicationContract(uint64 appId, uint index) private {\n        getLoginStorage.deleteApplicationContract(appId, index);\n    }\n\n    function _setApplicationActive(uint64 appId, bool isActive) private {\n        GetLoginStorage.Application memory app = getLoginStorage.getApplication(appId);\n        app.isActive = isActive;\n        getLoginStorage.setApplication(appId, app);\n    }\n\n    function _addSessionInit(bytes32 usernameHash, address wallet, uint8 sessionType, uint64 appId) private {\n        getLoginStorage.pushUserSession(usernameHash, wallet, sessionType, appId);\n    }\n\n    function _addSession(address wallet, uint8 sessionType, uint64 appId) private {\n        validateAppExists(appId);\n        validateAddressRegistered(wallet);\n        bytes32 usernameHash = getUsernameByAddress(wallet);\n        //UserSessions[usernameHash].push(UserSession({username : usernameHash, wallet : wallet, sessionType : sessionType, appId : appId}));\n        getLoginStorage.pushUserSession(usernameHash, wallet, sessionType, appId);\n    }\n\n    function _setSettings(bytes32 usernameHash, string memory key, string memory value) private {\n        // todo inspect is correct way\n        bytes32 keyHash = keccak256(abi.encode(usernameHash, \"_\", key));\n        getLoginStorage.setSettings(keyHash, value);\n    }\n\n    /* End of private methods */\n\n    /* Validators */\n    function validateAppOwner(uint64 appId, address wallet) public view {\n        // todo check is user address is not session\n        validateAddressRegistered(wallet);\n        require(isAppOwner(appId, wallet), \"You do not have access to this application\");\n    }\n\n    function validateAppExists(uint64 appId) public view {\n        GetLoginStorage.Application memory app = getLoginStorage.getApplication(appId);\n        require(app.isActive, \"App not found\");\n    }\n\n    function validateInviteActive(address wallet) public view {\n        require(isActiveInvite(wallet), \"Invite not active\");\n    }\n\n    function validateAddressRegistered(address wallet) public view {\n        require(isAddressRegistered(wallet), \"Address not registered\");\n    }\n\n    function validateAddressAvailable(address wallet) public view {\n        require(isAddressRegistered(wallet) == false, \"Address already registered\");\n    }\n\n    function validateInviteAvailable(address wallet) public view {\n        require(isInviteAddressUsed(wallet) == false, \"This address already used for invite\");\n    }\n    /* End validators */\n\n    /* Public methods */\n    function createApplication(string memory title, string memory description, string[] memory allowedUrls, address[] memory allowedContracts) public returns (uint64) {\n        // todo only main session can create and edit app (check it in top hierarchy method)?\n        validateAddressRegistered(msg.sender);\n        bytes32 usernameHash = getUsernameByAddress(msg.sender);\n        return _createApplication(usernameHash, title, description, allowedUrls, allowedContracts);\n    }\n\n    function editApplication(uint64 appId, string memory title, string memory description, string[] memory allowedUrls, address[] memory allowedContracts) public {\n        validateAppExists(appId);\n        validateAppOwner(appId, msg.sender);\n        GetLoginStorage.Application memory app = getLoginStorage.getApplication(appId);\n        app.title = title;\n        app.description = description;\n        app.allowedUrls = allowedUrls;\n        app.allowedContracts = allowedContracts;\n        getLoginStorage.setApplication(appId, app);\n    }\n\n    function addApplicationUrl(uint64 appId, string memory url) public {\n        validateAppExists(appId);\n        validateAppOwner(appId, msg.sender);\n        _addApplicationUrl(appId, url);\n    }\n\n    function addApplicationContract(uint64 appId, address wallet) public {\n        validateAppExists(appId);\n        validateAppOwner(appId, msg.sender);\n        _addApplicationContract(appId, wallet);\n    }\n\n    function deleteApplicationUrl(uint64 appId, uint index) public {\n        validateAppExists(appId);\n        validateAppOwner(appId, msg.sender);\n        _deleteApplicationUrl(appId, index);\n    }\n\n    function deleteApplicationContract(uint64 appId, uint index) public {\n        validateAppExists(appId);\n        validateAppOwner(appId, msg.sender);\n        _deleteApplicationContract(appId, index);\n    }\n\n    function deleteApplication(uint64 appId) public {\n        validateAppExists(appId);\n        validateAppOwner(appId, msg.sender);\n        _setApplicationActive(appId, false);\n    }\n\n    function restoreApplication(uint64 appId) public {\n        //validateAppExists(appId);\n        validateAppOwner(appId, msg.sender);\n        _setApplicationActive(appId, true);\n    }\n\n    function createUser(bytes32 usernameHash) public payable {\n        _createUser(usernameHash, msg.sender);\n    }\n\n    function createInvite(address payable[] memory invites) public payable {\n        // todo only main session can create invite\n        validateAddressRegistered(msg.sender);\n        for (uint i = 0; i < invites.length; i++) {\n            validateInviteAvailable(invites[i]);\n        }\n\n        bytes32 creatorUsernameHash = getUsernameByAddress(msg.sender);\n        uint256 val = 0;\n        if (msg.value > 0 && invites.length > 0) {\n            val = msg.value / invites.length;\n        }\n\n        for (uint i = 0; i < invites.length; i++) {\n            // todo invites[0] =>  invites[i]?\n            // todo cover with test this case\n            address payable inviteAddress = invites[i];\n            getLoginStorage.setInvite(inviteAddress, GetLoginStorage.InviteInfo({inviteAddress : inviteAddress, creatorUsername : creatorUsernameHash, registeredUsername : '', isActive : true}));\n            if (val > 0) {\n                inviteAddress.transfer(val);\n            }\n\n            getLoginStorage.emitEventInviteCreated(creatorUsernameHash, inviteAddress);\n        }\n    }\n\n    function createUserFromInvite(bytes32 usernameHash, address payable walletAddress, string memory ciphertext, string memory iv, string memory salt, string memory mac, bool allowReset) public payable {\n        validateInviteActive(msg.sender);\n        require(isAddressRegistered(walletAddress) == false, \"Address already registered\");\n        GetLoginStorage.InviteInfo memory invite = getLoginStorage.getInvite(msg.sender);\n        _createUser(usernameHash, walletAddress);\n        invite.isActive = false;\n        invite.registeredUsername = usernameHash;\n        getLoginStorage.setInvite(msg.sender, invite);\n        walletAddress.transfer(msg.value);\n        //setInviteReset(allowReset);\n        _setSettings(usernameHash, settingsInviteReset, allowReset ? \"true\" : \"false\");\n        getLoginStorage.emitEventStoreWallet(usernameHash, walletAddress, ciphertext, iv, salt, mac);\n    }\n\n    function changePassword(address payable walletAddress, string memory ciphertext, string memory iv, string memory salt, string memory mac, SessionData[] memory sessions) public payable {\n        validateAddressRegistered(msg.sender);\n        validateAddressAvailable(walletAddress);\n        bytes32 usernameHash = getUsernameByAddress(msg.sender);\n        getLoginStorage.setUsersAddressUsername(walletAddress, GetLoginStorage.Username({username : usernameHash, isActive : true}));\n        // deactivate old wallet\n        getLoginStorage.setUsersAddressUsername(msg.sender, GetLoginStorage.Username({username : usernameHash, isActive : false}));\n        //getLoginStorage.setUser(usernameHash, GetLoginStorage.UserInfo({username : usernameHash, isActive : false}));\n        // todo check _addSessionInit is needed\n        _addSessionInit(usernameHash, walletAddress, sessionMain, 0);\n        walletAddress.transfer(msg.value);\n        getLoginStorage.emitEventStoreWallet(usernameHash, walletAddress, ciphertext, iv, salt, mac);\n\n        for (uint i = 0; i < sessions.length; i++) {\n            SessionData memory session = sessions[i];\n            getLoginStorage.emitEventAppSession(session.appId, usernameHash, session.iv, session.ephemPublicKey, session.ciphertext, session.mac);\n        }\n    }\n\n    function createAppSession(uint64 appId, address payable wallet, string memory iv, string memory ephemPublicKey, string memory ciphertext, string memory mac) public payable {\n        validateAddressRegistered(msg.sender);\n        validateAppExists(appId);\n        bytes32 usernameHash = getUsernameByAddress(msg.sender);\n        // todo check only one main session possible\n        // todo hide user apps ids?\n        getLoginStorage.setUsersAddressUsername(wallet, GetLoginStorage.Username({isActive : true, username : usernameHash}));\n        wallet.transfer(msg.value);\n        getLoginStorage.emitEventAppSession(appId, usernameHash, iv, ephemPublicKey, ciphertext, mac);\n    }\n\n    function resetPassword(address payable walletAddress, string memory ciphertext, string memory iv, string memory salt, string memory mac) public payable {\n        GetLoginStorage.InviteInfo memory invite = getLoginStorage.getInvite(msg.sender);\n        require(invite.isActive == false, \"Only inactive invite can reset password\");\n        // todo check is correct\n        require(invite.registeredUsername != \"\", \"Only invite with username can reset password\");\n        require(keccak256(abi.encode(getInviteReset(invite.registeredUsername))) == keccak256(abi.encode(\"true\")), \"Settings not allow reset password\");\n        getLoginStorage.setUsersAddressUsername(walletAddress, GetLoginStorage.Username({username : invite.registeredUsername, isActive : true}));\n        walletAddress.transfer(msg.value);\n        getLoginStorage.emitEventStoreWallet(invite.registeredUsername, walletAddress, ciphertext, iv, salt, mac);\n    }\n\n    /*function addMainSession(address wallet) public payable {\n        validateAddressRegistered(msg.sender);\n        _addSession(wallet, sessionApp, 0);\n    }*/\n\n    function setInviteReset(string memory value) public {\n        bytes32 usernameHash = getUsernameByAddress(msg.sender);\n        _setSettings(usernameHash, settingsInviteReset, value);\n    }\n\n    /* End of public methods */\n\n    /* View methods */\n    function getApplication(uint64 id) public view returns (GetLoginStorage.Application memory) {\n        validateAppExists(id);\n\n        return getLoginStorage.getApplication(id);\n    }\n\n    function getUserInfo(bytes32 usernameHash) public view returns (GetLoginStorage.UserInfo memory) {\n        //return Users[usernameHash];\n        return getLoginStorage.getUser(usernameHash);\n    }\n\n    function isUsernameExists(bytes32 usernameHash) public view returns (bool) {\n        return getUserInfo(usernameHash).isActive;\n    }\n\n    function isAddressRegistered(address wallet) public view returns (bool) {\n        GetLoginStorage.Username memory currentUser = getLoginStorage.getUsersAddressUsername(wallet);\n        if (currentUser.isActive != true) {\n            return false;\n        }\n\n        GetLoginStorage.UserInfo memory info = getLoginStorage.getUser(currentUser.username);\n\n        return info.isActive;\n    }\n\n    function isAppOwner(uint64 appId, address checkAddress) public view returns (bool) {\n        bytes32 currentUsernameHash = getUsernameByAddress(checkAddress);\n        return getLoginStorage.getApplication(appId).usernameHash == currentUsernameHash;\n    }\n\n    function getUserByAddress(address wallet) public view returns (GetLoginStorage.UserInfo memory) {\n        GetLoginStorage.Username memory currentUser = getLoginStorage.getUsersAddressUsername(wallet);\n        require(currentUser.isActive, \"User with this address not found\");\n        return getLoginStorage.getUser(currentUser.username);\n    }\n\n    function getUsernameByAddress(address wallet) public view returns (bytes32) {\n        return getUserByAddress(wallet).username;\n    }\n\n    function isActiveInvite(address wallet) public view returns (bool) {\n        GetLoginStorage.InviteInfo memory info = getLoginStorage.getInvite(wallet);\n        return info.isActive;\n    }\n\n    function isInviteAddressUsed(address wallet) public view returns (bool) {\n        GetLoginStorage.InviteInfo memory info = getLoginStorage.getInvite(wallet);\n        return info.creatorUsername != '';\n    }\n\n    function getInvite(address wallet) public view returns (GetLoginStorage.InviteInfo memory) {\n        return getLoginStorage.getInvite(wallet);\n    }\n\n    function getUserSessions(bytes32 usernameHash) public view returns (GetLoginStorage.UserSession[] memory) {\n        return getLoginStorage.getUserSessions(usernameHash);\n    }\n\n    function getAllSettings(bytes32 usernameHash) public view returns (SettingsData memory) {\n        return SettingsData({inviteReset : getInviteReset(usernameHash)});\n    }\n\n    function getSettings(bytes32 usernameHash, string memory key) public view returns (string memory) {\n        // todo inspect is correct way / collisions possible\n        bytes32 keyHash = keccak256(abi.encode(usernameHash, \"_\", key));\n        return getLoginStorage.getSettings(keyHash);\n    }\n\n    function getInviteReset(bytes32 usernameHash) public view returns (string memory) {\n        return getSettings(usernameHash, settingsInviteReset);\n    }\n\n    /* End of view methods */\n}\n",
  "sourcePath": "/Users/sdancer/web/login/src/smart/contracts/GetLoginLogic.sol",
  "compiler": {
    "name": "solc",
    "version": "0.8.7+commit.e28d00a7.Emscripten.clang"
  },
  "schemaVersion": "3.4.3",
  "updatedAt": "2021-08-18T08:56:35.969Z",
  "networkType": "ethereum",
  "devdoc": {
    "kind": "dev",
    "methods": {},
    "version": 1
  },
  "userdoc": {
    "kind": "user",
    "methods": {},
    "version": 1
  }
}