{
  "contractName": "GetLoginStorage",
  "abi": [
    {
      "inputs": [],
      "stateMutability": "nonpayable",
      "type": "constructor"
    },
    {
      "anonymous": false,
      "inputs": [
        {
          "indexed": true,
          "internalType": "bytes32",
          "name": "creatorUsername",
          "type": "bytes32"
        },
        {
          "indexed": true,
          "internalType": "uint64",
          "name": "appId",
          "type": "uint64"
        }
      ],
      "name": "EventAppCreated",
      "type": "event"
    },
    {
      "anonymous": false,
      "inputs": [
        {
          "indexed": true,
          "internalType": "uint64",
          "name": "appId",
          "type": "uint64"
        },
        {
          "indexed": true,
          "internalType": "bytes32",
          "name": "username",
          "type": "bytes32"
        },
        {
          "indexed": false,
          "internalType": "string",
          "name": "iv",
          "type": "string"
        },
        {
          "indexed": false,
          "internalType": "string",
          "name": "ephemPublicKey",
          "type": "string"
        },
        {
          "indexed": false,
          "internalType": "string",
          "name": "ciphertext",
          "type": "string"
        },
        {
          "indexed": false,
          "internalType": "string",
          "name": "mac",
          "type": "string"
        }
      ],
      "name": "EventAppSession",
      "type": "event"
    },
    {
      "anonymous": false,
      "inputs": [
        {
          "indexed": true,
          "internalType": "bytes32",
          "name": "creatorUsername",
          "type": "bytes32"
        },
        {
          "indexed": false,
          "internalType": "address",
          "name": "inviteAddress",
          "type": "address"
        }
      ],
      "name": "EventInviteCreated",
      "type": "event"
    },
    {
      "anonymous": false,
      "inputs": [
        {
          "indexed": true,
          "internalType": "bytes32",
          "name": "username",
          "type": "bytes32"
        },
        {
          "indexed": true,
          "internalType": "address",
          "name": "walletAddress",
          "type": "address"
        },
        {
          "indexed": false,
          "internalType": "string",
          "name": "ciphertext",
          "type": "string"
        },
        {
          "indexed": false,
          "internalType": "string",
          "name": "iv",
          "type": "string"
        },
        {
          "indexed": false,
          "internalType": "string",
          "name": "salt",
          "type": "string"
        },
        {
          "indexed": false,
          "internalType": "string",
          "name": "mac",
          "type": "string"
        }
      ],
      "name": "EventStoreWallet",
      "type": "event"
    },
    {
      "inputs": [
        {
          "internalType": "uint64",
          "name": "",
          "type": "uint64"
        }
      ],
      "name": "Applications",
      "outputs": [
        {
          "internalType": "uint64",
          "name": "id",
          "type": "uint64"
        },
        {
          "internalType": "bytes32",
          "name": "usernameHash",
          "type": "bytes32"
        },
        {
          "internalType": "string",
          "name": "title",
          "type": "string"
        },
        {
          "internalType": "string",
          "name": "description",
          "type": "string"
        },
        {
          "internalType": "bool",
          "name": "isActive",
          "type": "bool"
        }
      ],
      "stateMutability": "view",
      "type": "function",
      "constant": true
    },
    {
      "inputs": [
        {
          "internalType": "address",
          "name": "",
          "type": "address"
        }
      ],
      "name": "Invites",
      "outputs": [
        {
          "internalType": "address",
          "name": "inviteAddress",
          "type": "address"
        },
        {
          "internalType": "bytes32",
          "name": "creatorUsername",
          "type": "bytes32"
        },
        {
          "internalType": "bytes32",
          "name": "registeredUsername",
          "type": "bytes32"
        },
        {
          "internalType": "bool",
          "name": "isActive",
          "type": "bool"
        }
      ],
      "stateMutability": "view",
      "type": "function",
      "constant": true
    },
    {
      "inputs": [
        {
          "internalType": "bytes32",
          "name": "",
          "type": "bytes32"
        },
        {
          "internalType": "uint256",
          "name": "",
          "type": "uint256"
        }
      ],
      "name": "UserSessions",
      "outputs": [
        {
          "internalType": "bytes32",
          "name": "username",
          "type": "bytes32"
        },
        {
          "internalType": "address",
          "name": "wallet",
          "type": "address"
        },
        {
          "internalType": "uint8",
          "name": "sessionType",
          "type": "uint8"
        },
        {
          "internalType": "uint64",
          "name": "appId",
          "type": "uint64"
        }
      ],
      "stateMutability": "view",
      "type": "function",
      "constant": true
    },
    {
      "inputs": [
        {
          "internalType": "bytes32",
          "name": "",
          "type": "bytes32"
        }
      ],
      "name": "Users",
      "outputs": [
        {
          "internalType": "bytes32",
          "name": "username",
          "type": "bytes32"
        },
        {
          "internalType": "bool",
          "name": "isActive",
          "type": "bool"
        }
      ],
      "stateMutability": "view",
      "type": "function",
      "constant": true
    },
    {
      "inputs": [
        {
          "internalType": "address",
          "name": "",
          "type": "address"
        }
      ],
      "name": "UsersAddressUsername",
      "outputs": [
        {
          "internalType": "bool",
          "name": "isActive",
          "type": "bool"
        },
        {
          "internalType": "bytes32",
          "name": "username",
          "type": "bytes32"
        }
      ],
      "stateMutability": "view",
      "type": "function",
      "constant": true
    },
    {
      "inputs": [
        {
          "internalType": "bytes32",
          "name": "",
          "type": "bytes32"
        }
      ],
      "name": "UsersSettings",
      "outputs": [
        {
          "internalType": "string",
          "name": "",
          "type": "string"
        }
      ],
      "stateMutability": "view",
      "type": "function",
      "constant": true
    },
    {
      "inputs": [],
      "name": "applicationId",
      "outputs": [
        {
          "internalType": "uint64",
          "name": "",
          "type": "uint64"
        }
      ],
      "stateMutability": "view",
      "type": "function",
      "constant": true
    },
    {
      "inputs": [],
      "name": "logicAddress",
      "outputs": [
        {
          "internalType": "address",
          "name": "",
          "type": "address"
        }
      ],
      "stateMutability": "view",
      "type": "function",
      "constant": true
    },
    {
      "inputs": [],
      "name": "owner",
      "outputs": [
        {
          "internalType": "address",
          "name": "",
          "type": "address"
        }
      ],
      "stateMutability": "view",
      "type": "function",
      "constant": true
    },
    {
      "inputs": [
        {
          "internalType": "address",
          "name": "_address",
          "type": "address"
        }
      ],
      "name": "setLogicAddress",
      "outputs": [],
      "stateMutability": "nonpayable",
      "type": "function"
    },
    {
      "inputs": [
        {
          "internalType": "bytes32",
          "name": "username",
          "type": "bytes32"
        },
        {
          "internalType": "address",
          "name": "walletAddress",
          "type": "address"
        },
        {
          "internalType": "string",
          "name": "ciphertext",
          "type": "string"
        },
        {
          "internalType": "string",
          "name": "iv",
          "type": "string"
        },
        {
          "internalType": "string",
          "name": "salt",
          "type": "string"
        },
        {
          "internalType": "string",
          "name": "mac",
          "type": "string"
        }
      ],
      "name": "emitEventStoreWallet",
      "outputs": [],
      "stateMutability": "nonpayable",
      "type": "function"
    },
    {
      "inputs": [
        {
          "internalType": "bytes32",
          "name": "creatorUsername",
          "type": "bytes32"
        },
        {
          "internalType": "address",
          "name": "inviteAddress",
          "type": "address"
        }
      ],
      "name": "emitEventInviteCreated",
      "outputs": [],
      "stateMutability": "nonpayable",
      "type": "function"
    },
    {
      "inputs": [
        {
          "internalType": "uint64",
          "name": "appId",
          "type": "uint64"
        },
        {
          "internalType": "bytes32",
          "name": "username",
          "type": "bytes32"
        },
        {
          "internalType": "string",
          "name": "iv",
          "type": "string"
        },
        {
          "internalType": "string",
          "name": "ephemPublicKey",
          "type": "string"
        },
        {
          "internalType": "string",
          "name": "ciphertext",
          "type": "string"
        },
        {
          "internalType": "string",
          "name": "mac",
          "type": "string"
        }
      ],
      "name": "emitEventAppSession",
      "outputs": [],
      "stateMutability": "nonpayable",
      "type": "function"
    },
    {
      "inputs": [
        {
          "internalType": "bytes32",
          "name": "creatorUsername",
          "type": "bytes32"
        },
        {
          "internalType": "uint64",
          "name": "appId",
          "type": "uint64"
        }
      ],
      "name": "emitEventAppCreated",
      "outputs": [],
      "stateMutability": "nonpayable",
      "type": "function"
    },
    {
      "inputs": [
        {
          "internalType": "bytes32",
          "name": "usernameHash",
          "type": "bytes32"
        }
      ],
      "name": "getUser",
      "outputs": [
        {
          "components": [
            {
              "internalType": "bytes32",
              "name": "username",
              "type": "bytes32"
            },
            {
              "internalType": "bool",
              "name": "isActive",
              "type": "bool"
            }
          ],
          "internalType": "struct GetLoginStorage.UserInfo",
          "name": "",
          "type": "tuple"
        }
      ],
      "stateMutability": "view",
      "type": "function",
      "constant": true
    },
    {
      "inputs": [
        {
          "internalType": "bytes32",
          "name": "usernameHash",
          "type": "bytes32"
        },
        {
          "components": [
            {
              "internalType": "bytes32",
              "name": "username",
              "type": "bytes32"
            },
            {
              "internalType": "bool",
              "name": "isActive",
              "type": "bool"
            }
          ],
          "internalType": "struct GetLoginStorage.UserInfo",
          "name": "info",
          "type": "tuple"
        }
      ],
      "name": "setUser",
      "outputs": [],
      "stateMutability": "nonpayable",
      "type": "function"
    },
    {
      "inputs": [
        {
          "internalType": "bytes32",
          "name": "key",
          "type": "bytes32"
        }
      ],
      "name": "getSettings",
      "outputs": [
        {
          "internalType": "string",
          "name": "",
          "type": "string"
        }
      ],
      "stateMutability": "view",
      "type": "function",
      "constant": true
    },
    {
      "inputs": [
        {
          "internalType": "bytes32",
          "name": "key",
          "type": "bytes32"
        },
        {
          "internalType": "string",
          "name": "value",
          "type": "string"
        }
      ],
      "name": "setSettings",
      "outputs": [],
      "stateMutability": "nonpayable",
      "type": "function"
    },
    {
      "inputs": [
        {
          "internalType": "address",
          "name": "_address",
          "type": "address"
        }
      ],
      "name": "getUsersAddressUsername",
      "outputs": [
        {
          "components": [
            {
              "internalType": "bool",
              "name": "isActive",
              "type": "bool"
            },
            {
              "internalType": "bytes32",
              "name": "username",
              "type": "bytes32"
            }
          ],
          "internalType": "struct GetLoginStorage.Username",
          "name": "",
          "type": "tuple"
        }
      ],
      "stateMutability": "view",
      "type": "function",
      "constant": true
    },
    {
      "inputs": [
        {
          "internalType": "address",
          "name": "_address",
          "type": "address"
        },
        {
          "components": [
            {
              "internalType": "bool",
              "name": "isActive",
              "type": "bool"
            },
            {
              "internalType": "bytes32",
              "name": "username",
              "type": "bytes32"
            }
          ],
          "internalType": "struct GetLoginStorage.Username",
          "name": "info",
          "type": "tuple"
        }
      ],
      "name": "setUsersAddressUsername",
      "outputs": [],
      "stateMutability": "nonpayable",
      "type": "function"
    },
    {
      "inputs": [
        {
          "internalType": "uint64",
          "name": "id",
          "type": "uint64"
        }
      ],
      "name": "getApplication",
      "outputs": [
        {
          "components": [
            {
              "internalType": "uint64",
              "name": "id",
              "type": "uint64"
            },
            {
              "internalType": "bytes32",
              "name": "usernameHash",
              "type": "bytes32"
            },
            {
              "internalType": "string",
              "name": "title",
              "type": "string"
            },
            {
              "internalType": "string",
              "name": "description",
              "type": "string"
            },
            {
              "internalType": "string[]",
              "name": "allowedUrls",
              "type": "string[]"
            },
            {
              "internalType": "address[]",
              "name": "allowedContracts",
              "type": "address[]"
            },
            {
              "internalType": "bool",
              "name": "isActive",
              "type": "bool"
            }
          ],
          "internalType": "struct GetLoginStorage.Application",
          "name": "",
          "type": "tuple"
        }
      ],
      "stateMutability": "view",
      "type": "function",
      "constant": true
    },
    {
      "inputs": [
        {
          "internalType": "uint64",
          "name": "id",
          "type": "uint64"
        },
        {
          "components": [
            {
              "internalType": "uint64",
              "name": "id",
              "type": "uint64"
            },
            {
              "internalType": "bytes32",
              "name": "usernameHash",
              "type": "bytes32"
            },
            {
              "internalType": "string",
              "name": "title",
              "type": "string"
            },
            {
              "internalType": "string",
              "name": "description",
              "type": "string"
            },
            {
              "internalType": "string[]",
              "name": "allowedUrls",
              "type": "string[]"
            },
            {
              "internalType": "address[]",
              "name": "allowedContracts",
              "type": "address[]"
            },
            {
              "internalType": "bool",
              "name": "isActive",
              "type": "bool"
            }
          ],
          "internalType": "struct GetLoginStorage.Application",
          "name": "data",
          "type": "tuple"
        }
      ],
      "name": "setApplication",
      "outputs": [],
      "stateMutability": "nonpayable",
      "type": "function"
    },
    {
      "inputs": [],
      "name": "incrementApplicationId",
      "outputs": [],
      "stateMutability": "nonpayable",
      "type": "function"
    },
    {
      "inputs": [
        {
          "internalType": "uint64",
          "name": "id",
          "type": "uint64"
        },
        {
          "internalType": "string",
          "name": "url",
          "type": "string"
        }
      ],
      "name": "pushApplicationUrl",
      "outputs": [],
      "stateMutability": "nonpayable",
      "type": "function"
    },
    {
      "inputs": [
        {
          "internalType": "uint64",
          "name": "id",
          "type": "uint64"
        },
        {
          "internalType": "address",
          "name": "wallet",
          "type": "address"
        }
      ],
      "name": "pushApplicationContract",
      "outputs": [],
      "stateMutability": "nonpayable",
      "type": "function"
    },
    {
      "inputs": [
        {
          "internalType": "uint64",
          "name": "id",
          "type": "uint64"
        },
        {
          "internalType": "uint256",
          "name": "index",
          "type": "uint256"
        }
      ],
      "name": "deleteApplicationUrl",
      "outputs": [],
      "stateMutability": "nonpayable",
      "type": "function"
    },
    {
      "inputs": [
        {
          "internalType": "uint64",
          "name": "id",
          "type": "uint64"
        },
        {
          "internalType": "uint256",
          "name": "index",
          "type": "uint256"
        }
      ],
      "name": "deleteApplicationContract",
      "outputs": [],
      "stateMutability": "nonpayable",
      "type": "function"
    },
    {
      "inputs": [
        {
          "internalType": "bytes32",
          "name": "usernameHash",
          "type": "bytes32"
        },
        {
          "internalType": "address",
          "name": "wallet",
          "type": "address"
        },
        {
          "internalType": "uint8",
          "name": "sessionType",
          "type": "uint8"
        },
        {
          "internalType": "uint64",
          "name": "appId",
          "type": "uint64"
        }
      ],
      "name": "pushUserSession",
      "outputs": [],
      "stateMutability": "nonpayable",
      "type": "function"
    },
    {
      "inputs": [
        {
          "internalType": "address",
          "name": "_address",
          "type": "address"
        }
      ],
      "name": "getInvite",
      "outputs": [
        {
          "components": [
            {
              "internalType": "address",
              "name": "inviteAddress",
              "type": "address"
            },
            {
              "internalType": "bytes32",
              "name": "creatorUsername",
              "type": "bytes32"
            },
            {
              "internalType": "bytes32",
              "name": "registeredUsername",
              "type": "bytes32"
            },
            {
              "internalType": "bool",
              "name": "isActive",
              "type": "bool"
            }
          ],
          "internalType": "struct GetLoginStorage.InviteInfo",
          "name": "",
          "type": "tuple"
        }
      ],
      "stateMutability": "view",
      "type": "function",
      "constant": true
    },
    {
      "inputs": [
        {
          "internalType": "address",
          "name": "_address",
          "type": "address"
        },
        {
          "components": [
            {
              "internalType": "address",
              "name": "inviteAddress",
              "type": "address"
            },
            {
              "internalType": "bytes32",
              "name": "creatorUsername",
              "type": "bytes32"
            },
            {
              "internalType": "bytes32",
              "name": "registeredUsername",
              "type": "bytes32"
            },
            {
              "internalType": "bool",
              "name": "isActive",
              "type": "bool"
            }
          ],
          "internalType": "struct GetLoginStorage.InviteInfo",
          "name": "data",
          "type": "tuple"
        }
      ],
      "name": "setInvite",
      "outputs": [],
      "stateMutability": "nonpayable",
      "type": "function"
    },
    {
      "inputs": [
        {
          "internalType": "bytes32",
          "name": "usernameHash",
          "type": "bytes32"
        }
      ],
      "name": "getUserSessions",
      "outputs": [
        {
          "components": [
            {
              "internalType": "bytes32",
              "name": "username",
              "type": "bytes32"
            },
            {
              "internalType": "address",
              "name": "wallet",
              "type": "address"
            },
            {
              "internalType": "uint8",
              "name": "sessionType",
              "type": "uint8"
            },
            {
              "internalType": "uint64",
              "name": "appId",
              "type": "uint64"
            }
          ],
          "internalType": "struct GetLoginStorage.UserSession[]",
          "name": "",
          "type": "tuple[]"
        }
      ],
      "stateMutability": "view",
      "type": "function",
      "constant": true
    }
  ],
  "bytecode": "0x60806040526001805460a060020a60e060020a0319167401000000000000000000000000000000000000000017905534801561003a57600080fd5b5060008054600160a060020a031916331790556122e88061005c6000396000f3fe608060405234801561001057600080fd5b5060043610610202576000357c0100000000000000000000000000000000000000000000000000000000900480638da0c6e31161012c578063b68baa15116100bf578063dce2dd171161008e578063dce2dd171461048b578063ec46474c1461049e578063f0e881b7146104b1578063fdcfc3ef146104d557610202565b8063b68baa1514610425578063c17b528914610438578063cf1d3e7c1461044b578063dcac263e1461046b57610202565b8063a091acb2116100fb578063a091acb2146103ae578063abc040ca146103d1578063b302e951146103e4578063b3d8b20e1461040557610202565b80638da0c6e31461035d5780638da5cb5b1461037e5780639931f4f2146103935780639c1fcc4c146103a657610202565b80633122da98116101a45780636517579c116101735780636517579c146103025780636d822b44146103225780636fb89051146103355780638ad104191461034857610202565b80633122da98146102b457806350d2c00e146102bc57806358ad5022146102cf57806361c65e2c146102e257610202565b8063212109e4116101e0578063212109e41461025b5780632226e4381461026e5780632ef9adc31461028e5780632f23976c146102a157610202565b8063036fbb74146102075780630913be411461021c578063166189e11461022f575b600080fd5b61021a610215366004611c9e565b6104e8565b005b61021a61022a3660046118e5565b610563565b61024261023d3660046118c3565b6105ed565b6040516102529493929190611f1e565b60405180910390f35b61021a610269366004611c2e565b610621565b61028161027c366004611c06565b61069b565b60405161025291906120dc565b61021a61029c3660046119d7565b610951565b61021a6102af366004611c59565b6109ba565b61021a610a38565b61021a6102ca366004611cd5565b610aab565b61021a6102dd366004611b62565b610ba4565b6102f56102f03660046118c3565b610bff565b6040516102529190612189565b6103156103103660046119bf565b610c5d565b60405161025291906121bf565b61021a610330366004611a06565b610c94565b61021a610343366004611b1d565b610d01565b610350610d4d565b60405161025291906121f1565b61037061036b3660046119bf565b610d64565b604051610252929190611ff4565b610386610d80565b6040516102529190611f0a565b61021a6103a1366004611ac8565b610d8f565b610386610eb0565b6103c16103bc366004611bb9565b610ebf565b6040516102529493929190611fc3565b61021a6103df366004611deb565b610f30565b6103f76103f23660046118c3565b610fa2565b604051610252929190611fb3565b6104186104133660046119bf565b610fc1565b6040516102529190611f46565b61021a610433366004611bda565b611084565b61021a610446366004611961565b6110ec565b61045e6104593660046119bf565b61114f565b6040516102529190612004565b61047e6104793660046118c3565b6111ea565b60405161025291906121d8565b61045e6104993660046119bf565b61122a565b61021a6104ac366004611deb565b6112cb565b6104c46104bf366004611c06565b61133a565b604051610252959493929190612206565b61021a6104e33660046118c3565b61148a565b600154600160a060020a0316331461051e5760405160e560020a62461bcd028152600401610515906120a5565b60405180910390fd5b67ffffffffffffffff821660009081526007602090815260408220600401805460018101825590835291819020835161055e9391909101918401906114d9565b505050565b600154600160a060020a031633146105905760405160e560020a62461bcd028152600401610515906120a5565b600160a060020a0391821660009081526006602090815260409182902083518154600160a060020a031916951694909417845582015160018401558101516002830155606001516003909101805460ff1916911515919091179055565b6006602052600090815260409020805460018201546002830154600390930154600160a060020a0390921692909160ff1684565b600154600160a060020a0316331461064e5760405160e560020a62461bcd028152600401610515906120a5565b67ffffffffffffffff919091166000908152600760209081526040822060050180546001810182559083529120018054600160a060020a031916600160a060020a03909216919091179055565b6106a3611557565b67ffffffffffffffff828116600090815260076020908152604091829020825160e08101845281549094168452600180820154858401526002808301805486516101009482161594909402600019011691909104601f810185900485028301850186528083529294860193919290918301828280156107635780601f1061073857610100808354040283529160200191610763565b820191906000526020600020905b81548152906001019060200180831161074657829003601f168201915b505050918352505060038201805460408051602060026001851615610100026000190190941693909304601f81018490048402820184019092528181529382019392918301828280156107f75780601f106107cc576101008083540402835291602001916107f7565b820191906000526020600020905b8154815290600101906020018083116107da57829003601f168201915b5050505050815260200160048201805480602002602001604051908101604052809291908181526020016000905b828210156108d05760008481526020908190208301805460408051601f60026000196101006001871615020190941693909304928301859004850281018501909152818152928301828280156108bc5780601f10610891576101008083540402835291602001916108bc565b820191906000526020600020905b81548152906001019060200180831161089f57829003601f168201915b505050505081526020019060010190610825565b5050505081526020016005820180548060200260200160405190810160405280929190818152602001828054801561093157602002820191906000526020600020905b8154600160a060020a03168152600190910190602001808311610913575b50505091835250506006919091015460ff16151560209091015292915050565b600154600160a060020a0316331461097e5760405160e560020a62461bcd028152600401610515906120a5565b817ffb9c09af146046471545036a9ad9501d4a212a27e1e3e0135faa553c9da7c64f826040516109ae9190611f0a565b60405180910390a25050565b600154600160a060020a031633146109e75760405160e560020a62461bcd028152600401610515906120a5565b848667ffffffffffffffff167fc6a8c53e4ea99f3df3fda387089554e433979928188cd5f060beef10f5097a3486868686604051610a289493929190612017565b60405180910390a3505050505050565b600154600160a060020a03163314610a655760405160e560020a62461bcd028152600401610515906120a5565b6001805467ffffffffffffffff60a060020a80830482168401909116027fffffffff0000000000000000ffffffffffffffffffffffffffffffffffffffff909116179055565b600154600160a060020a03163314610ad85760405160e560020a62461bcd028152600401610515906120a5565b67ffffffffffffffff8281166000908152600760209081526040918290208451815467ffffffffffffffff19169416939093178355838101516001840155908301518051849392610b309260028501929101906114d9565b5060608201518051610b4c9160038401916020909101906114d9565b5060808201518051610b689160048401916020909101906115a3565b5060a08201518051610b849160058401916020909101906115fc565b5060c091909101516006909101805460ff19169115159190911790555050565b600154600160a060020a03163314610bd15760405160e560020a62461bcd028152600401610515906120a5565b6000918252600260209081526040909220815181559101516001909101805460ff1916911515919091179055565b610c0761165d565b50600160a060020a039081166000908152600660209081526040918290208251608081018452815490941684526001810154918401919091526002810154918301919091526003015460ff161515606082015290565b610c65611684565b506000908152600260209081526040918290208251808401909352805483526001015460ff1615159082015290565b600154600160a060020a03163314610cc15760405160e560020a62461bcd028152600401610515906120a5565b84600160a060020a0316867fa5cc3574bc05315d30d8c2a0c15550ca1a1f667fcc96f1612983e18fbdcee85d86868686604051610a289493929190612017565b600154600160a060020a03163314610d2e5760405160e560020a62461bcd028152600401610515906120a5565b6000828152600360209081526040909120825161055e928401906114d9565b60015460a060020a900467ffffffffffffffff1681565b6002602052600090815260409020805460019091015460ff1682565b600054600160a060020a031681565b600154600160a060020a03163314610dbc5760405160e560020a62461bcd028152600401610515906120a5565b60008481526005602090815260408083208151608081018352978852600160a060020a0396871688840190815260ff96871692890192835267ffffffffffffffff95861660608a019081528254600180820185559387529490952098516002909402909801928355965191909601805496519251600160a060020a0319909716919095161774ff0000000000000000000000000000000000000000191660a060020a9190931602919091177fffffff0000000000000000ffffffffffffffffffffffffffffffffffffffffff1675010000000000000000000000000000000000000000009390911692909202919091179055565b600154600160a060020a031681565b60056020528160005260406000208181548110610ed857fe5b600091825260209091206002909102018054600190910154909250600160a060020a038116915060a060020a810460ff16907501000000000000000000000000000000000000000000900467ffffffffffffffff1684565b600154600160a060020a03163314610f5d5760405160e560020a62461bcd028152600401610515906120a5565b67ffffffffffffffff82166000908152600760205260409020600501805482908110610f8557fe5b60009182526020909120018054600160a060020a03191690555050565b6004602052600090815260409020805460019091015460ff9091169082565b606060056000838152602001908152602001600020805480602002602001604051908101604052809291908181526020016000905b82821015611079576000848152602090819020604080516080810182526002860290920180548352600190810154600160a060020a0381168486015260a060020a810460ff1692840192909252750100000000000000000000000000000000000000000090910467ffffffffffffffff1660608301529083529092019101610ff6565b505050509050919050565b600154600160a060020a031633146110b15760405160e560020a62461bcd028152600401610515906120a5565b60405167ffffffffffffffff82169083907f338314ce7f502e7ff312cf1d09a3cd6f5591aa25947b6dbba8da8cf4731e8d0590600090a35050565b600154600160a060020a031633146111195760405160e560020a62461bcd028152600401610515906120a5565b600160a060020a039190911660009081526004602090815260409091208251815460ff1916901515178155910151600190910155565b60036020908152600091825260409182902080548351601f6002600019610100600186161502019093169290920491820184900484028101840190945280845290918301828280156111e25780601f106111b7576101008083540402835291602001916111e2565b820191906000526020600020905b8154815290600101906020018083116111c557829003601f168201915b505050505081565b6111f2611684565b50600160a060020a03166000908152600460209081526040918290208251808401909352805460ff1615158352600101549082015290565b60008181526003602090815260409182902080548351601f60026000196101006001861615020190931692909204918201849004840281018401909452808452606093928301828280156112bf5780601f10611294576101008083540402835291602001916112bf565b820191906000526020600020905b8154815290600101906020018083116112a257829003601f168201915b50505050509050919050565b600154600160a060020a031633146112f85760405160e560020a62461bcd028152600401610515906120a5565b67ffffffffffffffff8216600090815260076020526040902060040180548290811061132057fe5b906000526020600020016000611336919061169b565b5050565b60076020908152600091825260409182902080546001808301546002808501805488516101009582161595909502600019011691909104601f810187900487028401870190975286835267ffffffffffffffff9093169590949192918301828280156113e75780601f106113bc576101008083540402835291602001916113e7565b820191906000526020600020905b8154815290600101906020018083116113ca57829003601f168201915b5050505060038301805460408051602060026001851615610100026000190190941693909304601f81018490048402820184019092528181529495949350908301828280156114775780601f1061144c57610100808354040283529160200191611477565b820191906000526020600020905b81548152906001019060200180831161145a57829003601f168201915b5050506006909301549192505060ff1685565b600054600160a060020a031633146114b75760405160e560020a62461bcd0281526004016105159061206e565b60018054600160a060020a031916600160a060020a0392909216919091179055565b828054600181600116156101000203166002900490600052602060002090601f016020900481019282601f1061151a57805160ff1916838001178555611547565b82800160010185558215611547579182015b8281111561154757825182559160200191906001019061152c565b506115539291506116e2565b5090565b6040518060e00160405280600067ffffffffffffffff16815260200160008019168152602001606081526020016060815260200160608152602001606081526020016000151581525090565b8280548282559060005260206000209081019282156115f0579160200282015b828111156115f057825180516115e09184916020909101906114d9565b50916020019190600101906115c3565b506115539291506116ff565b828054828255906000526020600020908101928215611651579160200282015b828111156116515782518254600160a060020a031916600160a060020a0390911617825560209092019160019091019061161c565b50611553929150611722565b60408051608081018252600080825260208201819052918101829052606081019190915290565b604080518082019091526000808252602082015290565b50805460018160011615610100020316600290046000825580601f106116c157506116df565b601f0160209004906000526020600020908101906116df91906116e2565b50565b6116fc91905b8082111561155357600081556001016116e8565b90565b6116fc91905b80821115611553576000611719828261169b565b50600101611705565b6116fc91905b80821115611553578054600160a060020a0319168155600101611728565b8035600160a060020a038116811461175d57600080fd5b92915050565b600082601f830112611773578081fd5b81356117866117818261227d565b612256565b8181529150602080830190848101818402860182018710156117a757600080fd5b60005b848110156117cf5781356117bd8161229d565b845292820192908201906001016117aa565b505050505092915050565b600082601f8301126117ea578081fd5b81356117f86117818261227d565b818152915060208083019084810160005b848110156117cf57611820888484358a0101611842565b84529282019290820190600101611809565b8035801515811461175d57600080fd5b600082601f830112611852578081fd5b813567ffffffffffffffff811115611868578182fd5b61187b601f8201601f1916602001612256565b915080825283602082850101111561189257600080fd5b8060208401602084013760009082016020015292915050565b803567ffffffffffffffff8116811461175d57600080fd5b6000602082840312156118d4578081fd5b6118de8383611746565b9392505050565b60008082840360a08112156118f8578182fd5b83356119038161229d565b92506080601f1982011215611916578182fd5b506119216080612256565b61192e8560208601611746565b815260408401356020820152606084013560408201526119518560808601611832565b6060820152809150509250929050565b6000808284036060811215611974578283fd5b833561197f8161229d565b92506040601f1982011215611992578182fd5b5061199d6040612256565b6119aa8560208601611832565b81526040939093013560208401525092909150565b6000602082840312156119d0578081fd5b5035919050565b600080604083850312156119e9578182fd5b8235915060208301356119fb8161229d565b809150509250929050565b60008060008060008060c08789031215611a1e578182fd5b86359550611a2f8860208901611746565b9450604087013567ffffffffffffffff80821115611a4b578384fd5b611a578a838b01611842565b95506060890135915080821115611a6c578384fd5b611a788a838b01611842565b94506080890135915080821115611a8d578384fd5b611a998a838b01611842565b935060a0890135915080821115611aae578283fd5b50611abb89828a01611842565b9150509295509295509295565b60008060008060808587031215611add578182fd5b84359350611aee8660208701611746565b9250604085013560ff81168114611b03578283fd5b9150611b1286606087016118ab565b905092959194509250565b60008060408385031215611b2f578182fd5b82359150602083013567ffffffffffffffff811115611b4c578182fd5b611b5885828601611842565b9150509250929050565b6000808284036060811215611b75578283fd5b833592506040601f1982011215611b8a578182fd5b50611b956040612256565b60208401358152611ba98560408601611832565b6020820152809150509250929050565b60008060408385031215611bcb578182fd5b50508035926020909101359150565b60008060408385031215611bec578182fd5b82359150611bfd84602085016118ab565b90509250929050565b600060208284031215611c17578081fd5b813567ffffffffffffffff811681146118de578182fd5b60008060408385031215611c40578182fd5b611c4a84846118ab565b9150611bfd8460208501611746565b60008060008060008060c08789031215611c71578384fd5b611c7b88886118ab565b955060208701359450604087013567ffffffffffffffff80821115611a4b578586fd5b60008060408385031215611cb0578182fd5b611cba84846118ab565b9150602083013567ffffffffffffffff811115611b4c578182fd5b60008060408385031215611ce7578182fd5b611cf184846118ab565b9150602083013567ffffffffffffffff80821115611d0d578283fd5b81850160e08188031215611d1f578384fd5b611d2960e0612256565b9250611d3587826118ab565b835260208101356020840152604081013582811115611d52578485fd5b611d5e88828401611842565b604085015250606081013582811115611d75578485fd5b611d8188828401611842565b606085015250608081013582811115611d98578485fd5b611da4888284016117da565b60808501525060a081013582811115611dbb578485fd5b611dc788828401611763565b60a085015250611dda8760c08301611832565b60c084015250929590945092505050565b60008060408385031215611dfd578182fd5b611e0784846118ab565b946020939093013593505050565b6000815180845260208085019450808401835b83811015611e4d578151600160a060020a031687529582019590820190600101611e28565b509495945050505050565b6000815180845260208085018081965082840281019150828601855b85811015611e9e578284038952611e8c848351611eb1565b98850198935090840190600101611e74565b5091979650505050505050565b15159052565b60008151808452815b81811015611ed657602081850181015186830182015201611eba565b81811115611ee75782602083870101525b50601f01601f19169290920160200192915050565b67ffffffffffffffff169052565b600160a060020a0391909116815260200190565b600160a060020a03949094168452602084019290925260408301521515606082015260800190565b602080825282518282018190526000919060409081850190868401855b82811015611e9e5781518051855286810151600160a060020a0316878601528581015160ff168686015260609081015167ffffffffffffffff169085015260809093019290850190600101611f63565b9115158252602082015260400190565b938452600160a060020a0392909216602084015260ff16604083015267ffffffffffffffff16606082015260800190565b9182521515602082015260400190565b6000602082526118de6020830184611eb1565b60006080825261202a6080830187611eb1565b828103602084015261203c8187611eb1565b838103604085015261204e8187611eb1565b91505082810360608401526120638185611eb1565b979650505050505050565b60208082526017908201527f43616c6c6572206973206e6f7420746865206f776e6572000000000000000000604082015260600190565b6020808252601f908201527f43616c6c6572206973206e6f7420746865206c6f676963206164647265737300604082015260600190565b6000602082526120f0602083018451611efc565b60208301516040830152604083015160e06060840152612114610100840182611eb1565b60608501519150601f19808583030160808601526121328284611eb1565b60808701519350818682030160a087015261214d8185611e58565b92505060a08601519250808583030160c08601525061216c8183611e15565b60c0860151925061218060e0860184611eab565b95945050505050565b8151600160a060020a03168152602080830151908201526040808301519082015260609182015115159181019190915260800190565b8151815260209182015115159181019190915260400190565b8151151581526020918201519181019190915260400190565b67ffffffffffffffff91909116815260200190565b600067ffffffffffffffff8716825285602083015260a0604083015261222f60a0830186611eb1565b82810360608401526122418186611eb1565b91505082151560808301529695505050505050565b60405181810167ffffffffffffffff8111828210171561227557600080fd5b604052919050565b600067ffffffffffffffff821115612293578081fd5b5060209081020190565b600160a060020a03811681146116df57600080fdfea2646970667358221220711f15cf662b9119758b5fc4080913f875268ddc09f58e1130b78ce6b605becd64736f6c63430006040033",
  "source": "pragma solidity ^0.6.4;\npragma experimental ABIEncoderV2;\n\ncontract GetLoginStorage {\n    address public owner;\n    address public logicAddress;\n\n    constructor () public {\n        owner = msg.sender;\n    }\n\n    modifier onlyOwner() {\n        require(msg.sender == owner, \"Caller is not the owner\");\n        _;\n    }\n\n    modifier onlyLogicAddress() {\n        require(msg.sender == logicAddress, \"Caller is not the logic address\");\n        _;\n    }\n\n    event EventStoreWallet(bytes32 indexed username, address indexed walletAddress, string ciphertext, string iv, string salt, string mac);\n    event EventInviteCreated(bytes32 indexed creatorUsername, address inviteAddress);\n    event EventAppSession(uint64 indexed appId, bytes32 indexed username, string iv, string ephemPublicKey, string ciphertext, string mac);\n    event EventAppCreated(bytes32 indexed creatorUsername, uint64 indexed appId);\n\n    struct Username\n    {\n        bool isActive;\n        // todo define a uniform variable name\n        bytes32 username;\n    }\n\n    struct UserInfo\n    {\n        // todo define a uniform variable name\n        bytes32 username;\n        bool isActive;\n    }\n\n    struct InviteInfo\n    {\n        address inviteAddress;\n        // todo define a uniform variable name\n        bytes32 creatorUsername;\n        bytes32 registeredUsername;\n        bool isActive;\n    }\n\n    struct UserSession\n    {\n        // todo define a uniform variable name\n        bytes32 username;\n        address wallet;\n        uint8 sessionType;\n        uint64 appId;\n    }\n\n    struct Application\n    {\n        uint64 id;\n        // todo define a uniform variable name (usernameHash or username)\n        bytes32 usernameHash;\n        string title;\n        string description;\n        string[] allowedUrls;\n        address[] allowedContracts;\n        bool isActive;\n    }\n\n    uint64 public applicationId = 1;\n\n    mapping(bytes32 => UserInfo) public Users;\n    mapping(bytes32 => string) public UsersSettings;\n    mapping(address => Username) public UsersAddressUsername;\n    mapping(bytes32 => UserSession[]) public UserSessions;\n    mapping(address => InviteInfo) public Invites;\n    mapping(uint64 => Application) public Applications;\n\n    function setLogicAddress(address _address) onlyOwner public {\n        logicAddress = _address;\n    }\n\n    function emitEventStoreWallet(bytes32 username, address walletAddress, string memory ciphertext, string memory iv, string memory salt, string memory mac) onlyLogicAddress public {\n        emit EventStoreWallet(username, walletAddress, ciphertext, iv, salt, mac);\n    }\n\n    function emitEventInviteCreated(bytes32 creatorUsername, address inviteAddress) onlyLogicAddress public {\n        emit EventInviteCreated(creatorUsername, inviteAddress);\n    }\n\n    function emitEventAppSession(uint64 appId, bytes32 username, string memory iv, string memory ephemPublicKey, string memory ciphertext, string memory mac) onlyLogicAddress public {\n        emit EventAppSession(appId, username, iv, ephemPublicKey, ciphertext, mac);\n    }\n\n    function emitEventAppCreated(bytes32 creatorUsername, uint64 appId) onlyLogicAddress public {\n        emit EventAppCreated(creatorUsername, appId);\n    }\n\n    function getUser(bytes32 usernameHash) public view returns (UserInfo memory){\n        return Users[usernameHash];\n    }\n\n    function setUser(bytes32 usernameHash, UserInfo memory info) onlyLogicAddress public {\n        Users[usernameHash] = info;\n    }\n\n    function getSettings(bytes32 key) public view returns (string memory){\n        return UsersSettings[key];\n    }\n\n    function setSettings(bytes32 key, string memory value) onlyLogicAddress public {\n        UsersSettings[key] = value;\n    }\n\n    function getUsersAddressUsername(address _address) public view returns (Username memory){\n        return UsersAddressUsername[_address];\n    }\n\n    function setUsersAddressUsername(address _address, Username memory info) onlyLogicAddress public {\n        UsersAddressUsername[_address] = info;\n    }\n\n    function getApplication(uint64 id) public view returns (Application memory){\n        return Applications[id];\n    }\n\n    function setApplication(uint64 id, Application memory data) onlyLogicAddress public {\n        Applications[id] = data;\n    }\n\n    function incrementApplicationId() onlyLogicAddress public {\n        applicationId++;\n    }\n\n    function pushApplicationUrl(uint64 id, string memory url) onlyLogicAddress public {\n        Applications[id].allowedUrls.push(url);\n    }\n\n    function pushApplicationContract(uint64 id, address wallet) onlyLogicAddress public {\n        Applications[id].allowedContracts.push(wallet);\n    }\n\n    function deleteApplicationUrl(uint64 id, uint index) onlyLogicAddress public {\n        delete Applications[id].allowedUrls[index];\n    }\n\n    function deleteApplicationContract(uint64 id, uint index) onlyLogicAddress public {\n        delete Applications[id].allowedContracts[index];\n    }\n\n    function pushUserSession(bytes32 usernameHash, address wallet, uint8 sessionType, uint64 appId) onlyLogicAddress public {\n        UserSessions[usernameHash].push(UserSession({username : usernameHash, wallet : wallet, sessionType : sessionType, appId : appId}));\n    }\n\n    function getInvite(address _address) public view returns (InviteInfo memory){\n        return Invites[_address];\n    }\n\n    function setInvite(address _address, InviteInfo memory data) onlyLogicAddress public {\n        Invites[_address] = data;\n    }\n\n    function getUserSessions(bytes32 usernameHash) public view returns (UserSession[] memory){\n        return UserSessions[usernameHash];\n    }\n}\n",
  "sourcePath": "/Users/sdancer/web/login/src/smart/contracts/GetLoginStorage.sol",
  "compiler": {
    "name": "solc",
    "version": "0.6.4+commit.1dca32f3.Emscripten.clang"
  },
  "schemaVersion": "3.4.3",
  "updatedAt": "2021-08-17T19:30:06.091Z",
  "networkType": "ethereum",
  "devdoc": {
    "methods": {}
  },
  "userdoc": {
    "methods": {}
  }
}