{
  "contractName": "GetLoginStorage",
  "abi": [
    {
      "inputs": [],
      "stateMutability": "nonpayable",
      "type": "constructor"
    },
    {
      "anonymous": false,
      "inputs": [
        {
          "indexed": true,
          "internalType": "bytes32",
          "name": "creatorUsername",
          "type": "bytes32"
        },
        {
          "indexed": true,
          "internalType": "uint64",
          "name": "appId",
          "type": "uint64"
        }
      ],
      "name": "EventAppCreated",
      "type": "event"
    },
    {
      "anonymous": false,
      "inputs": [
        {
          "indexed": true,
          "internalType": "uint64",
          "name": "appId",
          "type": "uint64"
        },
        {
          "indexed": true,
          "internalType": "bytes32",
          "name": "username",
          "type": "bytes32"
        },
        {
          "indexed": false,
          "internalType": "string",
          "name": "iv",
          "type": "string"
        },
        {
          "indexed": false,
          "internalType": "string",
          "name": "ephemPublicKey",
          "type": "string"
        },
        {
          "indexed": false,
          "internalType": "string",
          "name": "ciphertext",
          "type": "string"
        },
        {
          "indexed": false,
          "internalType": "string",
          "name": "mac",
          "type": "string"
        }
      ],
      "name": "EventAppSession",
      "type": "event"
    },
    {
      "anonymous": false,
      "inputs": [
        {
          "indexed": true,
          "internalType": "uint64",
          "name": "appId",
          "type": "uint64"
        },
        {
          "indexed": true,
          "internalType": "bytes32",
          "name": "username",
          "type": "bytes32"
        },
        {
          "indexed": false,
          "internalType": "address",
          "name": "sessionAddress",
          "type": "address"
        }
      ],
      "name": "EventAppSession",
      "type": "event"
    },
    {
      "anonymous": false,
      "inputs": [
        {
          "indexed": true,
          "internalType": "bytes32",
          "name": "creatorUsername",
          "type": "bytes32"
        },
        {
          "indexed": false,
          "internalType": "address",
          "name": "inviteAddress",
          "type": "address"
        }
      ],
      "name": "EventInviteCreated",
      "type": "event"
    },
    {
      "anonymous": false,
      "inputs": [
        {
          "indexed": true,
          "internalType": "bytes32",
          "name": "username",
          "type": "bytes32"
        },
        {
          "indexed": true,
          "internalType": "address",
          "name": "walletAddress",
          "type": "address"
        },
        {
          "indexed": false,
          "internalType": "string",
          "name": "ciphertext",
          "type": "string"
        },
        {
          "indexed": false,
          "internalType": "string",
          "name": "iv",
          "type": "string"
        },
        {
          "indexed": false,
          "internalType": "string",
          "name": "salt",
          "type": "string"
        },
        {
          "indexed": false,
          "internalType": "string",
          "name": "mac",
          "type": "string"
        }
      ],
      "name": "EventStoreWallet",
      "type": "event"
    },
    {
      "anonymous": false,
      "inputs": [
        {
          "indexed": true,
          "internalType": "bytes32",
          "name": "username",
          "type": "bytes32"
        },
        {
          "indexed": true,
          "internalType": "address",
          "name": "walletAddress",
          "type": "address"
        }
      ],
      "name": "EventStoreWallet",
      "type": "event"
    },
    {
      "anonymous": false,
      "inputs": [
        {
          "indexed": true,
          "internalType": "bytes32",
          "name": "username",
          "type": "bytes32"
        }
      ],
      "name": "EventUserCreated",
      "type": "event"
    },
    {
      "inputs": [
        {
          "internalType": "bytes32",
          "name": "",
          "type": "bytes32"
        },
        {
          "internalType": "uint256",
          "name": "",
          "type": "uint256"
        }
      ],
      "name": "AppSessionIndex",
      "outputs": [
        {
          "internalType": "uint64",
          "name": "",
          "type": "uint64"
        }
      ],
      "stateMutability": "view",
      "type": "function",
      "constant": true
    },
    {
      "inputs": [
        {
          "internalType": "bytes32",
          "name": "",
          "type": "bytes32"
        },
        {
          "internalType": "uint64",
          "name": "",
          "type": "uint64"
        },
        {
          "internalType": "uint256",
          "name": "",
          "type": "uint256"
        }
      ],
      "name": "AppSessions",
      "outputs": [
        {
          "internalType": "bytes32",
          "name": "username",
          "type": "bytes32"
        },
        {
          "internalType": "address",
          "name": "wallet",
          "type": "address"
        },
        {
          "internalType": "uint64",
          "name": "appId",
          "type": "uint64"
        },
        {
          "internalType": "bool",
          "name": "isActive",
          "type": "bool"
        }
      ],
      "stateMutability": "view",
      "type": "function",
      "constant": true
    },
    {
      "inputs": [
        {
          "internalType": "uint64",
          "name": "",
          "type": "uint64"
        }
      ],
      "name": "Applications",
      "outputs": [
        {
          "internalType": "uint64",
          "name": "id",
          "type": "uint64"
        },
        {
          "internalType": "bytes32",
          "name": "usernameHash",
          "type": "bytes32"
        },
        {
          "internalType": "string",
          "name": "title",
          "type": "string"
        },
        {
          "internalType": "string",
          "name": "description",
          "type": "string"
        },
        {
          "internalType": "bool",
          "name": "isActive",
          "type": "bool"
        }
      ],
      "stateMutability": "view",
      "type": "function",
      "constant": true
    },
    {
      "inputs": [
        {
          "internalType": "address",
          "name": "",
          "type": "address"
        }
      ],
      "name": "Invites",
      "outputs": [
        {
          "internalType": "address",
          "name": "inviteAddress",
          "type": "address"
        },
        {
          "internalType": "bytes32",
          "name": "creatorUsername",
          "type": "bytes32"
        },
        {
          "internalType": "bytes32",
          "name": "registeredUsername",
          "type": "bytes32"
        },
        {
          "internalType": "bool",
          "name": "isActive",
          "type": "bool"
        }
      ],
      "stateMutability": "view",
      "type": "function",
      "constant": true
    },
    {
      "inputs": [
        {
          "internalType": "bytes32",
          "name": "",
          "type": "bytes32"
        }
      ],
      "name": "Users",
      "outputs": [
        {
          "internalType": "bytes32",
          "name": "username",
          "type": "bytes32"
        },
        {
          "internalType": "address",
          "name": "mainAddress",
          "type": "address"
        },
        {
          "internalType": "bool",
          "name": "isActive",
          "type": "bool"
        }
      ],
      "stateMutability": "view",
      "type": "function",
      "constant": true
    },
    {
      "inputs": [
        {
          "internalType": "address",
          "name": "",
          "type": "address"
        }
      ],
      "name": "UsersAddressUsername",
      "outputs": [
        {
          "internalType": "bool",
          "name": "isActive",
          "type": "bool"
        },
        {
          "internalType": "bytes32",
          "name": "username",
          "type": "bytes32"
        },
        {
          "internalType": "uint64",
          "name": "appId",
          "type": "uint64"
        }
      ],
      "stateMutability": "view",
      "type": "function",
      "constant": true
    },
    {
      "inputs": [
        {
          "internalType": "bytes32",
          "name": "",
          "type": "bytes32"
        }
      ],
      "name": "UsersSettings",
      "outputs": [
        {
          "internalType": "string",
          "name": "",
          "type": "string"
        }
      ],
      "stateMutability": "view",
      "type": "function",
      "constant": true
    },
    {
      "inputs": [],
      "name": "applicationId",
      "outputs": [
        {
          "internalType": "uint64",
          "name": "",
          "type": "uint64"
        }
      ],
      "stateMutability": "view",
      "type": "function",
      "constant": true
    },
    {
      "inputs": [],
      "name": "invites",
      "outputs": [
        {
          "internalType": "uint256",
          "name": "",
          "type": "uint256"
        }
      ],
      "stateMutability": "view",
      "type": "function",
      "constant": true
    },
    {
      "inputs": [],
      "name": "logicAddress",
      "outputs": [
        {
          "internalType": "address",
          "name": "",
          "type": "address"
        }
      ],
      "stateMutability": "view",
      "type": "function",
      "constant": true
    },
    {
      "inputs": [],
      "name": "owner",
      "outputs": [
        {
          "internalType": "address",
          "name": "",
          "type": "address"
        }
      ],
      "stateMutability": "view",
      "type": "function",
      "constant": true
    },
    {
      "inputs": [],
      "name": "users",
      "outputs": [
        {
          "internalType": "uint256",
          "name": "",
          "type": "uint256"
        }
      ],
      "stateMutability": "view",
      "type": "function",
      "constant": true
    },
    {
      "inputs": [
        {
          "internalType": "address",
          "name": "_address",
          "type": "address"
        }
      ],
      "name": "setLogicAddress",
      "outputs": [],
      "stateMutability": "nonpayable",
      "type": "function"
    },
    {
      "inputs": [
        {
          "internalType": "bytes32",
          "name": "_username",
          "type": "bytes32"
        },
        {
          "internalType": "address",
          "name": "_walletAddress",
          "type": "address"
        }
      ],
      "name": "emitEventStoreWallet",
      "outputs": [],
      "stateMutability": "nonpayable",
      "type": "function"
    },
    {
      "inputs": [
        {
          "internalType": "bytes32",
          "name": "_username",
          "type": "bytes32"
        },
        {
          "internalType": "address",
          "name": "_walletAddress",
          "type": "address"
        },
        {
          "internalType": "string",
          "name": "_ciphertext",
          "type": "string"
        },
        {
          "internalType": "string",
          "name": "_iv",
          "type": "string"
        },
        {
          "internalType": "string",
          "name": "_salt",
          "type": "string"
        },
        {
          "internalType": "string",
          "name": "_mac",
          "type": "string"
        }
      ],
      "name": "emitEventStoreWallet",
      "outputs": [],
      "stateMutability": "nonpayable",
      "type": "function"
    },
    {
      "inputs": [
        {
          "internalType": "bytes32",
          "name": "_creatorUsername",
          "type": "bytes32"
        },
        {
          "internalType": "address",
          "name": "_inviteAddress",
          "type": "address"
        }
      ],
      "name": "emitEventInviteCreated",
      "outputs": [],
      "stateMutability": "nonpayable",
      "type": "function"
    },
    {
      "inputs": [
        {
          "internalType": "uint64",
          "name": "_appId",
          "type": "uint64"
        },
        {
          "internalType": "bytes32",
          "name": "_username",
          "type": "bytes32"
        },
        {
          "internalType": "string",
          "name": "_iv",
          "type": "string"
        },
        {
          "internalType": "string",
          "name": "_ephemPublicKey",
          "type": "string"
        },
        {
          "internalType": "string",
          "name": "_ciphertext",
          "type": "string"
        },
        {
          "internalType": "string",
          "name": "_mac",
          "type": "string"
        }
      ],
      "name": "emitEventAppSession",
      "outputs": [],
      "stateMutability": "nonpayable",
      "type": "function"
    },
    {
      "inputs": [
        {
          "internalType": "uint64",
          "name": "_appId",
          "type": "uint64"
        },
        {
          "internalType": "bytes32",
          "name": "_username",
          "type": "bytes32"
        },
        {
          "internalType": "address",
          "name": "_sessionAddress",
          "type": "address"
        }
      ],
      "name": "emitEventSimpleAppSession",
      "outputs": [],
      "stateMutability": "nonpayable",
      "type": "function"
    },
    {
      "inputs": [
        {
          "internalType": "bytes32",
          "name": "_creatorUsername",
          "type": "bytes32"
        },
        {
          "internalType": "uint64",
          "name": "_appId",
          "type": "uint64"
        }
      ],
      "name": "emitEventAppCreated",
      "outputs": [],
      "stateMutability": "nonpayable",
      "type": "function"
    },
    {
      "inputs": [
        {
          "internalType": "bytes32",
          "name": "_username",
          "type": "bytes32"
        }
      ],
      "name": "emitEventUserCreated",
      "outputs": [],
      "stateMutability": "nonpayable",
      "type": "function"
    },
    {
      "inputs": [
        {
          "internalType": "bytes32",
          "name": "_usernameHash",
          "type": "bytes32"
        }
      ],
      "name": "getUser",
      "outputs": [
        {
          "components": [
            {
              "internalType": "bytes32",
              "name": "username",
              "type": "bytes32"
            },
            {
              "internalType": "address",
              "name": "mainAddress",
              "type": "address"
            },
            {
              "internalType": "bool",
              "name": "isActive",
              "type": "bool"
            }
          ],
          "internalType": "struct GetLoginStorage.UserInfo",
          "name": "",
          "type": "tuple"
        }
      ],
      "stateMutability": "view",
      "type": "function",
      "constant": true
    },
    {
      "inputs": [
        {
          "internalType": "bytes32",
          "name": "_usernameHash",
          "type": "bytes32"
        },
        {
          "components": [
            {
              "internalType": "bytes32",
              "name": "username",
              "type": "bytes32"
            },
            {
              "internalType": "address",
              "name": "mainAddress",
              "type": "address"
            },
            {
              "internalType": "bool",
              "name": "isActive",
              "type": "bool"
            }
          ],
          "internalType": "struct GetLoginStorage.UserInfo",
          "name": "_info",
          "type": "tuple"
        }
      ],
      "name": "setUser",
      "outputs": [],
      "stateMutability": "nonpayable",
      "type": "function"
    },
    {
      "inputs": [
        {
          "internalType": "bytes32",
          "name": "_key",
          "type": "bytes32"
        }
      ],
      "name": "getSettings",
      "outputs": [
        {
          "internalType": "string",
          "name": "",
          "type": "string"
        }
      ],
      "stateMutability": "view",
      "type": "function",
      "constant": true
    },
    {
      "inputs": [
        {
          "internalType": "bytes32",
          "name": "_key",
          "type": "bytes32"
        },
        {
          "internalType": "string",
          "name": "_value",
          "type": "string"
        }
      ],
      "name": "setSettings",
      "outputs": [],
      "stateMutability": "nonpayable",
      "type": "function"
    },
    {
      "inputs": [
        {
          "internalType": "address",
          "name": "_address",
          "type": "address"
        }
      ],
      "name": "getUsersAddressUsername",
      "outputs": [
        {
          "components": [
            {
              "internalType": "bool",
              "name": "isActive",
              "type": "bool"
            },
            {
              "internalType": "bytes32",
              "name": "username",
              "type": "bytes32"
            },
            {
              "internalType": "uint64",
              "name": "appId",
              "type": "uint64"
            }
          ],
          "internalType": "struct GetLoginStorage.Username",
          "name": "",
          "type": "tuple"
        }
      ],
      "stateMutability": "view",
      "type": "function",
      "constant": true
    },
    {
      "inputs": [
        {
          "internalType": "address",
          "name": "_address",
          "type": "address"
        },
        {
          "components": [
            {
              "internalType": "bool",
              "name": "isActive",
              "type": "bool"
            },
            {
              "internalType": "bytes32",
              "name": "username",
              "type": "bytes32"
            },
            {
              "internalType": "uint64",
              "name": "appId",
              "type": "uint64"
            }
          ],
          "internalType": "struct GetLoginStorage.Username",
          "name": "_info",
          "type": "tuple"
        }
      ],
      "name": "setUsersAddressUsername",
      "outputs": [],
      "stateMutability": "nonpayable",
      "type": "function"
    },
    {
      "inputs": [
        {
          "internalType": "uint64",
          "name": "_id",
          "type": "uint64"
        }
      ],
      "name": "getApplication",
      "outputs": [
        {
          "components": [
            {
              "internalType": "uint64",
              "name": "id",
              "type": "uint64"
            },
            {
              "internalType": "bytes32",
              "name": "usernameHash",
              "type": "bytes32"
            },
            {
              "internalType": "string",
              "name": "title",
              "type": "string"
            },
            {
              "internalType": "string",
              "name": "description",
              "type": "string"
            },
            {
              "internalType": "string[]",
              "name": "allowedUrls",
              "type": "string[]"
            },
            {
              "internalType": "address[]",
              "name": "allowedContracts",
              "type": "address[]"
            },
            {
              "internalType": "bool",
              "name": "isActive",
              "type": "bool"
            }
          ],
          "internalType": "struct GetLoginStorage.Application",
          "name": "",
          "type": "tuple"
        }
      ],
      "stateMutability": "view",
      "type": "function",
      "constant": true
    },
    {
      "inputs": [
        {
          "internalType": "uint64",
          "name": "_id",
          "type": "uint64"
        },
        {
          "components": [
            {
              "internalType": "uint64",
              "name": "id",
              "type": "uint64"
            },
            {
              "internalType": "bytes32",
              "name": "usernameHash",
              "type": "bytes32"
            },
            {
              "internalType": "string",
              "name": "title",
              "type": "string"
            },
            {
              "internalType": "string",
              "name": "description",
              "type": "string"
            },
            {
              "internalType": "string[]",
              "name": "allowedUrls",
              "type": "string[]"
            },
            {
              "internalType": "address[]",
              "name": "allowedContracts",
              "type": "address[]"
            },
            {
              "internalType": "bool",
              "name": "isActive",
              "type": "bool"
            }
          ],
          "internalType": "struct GetLoginStorage.Application",
          "name": "_data",
          "type": "tuple"
        }
      ],
      "name": "setApplication",
      "outputs": [],
      "stateMutability": "nonpayable",
      "type": "function"
    },
    {
      "inputs": [],
      "name": "incrementApplicationId",
      "outputs": [],
      "stateMutability": "nonpayable",
      "type": "function"
    },
    {
      "inputs": [],
      "name": "incrementUsers",
      "outputs": [],
      "stateMutability": "nonpayable",
      "type": "function"
    },
    {
      "inputs": [],
      "name": "incrementInvites",
      "outputs": [],
      "stateMutability": "nonpayable",
      "type": "function"
    },
    {
      "inputs": [
        {
          "internalType": "uint64",
          "name": "_id",
          "type": "uint64"
        },
        {
          "internalType": "string",
          "name": "_url",
          "type": "string"
        }
      ],
      "name": "pushApplicationUrl",
      "outputs": [],
      "stateMutability": "nonpayable",
      "type": "function"
    },
    {
      "inputs": [
        {
          "internalType": "uint64",
          "name": "_id",
          "type": "uint64"
        },
        {
          "internalType": "address",
          "name": "_wallet",
          "type": "address"
        }
      ],
      "name": "pushApplicationContract",
      "outputs": [],
      "stateMutability": "nonpayable",
      "type": "function"
    },
    {
      "inputs": [
        {
          "internalType": "uint64",
          "name": "_id",
          "type": "uint64"
        },
        {
          "internalType": "uint256",
          "name": "_index",
          "type": "uint256"
        }
      ],
      "name": "deleteApplicationUrl",
      "outputs": [],
      "stateMutability": "nonpayable",
      "type": "function"
    },
    {
      "inputs": [
        {
          "internalType": "uint64",
          "name": "_id",
          "type": "uint64"
        },
        {
          "internalType": "uint256",
          "name": "_index",
          "type": "uint256"
        }
      ],
      "name": "deleteApplicationContract",
      "outputs": [],
      "stateMutability": "nonpayable",
      "type": "function"
    },
    {
      "inputs": [
        {
          "internalType": "uint64",
          "name": "_appId",
          "type": "uint64"
        },
        {
          "internalType": "bytes32",
          "name": "_usernameHash",
          "type": "bytes32"
        },
        {
          "internalType": "address",
          "name": "_wallet",
          "type": "address"
        }
      ],
      "name": "pushAppSession",
      "outputs": [],
      "stateMutability": "nonpayable",
      "type": "function"
    },
    {
      "inputs": [
        {
          "internalType": "address",
          "name": "_address",
          "type": "address"
        }
      ],
      "name": "getInvite",
      "outputs": [
        {
          "components": [
            {
              "internalType": "address",
              "name": "inviteAddress",
              "type": "address"
            },
            {
              "internalType": "bytes32",
              "name": "creatorUsername",
              "type": "bytes32"
            },
            {
              "internalType": "bytes32",
              "name": "registeredUsername",
              "type": "bytes32"
            },
            {
              "internalType": "bool",
              "name": "isActive",
              "type": "bool"
            }
          ],
          "internalType": "struct GetLoginStorage.InviteInfo",
          "name": "",
          "type": "tuple"
        }
      ],
      "stateMutability": "view",
      "type": "function",
      "constant": true
    },
    {
      "inputs": [
        {
          "internalType": "address",
          "name": "_address",
          "type": "address"
        },
        {
          "components": [
            {
              "internalType": "address",
              "name": "inviteAddress",
              "type": "address"
            },
            {
              "internalType": "bytes32",
              "name": "creatorUsername",
              "type": "bytes32"
            },
            {
              "internalType": "bytes32",
              "name": "registeredUsername",
              "type": "bytes32"
            },
            {
              "internalType": "bool",
              "name": "isActive",
              "type": "bool"
            }
          ],
          "internalType": "struct GetLoginStorage.InviteInfo",
          "name": "_data",
          "type": "tuple"
        }
      ],
      "name": "setInvite",
      "outputs": [],
      "stateMutability": "nonpayable",
      "type": "function"
    },
    {
      "inputs": [
        {
          "internalType": "uint64",
          "name": "_appId",
          "type": "uint64"
        },
        {
          "internalType": "bytes32",
          "name": "_usernameHash",
          "type": "bytes32"
        }
      ],
      "name": "getAppSessions",
      "outputs": [
        {
          "components": [
            {
              "internalType": "bytes32",
              "name": "username",
              "type": "bytes32"
            },
            {
              "internalType": "address",
              "name": "wallet",
              "type": "address"
            },
            {
              "internalType": "uint64",
              "name": "appId",
              "type": "uint64"
            },
            {
              "internalType": "bool",
              "name": "isActive",
              "type": "bool"
            }
          ],
          "internalType": "struct GetLoginStorage.AppSession[]",
          "name": "",
          "type": "tuple[]"
        }
      ],
      "stateMutability": "view",
      "type": "function",
      "constant": true
    },
    {
      "inputs": [
        {
          "internalType": "uint64",
          "name": "_appId",
          "type": "uint64"
        },
        {
          "internalType": "bytes32",
          "name": "_usernameHash",
          "type": "bytes32"
        },
        {
          "internalType": "uint256",
          "name": "_index",
          "type": "uint256"
        },
        {
          "components": [
            {
              "internalType": "bytes32",
              "name": "username",
              "type": "bytes32"
            },
            {
              "internalType": "address",
              "name": "wallet",
              "type": "address"
            },
            {
              "internalType": "uint64",
              "name": "appId",
              "type": "uint64"
            },
            {
              "internalType": "bool",
              "name": "isActive",
              "type": "bool"
            }
          ],
          "internalType": "struct GetLoginStorage.AppSession",
          "name": "_appSession",
          "type": "tuple"
        }
      ],
      "name": "setAppSession",
      "outputs": [],
      "stateMutability": "nonpayable",
      "type": "function"
    },
    {
      "inputs": [
        {
          "internalType": "bytes32",
          "name": "_usernameHash",
          "type": "bytes32"
        }
      ],
      "name": "getAppSessionIndex",
      "outputs": [
        {
          "internalType": "uint64[]",
          "name": "",
          "type": "uint64[]"
        }
      ],
      "stateMutability": "view",
      "type": "function",
      "constant": true
    },
    {
      "inputs": [
        {
          "internalType": "bytes32",
          "name": "_usernameHash",
          "type": "bytes32"
        },
        {
          "internalType": "uint64",
          "name": "_appId",
          "type": "uint64"
        }
      ],
      "name": "pushAppSessionIndex",
      "outputs": [],
      "stateMutability": "nonpayable",
      "type": "function"
    }
  ],
  "bytecode": "0x60806040526004805467ffffffffffffffff1916600117905534801561002457600080fd5b5060008054600160a060020a03191633179055612ac1806100466000396000f3fe608060405234801561001057600080fd5b50600436106102615760003560e060020a900480636633e5b51161014a578063b68baa15116100c7578063dce2dd171161008b578063dce2dd1714610853578063e7a6047214610866578063ec46474c14610879578063f0e881b71461088c578063f2020275146108b0578063fdcfc3ef146108b957600080fd5b8063b68baa1514610764578063c4ac0e4814610777578063cf1d3e7c1461078a578063d128c2a7146107aa578063dcac263e146107b257600080fd5b80638da5cb5b1161010e5780638da5cb5b1461069c5780639c1fcc4c146106c7578063ab0f7ab7146106da578063abc040ca146106ed578063b302e9511461070057600080fd5b80636633e5b5146105ee5780636d822b44146106015780636fb89051146106145780638ad10419146106275780638da0c6e31461063b57600080fd5b80632ef9adc3116101e35780633e21a8cd116101a75780633e21a8cd1461040657806349d13f031461041957806350d2c00e146104655780635c22f47d1461047857806361c65e2c146104985780636517579c1461055757600080fd5b80632ef9adc3146103bd5780632f23976c146103d05780633122da98146103e357806333a47414146103eb5780633ae014cd146103f357600080fd5b8063166189e11161022a578063166189e1146102e95780631b9823de14610357578063212109e4146103775780632226e4381461038a5780632d1ca281146103aa57600080fd5b80622ef8d8146102665780630198fec014610282578063036fbb74146102975780630913be41146102aa5780630a945c1f146102bd575b600080fd5b61026f60035481565b6040519081526020015b60405180910390f35b610295610290366004612356565b6108cc565b005b6102956102a5366004612468565b610951565b6102956102b8366004611fde565b6109c3565b6102d06102cb36600461226d565b610a5a565b60405167ffffffffffffffff9091168152602001610279565b61032b6102f7366004611fbc565b600a602052600090815260409020805460018201546002830154600390930154600160a060020a0390921692909160ff1684565b60408051600160a060020a03909516855260208501939093529183015215156060820152608001610279565b61036a6103653660046120c4565b610aa7565b6040516102799190612709565b610295610385366004612302565b610b3d565b61039d6103983660046122e7565b610bc4565b60405161027991906127f9565b6102956103b83660046120dd565b610ec6565b6102956103cb3660046120dd565b610f2d565b6102956103de366004612392565b610f9c565b61029561101a565b61029561108a565b6102956104013660046123d8565b6110ce565b61029561041436600461228f565b6111d6565b61042c6104273660046122b2565b611250565b60408051948552600160a060020a03909316602085015267ffffffffffffffff9091169183019190915215156060820152608001610279565b6102956104733660046124a0565b6112bf565b61048b61048636600461232c565b6113b8565b604051610279919061269d565b6105196104a6366004611fbc565b6040805160808082018352600080835260208084018290528385018290526060938401829052600160a060020a039586168252600a815290849020845192830185528054909516825260018501549082015260028401549281019290925260039092015460ff1615159181019190915290565b60405161027991908151600160a060020a03168152602080830151908201526040808301519082015260609182015115159181019190915260800190565b6105c16105653660046120c4565b6040805160608082018352600080835260208084018290529284018190529384526005825292829020825193840183528054845260010154600160a060020a0381169184019190915260a060020a900460ff1615159082015290565b6040805182518152602080840151600160a060020a03169082015291810151151590820152606001610279565b6102956105fc366004612056565b611477565b61029561060f366004612109565b611502565b6102956106223660046121cf565b61156f565b6004546102d09067ffffffffffffffff1681565b6106776106493660046120c4565b60056020526000908152604090208054600190910154600160a060020a0381169060a060020a900460ff1683565b60408051938452600160a060020a039092166020840152151590820152606001610279565b6000546106af90600160a060020a031681565b604051600160a060020a039091168152602001610279565b6001546106af90600160a060020a031681565b6102956106e8366004612216565b6115bb565b6102956106fb36600461232c565b611644565b61073d61070e366004611fbc565b60076020526000908152604090208054600182015460029092015460ff909116919067ffffffffffffffff1683565b604080519315158452602084019290925267ffffffffffffffff1690820152606001610279565b61029561077236600461228f565b6116c9565b610295610785366004612356565b611731565b61079d6107983660046120c4565b61183d565b6040516102799190612757565b6102956118d7565b6108256107c0366004611fbc565b604080516060808201835260008083526020808401829052928401819052600160a060020a03949094168452600782529282902082519384018352805460ff16151584526001810154918401919091526002015467ffffffffffffffff169082015290565b60408051825115158152602080840151908201529181015167ffffffffffffffff1690820152606001610279565b61079d6108613660046120c4565b611914565b6102956108743660046120c4565b6119ac565b61029561088736600461232c565b611a07565b61089f61089a3660046122e7565b611a7c565b6040516102799594939291906128ab565b61026f60025481565b6102956108c7366004611fbc565b611bc9565b600154600160a060020a031633146109025760405160e560020a62461bcd0281526004016108f9906127c2565b60405180910390fd5b604051600160a060020a0382168152829067ffffffffffffffff8516907f08091e8ddab09c314dbb39b232f2abb4bf144406f4ef7377638f202b305c318e9060200160405180910390a3505050565b600154600160a060020a0316331461097e5760405160e560020a62461bcd0281526004016108f9906127c2565b67ffffffffffffffff82166000908152600b60209081526040822060040180546001810182559083529181902083516109be939190910191840190611c55565b505050565b600154600160a060020a031633146109f05760405160e560020a62461bcd0281526004016108f9906127c2565b600160a060020a039182166000908152600a60209081526040918290208351815473ffffffffffffffffffffffffffffffffffffffff1916951694909417845582015160018401558101516002830155606001516003909101805460ff1916911515919091179055565b60096020528160005260406000208181548110610a7657600080fd5b9060005260206000209060049182820401919006600802915091509054906101000a900467ffffffffffffffff1681565b600081815260096020908152604091829020805483518184028101840190945280845260609392830182828015610b3157602002820191906000526020600020906000905b82829054906101000a900467ffffffffffffffff1667ffffffffffffffff1681526020019060080190602082600701049283019260010382029150808411610aec5790505b50505050509050919050565b600154600160a060020a03163314610b6a5760405160e560020a62461bcd0281526004016108f9906127c2565b67ffffffffffffffff919091166000908152600b6020908152604082206005018054600181018255908352912001805473ffffffffffffffffffffffffffffffffffffffff1916600160a060020a03909216919091179055565b610c136040518060e00160405280600067ffffffffffffffff16815260200160008019168152602001606081526020016060815260200160608152602001606081526020016000151581525090565b67ffffffffffffffff8083166000908152600b6020908152604091829020825160e081018452815490941684526001810154918401919091526002810180549192840191610c60906129bf565b80601f0160208091040260200160405190810160405280929190818152602001828054610c8c906129bf565b8015610cd95780601f10610cae57610100808354040283529160200191610cd9565b820191906000526020600020905b815481529060010190602001808311610cbc57829003601f168201915b50505050508152602001600382018054610cf2906129bf565b80601f0160208091040260200160405190810160405280929190818152602001828054610d1e906129bf565b8015610d6b5780601f10610d4057610100808354040283529160200191610d6b565b820191906000526020600020905b815481529060010190602001808311610d4e57829003601f168201915b5050505050815260200160048201805480602002602001604051908101604052809291908181526020016000905b82821015610e45578382906000526020600020018054610db8906129bf565b80601f0160208091040260200160405190810160405280929190818152602001828054610de4906129bf565b8015610e315780601f10610e0657610100808354040283529160200191610e31565b820191906000526020600020905b815481529060010190602001808311610e1457829003601f168201915b505050505081526020019060010190610d99565b50505050815260200160058201805480602002602001604051908101604052809291908181526020018280548015610ea657602002820191906000526020600020905b8154600160a060020a03168152600190910190602001808311610e88575b50505091835250506006919091015460ff16151560209091015292915050565b600154600160a060020a03163314610ef35760405160e560020a62461bcd0281526004016108f9906127c2565b604051600160a060020a0382169083907f4cdb4242a2f26347d1d9d43cc7e18af1472cd8eb22fd76686aa841c9a3805ba690600090a35050565b600154600160a060020a03163314610f5a5760405160e560020a62461bcd0281526004016108f9906127c2565b604051600160a060020a038216815282907ffb9c09af146046471545036a9ad9501d4a212a27e1e3e0135faa553c9da7c64f9060200160405180910390a25050565b600154600160a060020a03163314610fc95760405160e560020a62461bcd0281526004016108f9906127c2565b848667ffffffffffffffff167fc6a8c53e4ea99f3df3fda387089554e433979928188cd5f060beef10f5097a348686868660405161100a949392919061276a565b60405180910390a3505050505050565b600154600160a060020a031633146110475760405160e560020a62461bcd0281526004016108f9906127c2565b6004805467ffffffffffffffff1690600061106183612a18565b91906101000a81548167ffffffffffffffff021916908367ffffffffffffffff16021790555050565b600154600160a060020a031633146110b75760405160e560020a62461bcd0281526004016108f9906127c2565b600380549060006110c7836129fd565b9190505550565b600154600160a060020a031633146110fb5760405160e560020a62461bcd0281526004016108f9906127c2565b600083815260086020908152604080832067ffffffffffffffff88168452909152902080548291908490811061113357611133612a59565b6000918252602091829020835160029092020190815590820151600190910180546040840151606090940151151560e060020a027cff000000000000000000000000000000000000000000000000000000001967ffffffffffffffff90951660a060020a027bffffffffffffffffffffffffffffffffffffffffffffffffffffffff19909216600160a060020a0390941693909317179290921617905550505050565b600154600160a060020a031633146112035760405160e560020a62461bcd0281526004016108f9906127c2565b60009182526009602090815260408320805460018101825590845292206004830401805460039093166008026101000a67ffffffffffffffff818102199094169290931692909202179055565b6008602052826000526040600020602052816000526040600020818154811061127857600080fd5b600091825260209091206002909102018054600190910154909350600160a060020a038116925060a060020a810467ffffffffffffffff16915060e060020a900460ff1684565b600154600160a060020a031633146112ec5760405160e560020a62461bcd0281526004016108f9906127c2565b67ffffffffffffffff8281166000908152600b60209081526040918290208451815467ffffffffffffffff19169416939093178355838101516001840155908301518051849392611344926002850192910190611c55565b5060608201518051611360916003840191602090910190611c55565b506080820151805161137c916004840191602090910190611cd9565b5060a08201518051611398916005840191602090910190611d32565b5060c091909101516006909101805460ff19169115159190911790555050565b600081815260086020908152604080832067ffffffffffffffff861684528252808320805482518185028101850190935280835260609492939192909184015b8282101561146b576000848152602090819020604080516080810182526002860290920180548352600190810154600160a060020a0381168486015260a060020a810467ffffffffffffffff169284019290925260e060020a90910460ff161515606083015290835290920191016113f8565b50505050905092915050565b600154600160a060020a031633146114a45760405160e560020a62461bcd0281526004016108f9906127c2565b600160a060020a03919091166000908152600760209081526040918290208351815460ff19169015151781559083015160018201559101516002909101805467ffffffffffffffff191667ffffffffffffffff909216919091179055565b600154600160a060020a0316331461152f5760405160e560020a62461bcd0281526004016108f9906127c2565b84600160a060020a0316867fa5cc3574bc05315d30d8c2a0c15550ca1a1f667fcc96f1612983e18fbdcee85d8686868660405161100a949392919061276a565b600154600160a060020a0316331461159c5760405160e560020a62461bcd0281526004016108f9906127c2565b600082815260066020908152604090912082516109be92840190611c55565b600154600160a060020a031633146115e85760405160e560020a62461bcd0281526004016108f9906127c2565b6000918252600560209081526040928390208251815590820151600190910180549390920151151560a060020a0274ffffffffffffffffffffffffffffffffffffffffff19909316600160a060020a0390911617919091179055565b600154600160a060020a031633146116715760405160e560020a62461bcd0281526004016108f9906127c2565b67ffffffffffffffff82166000908152600b6020526040902060050180548290811061169f5761169f612a59565b6000918252602090912001805473ffffffffffffffffffffffffffffffffffffffff191690555050565b600154600160a060020a031633146116f65760405160e560020a62461bcd0281526004016108f9906127c2565b60405167ffffffffffffffff82169083907f338314ce7f502e7ff312cf1d09a3cd6f5591aa25947b6dbba8da8cf4731e8d0590600090a35050565b600154600160a060020a0316331461175e5760405160e560020a62461bcd0281526004016108f9906127c2565b600082815260086020908152604080832067ffffffffffffffff9687168085529083528184208251608081018452968752600160a060020a03958616878501908152928701918252600160608801818152825480830184559287529490952096516002909102909601958655905194909201805492519151151560e060020a027cff00000000000000000000000000000000000000000000000000000000199290961660a060020a027bffffffffffffffffffffffffffffffffffffffffffffffffffffffff1990931694909316939093171791909116919091179055565b60066020526000908152604090208054611856906129bf565b80601f0160208091040260200160405190810160405280929190818152602001828054611882906129bf565b80156118cf5780601f106118a4576101008083540402835291602001916118cf565b820191906000526020600020905b8154815290600101906020018083116118b257829003601f168201915b505050505081565b600154600160a060020a031633146119045760405160e560020a62461bcd0281526004016108f9906127c2565b600280549060006110c7836129fd565b6000818152600660205260409020805460609190611931906129bf565b80601f016020809104026020016040519081016040528092919081815260200182805461195d906129bf565b8015610b315780601f1061197f57610100808354040283529160200191610b31565b820191906000526020600020905b81548152906001019060200180831161198d5750939695505050505050565b600154600160a060020a031633146119d95760405160e560020a62461bcd0281526004016108f9906127c2565b60405181907f5130a08c2f43100f98d738a36e5742dccbb86bb6bf3ed538d2bd15cb632846d690600090a250565b600154600160a060020a03163314611a345760405160e560020a62461bcd0281526004016108f9906127c2565b67ffffffffffffffff82166000908152600b60205260409020600401805482908110611a6257611a62612a59565b906000526020600020016000611a789190611d94565b5050565b600b6020526000908152604090208054600182015460028301805467ffffffffffffffff909316939192611aaf906129bf565b80601f0160208091040260200160405190810160405280929190818152602001828054611adb906129bf565b8015611b285780601f10611afd57610100808354040283529160200191611b28565b820191906000526020600020905b815481529060010190602001808311611b0b57829003601f168201915b505050505090806003018054611b3d906129bf565b80601f0160208091040260200160405190810160405280929190818152602001828054611b69906129bf565b8015611bb65780601f10611b8b57610100808354040283529160200191611bb6565b820191906000526020600020905b815481529060010190602001808311611b9957829003601f168201915b5050506006909301549192505060ff1685565b600054600160a060020a03163314611c265760405160e560020a62461bcd02815260206004820152601760248201527f43616c6c6572206973206e6f7420746865206f776e657200000000000000000060448201526064016108f9565b6001805473ffffffffffffffffffffffffffffffffffffffff1916600160a060020a0392909216919091179055565b828054611c61906129bf565b90600052602060002090601f016020900481019282611c835760008555611cc9565b82601f10611c9c57805160ff1916838001178555611cc9565b82800160010185558215611cc9579182015b82811115611cc9578251825591602001919060010190611cae565b50611cd5929150611dd1565b5090565b828054828255906000526020600020908101928215611d26579160200282015b82811115611d265782518051611d16918491602090910190611c55565b5091602001919060010190611cf9565b50611cd5929150611de6565b828054828255906000526020600020908101928215611cc9579160200282015b82811115611cc9578251825473ffffffffffffffffffffffffffffffffffffffff1916600160a060020a03909116178255602090920191600190910190611d52565b508054611da0906129bf565b6000825580601f10611db0575050565b601f016020900490600052602060002090810190611dce9190611dd1565b50565b5b80821115611cd55760008155600101611dd2565b80821115611cd5576000611dfa8282611d94565b50600101611de6565b8035600160a060020a0381168114611e1a57600080fd5b919050565b600082601f830112611e3057600080fd5b81356020611e45611e408361299b565b61296a565b8281528181019085830183850287018401881015611e6257600080fd5b60005b85811015611e8857611e7682611e03565b84529284019290840190600101611e65565b5090979650505050505050565b600082601f830112611ea657600080fd5b81356020611eb6611e408361299b565b8281528181019085830183850287018401881015611ed357600080fd5b6000805b86811015611f1657823567ffffffffffffffff811115611ef5578283fd5b611f038b88838d0101611f34565b8652509385019391850191600101611ed7565b509198975050505050505050565b80358015158114611e1a57600080fd5b600082601f830112611f4557600080fd5b813567ffffffffffffffff811115611f5f57611f5f612a72565b611f72601f8201601f191660200161296a565b818152846020838601011115611f8757600080fd5b816020850160208301376000918101602001919091529392505050565b803567ffffffffffffffff81168114611e1a57600080fd5b600060208284031215611fce57600080fd5b611fd782611e03565b9392505050565b60008082840360a0811215611ff257600080fd5b611ffb84611e03565b92506080601f198201121561200f57600080fd5b506120186128fb565b61202460208501611e03565b8152604084013560208201526060840135604082015261204660808501611f24565b6060820152809150509250929050565b600080828403608081121561206a57600080fd5b61207384611e03565b92506060601f198201121561208757600080fd5b50612090612924565b61209c60208501611f24565b8152604084013560208201526120b460608501611fa4565b6040820152809150509250929050565b6000602082840312156120d657600080fd5b5035919050565b600080604083850312156120f057600080fd5b8235915061210060208401611e03565b90509250929050565b60008060008060008060c0878903121561212257600080fd5b8635955061213260208801611e03565b9450604087013567ffffffffffffffff8082111561214f57600080fd5b61215b8a838b01611f34565b9550606089013591508082111561217157600080fd5b61217d8a838b01611f34565b9450608089013591508082111561219357600080fd5b61219f8a838b01611f34565b935060a08901359150808211156121b557600080fd5b506121c289828a01611f34565b9150509295509295509295565b600080604083850312156121e257600080fd5b82359150602083013567ffffffffffffffff81111561220057600080fd5b61220c85828601611f34565b9150509250929050565b600080828403608081121561222a57600080fd5b833592506060601f198201121561224057600080fd5b50612249612924565b6020840135815261225c60408501611e03565b60208201526120b460608501611f24565b6000806040838503121561228057600080fd5b50508035926020909101359150565b600080604083850312156122a257600080fd5b8235915061210060208401611fa4565b6000806000606084860312156122c757600080fd5b833592506122d760208501611fa4565b9150604084013590509250925092565b6000602082840312156122f957600080fd5b611fd782611fa4565b6000806040838503121561231557600080fd5b61231e83611fa4565b915061210060208401611e03565b6000806040838503121561233f57600080fd5b61234883611fa4565b946020939093013593505050565b60008060006060848603121561236b57600080fd5b61237484611fa4565b92506020840135915061238960408501611e03565b90509250925092565b60008060008060008060c087890312156123ab57600080fd5b6123b487611fa4565b955060208701359450604087013567ffffffffffffffff8082111561214f57600080fd5b60008060008084860360e08112156123ef57600080fd5b6123f886611fa4565b945060208601359350604086013592506080605f198201121561241a57600080fd5b506124236128fb565b6060860135815261243660808701611e03565b602082015261244760a08701611fa4565b604082015261245860c08701611f24565b6060820152939692955090935050565b6000806040838503121561247b57600080fd5b61248483611fa4565b9150602083013567ffffffffffffffff81111561220057600080fd5b600080604083850312156124b357600080fd5b6124bc83611fa4565b9150602083013567ffffffffffffffff808211156124d957600080fd5b9084019060e082870312156124ed57600080fd5b6124f5612947565b6124fe83611fa4565b81526020830135602082015260408301358281111561251c57600080fd5b61252888828601611f34565b60408301525060608301358281111561254057600080fd5b61254c88828601611f34565b60608301525060808301358281111561256457600080fd5b61257088828601611e95565b60808301525060a08301358281111561258857600080fd5b61259488828601611e1f565b60a0830152506125a660c08401611f24565b60c08201528093505050509250929050565b600081518084526020808501945080840160005b838110156125f1578151600160a060020a0316875295820195908201906001016125cc565b509495945050505050565b600081518084526020808501808196508284028101915082860160005b85811015612643578284038952612631848351612650565b98850198935090840190600101612619565b5091979650505050505050565b6000815180845260005b818110156126765760208185018101518683018201520161265a565b81811115612688576000602083870101525b50601f01601f19169290920160200192915050565b602080825282518282018190526000919060409081850190868401855b828110156126435781518051855286810151600160a060020a0316878601528581015167ffffffffffffffff1686860152606090810151151590850152608090930192908501906001016126ba565b6020808252825182820181905260009190848201906040850190845b8181101561274b57835167ffffffffffffffff1683529284019291840191600101612725565b50909695505050505050565b602081526000611fd76020830184612650565b60808152600061277d6080830187612650565b828103602084015261278f8187612650565b905082810360408401526127a38186612650565b905082810360608401526127b78185612650565b979650505050505050565b6020808252601f908201527f43616c6c6572206973206e6f7420746865206c6f676963206164647265737300604082015260600190565b6020815267ffffffffffffffff8251166020820152602082015160408201526000604083015160e06060840152612834610100840182612650565b90506060840151601f19808584030160808601526128528383612650565b925060808601519150808584030160a086015261286f83836125fc565b925060a08601519150808584030160c08601525061288d82826125b8565b91505060c08401516128a360e085018215159052565b509392505050565b67ffffffffffffffff8616815284602082015260a0604082015260006128d460a0830186612650565b82810360608401526128e68186612650565b91505082151560808301529695505050505050565b6040516080810167ffffffffffffffff8111828210171561291e5761291e612a72565b60405290565b6040516060810167ffffffffffffffff8111828210171561291e5761291e612a72565b60405160e0810167ffffffffffffffff8111828210171561291e5761291e612a72565b604051601f8201601f1916810167ffffffffffffffff8111828210171561299357612993612a72565b604052919050565b600067ffffffffffffffff8211156129b5576129b5612a72565b5060209081020190565b6002810460018216806129d357607f821691505b602082108114156129f75760e060020a634e487b7102600052602260045260246000fd5b50919050565b6000600019821415612a1157612a11612a40565b5060010190565b600067ffffffffffffffff80831681811415612a3657612a36612a40565b6001019392505050565b60e060020a634e487b7102600052601160045260246000fd5b60e060020a634e487b7102600052603260045260246000fd5b60e060020a634e487b7102600052604160045260246000fdfea26469706673582212200bc94e4f128f27bf90952bab945e525142e60fa35d1111d06df57493dc19a84b64736f6c63430008070033",
  "immutableReferences": {},
  "source": "// SPDX-License-Identifier: UNLICENSED\npragma solidity ^0.8.7;\n\ncontract GetLoginStorage {\n    address public owner;\n    address public logicAddress;\n    uint256 public users;\n    uint256 public invites;\n\n    constructor () {\n        owner = msg.sender;\n    }\n\n    modifier onlyOwner() {\n        require(msg.sender == owner, \"Caller is not the owner\");\n        _;\n    }\n\n    modifier onlyLogicAddress() {\n        require(msg.sender == logicAddress, \"Caller is not the logic address\");\n        _;\n    }\n\n    // store encrypted wallet assigned to user\n    event EventStoreWallet(bytes32 indexed username, address indexed walletAddress, string ciphertext, string iv, string salt, string mac);\n    // store just address that assigned to user (in case Metamask and etc)\n    event EventStoreWallet(bytes32 indexed username, address indexed walletAddress);\n    // event created with inviteAddress\n    event EventInviteCreated(bytes32 indexed creatorUsername, address inviteAddress);\n    // store encrypted app session\n    event EventAppSession(uint64 indexed appId, bytes32 indexed username, string iv, string ephemPublicKey, string ciphertext, string mac);\n    // store just address that assigned to session and stored somewhere else\n    event EventAppSession(uint64 indexed appId, bytes32 indexed username, address sessionAddress);\n    // new dev app created\n    event EventAppCreated(bytes32 indexed creatorUsername, uint64 indexed appId);\n    // user created\n    event EventUserCreated(bytes32 indexed username);\n\n    struct Username\n    {\n        bool isActive;\n        // todo define a uniform variable name\n        bytes32 username;\n        uint64 appId;\n    }\n\n    struct UserInfo\n    {\n        // todo define a uniform variable name\n        bytes32 username;\n        address mainAddress;\n        bool isActive;\n    }\n\n    struct InviteInfo\n    {\n        address inviteAddress;\n        // todo define a uniform variable name\n        bytes32 creatorUsername;\n        bytes32 registeredUsername;\n        bool isActive;\n    }\n\n    struct AppSession\n    {\n        // todo define a uniform variable name\n        bytes32 username;\n        address wallet;\n        uint64 appId;\n        bool isActive;\n    }\n\n    struct Application\n    {\n        uint64 id;\n        // todo define a uniform variable name (usernameHash or username)\n        bytes32 usernameHash;\n        string title;\n        string description;\n        string[] allowedUrls;\n        address[] allowedContracts;\n        bool isActive;\n    }\n\n    uint64 public applicationId = 1;\n\n    mapping(bytes32 => UserInfo) public Users;\n    mapping(bytes32 => string) public UsersSettings;\n    mapping(address => Username) public UsersAddressUsername;\n    mapping(bytes32 => mapping(uint64 => AppSession[])) public AppSessions;\n    mapping(bytes32 => uint64[]) public AppSessionIndex;\n    mapping(address => InviteInfo) public Invites;\n    mapping(uint64 => Application) public Applications;\n\n    function setLogicAddress(address _address) onlyOwner public {\n        logicAddress = _address;\n    }\n\n    function emitEventStoreWallet(bytes32 _username, address _walletAddress, string memory _ciphertext, string memory _iv, string memory _salt, string memory _mac) onlyLogicAddress public {\n        emit EventStoreWallet(_username, _walletAddress, _ciphertext, _iv, _salt, _mac);\n    }\n\n    function emitEventStoreWallet(bytes32 _username, address _walletAddress) onlyLogicAddress public {\n        emit EventStoreWallet(_username, _walletAddress);\n    }\n\n    function emitEventInviteCreated(bytes32 _creatorUsername, address _inviteAddress) onlyLogicAddress public {\n        emit EventInviteCreated(_creatorUsername, _inviteAddress);\n    }\n\n    function emitEventAppSession(uint64 _appId, bytes32 _username, string memory _iv, string memory _ephemPublicKey, string memory _ciphertext, string memory _mac) onlyLogicAddress public {\n        emit EventAppSession(_appId, _username, _iv, _ephemPublicKey, _ciphertext, _mac);\n    }\n\n    function emitEventSimpleAppSession(uint64 _appId, bytes32 _username, address _sessionAddress) onlyLogicAddress public {\n        emit EventAppSession(_appId, _username, _sessionAddress);\n    }\n\n    function emitEventAppCreated(bytes32 _creatorUsername, uint64 _appId) onlyLogicAddress public {\n        emit EventAppCreated(_creatorUsername, _appId);\n    }\n\n    function emitEventUserCreated(bytes32 _username) onlyLogicAddress public {\n        emit EventUserCreated(_username);\n    }\n\n    function getUser(bytes32 _usernameHash) public view returns (UserInfo memory) {\n        return Users[_usernameHash];\n    }\n\n    function setUser(bytes32 _usernameHash, UserInfo memory _info) onlyLogicAddress public {\n        Users[_usernameHash] = _info;\n    }\n\n    function getSettings(bytes32 _key) public view returns (string memory) {\n        return UsersSettings[_key];\n    }\n\n    function setSettings(bytes32 _key, string memory _value) onlyLogicAddress public {\n        UsersSettings[_key] = _value;\n    }\n\n    function getUsersAddressUsername(address _address) public view returns (Username memory) {\n        return UsersAddressUsername[_address];\n    }\n\n    function setUsersAddressUsername(address _address, Username memory _info) onlyLogicAddress public {\n        UsersAddressUsername[_address] = _info;\n    }\n\n    function getApplication(uint64 _id) public view returns (Application memory) {\n        return Applications[_id];\n    }\n\n    function setApplication(uint64 _id, Application memory _data) onlyLogicAddress public {\n        Applications[_id] = _data;\n    }\n\n    function incrementApplicationId() onlyLogicAddress public {\n        applicationId++;\n    }\n\n    function incrementUsers() onlyLogicAddress public {\n        users++;\n    }\n\n    function incrementInvites() onlyLogicAddress public {\n        invites++;\n    }\n\n    function pushApplicationUrl(uint64 _id, string memory _url) onlyLogicAddress public {\n        Applications[_id].allowedUrls.push(_url);\n    }\n\n    function pushApplicationContract(uint64 _id, address _wallet) onlyLogicAddress public {\n        Applications[_id].allowedContracts.push(_wallet);\n    }\n\n    function deleteApplicationUrl(uint64 _id, uint _index) onlyLogicAddress public {\n        delete Applications[_id].allowedUrls[_index];\n    }\n\n    function deleteApplicationContract(uint64 _id, uint _index) onlyLogicAddress public {\n        delete Applications[_id].allowedContracts[_index];\n    }\n\n    function pushAppSession(uint64 _appId, bytes32 _usernameHash, address _wallet) onlyLogicAddress public {\n        AppSessions[_usernameHash][_appId].push(AppSession({username : _usernameHash, wallet : _wallet, appId : _appId, isActive : true}));\n    }\n\n    function getInvite(address _address) public view returns (InviteInfo memory) {\n        return Invites[_address];\n    }\n\n    function setInvite(address _address, InviteInfo memory _data) onlyLogicAddress public {\n        Invites[_address] = _data;\n    }\n\n    function getAppSessions(uint64 _appId, bytes32 _usernameHash) public view returns (AppSession[] memory) {\n        return AppSessions[_usernameHash][_appId];\n    }\n\n    function setAppSession(uint64 _appId, bytes32 _usernameHash, uint _index, AppSession memory _appSession) onlyLogicAddress public {\n        AppSessions[_usernameHash][_appId][_index] = _appSession;\n    }\n\n    function getAppSessionIndex(bytes32 _usernameHash) public view returns (uint64[] memory) {\n        return AppSessionIndex[_usernameHash];\n    }\n\n    function pushAppSessionIndex(bytes32 _usernameHash, uint64 _appId) onlyLogicAddress public {\n        AppSessionIndex[_usernameHash].push(_appId);\n    }\n}\n",
  "sourcePath": "/Users/sdancer/web/login/src/smart/contracts/GetLoginStorage.sol",
  "compiler": {
    "name": "solc",
    "version": "0.8.7+commit.e28d00a7.Emscripten.clang"
  },
  "schemaVersion": "3.4.3",
  "updatedAt": "2021-09-04T14:47:21.375Z",
  "networkType": "ethereum",
  "devdoc": {
    "kind": "dev",
    "methods": {},
    "version": 1
  },
  "userdoc": {
    "kind": "user",
    "methods": {},
    "version": 1
  }
}