{
  "contractName": "GetLoginLogic",
  "abi": [
    {
      "inputs": [
        {
          "internalType": "contract GetLoginStorage",
          "name": "_getLoginStorage",
          "type": "address"
        }
      ],
      "stateMutability": "nonpayable",
      "type": "constructor"
    },
    {
      "inputs": [],
      "name": "getLoginStorage",
      "outputs": [
        {
          "internalType": "contract GetLoginStorage",
          "name": "",
          "type": "address"
        }
      ],
      "stateMutability": "view",
      "type": "function",
      "constant": true
    },
    {
      "inputs": [],
      "name": "owner",
      "outputs": [
        {
          "internalType": "address",
          "name": "",
          "type": "address"
        }
      ],
      "stateMutability": "view",
      "type": "function",
      "constant": true
    },
    {
      "inputs": [
        {
          "internalType": "address",
          "name": "_address",
          "type": "address"
        }
      ],
      "name": "setOwner",
      "outputs": [],
      "stateMutability": "nonpayable",
      "type": "function"
    },
    {
      "inputs": [
        {
          "internalType": "contract GetLoginStorage",
          "name": "_address",
          "type": "address"
        }
      ],
      "name": "setStorageAddress",
      "outputs": [],
      "stateMutability": "nonpayable",
      "type": "function"
    },
    {
      "inputs": [],
      "name": "init",
      "outputs": [],
      "stateMutability": "nonpayable",
      "type": "function"
    },
    {
      "inputs": [
        {
          "internalType": "uint64",
          "name": "appId",
          "type": "uint64"
        },
        {
          "internalType": "address",
          "name": "wallet",
          "type": "address"
        }
      ],
      "name": "validateAppOwner",
      "outputs": [],
      "stateMutability": "view",
      "type": "function",
      "constant": true
    },
    {
      "inputs": [
        {
          "internalType": "uint64",
          "name": "appId",
          "type": "uint64"
        }
      ],
      "name": "validateAppExists",
      "outputs": [],
      "stateMutability": "view",
      "type": "function",
      "constant": true
    },
    {
      "inputs": [
        {
          "internalType": "address",
          "name": "wallet",
          "type": "address"
        }
      ],
      "name": "validateInviteActive",
      "outputs": [],
      "stateMutability": "view",
      "type": "function",
      "constant": true
    },
    {
      "inputs": [
        {
          "internalType": "address",
          "name": "wallet",
          "type": "address"
        }
      ],
      "name": "validateAddressRegistered",
      "outputs": [],
      "stateMutability": "view",
      "type": "function",
      "constant": true
    },
    {
      "inputs": [
        {
          "internalType": "address",
          "name": "wallet",
          "type": "address"
        }
      ],
      "name": "validateAddressAvailable",
      "outputs": [],
      "stateMutability": "view",
      "type": "function",
      "constant": true
    },
    {
      "inputs": [
        {
          "internalType": "address",
          "name": "wallet",
          "type": "address"
        }
      ],
      "name": "validateInviteAvailable",
      "outputs": [],
      "stateMutability": "view",
      "type": "function",
      "constant": true
    },
    {
      "inputs": [
        {
          "internalType": "string",
          "name": "title",
          "type": "string"
        },
        {
          "internalType": "string",
          "name": "description",
          "type": "string"
        },
        {
          "internalType": "string[]",
          "name": "allowedUrls",
          "type": "string[]"
        },
        {
          "internalType": "address[]",
          "name": "allowedContracts",
          "type": "address[]"
        }
      ],
      "name": "createApplication",
      "outputs": [
        {
          "internalType": "uint64",
          "name": "",
          "type": "uint64"
        }
      ],
      "stateMutability": "nonpayable",
      "type": "function"
    },
    {
      "inputs": [
        {
          "internalType": "uint64",
          "name": "appId",
          "type": "uint64"
        },
        {
          "internalType": "string",
          "name": "title",
          "type": "string"
        },
        {
          "internalType": "string",
          "name": "description",
          "type": "string"
        },
        {
          "internalType": "string[]",
          "name": "allowedUrls",
          "type": "string[]"
        },
        {
          "internalType": "address[]",
          "name": "allowedContracts",
          "type": "address[]"
        }
      ],
      "name": "editApplication",
      "outputs": [],
      "stateMutability": "nonpayable",
      "type": "function"
    },
    {
      "inputs": [
        {
          "internalType": "uint64",
          "name": "appId",
          "type": "uint64"
        },
        {
          "internalType": "string",
          "name": "url",
          "type": "string"
        }
      ],
      "name": "addApplicationUrl",
      "outputs": [],
      "stateMutability": "nonpayable",
      "type": "function"
    },
    {
      "inputs": [
        {
          "internalType": "uint64",
          "name": "appId",
          "type": "uint64"
        },
        {
          "internalType": "address",
          "name": "wallet",
          "type": "address"
        }
      ],
      "name": "addApplicationContract",
      "outputs": [],
      "stateMutability": "nonpayable",
      "type": "function"
    },
    {
      "inputs": [
        {
          "internalType": "uint64",
          "name": "appId",
          "type": "uint64"
        },
        {
          "internalType": "uint256",
          "name": "index",
          "type": "uint256"
        }
      ],
      "name": "deleteApplicationUrl",
      "outputs": [],
      "stateMutability": "nonpayable",
      "type": "function"
    },
    {
      "inputs": [
        {
          "internalType": "uint64",
          "name": "appId",
          "type": "uint64"
        },
        {
          "internalType": "uint256",
          "name": "index",
          "type": "uint256"
        }
      ],
      "name": "deleteApplicationContract",
      "outputs": [],
      "stateMutability": "nonpayable",
      "type": "function"
    },
    {
      "inputs": [
        {
          "internalType": "uint64",
          "name": "appId",
          "type": "uint64"
        }
      ],
      "name": "deleteApplication",
      "outputs": [],
      "stateMutability": "nonpayable",
      "type": "function"
    },
    {
      "inputs": [
        {
          "internalType": "uint64",
          "name": "appId",
          "type": "uint64"
        }
      ],
      "name": "restoreApplication",
      "outputs": [],
      "stateMutability": "nonpayable",
      "type": "function"
    },
    {
      "inputs": [
        {
          "internalType": "bytes32",
          "name": "usernameHash",
          "type": "bytes32"
        }
      ],
      "name": "createUser",
      "outputs": [],
      "stateMutability": "payable",
      "type": "function",
      "payable": true
    },
    {
      "inputs": [
        {
          "internalType": "address payable[]",
          "name": "invites",
          "type": "address[]"
        }
      ],
      "name": "createInvite",
      "outputs": [],
      "stateMutability": "payable",
      "type": "function",
      "payable": true
    },
    {
      "inputs": [
        {
          "internalType": "bytes32",
          "name": "usernameHash",
          "type": "bytes32"
        },
        {
          "internalType": "address payable",
          "name": "walletAddress",
          "type": "address"
        },
        {
          "internalType": "string",
          "name": "ciphertext",
          "type": "string"
        },
        {
          "internalType": "string",
          "name": "iv",
          "type": "string"
        },
        {
          "internalType": "string",
          "name": "salt",
          "type": "string"
        },
        {
          "internalType": "string",
          "name": "mac",
          "type": "string"
        },
        {
          "internalType": "bool",
          "name": "allowReset",
          "type": "bool"
        }
      ],
      "name": "createUserFromInvite",
      "outputs": [],
      "stateMutability": "payable",
      "type": "function",
      "payable": true
    },
    {
      "inputs": [
        {
          "internalType": "address payable",
          "name": "walletAddress",
          "type": "address"
        },
        {
          "internalType": "string",
          "name": "ciphertext",
          "type": "string"
        },
        {
          "internalType": "string",
          "name": "iv",
          "type": "string"
        },
        {
          "internalType": "string",
          "name": "salt",
          "type": "string"
        },
        {
          "internalType": "string",
          "name": "mac",
          "type": "string"
        },
        {
          "components": [
            {
              "internalType": "uint64",
              "name": "appId",
              "type": "uint64"
            },
            {
              "internalType": "string",
              "name": "iv",
              "type": "string"
            },
            {
              "internalType": "string",
              "name": "ephemPublicKey",
              "type": "string"
            },
            {
              "internalType": "string",
              "name": "ciphertext",
              "type": "string"
            },
            {
              "internalType": "string",
              "name": "mac",
              "type": "string"
            }
          ],
          "internalType": "struct GetLoginLogic.SessionData[]",
          "name": "sessions",
          "type": "tuple[]"
        }
      ],
      "name": "changePassword",
      "outputs": [],
      "stateMutability": "payable",
      "type": "function",
      "payable": true
    },
    {
      "inputs": [
        {
          "internalType": "uint64",
          "name": "appId",
          "type": "uint64"
        },
        {
          "internalType": "address payable",
          "name": "wallet",
          "type": "address"
        },
        {
          "internalType": "string",
          "name": "iv",
          "type": "string"
        },
        {
          "internalType": "string",
          "name": "ephemPublicKey",
          "type": "string"
        },
        {
          "internalType": "string",
          "name": "ciphertext",
          "type": "string"
        },
        {
          "internalType": "string",
          "name": "mac",
          "type": "string"
        }
      ],
      "name": "createAppSession",
      "outputs": [],
      "stateMutability": "payable",
      "type": "function",
      "payable": true
    },
    {
      "inputs": [
        {
          "internalType": "address payable",
          "name": "walletAddress",
          "type": "address"
        },
        {
          "internalType": "string",
          "name": "ciphertext",
          "type": "string"
        },
        {
          "internalType": "string",
          "name": "iv",
          "type": "string"
        },
        {
          "internalType": "string",
          "name": "salt",
          "type": "string"
        },
        {
          "internalType": "string",
          "name": "mac",
          "type": "string"
        }
      ],
      "name": "resetPassword",
      "outputs": [],
      "stateMutability": "payable",
      "type": "function",
      "payable": true
    },
    {
      "inputs": [
        {
          "internalType": "string",
          "name": "value",
          "type": "string"
        }
      ],
      "name": "setInviteReset",
      "outputs": [],
      "stateMutability": "nonpayable",
      "type": "function"
    },
    {
      "inputs": [
        {
          "internalType": "uint64",
          "name": "id",
          "type": "uint64"
        }
      ],
      "name": "getApplication",
      "outputs": [
        {
          "components": [
            {
              "internalType": "uint64",
              "name": "id",
              "type": "uint64"
            },
            {
              "internalType": "bytes32",
              "name": "usernameHash",
              "type": "bytes32"
            },
            {
              "internalType": "string",
              "name": "title",
              "type": "string"
            },
            {
              "internalType": "string",
              "name": "description",
              "type": "string"
            },
            {
              "internalType": "string[]",
              "name": "allowedUrls",
              "type": "string[]"
            },
            {
              "internalType": "address[]",
              "name": "allowedContracts",
              "type": "address[]"
            },
            {
              "internalType": "bool",
              "name": "isActive",
              "type": "bool"
            }
          ],
          "internalType": "struct GetLoginStorage.Application",
          "name": "",
          "type": "tuple"
        }
      ],
      "stateMutability": "view",
      "type": "function",
      "constant": true
    },
    {
      "inputs": [
        {
          "internalType": "bytes32",
          "name": "usernameHash",
          "type": "bytes32"
        }
      ],
      "name": "getUserInfo",
      "outputs": [
        {
          "components": [
            {
              "internalType": "bytes32",
              "name": "username",
              "type": "bytes32"
            },
            {
              "internalType": "bool",
              "name": "isActive",
              "type": "bool"
            }
          ],
          "internalType": "struct GetLoginStorage.UserInfo",
          "name": "",
          "type": "tuple"
        }
      ],
      "stateMutability": "view",
      "type": "function",
      "constant": true
    },
    {
      "inputs": [
        {
          "internalType": "bytes32",
          "name": "usernameHash",
          "type": "bytes32"
        }
      ],
      "name": "isUsernameExists",
      "outputs": [
        {
          "internalType": "bool",
          "name": "",
          "type": "bool"
        }
      ],
      "stateMutability": "view",
      "type": "function",
      "constant": true
    },
    {
      "inputs": [
        {
          "internalType": "address",
          "name": "wallet",
          "type": "address"
        }
      ],
      "name": "isAddressRegistered",
      "outputs": [
        {
          "internalType": "bool",
          "name": "",
          "type": "bool"
        }
      ],
      "stateMutability": "view",
      "type": "function",
      "constant": true
    },
    {
      "inputs": [
        {
          "internalType": "uint64",
          "name": "appId",
          "type": "uint64"
        },
        {
          "internalType": "address",
          "name": "checkAddress",
          "type": "address"
        }
      ],
      "name": "isAppOwner",
      "outputs": [
        {
          "internalType": "bool",
          "name": "",
          "type": "bool"
        }
      ],
      "stateMutability": "view",
      "type": "function",
      "constant": true
    },
    {
      "inputs": [
        {
          "internalType": "address",
          "name": "wallet",
          "type": "address"
        }
      ],
      "name": "getUserByAddress",
      "outputs": [
        {
          "components": [
            {
              "internalType": "bytes32",
              "name": "username",
              "type": "bytes32"
            },
            {
              "internalType": "bool",
              "name": "isActive",
              "type": "bool"
            }
          ],
          "internalType": "struct GetLoginStorage.UserInfo",
          "name": "",
          "type": "tuple"
        }
      ],
      "stateMutability": "view",
      "type": "function",
      "constant": true
    },
    {
      "inputs": [
        {
          "internalType": "address",
          "name": "wallet",
          "type": "address"
        }
      ],
      "name": "getUsernameByAddress",
      "outputs": [
        {
          "internalType": "bytes32",
          "name": "",
          "type": "bytes32"
        }
      ],
      "stateMutability": "view",
      "type": "function",
      "constant": true
    },
    {
      "inputs": [
        {
          "internalType": "address",
          "name": "wallet",
          "type": "address"
        }
      ],
      "name": "isActiveInvite",
      "outputs": [
        {
          "internalType": "bool",
          "name": "",
          "type": "bool"
        }
      ],
      "stateMutability": "view",
      "type": "function",
      "constant": true
    },
    {
      "inputs": [
        {
          "internalType": "address",
          "name": "wallet",
          "type": "address"
        }
      ],
      "name": "isInviteAddressUsed",
      "outputs": [
        {
          "internalType": "bool",
          "name": "",
          "type": "bool"
        }
      ],
      "stateMutability": "view",
      "type": "function",
      "constant": true
    },
    {
      "inputs": [
        {
          "internalType": "address",
          "name": "wallet",
          "type": "address"
        }
      ],
      "name": "getInvite",
      "outputs": [
        {
          "components": [
            {
              "internalType": "address",
              "name": "inviteAddress",
              "type": "address"
            },
            {
              "internalType": "bytes32",
              "name": "creatorUsername",
              "type": "bytes32"
            },
            {
              "internalType": "bytes32",
              "name": "registeredUsername",
              "type": "bytes32"
            },
            {
              "internalType": "bool",
              "name": "isActive",
              "type": "bool"
            }
          ],
          "internalType": "struct GetLoginStorage.InviteInfo",
          "name": "",
          "type": "tuple"
        }
      ],
      "stateMutability": "view",
      "type": "function",
      "constant": true
    },
    {
      "inputs": [
        {
          "internalType": "bytes32",
          "name": "usernameHash",
          "type": "bytes32"
        }
      ],
      "name": "getUserSessions",
      "outputs": [
        {
          "components": [
            {
              "internalType": "bytes32",
              "name": "username",
              "type": "bytes32"
            },
            {
              "internalType": "address",
              "name": "wallet",
              "type": "address"
            },
            {
              "internalType": "uint8",
              "name": "sessionType",
              "type": "uint8"
            },
            {
              "internalType": "uint64",
              "name": "appId",
              "type": "uint64"
            }
          ],
          "internalType": "struct GetLoginStorage.UserSession[]",
          "name": "",
          "type": "tuple[]"
        }
      ],
      "stateMutability": "view",
      "type": "function",
      "constant": true
    },
    {
      "inputs": [
        {
          "internalType": "bytes32",
          "name": "usernameHash",
          "type": "bytes32"
        }
      ],
      "name": "getAllSettings",
      "outputs": [
        {
          "components": [
            {
              "internalType": "string",
              "name": "inviteReset",
              "type": "string"
            }
          ],
          "internalType": "struct GetLoginLogic.SettingsData",
          "name": "",
          "type": "tuple"
        }
      ],
      "stateMutability": "view",
      "type": "function",
      "constant": true
    },
    {
      "inputs": [
        {
          "internalType": "bytes32",
          "name": "usernameHash",
          "type": "bytes32"
        },
        {
          "internalType": "string",
          "name": "key",
          "type": "string"
        }
      ],
      "name": "getSettings",
      "outputs": [
        {
          "internalType": "string",
          "name": "",
          "type": "string"
        }
      ],
      "stateMutability": "view",
      "type": "function",
      "constant": true
    },
    {
      "inputs": [
        {
          "internalType": "bytes32",
          "name": "usernameHash",
          "type": "bytes32"
        }
      ],
      "name": "getInviteReset",
      "outputs": [
        {
          "internalType": "string",
          "name": "",
          "type": "string"
        }
      ],
      "stateMutability": "view",
      "type": "function",
      "constant": true
    }
  ],
  "bytecode": "0x60c0604052600c60808190527f696e766974655f7265736574000000000000000000000000000000000000000060a0908152620000409160029190620000bd565b5060038054600160ff199091161761ff0019166102001790553480156200006657600080fd5b506040516200438338038062004383833981016040819052620000899162000162565b6001805433600160a060020a03199182161790915560008054909116600160a060020a039290921691909117905562000192565b828054600181600116156101000203166002900490600052602060002090601f016020900481019282601f106200010057805160ff191683800117855562000130565b8280016001018555821562000130579182015b828111156200013057825182559160200191906001019062000113565b506200013e92915062000142565b5090565b6200015f91905b808211156200013e576000815560010162000149565b90565b60006020828403121562000174578081fd5b8151600160a060020a03811681146200018b578182fd5b9392505050565b6141e180620001a26000396000f3fe608060405260043610610258576000357c010000000000000000000000000000000000000000000000000000000090048063880faf6f1161014b578063c5ee2740116100c8578063ec46474c1161008c578063ec46474c146106ce578063ed1a998d146106ee578063ef32358d1461071b578063fd8991cc1461073b578063ff6e97401461075b57610258565b8063c5ee274014610646578063cc35c9fc14610659578063db939c7514610679578063df8c18d114610699578063e1c7392a146106b957610258565b8063abf7bfd81161010f578063abf7bfd8146105a6578063ac7a3cc0146105b9578063adff8b0f146105d9578063b3d8b20e146105f9578063b94f28d21461062657610258565b8063880faf6f146105115780638c3ab381146105315780638da5cb5b14610551578063a182c73614610566578063abc040ca1461058657610258565b806349395fe7116101d957806369c212f61161019d57806369c212f6146104555780636b51503b146104825780637419d934146104af5780637b06c09c146104d1578063863f99b6146104f157610258565b806349395fe7146103c257806359b910d6146103d557806361c65e2c146103f557806364e34e11146104225780636768fcd31461044257610258565b80631be7c3bd116102205780631be7c3bd146103155780631c964f971461034257806320909093146103625780632226e4381461037557806338b6a3a1146103a257610258565b8063117714be1461025d57806313af40351461029357806314332258146102b55780631618ddab146102d557806316e4f57a146102e8575b600080fd5b34801561026957600080fd5b5061027d610278366004612e6c565b61077b565b60405161028a9190613a94565b60405180910390f35b34801561029f57600080fd5b506102b36102ae366004612e6c565b610815565b005b3480156102c157600080fd5b506102b36102d0366004612e6c565b61087a565b6102b36102e3366004612f43565b6108a6565b3480156102f457600080fd5b506103086103033660046131a3565b610b63565b60405161028a9190613fe2565b34801561032157600080fd5b5061033561033036600461333b565b610b87565b60405161028a919061400b565b34801561034e57600080fd5b506102b361035d3660046136e0565b610bb6565b6102b36103703660046131bb565b610bd7565b34801561038157600080fd5b506103956103903660046135b3565b610efe565b60405161028a9190613fc1565b3480156103ae57600080fd5b5061027d6103bd366004612e6c565b610f9c565b6102b36103d036600461301f565b6110ef565b3480156103e157600080fd5b506102b36103f0366004612e6c565b6112f4565b34801561040157600080fd5b50610415610410366004612e6c565b611350565b60405161028a9190613fd4565b34801561042e57600080fd5b5061027d61043d3660046135eb565b6113db565b6102b3610450366004612e88565b611480565b34801561046157600080fd5b50610475610470366004612e6c565b611711565b60405161028a9190613ffd565b34801561048e57600080fd5b506104a261049d3660046131a3565b611869565b60405161028a9190613bf0565b3480156104bb57600080fd5b506104c46118fe565b60405161028a91906139ca565b3480156104dd57600080fd5b5061027d6104ec366004612e6c565b61190d565b3480156104fd57600080fd5b506102b361050c3660046135eb565b6119a7565b34801561051d57600080fd5b506102b361052c3660046135eb565b6119d9565b34801561053d57600080fd5b506102b361054c3660046135b3565b6119f6565b34801561055d57600080fd5b506104c4611a14565b34801561057257600080fd5b506102b3610581366004612e6c565b611a23565b34801561059257600080fd5b506102b36105a13660046137c6565b611a4b565b6102b36105b43660046131a3565b611a68565b3480156105c557600080fd5b506102b36105d4366004612e6c565b611a72565b3480156105e557600080fd5b506104756105f43660046131a3565b611a9a565b34801561060557600080fd5b506106196106143660046131a3565b611b24565b60405161028a9190613a18565b34801561063257600080fd5b506102b36106413660046135b3565b611bc2565b6102b3610654366004613623565b611c77565b34801561066557600080fd5b506102b3610674366004613718565b611dd5565b34801561068557600080fd5b506104a2610694366004613290565b611edf565b3480156106a557600080fd5b506102b36106b4366004612e6c565b611fb2565b3480156106c557600080fd5b506102b3611fdb565b3480156106da57600080fd5b506102b36106e93660046137c6565b6121e7565b3480156106fa57600080fd5b5061070e610709366004612e6c565b612204565b60405161028a9190613a9f565b34801561072757600080fd5b5061027d6107363660046131a3565b612216565b34801561074757600080fd5b506102b36107563660046135b3565b61222b565b34801561076757600080fd5b506102b36107763660046132d5565b612240565b6000610785612a13565b60005460405160e260020a631871978b028152600160a060020a03909116906361c65e2c906107b89086906004016139ca565b60806040518083038186803b1580156107d057600080fd5b505afa1580156107e4573d6000803e3d6000fd5b505050506040513d601f19601f8201168201806040525081019061080891906134e7565b606001519150505b919050565b600154600160a060020a0316331461084b5760405160e560020a62461bcd02815260040161084290613c3a565b60405180910390fd5b6001805473ffffffffffffffffffffffffffffffffffffffff1916600160a060020a0392909216919091179055565b6108838161190d565b156108a35760405160e560020a62461bcd02815260040161084290613daa565b50565b6108af33611a23565b6108b886611fb2565b60006108c333612204565b6000546040805180820182526001815260208101849052905160e060020a63c17b5289028152929350600160a060020a039091169163c17b52899161090d918b91906004016139fb565b600060405180830381600087803b15801561092757600080fd5b505af115801561093b573d6000803e3d6000fd5b505060008054604080518082018252928352602083018690525160e060020a63c17b5289028152600160a060020a03909116935063c17b528992506109849133916004016139fb565b600060405180830381600087803b15801561099e57600080fd5b505af11580156109b2573d6000803e3d6000fd5b50506003546109cb9250839150899060ff1660006122e5565b604051600160a060020a038816903480156108fc02916000818181858888f19350505050158015610a00573d6000803e3d6000fd5b506000546040517f6d822b44000000000000000000000000000000000000000000000000000000008152600160a060020a0390911690636d822b4490610a549084908b908b908b908b908b90600401613abf565b600060405180830381600087803b158015610a6e57600080fd5b505af1158015610a82573d6000803e3d6000fd5b506000925050505b8251811015610b5957610a9b612a3a565b838281518110610aa757fe5b6020908102919091018101516000548151928201516040808401516060850151608086015192517f2f23976c000000000000000000000000000000000000000000000000000000008152959750600160a060020a0390941695632f23976c95610b1a9591948b9490939291600401614043565b600060405180830381600087803b158015610b3457600080fd5b505af1158015610b48573d6000803e3d6000fd5b505060019093019250610a8a915050565b5050505050505050565b610b6b612a73565b6040518060200160405280610b7f84611869565b905292915050565b6000610b9233611a23565b6000610b9d33612204565b9050610bac8187878787612362565b9695505050505050565b610bbf82611bc2565b610bc982336119a7565b610bd382826125b2565b5050565b610be033611a72565b610be986610f9c565b15610c095760405160e560020a62461bcd02815260040161084290613ca8565b610c11612a13565b60005460405160e260020a631871978b028152600160a060020a03909116906361c65e2c90610c449033906004016139ca565b60806040518083038186803b158015610c5c57600080fd5b505afa158015610c70573d6000803e3d6000fd5b505050506040513d601f19601f82011682018060405250810190610c9491906134e7565b9050610ca08888612633565b60006060820181905260408083018a9052905490517f0913be41000000000000000000000000000000000000000000000000000000008152600160a060020a0390911690630913be4190610cfa90339085906004016139de565b600060405180830381600087803b158015610d1457600080fd5b505af1158015610d28573d6000803e3d6000fd5b5050604051600160a060020a038a1692503480156108fc029250906000818181858888f19350505050158015610d62573d6000803e3d6000fd5b506002805460408051602060018416156101000260001901909316849004601f8101849004840282018401909252818152610e6f938c9391929091830182828015610dee5780601f10610dc357610100808354040283529160200191610dee565b820191906000526020600020905b815481529060010190602001808311610dd157829003601f168201915b505050505084610e33576040518060400160405280600581526020017f66616c7365000000000000000000000000000000000000000000000000000000815250610e6a565b6040518060400160405280600481526020017f74727565000000000000000000000000000000000000000000000000000000008152505b6127a1565b6000546040517f6d822b44000000000000000000000000000000000000000000000000000000008152600160a060020a0390911690636d822b4490610ec2908b908b908b908b908b908b90600401613abf565b600060405180830381600087803b158015610edc57600080fd5b505af1158015610ef0573d6000803e3d6000fd5b505050505050505050505050565b610f06612a86565b610f0f82611bc2565b60005460405160e360020a630444dc87028152600160a060020a0390911690632226e43890610f4290859060040161400b565b60006040518083038186803b158015610f5a57600080fd5b505afa158015610f6e573d6000803e3d6000fd5b505050506040513d6000823e601f3d908101601f19168201604052610f9691908101906133e3565b92915050565b6000610fa6612ad2565b6000546040517fdcac263e000000000000000000000000000000000000000000000000000000008152600160a060020a039091169063dcac263e90610fef9086906004016139ca565b604080518083038186803b15801561100657600080fd5b505afa15801561101a573d6000803e3d6000fd5b505050506040513d601f19601f8201168201806040525081019061103e9190613578565b80519091501515600114611056576000915050610810565b61105e612ad2565b600054602083015160405160e260020a631945d5e7028152600160a060020a0390921691636517579c9161109491600401613a9f565b604080518083038186803b1580156110ab57600080fd5b505afa1580156110bf573d6000803e3d6000fd5b505050506040513d601f19601f820116820180604052508101906110e3919061353f565b60200151949350505050565b6110f833611a23565b60005b81518110156111285761112082828151811061111357fe5b602002602001015161087a565b6001016110fb565b50600061113433612204565b905060003415801590611148575060008351115b1561115b578251348161115757fe5b0490505b60005b83518110156112ee5760008460008151811061117657fe5b6020908102919091018101516000805460408051608081018252600160a060020a0380861682529581018a90528082019390935260016060840152517f0913be410000000000000000000000000000000000000000000000000000000081529294509290921691630913be41916111f19185916004016139de565b600060405180830381600087803b15801561120b57600080fd5b505af115801561121f573d6000803e3d6000fd5b50505050600083111561126457604051600160a060020a0382169084156108fc029085906000818181858888f19350505050158015611262573d6000803e3d6000fd5b505b6000546040517f2ef9adc3000000000000000000000000000000000000000000000000000000008152600160a060020a0390911690632ef9adc3906112af9087908590600401613aa8565b600060405180830381600087803b1580156112c957600080fd5b505af11580156112dd573d6000803e3d6000fd5b50506001909301925061115e915050565b50505050565b600154600160a060020a031633146113215760405160e560020a62461bcd02815260040161084290613c3a565b6000805473ffffffffffffffffffffffffffffffffffffffff1916600160a060020a0392909216919091179055565b611358612a13565b60005460405160e260020a631871978b028152600160a060020a03909116906361c65e2c9061138b9085906004016139ca565b60806040518083038186803b1580156113a357600080fd5b505afa1580156113b7573d6000803e3d6000fd5b505050506040513d601f19601f82011682018060405250810190610f9691906134e7565b6000806113e783612204565b60005460405160e360020a630444dc870281529192508291600160a060020a0390911690632226e4389061141f90889060040161400b565b60006040518083038186803b15801561143757600080fd5b505afa15801561144b573d6000803e3d6000fd5b505050506040513d6000823e601f3d908101601f1916820160405261147391908101906133e3565b6020015114949350505050565b611488612a13565b60005460405160e260020a631871978b028152600160a060020a03909116906361c65e2c906114bb9033906004016139ca565b60806040518083038186803b1580156114d357600080fd5b505afa1580156114e7573d6000803e3d6000fd5b505050506040513d601f19601f8201168201806040525081019061150b91906134e7565b6060810151909150156115335760405160e560020a62461bcd02815260040161084290613d16565b60408101516115575760405160e560020a62461bcd02815260040161084290613f64565b60405160200161156690613d73565b604051602081830303815290604052805190602001206115898260400151611869565b6040516020016115999190613bf0565b60405160208183030381529060405280519060200120146115cf5760405160e560020a62461bcd02815260040161084290613e07565b60005460408051808201825260018152838201516020820152905160e060020a63c17b5289028152600160a060020a039092169163c17b528991611618918a91906004016139fb565b600060405180830381600087803b15801561163257600080fd5b505af1158015611646573d6000803e3d6000fd5b5050604051600160a060020a03891692503480156108fc029250906000818181858888f19350505050158015611680573d6000803e3d6000fd5b5060005460408083015190517f6d822b44000000000000000000000000000000000000000000000000000000008152600160a060020a0390921691636d822b44916116d7918a908a908a908a908a90600401613abf565b600060405180830381600087803b1580156116f157600080fd5b505af1158015611705573d6000803e3d6000fd5b50505050505050505050565b611719612ad2565b611721612ad2565b6000546040517fdcac263e000000000000000000000000000000000000000000000000000000008152600160a060020a039091169063dcac263e9061176a9086906004016139ca565b604080518083038186803b15801561178157600080fd5b505afa158015611795573d6000803e3d6000fd5b505050506040513d601f19601f820116820180604052508101906117b99190613578565b80519091506117dd5760405160e560020a62461bcd02815260040161084290613ed2565b600054602082015160405160e260020a631945d5e7028152600160a060020a0390921691636517579c9161181391600401613a9f565b604080518083038186803b15801561182a57600080fd5b505afa15801561183e573d6000803e3d6000fd5b505050506040513d601f19601f82011682018060405250810190611862919061353f565b9392505050565b60028054604080516020601f60001961010060018716150201909416859004938401819004810282018101909252828152606093610f969386938301828280156118f45780601f106118c9576101008083540402835291602001916118f4565b820191906000526020600020905b8154815290600101906020018083116118d757829003601f168201915b5050505050611edf565b600054600160a060020a031681565b6000611917612a13565b60005460405160e260020a631871978b028152600160a060020a03909116906361c65e2c9061194a9086906004016139ca565b60806040518083038186803b15801561196257600080fd5b505afa158015611976573d6000803e3d6000fd5b505050506040513d601f19601f8201168201806040525081019061199a91906134e7565b6020015115159392505050565b6119b081611a23565b6119ba82826113db565b610bd35760405160e560020a62461bcd02815260040161084290613f07565b6119e282611bc2565b6119ec82336119a7565b610bd38282612818565b6119ff81611bc2565b611a0981336119a7565b6108a3816000612863565b600154600160a060020a031681565b611a2c81610f9c565b6108a35760405160e560020a62461bcd02815260040161084290613e9b565b611a5482611bc2565b611a5e82336119a7565b610bd3828261297d565b6108a38133612633565b611a7b8161077b565b6108a35760405160e560020a62461bcd02815260040161084290613e64565b611aa2612ad2565b60005460405160e260020a631945d5e7028152600160a060020a0390911690636517579c90611ad5908590600401613a9f565b604080518083038186803b158015611aec57600080fd5b505afa158015611b00573d6000803e3d6000fd5b505050506040513d601f19601f82011682018060405250810190610f96919061353f565b6000546040517fb3d8b20e000000000000000000000000000000000000000000000000000000008152606091600160a060020a03169063b3d8b20e90611b6e908590600401613a9f565b60006040518083038186803b158015611b8657600080fd5b505afa158015611b9a573d6000803e3d6000fd5b505050506040513d6000823e601f3d908101601f19168201604052610f9691908101906130ba565b611bca612a86565b60005460405160e360020a630444dc87028152600160a060020a0390911690632226e43890611bfd90859060040161400b565b60006040518083038186803b158015611c1557600080fd5b505afa158015611c29573d6000803e3d6000fd5b505050506040513d6000823e601f3d908101601f19168201604052611c5191908101906133e3565b90508060c00151610bd35760405160e560020a62461bcd02815260040161084290613c71565b611c8033611a23565b611c8986611bc2565b6000611c9433612204565b6000546040805180820182526001815260208101849052905160e060020a63c17b5289028152929350600160a060020a039091169163c17b528991611cde918a91906004016139fb565b600060405180830381600087803b158015611cf857600080fd5b505af1158015611d0c573d6000803e3d6000fd5b5050604051600160a060020a03891692503480156108fc029250906000818181858888f19350505050158015611d46573d6000803e3d6000fd5b506000546040517f2f23976c000000000000000000000000000000000000000000000000000000008152600160a060020a0390911690632f23976c90611d9a908a9085908a908a908a908a90600401614043565b600060405180830381600087803b158015611db457600080fd5b505af1158015611dc8573d6000803e3d6000fd5b5050505050505050505050565b611dde85611bc2565b611de885336119a7565b611df0612a86565b60005460405160e360020a630444dc87028152600160a060020a0390911690632226e43890611e2390899060040161400b565b60006040518083038186803b158015611e3b57600080fd5b505afa158015611e4f573d6000803e3d6000fd5b505050506040513d6000823e601f3d908101601f19168201604052611e7791908101906133e3565b6040808201879052606082018690526080820185905260a0820184905260005490517f50d2c00e000000000000000000000000000000000000000000000000000000008152919250600160a060020a0316906350d2c00e906116d7908990859060040161408f565b606060008383604051602001611ef6929190613b77565b60408051601f198184030181529082905280516020909101206000547fdce2dd17000000000000000000000000000000000000000000000000000000008352909250600160a060020a03169063dce2dd1790611f56908490600401613a9f565b60006040518083038186803b158015611f6e57600080fd5b505afa158015611f82573d6000803e3d6000fd5b505050506040513d6000823e601f3d908101601f19168201604052611faa9190810190613308565b949350505050565b611fbb81610f9c565b156108a35760405160e560020a62461bcd02815260040161084290613ca8565b600154600160a060020a031633146120085760405160e560020a62461bcd02815260040161084290613c3a565b6000604051612016906139a1565b60405180910390209050612028612ad2565b60005460405160e260020a631945d5e7028152600160a060020a0390911690636517579c9061205b908590600401613a9f565b604080518083038186803b15801561207257600080fd5b505afa158015612086573d6000803e3d6000fd5b505050506040513d601f19601f820116820180604052508101906120aa919061353f565b9050806020015115156001151514610bd3576120c68233612633565b6060806000612142856040518060400160405280600881526020017f4765744c6f67696e0000000000000000000000000000000000000000000000008152506040518060400160405280601381526020017f4765744c6f67696e202d206175746820617070000000000000000000000000008152508686612362565b9050612183816040518060400160405280601d81526020017f68747470733a2f2f6c6f63616c686f73743a333030312f6f70656e69640000008152506125b2565b6121c2816040518060400160405280601781526020017f68747470733a2f2f6c6f63616c686f73743a333030312f0000000000000000008152506125b2565b6121e081739a0cde760277dc3a4b2ac6e9d333af45148ebb60612818565b5050505050565b6121f082611bc2565b6121fa82336119a7565b610bd382826129c8565b600061220f82611711565b5192915050565b600061222182611a9a565b6020015192915050565b61223581336119a7565b6108a3816001612863565b600061224b33612204565b60028054604080516020601f60001961010060018716150201909416859004938401819004810282018101909252828152939450610bd3938593909290918301828280156122da5780601f106122af576101008083540402835291602001916122da565b820191906000526020600020905b8154815290600101906020018083116122bd57829003601f168201915b5050505050846127a1565b6000546040517f9931f4f2000000000000000000000000000000000000000000000000000000008152600160a060020a0390911690639931f4f290612334908790879087908790600401613b2d565b600060405180830381600087803b15801561234e57600080fd5b505af1158015610b59573d6000803e3d6000fd5b60008054604080517f8ad1041900000000000000000000000000000000000000000000000000000000815290518392600160a060020a031691638ad10419916004808301926020929190829003018186803b1580156123c057600080fd5b505afa1580156123d4573d6000803e3d6000fd5b505050506040513d601f19601f820116820180604052508101906123f891906135cf565b6000546040805160e08101825267ffffffffffffffff84168152602081018b90528082018a9052606081018990526080810188905260a08101879052600160c082015290517f50d2c00e000000000000000000000000000000000000000000000000000000008152929350600160a060020a03909116916350d2c00e916124849185919060040161408f565b600060405180830381600087803b15801561249e57600080fd5b505af11580156124b2573d6000803e3d6000fd5b505060008054604080517f3122da980000000000000000000000000000000000000000000000000000000081529051600160a060020a039092169450633122da989350600480820193929182900301818387803b15801561251257600080fd5b505af1158015612526573d6000803e3d6000fd5b50506000546040517fb68baa15000000000000000000000000000000000000000000000000000000008152600160a060020a03909116925063b68baa159150612575908a908590600401613bd8565b600060405180830381600087803b15801561258f57600080fd5b505af11580156125a3573d6000803e3d6000fd5b50929998505050505050505050565b6000546040517f036fbb74000000000000000000000000000000000000000000000000000000008152600160a060020a039091169063036fbb74906125fd908590859060040161406c565b600060405180830381600087803b15801561261757600080fd5b505af115801561262b573d6000803e3d6000fd5b505050505050565b61263c82612216565b1561265c5760405160e560020a62461bcd02815260040161084290613cdf565b61266581610f9c565b156126855760405160e560020a62461bcd02815260040161084290613c03565b6000546040805180820182528481526001602082015290517f58ad5022000000000000000000000000000000000000000000000000000000008152600160a060020a03909216916358ad5022916126e191869190600401613bc4565b600060405180830381600087803b1580156126fb57600080fd5b505af115801561270f573d6000803e3d6000fd5b50506000546040805180820182526001815260208101879052905160e060020a63c17b5289028152600160a060020a03909216935063c17b5289925061275a918591906004016139fb565b600060405180830381600087803b15801561277457600080fd5b505af1158015612788573d6000803e3d6000fd5b5050600354610bd39250849150839060ff1660006122e5565b600083836040516020016127b6929190613b77565b60408051601f198184030181529082905280516020909101206000547f6fb89051000000000000000000000000000000000000000000000000000000008352909250600160a060020a031690636fb89051906123349084908690600401613b5e565b6000546040517f212109e4000000000000000000000000000000000000000000000000000000008152600160a060020a039091169063212109e4906125fd9085908590600401614020565b61286b612a86565b60005460405160e360020a630444dc87028152600160a060020a0390911690632226e4389061289e90869060040161400b565b60006040518083038186803b1580156128b657600080fd5b505afa1580156128ca573d6000803e3d6000fd5b505050506040513d6000823e601f3d908101601f191682016040526128f291908101906133e3565b82151560c08201526000546040517f50d2c00e000000000000000000000000000000000000000000000000000000008152919250600160a060020a0316906350d2c00e90612946908690859060040161408f565b600060405180830381600087803b15801561296057600080fd5b505af1158015612974573d6000803e3d6000fd5b50505050505050565b6000546040517fabc040ca000000000000000000000000000000000000000000000000000000008152600160a060020a039091169063abc040ca906125fd90859085906004016140b2565b6000546040517fec46474c000000000000000000000000000000000000000000000000000000008152600160a060020a039091169063ec46474c906125fd90859085906004016140b2565b60408051608081018252600080825260208201819052918101829052606081019190915290565b6040518060a00160405280600067ffffffffffffffff168152602001606081526020016060815260200160608152602001606081525090565b6040518060200160405280606081525090565b6040518060e00160405280600067ffffffffffffffff16815260200160008019168152602001606081526020016060815260200160608152602001606081526020016000151581525090565b604080518082019091526000808252602082015290565b8035610f9681614163565b600082601f830112612b04578081fd5b8151612b17612b12826140f3565b6140cc565b818152915060208083019084810181840286018201871015612b3857600080fd5b60005b84811015612b60578151612b4e81614163565b84529282019290820190600101612b3b565b505050505092915050565b600082601f830112612b7b578081fd5b8135612b89612b12826140f3565b818152915060208083019084810181840286018201871015612baa57600080fd5b60005b84811015612b60578135612bc081614163565b84529282019290820190600101612bad565b600082601f830112612be2578081fd5b8151612bf0612b12826140f3565b818152915060208083019084810160005b84811015612b6057612c18888484518a0101612e09565b84529282019290820190600101612c01565b600082601f830112612c3a578081fd5b8135612c48612b12826140f3565b818152915060208083019084810160005b84811015612b6057612c70888484358a0101612dbb565b84529282019290820190600101612c59565b600082601f830112612c92578081fd5b8135612ca0612b12826140f3565b818152915060208083019084810160005b84811015612b60578135870160a080601f19838c03011215612cd257600080fd5b612cdb816140cc565b612ce78b878501612e56565b815260408084013567ffffffffffffffff80821115612d0557600080fd5b612d138e8a84890101612dbb565b89850152606091508186013581811115612d2c57600080fd5b612d3a8f8b838a0101612dbb565b8486015250608092508286013581811115612d5457600080fd5b612d628f8b838a0101612dbb565b838601525084860135915080821115612d7a57600080fd5b50612d898d8983880101612dbb565b9183019190915250865250509282019290820190600101612cb1565b8035610f9681614178565b8051610f9681614178565b600082601f830112612dcb578081fd5b8135612dd9612b1282614113565b9150808252836020828501011115612df057600080fd5b8060208401602084013760009082016020015292915050565b600082601f830112612e19578081fd5b8151612e27612b1282614113565b9150808252836020828501011115612e3e57600080fd5b612e4f816020840160208601614137565b5092915050565b8035610f9681614186565b8051610f9681614186565b600060208284031215612e7d578081fd5b813561186281614163565b600080600080600060a08688031215612e9f578081fd5b8535612eaa81614163565b9450602086013567ffffffffffffffff80821115612ec6578283fd5b612ed289838a01612dbb565b95506040880135915080821115612ee7578283fd5b612ef389838a01612dbb565b94506060880135915080821115612f08578283fd5b612f1489838a01612dbb565b93506080880135915080821115612f29578283fd5b50612f3688828901612dbb565b9150509295509295909350565b60008060008060008060c08789031215612f5b578384fd5b612f658888612ae9565b9550602087013567ffffffffffffffff80821115612f81578586fd5b612f8d8a838b01612dbb565b96506040890135915080821115612fa2578586fd5b612fae8a838b01612dbb565b95506060890135915080821115612fc3578283fd5b612fcf8a838b01612dbb565b94506080890135915080821115612fe4578283fd5b612ff08a838b01612dbb565b935060a0890135915080821115613005578283fd5b5061301289828a01612c82565b9150509295509295509295565b60006020808385031215613031578182fd5b823567ffffffffffffffff811115613047578283fd5b80840185601f820112613058578384fd5b80359150613068612b12836140f3565b8281528381019082850185850284018601891015613084578687fd5b8693505b848410156130ae5761309a8982612ae9565b835260019390930192918501918501613088565b50979650505050505050565b600060208083850312156130cc578182fd5b825167ffffffffffffffff8111156130e2578283fd5b80840185601f8201126130f3578384fd5b80519150613103612b12836140f3565b828152838101908285016080808602850187018a1015613121578788fd5b8794505b858510156131955780828b03121561313b578788fd5b613144816140cc565b825181528783015161315581614163565b818901526040838101516131688161419c565b9082015260608381015161317b81614186565b908201528452600194909401939286019290810190613125565b509098975050505050505050565b6000602082840312156131b4578081fd5b5035919050565b600080600080600080600060e0888a0312156131d5578485fd5b873596506131e68960208a01612ae9565b9550604088013567ffffffffffffffff80821115613202578687fd5b61320e8b838c01612dbb565b965060608a0135915080821115613223578283fd5b61322f8b838c01612dbb565b955060808a0135915080821115613244578283fd5b6132508b838c01612dbb565b945060a08a0135915080821115613265578283fd5b506132728a828b01612dbb565b9250506132828960c08a01612da5565b905092959891949750929550565b600080604083850312156132a2578182fd5b82359150602083013567ffffffffffffffff8111156132bf578182fd5b6132cb85828601612dbb565b9150509250929050565b6000602082840312156132e6578081fd5b813567ffffffffffffffff8111156132fc578182fd5b611faa84828501612dbb565b600060208284031215613319578081fd5b815167ffffffffffffffff81111561332f578182fd5b611faa84828501612e09565b60008060008060808587031215613350578182fd5b843567ffffffffffffffff80821115613367578384fd5b61337388838901612dbb565b95506020870135915080821115613388578384fd5b61339488838901612dbb565b945060408701359150808211156133a9578384fd5b6133b588838901612c2a565b935060608701359150808211156133ca578283fd5b506133d787828801612b6b565b91505092959194509250565b6000602082840312156133f4578081fd5b815167ffffffffffffffff8082111561340b578283fd5b81840160e0818703121561341d578384fd5b61342760e06140cc565b92506134338682612e61565b835260208101516020840152604081015182811115613450578485fd5b61345c87828401612e09565b604085015250606081015182811115613473578485fd5b61347f87828401612e09565b606085015250608081015182811115613496578485fd5b6134a287828401612bd2565b60808501525060a0810151828111156134b9578485fd5b6134c587828401612af4565b60a0850152506134d88660c08301612db0565b60c08401525090949350505050565b6000608082840312156134f8578081fd5b61350260806140cc565b825161350d81614163565b808252506020830151602082015260408301516040820152606083015161353381614178565b60608201529392505050565b600060408284031215613550578081fd5b61355a60406140cc565b82518152602083015161356c81614178565b60208201529392505050565b600060408284031215613589578081fd5b61359360406140cc565b825161359e81614178565b81526020928301519281019290925250919050565b6000602082840312156135c4578081fd5b813561186281614186565b6000602082840312156135e0578081fd5b815161186281614186565b600080604083850312156135fd578182fd5b823561360881614186565b9150602083013561361881614163565b809150509250929050565b60008060008060008060c0878903121561363b578384fd5b6136458888612e56565b95506136548860208901612ae9565b9450604087013567ffffffffffffffff80821115613670578586fd5b61367c8a838b01612dbb565b95506060890135915080821115613691578384fd5b61369d8a838b01612dbb565b945060808901359150808211156136b2578384fd5b6136be8a838b01612dbb565b935060a08901359150808211156136d3578283fd5b5061301289828a01612dbb565b600080604083850312156136f2578182fd5b82356136fd81614186565b9150602083013567ffffffffffffffff8111156132bf578182fd5b600080600080600060a0868803121561372f578283fd5b853561373a81614186565b9450602086013567ffffffffffffffff80821115613756578485fd5b61376289838a01612dbb565b95506040880135915080821115613777578485fd5b61378389838a01612dbb565b94506060880135915080821115613798578283fd5b6137a489838a01612c2a565b935060808801359150808211156137b9578283fd5b50612f3688828901612b6b565b600080604083850312156137d8578182fd5b82356137e381614186565b946020939093013593505050565b6000815180845260208085019450808401835b83811015613829578151600160a060020a031687529582019590820190600101613804565b509495945050505050565b15159052565b60008151808452613852816020860160208601614137565b601f01601f19169290920160200192915050565b600067ffffffffffffffff825116835260208083015181850152604083015160e0604086015261389960e086018261383a565b6060850151915085810360608701526138b2818361383a565b60808601519250868103608088015280915082518082528482019250848582028301018585018795505b8286101561390c57601f198483030185526138f882825161383a565b6001969096019594870194915086016138dc565b5060a0880151955088810360a08a015261392681876137f1565b94505050505060c08401519150611faa60c0860183613834565b600160a060020a03815116825260208101516020830152604081015160408301526060810151151560608301525050565b805182526020908101511515910152565b805115158252602090810151910152565b67ffffffffffffffff169052565b7f61646d696e000000000000000000000000000000000000000000000000000000815260050190565b600160a060020a0391909116815260200190565b600160a060020a038316815260a081016118626020830184613940565b600160a060020a0383168152606081016118626020830184613982565b602080825282518282018190526000919060409081850190868401855b82811015613a8757815180518552600160a060020a0387820151168786015260ff868201511686860152606080820151613a7182880182613993565b5050506080939093019290850190600101613a35565b5091979650505050505050565b901515815260200190565b90815260200190565b918252600160a060020a0316602082015260400190565b6000878252600160a060020a038716602083015260c06040830152613ae760c083018761383a565b8281036060840152613af9818761383a565b8381036080850152613b0b818761383a565b91505082810360a0840152613b20818561383a565b9998505050505050505050565b938452600160a060020a0392909216602084015260ff16604083015267ffffffffffffffff16606082015260800190565b600083825260406020830152611faa604083018461383a565b600083825260606020830152600160608301527f5f00000000000000000000000000000000000000000000000000000000000000608083015260a06040830152611faa60a083018461383a565b828152606081016118626020830184613971565b91825267ffffffffffffffff16602082015260400190565b600060208252611862602083018461383a565b60208082526013908201527f57616c6c657420616c7265616479207573656400000000000000000000000000604082015260600190565b60208082526017908201527f43616c6c6572206973206e6f7420746865206f776e6572000000000000000000604082015260600190565b6020808252600d908201527f417070206e6f7420666f756e6400000000000000000000000000000000000000604082015260600190565b6020808252601a908201527f4164647265737320616c72656164792072656769737465726564000000000000604082015260600190565b60208082526015908201527f557365726e616d6520616c726561647920757365640000000000000000000000604082015260600190565b60208082526027908201527f4f6e6c7920696e61637469766520696e766974652063616e207265736574207060408201527f617373776f726400000000000000000000000000000000000000000000000000606082015260800190565b60208082526004908201527f7472756500000000000000000000000000000000000000000000000000000000604082015260600190565b60208082526024908201527f54686973206164647265737320616c7265616479207573656420666f7220696e60408201527f7669746500000000000000000000000000000000000000000000000000000000606082015260800190565b60208082526021908201527f53657474696e6773206e6f7420616c6c6f772072657365742070617373776f7260408201527f6400000000000000000000000000000000000000000000000000000000000000606082015260800190565b60208082526011908201527f496e76697465206e6f7420616374697665000000000000000000000000000000604082015260600190565b60208082526016908201527f41646472657373206e6f74207265676973746572656400000000000000000000604082015260600190565b6020808252818101527f55736572207769746820746869732061646472657373206e6f7420666f756e64604082015260600190565b6020808252602a908201527f596f7520646f206e6f7420686176652061636365737320746f2074686973206160408201527f70706c69636174696f6e00000000000000000000000000000000000000000000606082015260800190565b6020808252602c908201527f4f6e6c7920696e76697465207769746820757365726e616d652063616e20726560408201527f7365742070617373776f72640000000000000000000000000000000000000000606082015260800190565b6000602082526118626020830184613866565b60808101610f968284613940565b6000602082528251602080840152611faa604084018261383a565b60408101610f968284613971565b67ffffffffffffffff91909116815260200190565b67ffffffffffffffff929092168252600160a060020a0316602082015260400190565b600067ffffffffffffffff8816825286602083015260c06040830152613ae760c083018761383a565b600067ffffffffffffffff8416825260406020830152611faa604083018461383a565b600067ffffffffffffffff8416825260406020830152611faa6040830184613866565b67ffffffffffffffff929092168252602082015260400190565b60405181810167ffffffffffffffff811182821017156140eb57600080fd5b604052919050565b600067ffffffffffffffff821115614109578081fd5b5060209081020190565b600067ffffffffffffffff821115614129578081fd5b50601f01601f191660200190565b60005b8381101561415257818101518382015260200161413a565b838111156112ee5750506000910152565b600160a060020a03811681146108a357600080fd5b80151581146108a357600080fd5b67ffffffffffffffff811681146108a357600080fd5b60ff811681146108a357600080fdfea264697066735822122005d86e5b54846010c3d4ba467e0565956e91d26b7bfbb1c0aac24c6296359fc864736f6c63430006040033",
  "source": "pragma solidity ^0.6.4;\npragma experimental ABIEncoderV2;\n\nimport './GetLoginStorage.sol';\n\ncontract GetLoginLogic {\n    GetLoginStorage public getLoginStorage;\n    address public owner;\n    string settingsInviteReset = \"invite_reset\";\n\n    struct SessionData\n    {\n        uint64 appId;\n        string iv;\n        string ephemPublicKey;\n        string ciphertext;\n        string mac;\n    }\n\n    struct SettingsData\n    {\n        string inviteReset;\n    }\n\n    uint8 sessionMain = 1;\n    uint8 sessionApp = 2;\n\n    modifier onlyOwner() {\n        require(msg.sender == owner, \"Caller is not the owner\");\n        _;\n    }\n\n    function setOwner(address _address) onlyOwner public {\n        owner = _address;\n    }\n\n    function setStorageAddress(GetLoginStorage _address) onlyOwner public {\n        getLoginStorage = _address;\n    }\n\n    constructor(GetLoginStorage _getLoginStorage) public {\n        owner = msg.sender;\n        getLoginStorage = _getLoginStorage;\n    }\n\n    function init() onlyOwner public {\n        bytes32 usernameHash = keccak256('admin');\n        GetLoginStorage.UserInfo memory info = getLoginStorage.getUser(usernameHash);\n        if (info.isActive != true) {\n            _createUser(usernameHash, msg.sender);\n            string[] memory allowedUrls;\n            address[] memory allowedContracts;\n            uint64 newAppId = _createApplication(usernameHash, 'GetLogin', 'GetLogin - auth app', allowedUrls, allowedContracts);\n            _addApplicationUrl(newAppId, 'https://localhost:3001/openid');\n            _addApplicationUrl(newAppId, 'https://localhost:3001/');\n            _addApplicationContract(newAppId, 0x9A0CDE760277DC3A4B2aC6E9D333Af45148eBb60);\n        }\n    }\n\n    /* Private methods */\n    function _createUser(bytes32 usernameHash, address ownerWallet) private {\n        require(isUsernameExists(usernameHash) == false, \"Username already used\");\n        require(isAddressRegistered(ownerWallet) == false, \"Wallet already used\");\n        getLoginStorage.setUser(usernameHash, GetLoginStorage.UserInfo({username : usernameHash, isActive : true}));\n        getLoginStorage.setUsersAddressUsername(ownerWallet, GetLoginStorage.Username({username : usernameHash, isActive : true}));\n        _addSessionInit(usernameHash, ownerWallet, sessionMain, 0);\n    }\n\n    function _createApplication(bytes32 usernameHash, string memory title, string memory description, string[] memory allowedUrls, address[] memory allowedContracts) private returns (uint64) {\n        uint64 appId = getLoginStorage.applicationId();\n        getLoginStorage.setApplication(appId, GetLoginStorage.Application({id : appId, usernameHash : usernameHash, title : title, description : description, allowedUrls : allowedUrls, allowedContracts : allowedContracts, isActive : true}));\n        getLoginStorage.incrementApplicationId();\n        getLoginStorage.emitEventAppCreated(usernameHash, appId);\n\n        return appId;\n    }\n\n    function _addApplicationUrl(uint64 appId, string memory url) private {\n        getLoginStorage.pushApplicationUrl(appId, url);\n    }\n\n    function _addApplicationContract(uint64 appId, address wallet) private {\n        getLoginStorage.pushApplicationContract(appId, wallet);\n    }\n\n    function _deleteApplicationUrl(uint64 appId, uint index) private {\n        getLoginStorage.deleteApplicationUrl(appId, index);\n    }\n\n    function _deleteApplicationContract(uint64 appId, uint index) private {\n        getLoginStorage.deleteApplicationContract(appId, index);\n    }\n\n    function _setApplicationActive(uint64 appId, bool isActive) private {\n        GetLoginStorage.Application memory app = getLoginStorage.getApplication(appId);\n        app.isActive = isActive;\n        getLoginStorage.setApplication(appId, app);\n    }\n\n    function _addSessionInit(bytes32 usernameHash, address wallet, uint8 sessionType, uint64 appId) private {\n        getLoginStorage.pushUserSession(usernameHash, wallet, sessionType, appId);\n    }\n\n    function _addSession(address wallet, uint8 sessionType, uint64 appId) private {\n        validateAppExists(appId);\n        validateAddressRegistered(wallet);\n        bytes32 usernameHash = getUsernameByAddress(wallet);\n        //UserSessions[usernameHash].push(UserSession({username : usernameHash, wallet : wallet, sessionType : sessionType, appId : appId}));\n        getLoginStorage.pushUserSession(usernameHash, wallet, sessionType, appId);\n    }\n\n    function _setSettings(bytes32 usernameHash, string memory key, string memory value) private {\n        // todo inspect is correct way\n        bytes32 keyHash = keccak256(abi.encode(usernameHash, \"_\", key));\n        getLoginStorage.setSettings(keyHash, value);\n    }\n\n    /* End of private methods */\n\n    /* Validators */\n    function validateAppOwner(uint64 appId, address wallet) public view {\n        // todo check is user address is not session\n        validateAddressRegistered(wallet);\n        require(isAppOwner(appId, wallet), \"You do not have access to this application\");\n    }\n\n    function validateAppExists(uint64 appId) public view {\n        GetLoginStorage.Application memory app = getLoginStorage.getApplication(appId);\n        require(app.isActive, \"App not found\");\n    }\n\n    function validateInviteActive(address wallet) public view {\n        require(isActiveInvite(wallet), \"Invite not active\");\n    }\n\n    function validateAddressRegistered(address wallet) public view {\n        require(isAddressRegistered(wallet), \"Address not registered\");\n    }\n\n    function validateAddressAvailable(address wallet) public view {\n        require(isAddressRegistered(wallet) == false, \"Address already registered\");\n    }\n\n    function validateInviteAvailable(address wallet) public view {\n        require(isInviteAddressUsed(wallet) == false, \"This address already used for invite\");\n    }\n    /* End validators */\n\n    /* Public methods */\n    function createApplication(string memory title, string memory description, string[] memory allowedUrls, address[] memory allowedContracts) public returns (uint64) {\n        // todo only main session can create and edit app (check it in top hierarchy method)?\n        validateAddressRegistered(msg.sender);\n        bytes32 usernameHash = getUsernameByAddress(msg.sender);\n        return _createApplication(usernameHash, title, description, allowedUrls, allowedContracts);\n    }\n\n    function editApplication(uint64 appId, string memory title, string memory description, string[] memory allowedUrls, address[] memory allowedContracts) public {\n        validateAppExists(appId);\n        validateAppOwner(appId, msg.sender);\n        GetLoginStorage.Application memory app = getLoginStorage.getApplication(appId);\n        app.title = title;\n        app.description = description;\n        app.allowedUrls = allowedUrls;\n        app.allowedContracts = allowedContracts;\n        getLoginStorage.setApplication(appId, app);\n    }\n\n    function addApplicationUrl(uint64 appId, string memory url) public {\n        validateAppExists(appId);\n        validateAppOwner(appId, msg.sender);\n        _addApplicationUrl(appId, url);\n    }\n\n    function addApplicationContract(uint64 appId, address wallet) public {\n        validateAppExists(appId);\n        validateAppOwner(appId, msg.sender);\n        _addApplicationContract(appId, wallet);\n    }\n\n    function deleteApplicationUrl(uint64 appId, uint index) public {\n        validateAppExists(appId);\n        validateAppOwner(appId, msg.sender);\n        _deleteApplicationUrl(appId, index);\n    }\n\n    function deleteApplicationContract(uint64 appId, uint index) public {\n        validateAppExists(appId);\n        validateAppOwner(appId, msg.sender);\n        _deleteApplicationContract(appId, index);\n    }\n\n    function deleteApplication(uint64 appId) public {\n        validateAppExists(appId);\n        validateAppOwner(appId, msg.sender);\n        _setApplicationActive(appId, false);\n    }\n\n    function restoreApplication(uint64 appId) public {\n        //validateAppExists(appId);\n        validateAppOwner(appId, msg.sender);\n        _setApplicationActive(appId, true);\n    }\n\n    function createUser(bytes32 usernameHash) public payable {\n        _createUser(usernameHash, msg.sender);\n    }\n\n    function createInvite(address payable[] memory invites) public payable {\n        // todo only main session can create invite\n        validateAddressRegistered(msg.sender);\n        for (uint i = 0; i < invites.length; i++) {\n            validateInviteAvailable(invites[i]);\n        }\n\n        bytes32 creatorUsernameHash = getUsernameByAddress(msg.sender);\n        uint256 val = 0;\n        if (msg.value > 0 && invites.length > 0) {\n            val = msg.value / invites.length;\n        }\n\n        for (uint i = 0; i < invites.length; i++) {\n            address payable inviteAddress = invites[0];\n            getLoginStorage.setInvite(inviteAddress, GetLoginStorage.InviteInfo({inviteAddress : inviteAddress, creatorUsername : creatorUsernameHash, registeredUsername : '', isActive : true}));\n            if (val > 0) {\n                inviteAddress.transfer(val);\n            }\n\n            getLoginStorage.emitEventInviteCreated(creatorUsernameHash, inviteAddress);\n        }\n    }\n\n    function createUserFromInvite(bytes32 usernameHash, address payable walletAddress, string memory ciphertext, string memory iv, string memory salt, string memory mac, bool allowReset) public payable {\n        validateInviteActive(msg.sender);\n        require(isAddressRegistered(walletAddress) == false, \"Address already registered\");\n        GetLoginStorage.InviteInfo memory invite = getLoginStorage.getInvite(msg.sender);\n        _createUser(usernameHash, walletAddress);\n        invite.isActive = false;\n        invite.registeredUsername = usernameHash;\n        getLoginStorage.setInvite(msg.sender, invite);\n        walletAddress.transfer(msg.value);\n        //setInviteReset(allowReset);\n        _setSettings(usernameHash, settingsInviteReset, allowReset ? \"true\" : \"false\");\n        getLoginStorage.emitEventStoreWallet(usernameHash, walletAddress, ciphertext, iv, salt, mac);\n    }\n\n    function changePassword(address payable walletAddress, string memory ciphertext, string memory iv, string memory salt, string memory mac, SessionData[] memory sessions) public payable {\n        validateAddressRegistered(msg.sender);\n        validateAddressAvailable(walletAddress);\n        bytes32 usernameHash = getUsernameByAddress(msg.sender);\n        getLoginStorage.setUsersAddressUsername(walletAddress, GetLoginStorage.Username({username : usernameHash, isActive : true}));\n        // deactivate old wallet\n        getLoginStorage.setUsersAddressUsername(msg.sender, GetLoginStorage.Username({username : usernameHash, isActive : false}));\n        //getLoginStorage.setUser(usernameHash, GetLoginStorage.UserInfo({username : usernameHash, isActive : false}));\n        // todo check _addSessionInit is needed\n        _addSessionInit(usernameHash, walletAddress, sessionMain, 0);\n        walletAddress.transfer(msg.value);\n        getLoginStorage.emitEventStoreWallet(usernameHash, walletAddress, ciphertext, iv, salt, mac);\n\n        for (uint i = 0; i < sessions.length; i++) {\n            SessionData memory session = sessions[i];\n            getLoginStorage.emitEventAppSession(session.appId, usernameHash, session.iv, session.ephemPublicKey, session.ciphertext, session.mac);\n        }\n    }\n\n    function createAppSession(uint64 appId, address payable wallet, string memory iv, string memory ephemPublicKey, string memory ciphertext, string memory mac) public payable {\n        validateAddressRegistered(msg.sender);\n        validateAppExists(appId);\n        bytes32 usernameHash = getUsernameByAddress(msg.sender);\n        // todo check only one main session possible\n        // todo hide user apps ids?\n        getLoginStorage.setUsersAddressUsername(wallet, GetLoginStorage.Username({isActive : true, username : usernameHash}));\n        wallet.transfer(msg.value);\n        getLoginStorage.emitEventAppSession(appId, usernameHash, iv, ephemPublicKey, ciphertext, mac);\n    }\n\n    function resetPassword(address payable walletAddress, string memory ciphertext, string memory iv, string memory salt, string memory mac) public payable {\n        GetLoginStorage.InviteInfo memory invite = getLoginStorage.getInvite(msg.sender);\n        require(invite.isActive == false, \"Only inactive invite can reset password\");\n        // todo check is correct\n        require(invite.registeredUsername != \"\", \"Only invite with username can reset password\");\n        require(keccak256(abi.encode(getInviteReset(invite.registeredUsername))) == keccak256(abi.encode(\"true\")), \"Settings not allow reset password\");\n        getLoginStorage.setUsersAddressUsername(walletAddress, GetLoginStorage.Username({username : invite.registeredUsername, isActive : true}));\n        walletAddress.transfer(msg.value);\n        getLoginStorage.emitEventStoreWallet(invite.registeredUsername, walletAddress, ciphertext, iv, salt, mac);\n    }\n\n    /*function addMainSession(address wallet) public payable {\n        validateAddressRegistered(msg.sender);\n        _addSession(wallet, sessionApp, 0);\n    }*/\n\n    function setInviteReset(string memory value) public {\n        bytes32 usernameHash = getUsernameByAddress(msg.sender);\n        _setSettings(usernameHash, settingsInviteReset, value);\n    }\n\n    /* End of public methods */\n\n    /* View methods */\n    function getApplication(uint64 id) public view returns (GetLoginStorage.Application memory) {\n        validateAppExists(id);\n\n        return getLoginStorage.getApplication(id);\n    }\n\n    function getUserInfo(bytes32 usernameHash) public view returns (GetLoginStorage.UserInfo memory) {\n        //return Users[usernameHash];\n        return getLoginStorage.getUser(usernameHash);\n    }\n\n    function isUsernameExists(bytes32 usernameHash) public view returns (bool) {\n        return getUserInfo(usernameHash).isActive;\n    }\n\n    function isAddressRegistered(address wallet) public view returns (bool) {\n        GetLoginStorage.Username memory currentUser = getLoginStorage.getUsersAddressUsername(wallet);\n        if (currentUser.isActive != true) {\n            return false;\n        }\n\n        GetLoginStorage.UserInfo memory info = getLoginStorage.getUser(currentUser.username);\n\n        return info.isActive;\n    }\n\n    function isAppOwner(uint64 appId, address checkAddress) public view returns (bool) {\n        bytes32 currentUsernameHash = getUsernameByAddress(checkAddress);\n        return getLoginStorage.getApplication(appId).usernameHash == currentUsernameHash;\n    }\n\n    function getUserByAddress(address wallet) public view returns (GetLoginStorage.UserInfo memory) {\n        GetLoginStorage.Username memory currentUser = getLoginStorage.getUsersAddressUsername(wallet);\n        require(currentUser.isActive, \"User with this address not found\");\n        return getLoginStorage.getUser(currentUser.username);\n    }\n\n    function getUsernameByAddress(address wallet) public view returns (bytes32) {\n        return getUserByAddress(wallet).username;\n    }\n\n    function isActiveInvite(address wallet) public view returns (bool) {\n        GetLoginStorage.InviteInfo memory info = getLoginStorage.getInvite(wallet);\n        return info.isActive;\n    }\n\n    function isInviteAddressUsed(address wallet) public view returns (bool) {\n        GetLoginStorage.InviteInfo memory info = getLoginStorage.getInvite(wallet);\n        return info.creatorUsername != '';\n    }\n\n    function getInvite(address wallet) public view returns (GetLoginStorage.InviteInfo memory) {\n        return getLoginStorage.getInvite(wallet);\n    }\n\n    function getUserSessions(bytes32 usernameHash) public view returns (GetLoginStorage.UserSession[] memory) {\n        return getLoginStorage.getUserSessions(usernameHash);\n    }\n\n    function getAllSettings(bytes32 usernameHash) public view returns (SettingsData memory) {\n        return SettingsData({inviteReset : getInviteReset(usernameHash)});\n    }\n\n    function getSettings(bytes32 usernameHash, string memory key) public view returns (string memory) {\n        // todo inspect is correct way / collisions possible\n        bytes32 keyHash = keccak256(abi.encode(usernameHash, \"_\", key));\n        return getLoginStorage.getSettings(keyHash);\n    }\n\n    function getInviteReset(bytes32 usernameHash) public view returns (string memory) {\n        return getSettings(usernameHash, settingsInviteReset);\n    }\n\n    /* End of view methods */\n}\n",
  "sourcePath": "/Users/sdancer/web/login/src/smart/contracts/GetLoginLogic.sol",
  "compiler": {
    "name": "solc",
    "version": "0.6.4+commit.1dca32f3.Emscripten.clang"
  },
  "schemaVersion": "3.2.3",
  "updatedAt": "2020-08-17T10:53:21.039Z",
  "networkType": "ethereum",
  "devdoc": {
    "methods": {}
  },
  "userdoc": {
    "methods": {}
  }
}