{
  "contractName": "GetLoginLogic",
  "abi": [
    {
      "inputs": [
        {
          "internalType": "contract GetLoginStorage",
          "name": "_getLoginStorage",
          "type": "address"
        }
      ],
      "stateMutability": "nonpayable",
      "type": "constructor"
    },
    {
      "inputs": [],
      "name": "getLoginStorage",
      "outputs": [
        {
          "internalType": "contract GetLoginStorage",
          "name": "",
          "type": "address"
        }
      ],
      "stateMutability": "view",
      "type": "function",
      "constant": true
    },
    {
      "inputs": [],
      "name": "owner",
      "outputs": [
        {
          "internalType": "address",
          "name": "",
          "type": "address"
        }
      ],
      "stateMutability": "view",
      "type": "function",
      "constant": true
    },
    {
      "inputs": [
        {
          "internalType": "address",
          "name": "_address",
          "type": "address"
        }
      ],
      "name": "setOwner",
      "outputs": [],
      "stateMutability": "nonpayable",
      "type": "function"
    },
    {
      "inputs": [
        {
          "internalType": "contract GetLoginStorage",
          "name": "_address",
          "type": "address"
        }
      ],
      "name": "setStorageAddress",
      "outputs": [],
      "stateMutability": "nonpayable",
      "type": "function"
    },
    {
      "inputs": [],
      "name": "init",
      "outputs": [],
      "stateMutability": "nonpayable",
      "type": "function"
    },
    {
      "inputs": [
        {
          "internalType": "uint64",
          "name": "_appId",
          "type": "uint64"
        },
        {
          "internalType": "address",
          "name": "_wallet",
          "type": "address"
        }
      ],
      "name": "validateAppOwner",
      "outputs": [],
      "stateMutability": "view",
      "type": "function",
      "constant": true
    },
    {
      "inputs": [
        {
          "internalType": "uint64",
          "name": "_appId",
          "type": "uint64"
        }
      ],
      "name": "validateAppExists",
      "outputs": [],
      "stateMutability": "view",
      "type": "function",
      "constant": true
    },
    {
      "inputs": [
        {
          "internalType": "address",
          "name": "_address",
          "type": "address"
        }
      ],
      "name": "validateInviteActive",
      "outputs": [],
      "stateMutability": "view",
      "type": "function",
      "constant": true
    },
    {
      "inputs": [
        {
          "internalType": "address",
          "name": "_address",
          "type": "address"
        }
      ],
      "name": "validateAddressRegistered",
      "outputs": [],
      "stateMutability": "view",
      "type": "function",
      "constant": true
    },
    {
      "inputs": [
        {
          "internalType": "address",
          "name": "_address",
          "type": "address"
        }
      ],
      "name": "validateMainAddress",
      "outputs": [],
      "stateMutability": "view",
      "type": "function",
      "constant": true
    },
    {
      "inputs": [
        {
          "internalType": "address",
          "name": "_address",
          "type": "address"
        }
      ],
      "name": "validateAddressAvailable",
      "outputs": [],
      "stateMutability": "view",
      "type": "function",
      "constant": true
    },
    {
      "inputs": [
        {
          "internalType": "address",
          "name": "_address",
          "type": "address"
        }
      ],
      "name": "validateInviteAvailable",
      "outputs": [],
      "stateMutability": "view",
      "type": "function",
      "constant": true
    },
    {
      "inputs": [
        {
          "internalType": "string",
          "name": "_title",
          "type": "string"
        },
        {
          "internalType": "string",
          "name": "_description",
          "type": "string"
        },
        {
          "internalType": "string[]",
          "name": "_allowedUrls",
          "type": "string[]"
        },
        {
          "internalType": "address[]",
          "name": "_allowedContracts",
          "type": "address[]"
        }
      ],
      "name": "createApplication",
      "outputs": [
        {
          "internalType": "uint64",
          "name": "",
          "type": "uint64"
        }
      ],
      "stateMutability": "nonpayable",
      "type": "function"
    },
    {
      "inputs": [
        {
          "internalType": "uint64",
          "name": "_appId",
          "type": "uint64"
        },
        {
          "internalType": "string",
          "name": "_title",
          "type": "string"
        },
        {
          "internalType": "string",
          "name": "_description",
          "type": "string"
        },
        {
          "internalType": "string[]",
          "name": "_allowedUrls",
          "type": "string[]"
        },
        {
          "internalType": "address[]",
          "name": "_allowedContracts",
          "type": "address[]"
        }
      ],
      "name": "editApplication",
      "outputs": [],
      "stateMutability": "nonpayable",
      "type": "function"
    },
    {
      "inputs": [
        {
          "internalType": "uint64",
          "name": "_appId",
          "type": "uint64"
        },
        {
          "internalType": "string",
          "name": "_url",
          "type": "string"
        }
      ],
      "name": "addApplicationUrl",
      "outputs": [],
      "stateMutability": "nonpayable",
      "type": "function"
    },
    {
      "inputs": [
        {
          "internalType": "uint64",
          "name": "_appId",
          "type": "uint64"
        },
        {
          "internalType": "address",
          "name": "_address",
          "type": "address"
        }
      ],
      "name": "addApplicationContract",
      "outputs": [],
      "stateMutability": "nonpayable",
      "type": "function"
    },
    {
      "inputs": [
        {
          "internalType": "uint64",
          "name": "_appId",
          "type": "uint64"
        },
        {
          "internalType": "uint256",
          "name": "_index",
          "type": "uint256"
        }
      ],
      "name": "deleteApplicationUrl",
      "outputs": [],
      "stateMutability": "nonpayable",
      "type": "function"
    },
    {
      "inputs": [
        {
          "internalType": "uint64",
          "name": "_appId",
          "type": "uint64"
        },
        {
          "internalType": "uint256",
          "name": "_index",
          "type": "uint256"
        }
      ],
      "name": "deleteApplicationContract",
      "outputs": [],
      "stateMutability": "nonpayable",
      "type": "function"
    },
    {
      "inputs": [
        {
          "internalType": "uint64",
          "name": "_appId",
          "type": "uint64"
        }
      ],
      "name": "deleteApplication",
      "outputs": [],
      "stateMutability": "nonpayable",
      "type": "function"
    },
    {
      "inputs": [
        {
          "internalType": "uint64",
          "name": "_appId",
          "type": "uint64"
        }
      ],
      "name": "restoreApplication",
      "outputs": [],
      "stateMutability": "nonpayable",
      "type": "function"
    },
    {
      "inputs": [
        {
          "internalType": "bytes32",
          "name": "_usernameHash",
          "type": "bytes32"
        }
      ],
      "name": "createUser",
      "outputs": [],
      "stateMutability": "payable",
      "type": "function",
      "payable": true
    },
    {
      "inputs": [
        {
          "internalType": "address payable",
          "name": "_newOwner",
          "type": "address"
        }
      ],
      "name": "changeUserOwner",
      "outputs": [],
      "stateMutability": "payable",
      "type": "function",
      "payable": true
    },
    {
      "inputs": [
        {
          "internalType": "address payable[]",
          "name": "_invites",
          "type": "address[]"
        }
      ],
      "name": "createInvite",
      "outputs": [],
      "stateMutability": "payable",
      "type": "function",
      "payable": true
    },
    {
      "inputs": [
        {
          "internalType": "bytes32",
          "name": "_usernameHash",
          "type": "bytes32"
        },
        {
          "internalType": "address payable",
          "name": "_walletAddress",
          "type": "address"
        },
        {
          "internalType": "string",
          "name": "_ciphertext",
          "type": "string"
        },
        {
          "internalType": "string",
          "name": "_iv",
          "type": "string"
        },
        {
          "internalType": "string",
          "name": "_salt",
          "type": "string"
        },
        {
          "internalType": "string",
          "name": "_mac",
          "type": "string"
        },
        {
          "internalType": "bool",
          "name": "_allowReset",
          "type": "bool"
        }
      ],
      "name": "createUserFromInvite",
      "outputs": [],
      "stateMutability": "payable",
      "type": "function",
      "payable": true
    },
    {
      "inputs": [
        {
          "internalType": "address payable",
          "name": "_newAddress",
          "type": "address"
        },
        {
          "internalType": "string",
          "name": "_ciphertext",
          "type": "string"
        },
        {
          "internalType": "string",
          "name": "_iv",
          "type": "string"
        },
        {
          "internalType": "string",
          "name": "_salt",
          "type": "string"
        },
        {
          "internalType": "string",
          "name": "_mac",
          "type": "string"
        },
        {
          "components": [
            {
              "internalType": "uint64",
              "name": "appId",
              "type": "uint64"
            },
            {
              "internalType": "string",
              "name": "iv",
              "type": "string"
            },
            {
              "internalType": "string",
              "name": "ephemPublicKey",
              "type": "string"
            },
            {
              "internalType": "string",
              "name": "ciphertext",
              "type": "string"
            },
            {
              "internalType": "string",
              "name": "mac",
              "type": "string"
            }
          ],
          "internalType": "struct GetLoginLogic.SessionData[]",
          "name": "_sessions",
          "type": "tuple[]"
        }
      ],
      "name": "changePassword",
      "outputs": [],
      "stateMutability": "payable",
      "type": "function",
      "payable": true
    },
    {
      "inputs": [
        {
          "internalType": "address payable",
          "name": "_newAddress",
          "type": "address"
        },
        {
          "internalType": "string",
          "name": "_ciphertext",
          "type": "string"
        },
        {
          "internalType": "string",
          "name": "_iv",
          "type": "string"
        },
        {
          "internalType": "string",
          "name": "_salt",
          "type": "string"
        },
        {
          "internalType": "string",
          "name": "_mac",
          "type": "string"
        }
      ],
      "name": "resetPassword",
      "outputs": [],
      "stateMutability": "payable",
      "type": "function",
      "payable": true
    },
    {
      "inputs": [
        {
          "internalType": "uint64",
          "name": "_appId",
          "type": "uint64"
        },
        {
          "internalType": "address payable",
          "name": "_sessionAddress",
          "type": "address"
        },
        {
          "internalType": "string",
          "name": "_iv",
          "type": "string"
        },
        {
          "internalType": "string",
          "name": "_ephemPublicKey",
          "type": "string"
        },
        {
          "internalType": "string",
          "name": "_ciphertext",
          "type": "string"
        },
        {
          "internalType": "string",
          "name": "_mac",
          "type": "string"
        }
      ],
      "name": "createAppSession",
      "outputs": [],
      "stateMutability": "payable",
      "type": "function",
      "payable": true
    },
    {
      "inputs": [
        {
          "internalType": "uint64",
          "name": "_appId",
          "type": "uint64"
        },
        {
          "internalType": "address payable",
          "name": "_sessionAddress",
          "type": "address"
        }
      ],
      "name": "createSimpleAppSession",
      "outputs": [],
      "stateMutability": "payable",
      "type": "function",
      "payable": true
    },
    {
      "inputs": [
        {
          "internalType": "uint64",
          "name": "_appId",
          "type": "uint64"
        }
      ],
      "name": "closeAppSession",
      "outputs": [],
      "stateMutability": "nonpayable",
      "type": "function"
    },
    {
      "inputs": [
        {
          "internalType": "string",
          "name": "_value",
          "type": "string"
        }
      ],
      "name": "setInviteReset",
      "outputs": [],
      "stateMutability": "nonpayable",
      "type": "function"
    },
    {
      "inputs": [
        {
          "internalType": "string",
          "name": "value",
          "type": "string"
        }
      ],
      "name": "setGlobalOnlyInvites",
      "outputs": [],
      "stateMutability": "nonpayable",
      "type": "function"
    },
    {
      "inputs": [
        {
          "internalType": "uint64",
          "name": "_id",
          "type": "uint64"
        }
      ],
      "name": "getApplication",
      "outputs": [
        {
          "components": [
            {
              "internalType": "uint64",
              "name": "id",
              "type": "uint64"
            },
            {
              "internalType": "bytes32",
              "name": "usernameHash",
              "type": "bytes32"
            },
            {
              "internalType": "string",
              "name": "title",
              "type": "string"
            },
            {
              "internalType": "string",
              "name": "description",
              "type": "string"
            },
            {
              "internalType": "string[]",
              "name": "allowedUrls",
              "type": "string[]"
            },
            {
              "internalType": "address[]",
              "name": "allowedContracts",
              "type": "address[]"
            },
            {
              "internalType": "bool",
              "name": "isActive",
              "type": "bool"
            }
          ],
          "internalType": "struct GetLoginStorage.Application",
          "name": "",
          "type": "tuple"
        }
      ],
      "stateMutability": "view",
      "type": "function",
      "constant": true
    },
    {
      "inputs": [
        {
          "internalType": "bytes32",
          "name": "_usernameHash",
          "type": "bytes32"
        }
      ],
      "name": "getUserInfo",
      "outputs": [
        {
          "components": [
            {
              "internalType": "bytes32",
              "name": "username",
              "type": "bytes32"
            },
            {
              "internalType": "address",
              "name": "mainAddress",
              "type": "address"
            },
            {
              "internalType": "bool",
              "name": "isActive",
              "type": "bool"
            }
          ],
          "internalType": "struct GetLoginStorage.UserInfo",
          "name": "",
          "type": "tuple"
        }
      ],
      "stateMutability": "view",
      "type": "function",
      "constant": true
    },
    {
      "inputs": [
        {
          "internalType": "bytes32",
          "name": "_usernameHash",
          "type": "bytes32"
        }
      ],
      "name": "isUsernameExists",
      "outputs": [
        {
          "internalType": "bool",
          "name": "",
          "type": "bool"
        }
      ],
      "stateMutability": "view",
      "type": "function",
      "constant": true
    },
    {
      "inputs": [
        {
          "internalType": "address",
          "name": "_address",
          "type": "address"
        }
      ],
      "name": "isAddressRegistered",
      "outputs": [
        {
          "internalType": "bool",
          "name": "",
          "type": "bool"
        }
      ],
      "stateMutability": "view",
      "type": "function",
      "constant": true
    },
    {
      "inputs": [
        {
          "internalType": "uint64",
          "name": "_appId",
          "type": "uint64"
        },
        {
          "internalType": "address",
          "name": "_checkAddress",
          "type": "address"
        }
      ],
      "name": "isAppOwner",
      "outputs": [
        {
          "internalType": "bool",
          "name": "",
          "type": "bool"
        }
      ],
      "stateMutability": "view",
      "type": "function",
      "constant": true
    },
    {
      "inputs": [
        {
          "internalType": "address",
          "name": "_address",
          "type": "address"
        }
      ],
      "name": "getUserByAddress",
      "outputs": [
        {
          "components": [
            {
              "internalType": "bytes32",
              "name": "username",
              "type": "bytes32"
            },
            {
              "internalType": "address",
              "name": "mainAddress",
              "type": "address"
            },
            {
              "internalType": "bool",
              "name": "isActive",
              "type": "bool"
            }
          ],
          "internalType": "struct GetLoginStorage.UserInfo",
          "name": "",
          "type": "tuple"
        }
      ],
      "stateMutability": "view",
      "type": "function",
      "constant": true
    },
    {
      "inputs": [
        {
          "internalType": "address",
          "name": "_address",
          "type": "address"
        }
      ],
      "name": "getUsernameByAddress",
      "outputs": [
        {
          "internalType": "bytes32",
          "name": "",
          "type": "bytes32"
        }
      ],
      "stateMutability": "view",
      "type": "function",
      "constant": true
    },
    {
      "inputs": [
        {
          "internalType": "address",
          "name": "_address",
          "type": "address"
        }
      ],
      "name": "isActiveInvite",
      "outputs": [
        {
          "internalType": "bool",
          "name": "",
          "type": "bool"
        }
      ],
      "stateMutability": "view",
      "type": "function",
      "constant": true
    },
    {
      "inputs": [
        {
          "internalType": "address",
          "name": "_address",
          "type": "address"
        }
      ],
      "name": "isInviteAddressUsed",
      "outputs": [
        {
          "internalType": "bool",
          "name": "",
          "type": "bool"
        }
      ],
      "stateMutability": "view",
      "type": "function",
      "constant": true
    },
    {
      "inputs": [
        {
          "internalType": "address",
          "name": "_address",
          "type": "address"
        }
      ],
      "name": "getInvite",
      "outputs": [
        {
          "components": [
            {
              "internalType": "address",
              "name": "inviteAddress",
              "type": "address"
            },
            {
              "internalType": "bytes32",
              "name": "creatorUsername",
              "type": "bytes32"
            },
            {
              "internalType": "bytes32",
              "name": "registeredUsername",
              "type": "bytes32"
            },
            {
              "internalType": "bool",
              "name": "isActive",
              "type": "bool"
            }
          ],
          "internalType": "struct GetLoginStorage.InviteInfo",
          "name": "",
          "type": "tuple"
        }
      ],
      "stateMutability": "view",
      "type": "function",
      "constant": true
    },
    {
      "inputs": [
        {
          "internalType": "uint64",
          "name": "_appId",
          "type": "uint64"
        },
        {
          "internalType": "bytes32",
          "name": "_usernameHash",
          "type": "bytes32"
        }
      ],
      "name": "getAppSessions",
      "outputs": [
        {
          "components": [
            {
              "internalType": "bytes32",
              "name": "username",
              "type": "bytes32"
            },
            {
              "internalType": "address",
              "name": "wallet",
              "type": "address"
            },
            {
              "internalType": "uint64",
              "name": "appId",
              "type": "uint64"
            },
            {
              "internalType": "bool",
              "name": "isActive",
              "type": "bool"
            }
          ],
          "internalType": "struct GetLoginStorage.AppSession[]",
          "name": "",
          "type": "tuple[]"
        }
      ],
      "stateMutability": "view",
      "type": "function",
      "constant": true
    },
    {
      "inputs": [
        {
          "internalType": "bytes32",
          "name": "_usernameHash",
          "type": "bytes32"
        }
      ],
      "name": "getActiveAppSessions",
      "outputs": [
        {
          "components": [
            {
              "internalType": "bytes32",
              "name": "username",
              "type": "bytes32"
            },
            {
              "internalType": "address",
              "name": "wallet",
              "type": "address"
            },
            {
              "internalType": "uint64",
              "name": "appId",
              "type": "uint64"
            },
            {
              "internalType": "bool",
              "name": "isActive",
              "type": "bool"
            }
          ],
          "internalType": "struct GetLoginStorage.AppSession[]",
          "name": "",
          "type": "tuple[]"
        }
      ],
      "stateMutability": "view",
      "type": "function",
      "constant": true
    },
    {
      "inputs": [
        {
          "internalType": "bytes32",
          "name": "_usernameHash",
          "type": "bytes32"
        }
      ],
      "name": "getAllSettings",
      "outputs": [
        {
          "components": [
            {
              "internalType": "string",
              "name": "inviteReset",
              "type": "string"
            }
          ],
          "internalType": "struct GetLoginLogic.SettingsData",
          "name": "",
          "type": "tuple"
        }
      ],
      "stateMutability": "view",
      "type": "function",
      "constant": true
    },
    {
      "inputs": [
        {
          "internalType": "bytes32",
          "name": "_usernameHash",
          "type": "bytes32"
        },
        {
          "internalType": "string",
          "name": "_key",
          "type": "string"
        }
      ],
      "name": "getSettings",
      "outputs": [
        {
          "internalType": "string",
          "name": "",
          "type": "string"
        }
      ],
      "stateMutability": "view",
      "type": "function",
      "constant": true
    },
    {
      "inputs": [
        {
          "internalType": "string",
          "name": "_key",
          "type": "string"
        }
      ],
      "name": "getGlobalSettings",
      "outputs": [
        {
          "internalType": "string",
          "name": "",
          "type": "string"
        }
      ],
      "stateMutability": "view",
      "type": "function",
      "constant": true
    },
    {
      "inputs": [
        {
          "internalType": "bytes32",
          "name": "_usernameHash",
          "type": "bytes32"
        }
      ],
      "name": "getInviteReset",
      "outputs": [
        {
          "internalType": "string",
          "name": "",
          "type": "string"
        }
      ],
      "stateMutability": "view",
      "type": "function",
      "constant": true
    }
  ],
  "bytecode": "0x60c0604052600c60808190527f696e766974655f7265736574000000000000000000000000000000000000000060a0908152620000409160029190620000fb565b5060408051808201909152600c8082527f696e76697465735f6f6e6c79000000000000000000000000000000000000000060209092019182526200008791600391620000fb565b506004805461ffff1916610201179055348015620000a457600080fd5b506040516200569e3803806200569e833981016040819052620000c791620001a1565b6001805433600160a060020a03199182161790915560008054909116600160a060020a039290921691909117905562000229565b8280546200010990620001d3565b90600052602060002090601f0160209004810192826200012d576000855562000178565b82601f106200014857805160ff191683800117855562000178565b8280016001018555821562000178579182015b82811115620001785782518255916020019190600101906200015b565b50620001869291506200018a565b5090565b5b808211156200018657600081556001016200018b565b600060208284031215620001b457600080fd5b8151600160a060020a0381168114620001cc57600080fd5b9392505050565b600281046001821680620001e857607f821691505b6020821081141562000223577f4e487b7100000000000000000000000000000000000000000000000000000000600052602260045260246000fd5b50919050565b61546580620002396000396000f3fe6080604052600436106102a5576000357c01000000000000000000000000000000000000000000000000000000009004806370eb886611610177578063b94f28d2116100de578063e90d038e11610097578063e90d038e146107ed578063ec46474c1461080d578063ed1a998d1461082d578063ef32358d1461085b578063fd8991cc1461087b578063ff6e97401461089b57600080fd5b8063b94f28d214610745578063c5ee274014610765578063cc35c9fc14610778578063db939c7514610798578063df8c18d1146107b8578063e1c7392a146107d857600080fd5b80638da5cb5b116101305780638da5cb5b14610692578063a182c736146106b2578063abc040ca146106d2578063abf7bfd8146106f2578063ac7a3cc014610705578063adff8b0f1461072557600080fd5b806370eb8866146105c75780637419d934146105da5780637b06c09c14610612578063863f99b614610632578063880faf6f146106525780638c3ab3811461067257600080fd5b806349395fe71161021b57806361c65e2c116101d457806361c65e2c146104fa57806364e34e11146105275780636768fcd31461054757806369c212f61461055a5780636b51503b146105875780636f79bc80146105a757600080fd5b806349395fe7146104475780634cb818031461045a5780634d96d3b51461048757806359b910d61461049a5780635c22f47d146104ba5780635ff49cb1146104da57600080fd5b80631be7c3bd1161026d5780631be7c3bd146103615780631c964f971461039a57806320909093146103ba5780632226e438146103cd5780632d5de51f146103fa57806338b6a3a11461042757600080fd5b8063117714be146102aa57806313af4035146102df57806314332258146103015780631618ddab1461032157806316e4f57a14610334575b600080fd5b3480156102b657600080fd5b506102ca6102c536600461424a565b6108bb565b60405190151581526020015b60405180910390f35b3480156102eb57600080fd5b506102ff6102fa36600461424a565b610947565b005b34801561030d57600080fd5b506102ff61031c36600461424a565b6109ac565b6102ff61032f366004614327565b610a2d565b34801561034057600080fd5b5061035461034f366004614620565b610bfb565b6040516102d691906150f9565b34801561036d57600080fd5b5061038161037c3660046147c2565b610c26565b60405167ffffffffffffffff90911681526020016102d6565b3480156103a657600080fd5b506102ff6103b5366004614bd2565b610c55565b6102ff6103c8366004614639565b610c76565b3480156103d957600080fd5b506103ed6103e8366004614a73565b610f78565b6040516102d691906150b0565b34801561040657600080fd5b5061041a610415366004614620565b611062565b6040516102d69190614ec9565b34801561043357600080fd5b506102ca61044236600461424a565b611224565b6102ff610455366004614408565b6112c3565b34801561046657600080fd5b5061047a610475366004614758565b61155b565b6040516102d6919061501f565b6102ff61049536600461424a565b611627565b3480156104a657600080fd5b506102ff6104b536600461424a565b6116ff565b3480156104c657600080fd5b5061041a6104d5366004614ba6565b61175b565b3480156104e657600080fd5b506102ff6104f5366004614a73565b611805565b34801561050657600080fd5b5061051a61051536600461424a565b6118fc565b6040516102d691906150c3565b34801561053357600080fd5b506102ca610542366004614aad565b6119a0565b6102ff610555366004614267565b611a54565b34801561056657600080fd5b5061057a61057536600461424a565b611e34565b6040516102d69190615114565b34801561059357600080fd5b5061047a6105a2366004614620565b61217a565b3480156105b357600080fd5b506102ff6105c2366004614758565b612210565b6102ff6105d5366004614aad565b6122d1565b3480156105e657600080fd5b506000546105fa90600160a060020a031681565b604051600160a060020a0390911681526020016102d6565b34801561061e57600080fd5b506102ca61062d36600461424a565b6123bb565b34801561063e57600080fd5b506102ff61064d366004614aad565b612449565b34801561065e57600080fd5b506102ff61066d366004614aad565b6124c8565b34801561067e57600080fd5b506102ff61068d366004614a73565b6124e5565b34801561069e57600080fd5b506001546105fa90600160a060020a031681565b3480156106be57600080fd5b506102ff6106cd36600461424a565b612503565b3480156106de57600080fd5b506102ff6106ed366004614ba6565b61255b565b6102ff610700366004614620565b612578565b34801561071157600080fd5b506102ff61072036600461424a565b612707565b34801561073157600080fd5b5061057a610740366004614620565b61275f565b34801561075157600080fd5b506102ff610760366004614a73565b6127f7565b6102ff610773366004614ae6565b6128da565b34801561078457600080fd5b506102ff610793366004614c0c565b612981565b3480156107a457600080fd5b5061047a6107b3366004614711565b612ac3565b3480156107c457600080fd5b506102ff6107d336600461424a565b612b92565b3480156107e457600080fd5b506102ff612beb565b3480156107f957600080fd5b506102ff61080836600461424a565b612e79565b34801561081957600080fd5b506102ff610828366004614ba6565b61300e565b34801561083957600080fd5b5061084d61084836600461424a565b61302b565b6040519081526020016102d6565b34801561086757600080fd5b506102ca610876366004614620565b61303d565b34801561088757600080fd5b506102ff610896366004614a73565b613052565b3480156108a757600080fd5b506102ff6108b6366004614758565b613067565b6000805460405160e260020a631871978b028152600160a060020a038481166004830152839216906361c65e2c9060240160806040518083038186803b15801561090457600080fd5b505afa158015610918573d6000803e3d6000fd5b505050506040513d601f19601f8201168201806040525081019061093c9190614974565b606001519392505050565b600154600160a060020a0316331461097d5760405160e560020a62461bcd02815260040161097490615032565b60405180910390fd5b6001805473ffffffffffffffffffffffffffffffffffffffff1916600160a060020a0392909216919091179055565b6109b5816123bb565b15610a2a5760405160e560020a62461bcd028152602060048201526024808201527f54686973206164647265737320616c7265616479207573656420666f7220696e60448201527f76697465000000000000000000000000000000000000000000000000000000006064820152608401610974565b50565b610a3633612e79565b610a3f86612b92565b6000610a4a3361302b565b9050610a563388613112565b3415610a9357604051600160a060020a038816903480156108fc02916000818181858888f19350505050158015610a91573d6000803e3d6000fd5b505b6000546040517f6d822b44000000000000000000000000000000000000000000000000000000008152600160a060020a0390911690636d822b4490610ae69084908b908b908b908b908b90600401614f17565b600060405180830381600087803b158015610b0057600080fd5b505af1158015610b14573d6000803e3d6000fd5b5050505060005b8251811015610bf1576000838281518110610b3857610b386153c4565b6020908102919091018101516000548151928201516040808401516060850151608086015192517f2f23976c000000000000000000000000000000000000000000000000000000008152959750600160a060020a0390941695632f23976c95610bab9591948b9490939291600401615140565b600060405180830381600087803b158015610bc557600080fd5b505af1158015610bd9573d6000803e3d6000fd5b50505050508080610be990615390565b915050610b1b565b5050505050505050565b6040805160208101909152606081526040518060200160405280610c1e8461217a565b905292915050565b6000610c3133612e79565b6000610c3c3361302b565b9050610c4b81878787876132b6565b9695505050505050565b610c5e826127f7565b610c688233612449565b610c728282613512565b5050565b610c7f33612707565b610c8886612b92565b6000805460405160e260020a631871978b028152336004820152600160a060020a03909116906361c65e2c9060240160806040518083038186803b158015610ccf57600080fd5b505afa158015610ce3573d6000803e3d6000fd5b505050506040513d601f19601f82011682018060405250810190610d079190614974565b9050610d13888861355d565b60006060820181905260408083018a9052905490517f0913be41000000000000000000000000000000000000000000000000000000008152600160a060020a0390911690630913be4190610d6d9033908590600401614e42565b600060405180830381600087803b158015610d8757600080fd5b505af1158015610d9b573d6000803e3d6000fd5b505050506000341115610ddf57604051600160a060020a038816903480156108fc02916000818181858888f19350505050158015610ddd573d6000803e3d6000fd5b505b610ee98860028054610df090615352565b80601f0160208091040260200160405190810160405280929190818152602001828054610e1c90615352565b8015610e695780601f10610e3e57610100808354040283529160200191610e69565b820191906000526020600020905b815481529060010190602001808311610e4c57829003601f168201915b505050505084610eae576040518060400160405280600581526020017f66616c73650000000000000000000000000000000000000000000000000000008152506137f8565b6040518060400160405280600481526020017f74727565000000000000000000000000000000000000000000000000000000008152506137f8565b6000546040517f6d822b44000000000000000000000000000000000000000000000000000000008152600160a060020a0390911690636d822b4490610f3c908b908b908b908b908b908b90600401614f17565b600060405180830381600087803b158015610f5657600080fd5b505af1158015610f6a573d6000803e3d6000fd5b505050505050505050505050565b610fc76040518060e00160405280600067ffffffffffffffff16815260200160008019168152602001606081526020016060815260200160608152602001606081526020016000151581525090565b610fd0826127f7565b60005460405160e360020a630444dc8702815267ffffffffffffffff84166004820152600160a060020a0390911690632226e4389060240160006040518083038186803b15801561102057600080fd5b505afa158015611034573d6000803e3d6000fd5b505050506040513d6000823e601f3d908101601f1916820160405261105c919081019061486f565b92915050565b600080546040517f1b9823de0000000000000000000000000000000000000000000000000000000081526004810184905260609291600160a060020a031690631b9823de9060240160006040518083038186803b1580156110c257600080fd5b505afa1580156110d6573d6000803e3d6000fd5b505050506040513d6000823e601f3d908101601f191682016040526110fe919081019061458e565b90506000815167ffffffffffffffff81111561111c5761111c6153dd565b60405190808252806020026020018201604052801561116e57816020015b60408051608081018252600080825260208083018290529282018190526060820152825260001990920191018161113a5790505b50905060005b825181101561121c576000838281518110611191576111916153c4565b6020026020010151905060006111a7828861175b565b80519091501561120757600081600183516111c2919061530f565b815181106111d2576111d26153c4565b6020026020010151905080606001511561120557808585815181106111f9576111f96153c4565b60200260200101819052505b505b5050808061121490615390565b915050611174565b509392505050565b600080546040517fdcac263e000000000000000000000000000000000000000000000000000000008152600160a060020a0384811660048301528392169063dcac263e9060240160606040518083038186803b15801561128357600080fd5b505afa158015611297573d6000803e3d6000fd5b505050506040513d601f19601f820116820180604052508101906112bb9190614a34565b519392505050565b6112cc33612e79565b60005b815181101561130c576112fa8282815181106112ed576112ed6153c4565b60200260200101516109ac565b8061130481615390565b9150506112cf565b5060006113183361302b565b90506000803411801561132c575060008351115b1561134057825161133d90346152ea565b90505b60005b8351811015611555576000848281518110611360576113606153c4565b6020908102919091018101516000805460408051608081018252600160a060020a0380861682529581018a90528082019390935260016060840152517f0913be410000000000000000000000000000000000000000000000000000000081529294509290921691630913be41916113db918591600401614e42565b600060405180830381600087803b1580156113f557600080fd5b505af1158015611409573d6000803e3d6000fd5b50505050600083111561144e57604051600160a060020a0382169084156108fc029085906000818181858888f1935050505015801561144c573d6000803e3d6000fd5b505b6000546040517f2ef9adc300000000000000000000000000000000000000000000000000000000815260048101869052600160a060020a03838116602483015290911690632ef9adc390604401600060405180830381600087803b1580156114b557600080fd5b505af11580156114c9573d6000803e3d6000fd5b505060008054604080517f33a474140000000000000000000000000000000000000000000000000000000081529051600160a060020a0390921694506333a474149350600480820193929182900301818387803b15801561152957600080fd5b505af115801561153d573d6000803e3d6000fd5b5050505050808061154d90615390565b915050611343565b50505050565b60606000826040516020016115709190615069565b60408051808303601f190181529082905280516020909101206000547fdce2dd1700000000000000000000000000000000000000000000000000000000835260048301829052909250600160a060020a03169063dce2dd179060240160006040518083038186803b1580156115e457600080fd5b505afa1580156115f8573d6000803e3d6000fd5b505050506040513d6000823e601f3d908101601f19168201604052611620919081019061478d565b9392505050565b6116313382613112565b341561166e57604051600160a060020a038216903480156108fc02916000818181858888f1935050505015801561166c573d6000803e3d6000fd5b505b60006116793361302b565b6000546040517f2d1ca28100000000000000000000000000000000000000000000000000000000815260048101839052600160a060020a038581166024830152929350911690632d1ca281906044015b600060405180830381600087803b1580156116e357600080fd5b505af11580156116f7573d6000803e3d6000fd5b505050505050565b600154600160a060020a0316331461172c5760405160e560020a62461bcd02815260040161097490615032565b6000805473ffffffffffffffffffffffffffffffffffffffff1916600160a060020a0392909216919091179055565b6000546040517f5c22f47d00000000000000000000000000000000000000000000000000000000815267ffffffffffffffff8416600482015260248101839052606091600160a060020a031690635c22f47d9060440160006040518083038186803b1580156117c957600080fd5b505afa1580156117dd573d6000803e3d6000fd5b505050506040513d6000823e601f3d908101601f1916820160405261162091908101906144a6565b61180e33612e79565b60006118193361302b565b90506000611827838361175b565b8051909150156118f757600060018251611841919061530f565b90506000828281518110611857576118576153c4565b602002602001015190508060600151156118f457600060608201819052546040517f3ae014cd000000000000000000000000000000000000000000000000000000008152600160a060020a0390911690633ae014cd906118c1908890889087908790600401615169565b600060405180830381600087803b1580156118db57600080fd5b505af11580156118ef573d6000803e3d6000fd5b505050505b50505b505050565b60408051608081018252600080825260208201819052918101829052606081019190915260005460405160e260020a631871978b028152600160a060020a038481166004830152909116906361c65e2c9060240160806040518083038186803b15801561196857600080fd5b505afa15801561197c573d6000803e3d6000fd5b505050506040513d601f19601f8201168201806040525081019061105c9190614974565b60006119ab82612e79565b60006119b68361302b565b60005460405160e360020a630444dc8702815267ffffffffffffffff871660048201529192508291600160a060020a0390911690632226e4389060240160006040518083038186803b158015611a0b57600080fd5b505afa158015611a1f573d6000803e3d6000fd5b505050506040513d6000823e601f3d908101601f19168201604052611a47919081019061486f565b6020015114949350505050565b6000805460405160e260020a631871978b028152336004820152600160a060020a03909116906361c65e2c9060240160806040518083038186803b158015611a9b57600080fd5b505afa158015611aaf573d6000803e3d6000fd5b505050506040513d601f19601f82011682018060405250810190611ad39190614974565b606081015190915015611b515760405160e560020a62461bcd02815260206004820152602760248201527f4f6e6c7920696e61637469766520696e766974652063616e207265736574207060448201527f617373776f7264000000000000000000000000000000000000000000000000006064820152608401610974565b6040810151611bcb5760405160e560020a62461bcd02815260206004820152602c60248201527f4f6e6c7920696e76697465207769746820757365726e616d652063616e20726560448201527f7365742070617373776f726400000000000000000000000000000000000000006064820152608401610974565b604051602001611c0c9060208082526004908201527f7472756500000000000000000000000000000000000000000000000000000000604082015260600190565b60405160208183030381529060405280519060200120611c2f826040015161217a565b604051602001611c3f919061501f565b6040516020818303038152906040528051906020012014611ccb5760405160e560020a62461bcd02815260206004820152602160248201527f53657474696e6773206e6f7420616c6c6f772072657365742070617373776f7260448201527f64000000000000000000000000000000000000000000000000000000000000006064820152608401610974565b60008054604080840151905160e260020a631945d5e7028152600160a060020a0390921691636517579c91611d069160040190815260200190565b60606040518083038186803b158015611d1e57600080fd5b505afa158015611d32573d6000803e3d6000fd5b505050506040513d601f19601f82011682018060405250810190611d5691906149e9565b9050611d66816020015188613112565b3415611da357604051600160a060020a038816903480156108fc02916000818181858888f19350505050158015611da1573d6000803e3d6000fd5b505b60005460408084015190517f6d822b44000000000000000000000000000000000000000000000000000000008152600160a060020a0390921691636d822b4491611df9918b908b908b908b908b90600401614f17565b600060405180830381600087803b158015611e1357600080fd5b505af1158015611e27573d6000803e3d6000fd5b5050505050505050505050565b6040805160608101825260008082526020820181905291810191909152600080546040517fdcac263e000000000000000000000000000000000000000000000000000000008152600160a060020a0385811660048301529091169063dcac263e9060240160606040518083038186803b158015611eb057600080fd5b505afa158015611ec4573d6000803e3d6000fd5b505050506040513d601f19601f82011682018060405250810190611ee89190614a34565b604081015190915067ffffffffffffffff161561209f576000611f138260400151836020015161175b565b90506000815111611f695760405160e560020a62461bcd02815260206004820152601c60248201527f53657373696f6e732073686f756c64206e6f7420626520656d707479000000006044820152606401610974565b60008160018351611f7a919061530f565b81518110611f8a57611f8a6153c4565b6020026020010151905084600160a060020a03168160200151600160a060020a0316146120225760405160e560020a62461bcd02815260206004820152602260248201527f53657373696f6e20616464726573732073686f756c642062652074686520736160448201527f6d650000000000000000000000000000000000000000000000000000000000006064820152608401610974565b806060015161209c5760405160e560020a62461bcd02815260206004820152602260248201527f557365722073657373696f6e2061646472657373206973206e6f74206163746960448201527f76650000000000000000000000000000000000000000000000000000000000006064820152608401610974565b50505b80516120f05760405160e560020a62461bcd02815260206004820181905260248201527f55736572207769746820746869732061646472657373206e6f7420666f756e646044820152606401610974565b600054602082015160405160e260020a631945d5e7028152600160a060020a0390921691636517579c9161212a9160040190815260200190565b60606040518083038186803b15801561214257600080fd5b505afa158015612156573d6000803e3d6000fd5b505050506040513d601f19601f8201168201806040525081019061162091906149e9565b606061105c826002805461218d90615352565b80601f01602080910402602001604051908101604052809291908181526020018280546121b990615352565b80156122065780601f106121db57610100808354040283529160200191612206565b820191906000526020600020905b8154815290600101906020018083116121e957829003601f168201915b5050505050612ac3565b600154600160a060020a0316331461223d5760405160e560020a62461bcd02815260040161097490615032565b610a2a6003805461224d90615352565b80601f016020809104026020016040519081016040528092919081815260200182805461227990615352565b80156122c65780601f1061229b576101008083540402835291602001916122c6565b820191906000526020600020905b8154815290600101906020018083116122a957829003601f168201915b50505050508261386f565b6122dc8233836138e4565b341561231957604051600160a060020a038216903480156108fc02916000818181858888f19350505050158015612317573d6000803e3d6000fd5b505b60006123243361302b565b6000546040517f0198fec000000000000000000000000000000000000000000000000000000000815267ffffffffffffffff8616600482015260248101839052600160a060020a038581166044830152929350911690630198fec0906064015b600060405180830381600087803b15801561239e57600080fd5b505af11580156123b2573d6000803e3d6000fd5b50505050505050565b6000805460405160e260020a631871978b028152600160a060020a038481166004830152839216906361c65e2c9060240160806040518083038186803b15801561240457600080fd5b505afa158015612418573d6000803e3d6000fd5b505050506040513d601f19601f8201168201806040525081019061243c9190614974565b6020015115159392505050565b61245382826119a0565b610c725760405160e560020a62461bcd02815260206004820152602a60248201527f596f7520646f206e6f7420686176652061636365737320746f2074686973206160448201527f70706c69636174696f6e000000000000000000000000000000000000000000006064820152608401610974565b6124d1826127f7565b6124db8233612449565b610c7282826139a1565b6124ee816127f7565b6124f88133612449565b610a2a8160006139fc565b61250c81611224565b610a2a5760405160e560020a62461bcd02815260206004820152601660248201527f41646472657373206e6f742072656769737465726564000000000000000000006044820152606401610974565b612564826127f7565b61256e8233612449565b610c728282613add565b6040516020016125b99060208082526005908201527f66616c7365000000000000000000000000000000000000000000000000000000604082015260600190565b60405160208183030381529060405280519060200120612662600380546125df90615352565b80601f016020809104026020016040519081016040528092919081815260200182805461260b90615352565b80156126585780601f1061262d57610100808354040283529160200191612658565b820191906000526020600020905b81548152906001019060200180831161263b57829003601f168201915b505050505061155b565b604051602001612672919061501f565b60405160208183030381529060405280519060200120146126fd5760405160e560020a62461bcd028152602060048201526024808201527f4e6f7420616c6c6f77656420746f207369676e757020776974686f757420696e60448201527f76697465000000000000000000000000000000000000000000000000000000006064820152608401610974565b610a2a813361355d565b612710816108bb565b610a2a5760405160e560020a62461bcd02815260206004820152601160248201527f496e76697465206e6f74206163746976650000000000000000000000000000006044820152606401610974565b6040805160608101825260008082526020820181905281830181905254915160e260020a631945d5e7028152600481018490529091600160a060020a031690636517579c9060240160606040518083038186803b1580156127bf57600080fd5b505afa1580156127d3573d6000803e3d6000fd5b505050506040513d601f19601f8201168201806040525081019061105c91906149e9565b6000805460405160e360020a630444dc8702815267ffffffffffffffff84166004820152600160a060020a0390911690632226e4389060240160006040518083038186803b15801561284857600080fd5b505afa15801561285c573d6000803e3d6000fd5b505050506040513d6000823e601f3d908101601f19168201604052612884919081019061486f565b90508060c00151610c725760405160e560020a62461bcd02815260206004820152600d60248201527f417070206e6f7420666f756e64000000000000000000000000000000000000006044820152606401610974565b6128e58633876138e4565b341561292257604051600160a060020a038616903480156108fc02916000818181858888f19350505050158015612920573d6000803e3d6000fd5b505b600061292d3361302b565b6000546040517f2f23976c000000000000000000000000000000000000000000000000000000008152919250600160a060020a031690632f23976c90611df9908a9085908a908a908a908a90600401615140565b61298a856127f7565b6129948533612449565b6000805460405160e360020a630444dc8702815267ffffffffffffffff88166004820152600160a060020a0390911690632226e4389060240160006040518083038186803b1580156129e557600080fd5b505afa1580156129f9573d6000803e3d6000fd5b505050506040513d6000823e601f3d908101601f19168201604052612a21919081019061486f565b6040808201879052606082018690526080820185905260a0820184905260005490517f50d2c00e000000000000000000000000000000000000000000000000000000008152919250600160a060020a0316906350d2c00e90612a8990899085906004016151b8565b600060405180830381600087803b158015612aa357600080fd5b505af1158015612ab7573d6000803e3d6000fd5b50505050505050505050565b606060008383604051602001612ada929190614f9f565b60408051808303601f190181529082905280516020909101206000547fdce2dd1700000000000000000000000000000000000000000000000000000000835260048301829052909250600160a060020a03169063dce2dd179060240160006040518083038186803b158015612b4e57600080fd5b505afa158015612b62573d6000803e3d6000fd5b505050506040513d6000823e601f3d908101601f19168201604052612b8a919081019061478d565b949350505050565b612b9b81611224565b15610a2a5760405160e560020a62461bcd02815260206004820152601a60248201527f4164647265737320616c726561647920726567697374657265640000000000006044820152606401610974565b600154600160a060020a03163314612c185760405160e560020a62461bcd02815260040161097490615032565b6000805460405160e260020a631945d5e70281527ff23ec0bb4210edd5cba85afd05127efcd2fc6a781bfed49188da1081670b22d8600482018190529291600160a060020a031690636517579c9060240160606040518083038186803b158015612c8157600080fd5b505afa158015612c95573d6000803e3d6000fd5b505050506040513d601f19601f82011682018060405250810190612cb991906149e9565b9050806040015115156001151514610c7257612cd5823361355d565b6060806000612d51856040518060400160405280600881526020017f4765744c6f67696e0000000000000000000000000000000000000000000000008152506040518060400160405280601381526020017f4765744c6f67696e202d2061757468206170700000000000000000000000000081525086866132b6565b9050612d92816040518060400160405280601581526020017f68747470733a2f2f6765746c6f67696e2e6f72672f0000000000000000000000815250613512565b612db081739a0cde760277dc3a4b2ac6e9d333af45148ebb606139a1565b6118f460038054612dc090615352565b80601f0160208091040260200160405190810160405280929190818152602001828054612dec90615352565b8015612e395780601f10612e0e57610100808354040283529160200191612e39565b820191906000526020600020905b815481529060010190602001808311612e1c57829003601f168201915b50505050506040518060400160405280600581526020017f66616c736500000000000000000000000000000000000000000000000000000081525061386f565b612e8281612503565b600080546040517fdcac263e000000000000000000000000000000000000000000000000000000008152600160a060020a0384811660048301529091169063dcac263e9060240160606040518083038186803b158015612ee157600080fd5b505afa158015612ef5573d6000803e3d6000fd5b505050506040513d601f19601f82011682018060405250810190612f199190614a34565b60008054602083015160405160e260020a631945d5e702815260048101919091529293509091600160a060020a0390911690636517579c9060240160606040518083038186803b158015612f6c57600080fd5b505afa158015612f80573d6000803e3d6000fd5b505050506040513d601f19601f82011682018060405250810190612fa491906149e9565b905082600160a060020a03168160200151600160a060020a0316146118f75760405160e560020a62461bcd02815260206004820152601a60248201527f57616c6c6574206973206e6f74206d61696e20616464726573730000000000006044820152606401610974565b613017826127f7565b6130218233612449565b610c728282613b37565b600061303682611e34565b5192915050565b60006130488261275f565b6040015192915050565b61305c8133612449565b610a2a8160016139fc565b61307033612e79565b600061307b3361302b565b9050610c72816002805461308e90615352565b80601f01602080910402602001604051908101604052809291908181526020018280546130ba90615352565b80156131075780601f106130dc57610100808354040283529160200191613107565b820191906000526020600020905b8154815290600101906020018083116130ea57829003601f168201915b5050505050846137f8565b61311b82612e79565b61312481612b92565b600061312f83611e34565b8051600080546040805160608101825283815260208101859052808201939093525160e060020a636633e5b50281529394509192600160a060020a0390921691636633e5b59161318491889190600401614e8b565b600060405180830381600087803b15801561319e57600080fd5b505af11580156131b2573d6000803e3d6000fd5b505060008054604080516060810182526001815260208101879052808201939093525160e060020a636633e5b5028152600160a060020a039091169350636633e5b59250613204918791600401614e8b565b600060405180830381600087803b15801561321e57600080fd5b505af1158015613232573d6000803e3d6000fd5b505050600160a060020a0380851660208501526000546040517fab0f7ab70000000000000000000000000000000000000000000000000000000081529116915063ab0f7ab7906132889084908690600401614fec565b600060405180830381600087803b1580156132a257600080fd5b505af1158015610bf1573d6000803e3d6000fd5b60008054604080517f8ad1041900000000000000000000000000000000000000000000000000000000815290518392600160a060020a031691638ad10419916004808301926020929190829003018186803b15801561331457600080fd5b505afa158015613328573d6000803e3d6000fd5b505050506040513d601f19601f8201168201806040525081019061334c9190614a90565b6000546040805160e08101825267ffffffffffffffff84168152602081018b90528082018a9052606081018990526080810188905260a08101879052600160c082015290517f50d2c00e000000000000000000000000000000000000000000000000000000008152929350600160a060020a03909116916350d2c00e916133d8918591906004016151b8565b600060405180830381600087803b1580156133f257600080fd5b505af1158015613406573d6000803e3d6000fd5b505060008054604080517f3122da980000000000000000000000000000000000000000000000000000000081529051600160a060020a039092169450633122da989350600480820193929182900301818387803b15801561346657600080fd5b505af115801561347a573d6000803e3d6000fd5b50506000546040517fb68baa15000000000000000000000000000000000000000000000000000000008152600481018b905267ffffffffffffffff85166024820152600160a060020a03909116925063b68baa159150604401600060405180830381600087803b1580156134ed57600080fd5b505af1158015613501573d6000803e3d6000fd5b509293505050505b95945050505050565b6000546040517f036fbb74000000000000000000000000000000000000000000000000000000008152600160a060020a039091169063036fbb74906116c99085908590600401615195565b6135668261303d565b156135b65760405160e560020a62461bcd02815260206004820152601560248201527f557365726e616d6520616c7265616479207573656400000000000000000000006044820152606401610974565b6135bf81611224565b1561360f5760405160e560020a62461bcd02815260206004820152601360248201527f57616c6c657420616c72656164792075736564000000000000000000000000006044820152606401610974565b60005460408051606081018252848152600160a060020a03848116602083015260018284015291517fab0f7ab7000000000000000000000000000000000000000000000000000000008152919092169163ab0f7ab791613673918691600401614fec565b600060405180830381600087803b15801561368d57600080fd5b505af11580156136a1573d6000803e3d6000fd5b505060008054604080516060810182526001815260208101889052808201939093525160e060020a636633e5b5028152600160a060020a039091169350636633e5b592506136f3918591600401614e8b565b600060405180830381600087803b15801561370d57600080fd5b505af1158015613721573d6000803e3d6000fd5b50506000546040517fe7a6047200000000000000000000000000000000000000000000000000000000815260048101869052600160a060020a03909116925063e7a604729150602401600060405180830381600087803b15801561378457600080fd5b505af1158015613798573d6000803e3d6000fd5b505060008054604080517fd128c2a70000000000000000000000000000000000000000000000000000000081529051600160a060020a03909216945063d128c2a79350600480820193929182900301818387803b1580156116e357600080fd5b6000838360405160200161380d929190614f9f565b60408051601f198184030181529082905280516020909101206000547f6fb89051000000000000000000000000000000000000000000000000000000008352909250600160a060020a031690636fb89051906132889084908690600401614f86565b6000826040516020016138829190615069565b60408051601f198184030181529082905280516020909101206000547f6fb89051000000000000000000000000000000000000000000000000000000008352909250600160a060020a031690636fb89051906123849084908690600401614f86565b6138ed82612e79565b6138f6836127f7565b6138ff81612b92565b600061390a8361302b565b60005460408051606081018252600181526020810184905267ffffffffffffffff881681830152905160e060020a636633e5b5028152929350600160a060020a0390911691636633e5b59161396491869190600401614e8b565b600060405180830381600087803b15801561397e57600080fd5b505af1158015613992573d6000803e3d6000fd5b50505050611555848284613b91565b6000546040517f212109e400000000000000000000000000000000000000000000000000000000815267ffffffffffffffff84166004820152600160a060020a0383811660248301529091169063212109e4906044016116c9565b6000805460405160e360020a630444dc8702815267ffffffffffffffff85166004820152600160a060020a0390911690632226e4389060240160006040518083038186803b158015613a4d57600080fd5b505afa158015613a61573d6000803e3d6000fd5b505050506040513d6000823e601f3d908101601f19168201604052613a89919081019061486f565b82151560c08201526000546040517f50d2c00e000000000000000000000000000000000000000000000000000000008152919250600160a060020a0316906350d2c00e9061238490869085906004016151b8565b6000546040517fabc040ca00000000000000000000000000000000000000000000000000000000815267ffffffffffffffff8416600482015260248101839052600160a060020a039091169063abc040ca906044016116c9565b6000546040517fec46474c00000000000000000000000000000000000000000000000000000000815267ffffffffffffffff8416600482015260248101839052600160a060020a039091169063ec46474c906044016116c9565b6000613b9d848461175b565b600080546040517f1b9823de000000000000000000000000000000000000000000000000000000008152600481018790529293509091600160a060020a0390911690631b9823de9060240160006040518083038186803b158015613c0057600080fd5b505afa158015613c14573d6000803e3d6000fd5b505050506040513d6000823e601f3d908101601f19168201604052613c3c919081019061458e565b825190915015613d0357600060018351613c56919061530f565b90506000838281518110613c6c57613c6c6153c4565b6020908102919091010151600060608201819052546040517f3ae014cd000000000000000000000000000000000000000000000000000000008152919250600160a060020a031690633ae014cd90613cce908a908a9087908790600401615169565b600060405180830381600087803b158015613ce857600080fd5b505af1158015613cfc573d6000803e3d6000fd5b5050505050505b6000546040517fc4ac0e4800000000000000000000000000000000000000000000000000000000815267ffffffffffffffff8716600482015260248101869052600160a060020a0385811660448301529091169063c4ac0e4890606401600060405180830381600087803b158015613d7a57600080fd5b505af1158015613d8e573d6000803e3d6000fd5b505050506000805b8251811015613def578667ffffffffffffffff16838281518110613dbc57613dbc6153c4565b602002602001015167ffffffffffffffff161415613ddd5760019150613def565b80613de781615390565b915050613d96565b50806116f7576000546040517f3e21a8cd0000000000000000000000000000000000000000000000000000000081526004810187905267ffffffffffffffff88166024820152600160a060020a0390911690633e21a8cd90604401612a89565b8035613e5a816153f6565b919050565b600082601f830112613e7057600080fd5b81356020613e85613e808361529e565b61526d565b8281528181019085830183850287018401881015613ea257600080fd5b60005b85811015613eca578135613eb8816153f6565b84529284019290840190600101613ea5565b5090979650505050505050565b600082601f830112613ee857600080fd5b81516020613ef8613e808361529e565b8281528181019085830183850287018401881015613f1557600080fd5b60005b85811015613eca578151613f2b816153f6565b84529284019290840190600101613f18565b600082601f830112613f4e57600080fd5b81356020613f5e613e808361529e565b8281528181019085830183850287018401881015613f7b57600080fd5b6000805b86811015613fbe57823567ffffffffffffffff811115613f9d578283fd5b613fab8b88838d010161419e565b8652509385019391850191600101613f7f565b509198975050505050505050565b600082601f830112613fdd57600080fd5b81516020613fed613e808361529e565b828152818101908583018385028701840188101561400a57600080fd5b6000805b86811015613fbe57825167ffffffffffffffff81111561402c578283fd5b61403a8b88838d01016141ef565b865250938501939185019160010161400e565b600082601f83011261405e57600080fd5b8135602061406e613e808361529e565b828152818101908583018385028701840188101561408b57600080fd5b60005b85811015613eca57813567ffffffffffffffff808211156140ae57600080fd5b9089019060a0828c03601f19018113156140c757600080fd5b6140cf6151db565b6140da898501614234565b8152604080850135848111156140ef57600080fd5b6140fd8f8c8389010161419e565b8b8401525060608501358481111561411457600080fd5b6141228f8c8389010161419e565b82840152505060808401358381111561413a57600080fd5b6141488e8b8388010161419e565b60608301525090830135908282111561416057600080fd5b61416e8d8a8487010161419e565b60808201528752505050928401929084019060010161408e565b8035613e5a8161540b565b8051613e5a8161540b565b600082601f8301126141af57600080fd5b81356141bd613e80826152c2565b8181528460208386010111156141d257600080fd5b816020850160208301376000918101602001919091529392505050565b600082601f83011261420057600080fd5b815161420e613e80826152c2565b81815284602083860101111561422357600080fd5b612b8a826020830160208701615326565b8035613e5a81615419565b8051613e5a81615419565b60006020828403121561425c57600080fd5b8135611620816153f6565b600080600080600060a0868803121561427f57600080fd5b853561428a816153f6565b9450602086013567ffffffffffffffff808211156142a757600080fd5b6142b389838a0161419e565b955060408801359150808211156142c957600080fd5b6142d589838a0161419e565b945060608801359150808211156142eb57600080fd5b6142f789838a0161419e565b9350608088013591508082111561430d57600080fd5b5061431a8882890161419e565b9150509295509295909350565b60008060008060008060c0878903121561434057600080fd5b61434987613e4f565b9550602087013567ffffffffffffffff8082111561436657600080fd5b6143728a838b0161419e565b9650604089013591508082111561438857600080fd5b6143948a838b0161419e565b955060608901359150808211156143aa57600080fd5b6143b68a838b0161419e565b945060808901359150808211156143cc57600080fd5b6143d88a838b0161419e565b935060a08901359150808211156143ee57600080fd5b506143fb89828a0161404d565b9150509295509295509295565b6000602080838503121561441b57600080fd5b823567ffffffffffffffff81111561443257600080fd5b8301601f8101851361444357600080fd5b8035614451613e808261529e565b818152838101908385018584028501860189101561446e57600080fd5b600094505b8385101561449a578035614486816153f6565b835260019490940193918501918501614473565b50979650505050505050565b600060208083850312156144b957600080fd5b825167ffffffffffffffff8111156144d057600080fd5b8301601f810185136144e157600080fd5b80516144ef613e808261529e565b818152838101908385016080808502860187018a101561450e57600080fd5b60009550855b8581101561457f5781838c03121561452a578687fd5b614532615204565b8351815288840151614543816153f6565b818a015260408481015161455681615419565b908201526060848101516145698161540b565b9082015285529387019391810191600101614514565b50919998505050505050505050565b600060208083850312156145a157600080fd5b825167ffffffffffffffff8111156145b857600080fd5b8301601f810185136145c957600080fd5b80516145d7613e808261529e565b81815283810190838501858402850186018910156145f457600080fd5b600094505b8385101561449a57805161460c81615419565b8352600194909401939185019185016145f9565b60006020828403121561463257600080fd5b5035919050565b600080600080600080600060e0888a03121561465457600080fd5b8735965061466460208901613e4f565b9550604088013567ffffffffffffffff8082111561468157600080fd5b61468d8b838c0161419e565b965060608a01359150808211156146a357600080fd5b6146af8b838c0161419e565b955060808a01359150808211156146c557600080fd5b6146d18b838c0161419e565b945060a08a01359150808211156146e757600080fd5b506146f48a828b0161419e565b92505061470360c08901614188565b905092959891949750929550565b6000806040838503121561472457600080fd5b82359150602083013567ffffffffffffffff81111561474257600080fd5b61474e8582860161419e565b9150509250929050565b60006020828403121561476a57600080fd5b813567ffffffffffffffff81111561478157600080fd5b612b8a8482850161419e565b60006020828403121561479f57600080fd5b815167ffffffffffffffff8111156147b657600080fd5b612b8a848285016141ef565b600080600080608085870312156147d857600080fd5b843567ffffffffffffffff808211156147f057600080fd5b6147fc8883890161419e565b9550602087013591508082111561481257600080fd5b61481e8883890161419e565b9450604087013591508082111561483457600080fd5b61484088838901613f3d565b9350606087013591508082111561485657600080fd5b5061486387828801613e5f565b91505092959194509250565b60006020828403121561488157600080fd5b815167ffffffffffffffff8082111561489957600080fd5b9083019060e082860312156148ad57600080fd5b6148b5615227565b6148be8361423f565b8152602083015160208201526040830151828111156148dc57600080fd5b6148e8878286016141ef565b60408301525060608301518281111561490057600080fd5b61490c878286016141ef565b60608301525060808301518281111561492457600080fd5b61493087828601613fcc565b60808301525060a08301518281111561494857600080fd5b61495487828601613ed7565b60a08301525061496660c08401614193565b60c082015295945050505050565b60006080828403121561498657600080fd5b6040516080810181811067ffffffffffffffff821117156149a9576149a96153dd565b60405282516149b7816153f6565b80825250602083015160208201526040830151604082015260608301516149dd8161540b565b60608201529392505050565b6000606082840312156149fb57600080fd5b614a0361524a565b825181526020830151614a15816153f6565b60208201526040830151614a288161540b565b60408201529392505050565b600060608284031215614a4657600080fd5b614a4e61524a565b8251614a598161540b565b8152602083810151908201526040830151614a2881615419565b600060208284031215614a8557600080fd5b813561162081615419565b600060208284031215614aa257600080fd5b815161162081615419565b60008060408385031215614ac057600080fd5b8235614acb81615419565b91506020830135614adb816153f6565b809150509250929050565b60008060008060008060c08789031215614aff57600080fd5b614b0887614234565b9550614b1660208801613e4f565b9450604087013567ffffffffffffffff80821115614b3357600080fd5b614b3f8a838b0161419e565b95506060890135915080821115614b5557600080fd5b614b618a838b0161419e565b94506080890135915080821115614b7757600080fd5b614b838a838b0161419e565b935060a0890135915080821115614b9957600080fd5b506143fb89828a0161419e565b60008060408385031215614bb957600080fd5b8235614bc481615419565b946020939093013593505050565b60008060408385031215614be557600080fd5b8235614bf081615419565b9150602083013567ffffffffffffffff81111561474257600080fd5b600080600080600060a08688031215614c2457600080fd5b8535614c2f81615419565b9450602086013567ffffffffffffffff80821115614c4c57600080fd5b614c5889838a0161419e565b95506040880135915080821115614c6e57600080fd5b614c7a89838a0161419e565b94506060880135915080821115614c9057600080fd5b614c9c89838a01613f3d565b93506080880135915080821115614cb257600080fd5b5061431a88828901613e5f565b600081518084526020808501945080840160005b83811015614cf8578151600160a060020a031687529582019590820190600101614cd3565b509495945050505050565b60008151808452614d1b816020860160208601615326565b601f01601f19169290920160200192915050565b80518252600160a060020a03602082015116602083015267ffffffffffffffff60408201511660408301526060810151151560608301525050565b67ffffffffffffffff8151168252600060208083015181850152604083015160e06040860152614d9d60e0860182614d03565b905060608401518582036060870152614db68282614d03565b91505060808401518582036080870152818151808452848401915084858202850101858401935060005b82811015614e0e57601f19868303018452614dfc828651614d03565b94870194938701939150600101614de0565b5060a0880151955088810360a08a0152614e288187614cbf565b9550505050505060c083015161121c60c086018215159052565b600160a060020a038316815260a081016116206020830184600160a060020a03815116825260208101516020830152604081015160408301526060810151151560608301525050565b600160a060020a0392909216825280511515602080840191909152810151604080840191909152015167ffffffffffffffff16606082015260800190565b6020808252825182820181905260009190848201906040850190845b81811015614f0b57614ef8838551614d2f565b9284019260809290920191600101614ee5565b50909695505050505050565b868152600160a060020a038616602082015260c060408201526000614f3f60c0830187614d03565b8281036060840152614f518187614d03565b90508281036080840152614f658186614d03565b905082810360a0840152614f798185614d03565b9998505050505050505050565b828152604060208201526000612b8a6040830184614d03565b82815260606020820152600160608201527f5f00000000000000000000000000000000000000000000000000000000000000608082015260a060408201526000612b8a60a0830184614d03565b82815260808101611620602083018480518252602080820151600160a060020a0316908301526040908101511515910152565b6020815260006116206020830184614d03565b60208082526017908201527f43616c6c6572206973206e6f7420746865206f776e6572000000000000000000604082015260600190565b60408152600760408201527f676c6f62616c5f0000000000000000000000000000000000000000000000000060608201526080602082015260006116206080830184614d03565b6020815260006116206020830184614d6a565b8151600160a060020a0316815260208083015190820152604080830151908201526060808301511515908201526080810161105c565b6020815260008251602080840152612b8a6040840182614d03565b81518152602080830151600160a060020a0316908201526040808301511515908201526060810161105c565b67ffffffffffffffff8716815285602082015260c060408201526000614f3f60c0830187614d03565b67ffffffffffffffff85168152602081018490526040810183905260e081016135096060830184614d2f565b67ffffffffffffffff83168152604060208201526000612b8a6040830184614d03565b67ffffffffffffffff83168152604060208201526000612b8a6040830184614d6a565b60405160a0810167ffffffffffffffff811182821017156151fe576151fe6153dd565b60405290565b6040516080810167ffffffffffffffff811182821017156151fe576151fe6153dd565b60405160e0810167ffffffffffffffff811182821017156151fe576151fe6153dd565b6040516060810167ffffffffffffffff811182821017156151fe576151fe6153dd565b604051601f8201601f1916810167ffffffffffffffff81118282101715615296576152966153dd565b604052919050565b600067ffffffffffffffff8211156152b8576152b86153dd565b5060209081020190565b600067ffffffffffffffff8211156152dc576152dc6153dd565b50601f01601f191660200190565b60008261530a5760e060020a634e487b7102600052601260045260246000fd5b500490565b600082821015615321576153216153ab565b500390565b60005b83811015615341578181015183820152602001615329565b838111156115555750506000910152565b60028104600182168061536657607f821691505b6020821081141561538a5760e060020a634e487b7102600052602260045260246000fd5b50919050565b60006000198214156153a4576153a46153ab565b5060010190565b60e060020a634e487b7102600052601160045260246000fd5b60e060020a634e487b7102600052603260045260246000fd5b60e060020a634e487b7102600052604160045260246000fd5b600160a060020a0381168114610a2a57600080fd5b8015158114610a2a57600080fd5b67ffffffffffffffff81168114610a2a57600080fdfea2646970667358221220af83d2e157a93ee26b23226bfce6e546835968aa6871cf3cbe677ed33a3d8a0264736f6c63430008070033",
  "immutableReferences": {},
  "source": "// SPDX-License-Identifier: UNLICENSED\npragma solidity ^0.8.7;\n\nimport './GetLoginStorage.sol';\n\ncontract GetLoginLogic {\n    GetLoginStorage public getLoginStorage;\n    address public owner;\n\n    // user settings\n    string settingsInviteReset = \"invite_reset\";\n    // global settings\n    string settingsInvitesOnly = \"invites_only\";\n\n    struct SessionData\n    {\n        uint64 appId;\n        string iv;\n        string ephemPublicKey;\n        string ciphertext;\n        string mac;\n    }\n\n    struct SettingsData\n    {\n        string inviteReset;\n    }\n\n    uint8 SESSION_MAIN = 1;\n    uint8 SESSION_APP = 2;\n\n    modifier onlyOwner() {\n        require(msg.sender == owner, \"Caller is not the owner\");\n        _;\n    }\n\n    function setOwner(address _address) onlyOwner public {\n        owner = _address;\n    }\n\n    function setStorageAddress(GetLoginStorage _address) onlyOwner public {\n        getLoginStorage = _address;\n    }\n\n    constructor(GetLoginStorage _getLoginStorage) {\n        owner = msg.sender;\n        getLoginStorage = _getLoginStorage;\n    }\n\n    function init() onlyOwner public {\n        bytes32 usernameHash = keccak256('admin');\n        GetLoginStorage.UserInfo memory info = getLoginStorage.getUser(usernameHash);\n        if (info.isActive != true) {\n            _createUser(usernameHash, msg.sender);\n            string[] memory allowedUrls;\n            address[] memory allowedContracts;\n            uint64 newAppId = _createApplication(usernameHash, 'GetLogin', 'GetLogin - auth app', allowedUrls, allowedContracts);\n            _addApplicationUrl(newAppId, 'https://getlogin.org/');\n            _addApplicationContract(newAppId, 0x9A0CDE760277DC3A4B2aC6E9D333Af45148eBb60);\n\n            _setGlobalSettings(settingsInvitesOnly, \"false\");\n        }\n    }\n\n    /* Private methods */\n    function _createUser(bytes32 _usernameHash, address _ownerWallet) private {\n        require(isUsernameExists(_usernameHash) == false, \"Username already used\");\n        require(isAddressRegistered(_ownerWallet) == false, \"Wallet already used\");\n\n        getLoginStorage.setUser(_usernameHash, GetLoginStorage.UserInfo({username : _usernameHash, isActive : true, mainAddress : _ownerWallet}));\n        getLoginStorage.setUsersAddressUsername(_ownerWallet, GetLoginStorage.Username({username : _usernameHash, isActive : true, appId : 0}));\n        getLoginStorage.emitEventUserCreated(_usernameHash);\n        getLoginStorage.incrementUsers();\n    }\n\n    function _changeUserOwner(address _oldAddress, address _newAddress) private {\n        validateMainAddress(_oldAddress);\n        validateAddressAvailable(_newAddress);\n\n        GetLoginStorage.UserInfo memory user = getUserByAddress(_oldAddress);\n        bytes32 usernameHash = user.username;\n        // deactivate old main address\n        getLoginStorage.setUsersAddressUsername(_oldAddress, GetLoginStorage.Username({username : usernameHash, isActive : false, appId : 0}));\n        // activate new address\n        getLoginStorage.setUsersAddressUsername(_newAddress, GetLoginStorage.Username({username : usernameHash, isActive : true, appId : 0}));\n        // set new main address and store changed user info\n        user.mainAddress = _newAddress;\n        getLoginStorage.setUser(usernameHash, user);\n    }\n\n    function _createApplication(bytes32 _usernameHash, string memory _title, string memory _description, string[] memory _allowedUrls, address[] memory _allowedContracts) private returns (uint64) {\n        uint64 appId = getLoginStorage.applicationId();\n        getLoginStorage.setApplication(appId, GetLoginStorage.Application({id : appId, usernameHash : _usernameHash, title : _title, description : _description, allowedUrls : _allowedUrls, allowedContracts : _allowedContracts, isActive : true}));\n        getLoginStorage.incrementApplicationId();\n        getLoginStorage.emitEventAppCreated(_usernameHash, appId);\n\n        return appId;\n    }\n\n    function _addApplicationUrl(uint64 _appId, string memory _url) private {\n        getLoginStorage.pushApplicationUrl(_appId, _url);\n    }\n\n    function _addApplicationContract(uint64 _appId, address _wallet) private {\n        getLoginStorage.pushApplicationContract(_appId, _wallet);\n    }\n\n    function _deleteApplicationUrl(uint64 _appId, uint _index) private {\n        getLoginStorage.deleteApplicationUrl(_appId, _index);\n    }\n\n    function _deleteApplicationContract(uint64 _appId, uint _index) private {\n        getLoginStorage.deleteApplicationContract(_appId, _index);\n    }\n\n    function _setApplicationActive(uint64 _appId, bool _isActive) private {\n        GetLoginStorage.Application memory app = getLoginStorage.getApplication(_appId);\n        app.isActive = _isActive;\n        getLoginStorage.setApplication(_appId, app);\n    }\n\n    function _pushAppSession(uint64 _appId, bytes32 _usernameHash, address _wallet) private {\n        GetLoginStorage.AppSession[] memory sessions = getAppSessions(_appId, _usernameHash);\n        uint64[] memory sessionIndex = getLoginStorage.getAppSessionIndex(_usernameHash);\n        if (sessions.length > 0) {\n            uint index = sessions.length - 1;\n            GetLoginStorage.AppSession memory session = sessions[index];\n            session.isActive = false;\n            getLoginStorage.setAppSession(_appId, _usernameHash, index, session);\n        }\n\n        getLoginStorage.pushAppSession(_appId, _usernameHash, _wallet);\n\n        // push to session index only once\n        bool sessionIndexExists = false;\n        for (uint i = 0; i < sessionIndex.length; i++) {\n            if (sessionIndex[i] == _appId) {\n                sessionIndexExists = true;\n                break;\n            }\n        }\n\n        if (sessionIndexExists == false) {\n            getLoginStorage.pushAppSessionIndex(_usernameHash, _appId);\n        }\n    }\n\n    function _setUserSettings(bytes32 _usernameHash, string memory _key, string memory _value) private {\n        bytes32 keyHash = keccak256(abi.encode(_usernameHash, \"_\", _key));\n        getLoginStorage.setSettings(keyHash, _value);\n    }\n\n    function _setGlobalSettings(string memory _key, string memory _value) private {\n        bytes32 keyHash = keccak256(abi.encode(\"global_\", _key));\n        getLoginStorage.setSettings(keyHash, _value);\n    }\n\n    function _createAppSession(uint64 _appId, address _senderAddress, address _sessionAddress) private {\n        validateMainAddress(_senderAddress);\n        validateAppExists(_appId);\n        validateAddressAvailable(_sessionAddress);\n\n        bytes32 usernameHash = getUsernameByAddress(_senderAddress);\n        // add new address to the global scope\n        getLoginStorage.setUsersAddressUsername(_sessionAddress, GetLoginStorage.Username({isActive : true, username : usernameHash, appId : _appId}));\n\n        _pushAppSession(_appId, usernameHash, _sessionAddress);\n    }\n\n    /* End of private methods */\n\n    /* Validators */\n    function validateAppOwner(uint64 _appId, address _wallet) public view {\n        require(isAppOwner(_appId, _wallet), \"You do not have access to this application\");\n    }\n\n    function validateAppExists(uint64 _appId) public view {\n        GetLoginStorage.Application memory app = getLoginStorage.getApplication(_appId);\n        require(app.isActive, \"App not found\");\n    }\n\n    function validateInviteActive(address _address) public view {\n        require(isActiveInvite(_address), \"Invite not active\");\n    }\n\n    function validateAddressRegistered(address _address) public view {\n        require(isAddressRegistered(_address), \"Address not registered\");\n    }\n\n    function validateMainAddress(address _address) public view {\n        validateAddressRegistered(_address);\n        GetLoginStorage.Username memory usernameInfo = getLoginStorage.getUsersAddressUsername(_address);\n        GetLoginStorage.UserInfo memory user = getLoginStorage.getUser(usernameInfo.username);\n        require(user.mainAddress == _address, \"Wallet is not main address\");\n    }\n\n    function validateAddressAvailable(address _address) public view {\n        require(isAddressRegistered(_address) == false, \"Address already registered\");\n    }\n\n    function validateInviteAvailable(address _address) public view {\n        require(isInviteAddressUsed(_address) == false, \"This address already used for invite\");\n    }\n    /* End validators */\n\n    /* Public methods */\n    function createApplication(string memory _title, string memory _description, string[] memory _allowedUrls, address[] memory _allowedContracts) public returns (uint64) {\n        validateMainAddress(msg.sender);\n\n        bytes32 usernameHash = getUsernameByAddress(msg.sender);\n\n        return _createApplication(usernameHash, _title, _description, _allowedUrls, _allowedContracts);\n    }\n\n    function editApplication(uint64 _appId, string memory _title, string memory _description, string[] memory _allowedUrls, address[] memory _allowedContracts) public {\n        validateAppExists(_appId);\n        validateAppOwner(_appId, msg.sender);\n\n        GetLoginStorage.Application memory app = getLoginStorage.getApplication(_appId);\n        app.title = _title;\n        app.description = _description;\n        app.allowedUrls = _allowedUrls;\n        app.allowedContracts = _allowedContracts;\n        getLoginStorage.setApplication(_appId, app);\n    }\n\n    function addApplicationUrl(uint64 _appId, string memory _url) public {\n        validateAppExists(_appId);\n        validateAppOwner(_appId, msg.sender);\n\n        _addApplicationUrl(_appId, _url);\n    }\n\n    function addApplicationContract(uint64 _appId, address _address) public {\n        validateAppExists(_appId);\n        validateAppOwner(_appId, msg.sender);\n\n        _addApplicationContract(_appId, _address);\n    }\n\n    function deleteApplicationUrl(uint64 _appId, uint _index) public {\n        validateAppExists(_appId);\n        validateAppOwner(_appId, msg.sender);\n\n        _deleteApplicationUrl(_appId, _index);\n    }\n\n    function deleteApplicationContract(uint64 _appId, uint _index) public {\n        validateAppExists(_appId);\n        validateAppOwner(_appId, msg.sender);\n\n        _deleteApplicationContract(_appId, _index);\n    }\n\n    function deleteApplication(uint64 _appId) public {\n        validateAppExists(_appId);\n        validateAppOwner(_appId, msg.sender);\n\n        _setApplicationActive(_appId, false);\n    }\n\n    function restoreApplication(uint64 _appId) public {\n        validateAppOwner(_appId, msg.sender);\n\n        _setApplicationActive(_appId, true);\n    }\n\n    /**\n        Create user without invite (if enabled by contract owner)\n        It allows to signup with Metamask and similar systems\n    **/\n    function createUser(bytes32 _usernameHash) public payable {\n        require(keccak256(abi.encode(getGlobalSettings(settingsInvitesOnly))) == keccak256(abi.encode(\"false\")), \"Not allowed to signup without invite\");\n\n        _createUser(_usernameHash, msg.sender);\n    }\n\n    /**\n        Change main wallet for user which assigned to sender\n    **/\n    function changeUserOwner(address payable _newOwner) public payable {\n        _changeUserOwner(msg.sender, _newOwner);\n        if (msg.value > 0) {\n            _newOwner.transfer(msg.value);\n        }\n\n        bytes32 usernameHash = getUsernameByAddress(msg.sender);\n        getLoginStorage.emitEventStoreWallet(usernameHash, _newOwner);\n    }\n\n    function createInvite(address payable[] memory _invites) public payable {\n        validateMainAddress(msg.sender);\n\n        for (uint i = 0; i < _invites.length; i++) {\n            validateInviteAvailable(_invites[i]);\n        }\n\n        bytes32 creatorUsernameHash = getUsernameByAddress(msg.sender);\n        uint256 val = 0;\n        if (msg.value > 0 && _invites.length > 0) {\n            val = msg.value / _invites.length;\n        }\n\n        for (uint i = 0; i < _invites.length; i++) {\n            address payable inviteAddress = _invites[i];\n            getLoginStorage.setInvite(inviteAddress, GetLoginStorage.InviteInfo({inviteAddress : inviteAddress, creatorUsername : creatorUsernameHash, registeredUsername : '', isActive : true}));\n            if (val > 0) {\n                inviteAddress.transfer(val);\n            }\n\n            getLoginStorage.emitEventInviteCreated(creatorUsernameHash, inviteAddress);\n            getLoginStorage.incrementInvites();\n        }\n    }\n\n    function createUserFromInvite(bytes32 _usernameHash, address payable _walletAddress, string memory _ciphertext, string memory _iv, string memory _salt, string memory _mac, bool _allowReset) public payable {\n        validateInviteActive(msg.sender);\n        validateAddressAvailable(_walletAddress);\n\n        GetLoginStorage.InviteInfo memory invite = getLoginStorage.getInvite(msg.sender);\n        _createUser(_usernameHash, _walletAddress);\n        invite.isActive = false;\n        invite.registeredUsername = _usernameHash;\n        getLoginStorage.setInvite(msg.sender, invite);\n        if (msg.value > 0) {\n            _walletAddress.transfer(msg.value);\n        }\n\n        _setUserSettings(_usernameHash, settingsInviteReset, _allowReset ? \"true\" : \"false\");\n        getLoginStorage.emitEventStoreWallet(_usernameHash, _walletAddress, _ciphertext, _iv, _salt, _mac);\n    }\n\n    function changePassword(address payable _newAddress, string memory _ciphertext, string memory _iv, string memory _salt, string memory _mac, SessionData[] memory _sessions) public payable {\n        validateMainAddress(msg.sender);\n        validateAddressAvailable(_newAddress);\n\n        bytes32 usernameHash = getUsernameByAddress(msg.sender);\n        _changeUserOwner(msg.sender, _newAddress);\n        // move all received funds to the new address\n        if (msg.value > 0) {\n            _newAddress.transfer(msg.value);\n        }\n\n        getLoginStorage.emitEventStoreWallet(usernameHash, _newAddress, _ciphertext, _iv, _salt, _mac);\n        // replace all sessions with re-encoded ones\n        for (uint i = 0; i < _sessions.length; i++) {\n            SessionData memory session = _sessions[i];\n            getLoginStorage.emitEventAppSession(session.appId, usernameHash, session.iv, session.ephemPublicKey, session.ciphertext, session.mac);\n        }\n    }\n\n    /**\n        Assign new address for old username that created with invite address which call this method\n    **/\n    function resetPassword(address payable _newAddress, string memory _ciphertext, string memory _iv, string memory _salt, string memory _mac) public payable {\n        GetLoginStorage.InviteInfo memory invite = getLoginStorage.getInvite(msg.sender);\n        require(invite.isActive == false, \"Only inactive invite can reset password\");\n        require(invite.registeredUsername != \"\", \"Only invite with username can reset password\");\n        require(keccak256(abi.encode(getInviteReset(invite.registeredUsername))) == keccak256(abi.encode(\"true\")), \"Settings not allow reset password\");\n\n        GetLoginStorage.UserInfo memory user = getLoginStorage.getUser(invite.registeredUsername);\n        _changeUserOwner(user.mainAddress, _newAddress);\n\n        // transfer all received funds\n        if (msg.value > 0) {\n            _newAddress.transfer(msg.value);\n        }\n\n        getLoginStorage.emitEventStoreWallet(invite.registeredUsername, _newAddress, _ciphertext, _iv, _salt, _mac);\n    }\n\n    function createAppSession(uint64 _appId, address payable _sessionAddress, string memory _iv, string memory _ephemPublicKey, string memory _ciphertext, string memory _mac) public payable {\n        _createAppSession(_appId, msg.sender, _sessionAddress);\n        if (msg.value > 0) {\n            _sessionAddress.transfer(msg.value);\n        }\n\n        bytes32 usernameHash = getUsernameByAddress(msg.sender);\n        getLoginStorage.emitEventAppSession(_appId, usernameHash, _iv, _ephemPublicKey, _ciphertext, _mac);\n    }\n\n    function createSimpleAppSession(uint64 _appId, address payable _sessionAddress) public payable {\n        _createAppSession(_appId, msg.sender, _sessionAddress);\n        if (msg.value > 0) {\n            _sessionAddress.transfer(msg.value);\n        }\n\n        bytes32 usernameHash = getUsernameByAddress(msg.sender);\n        getLoginStorage.emitEventSimpleAppSession(_appId, usernameHash, _sessionAddress);\n    }\n\n    function closeAppSession(uint64 _appId) public {\n        validateMainAddress(msg.sender);\n\n        bytes32 usernameHash = getUsernameByAddress(msg.sender);\n        GetLoginStorage.AppSession[] memory sessions = getAppSessions(_appId, usernameHash);\n        if (sessions.length > 0) {\n            uint index = sessions.length - 1;\n            GetLoginStorage.AppSession memory session = sessions[index];\n            if (session.isActive) {\n                session.isActive = false;\n                getLoginStorage.setAppSession(_appId, usernameHash, index, session);\n            }\n        }\n    }\n\n    function setInviteReset(string memory _value) public {\n        validateMainAddress(msg.sender);\n\n        bytes32 usernameHash = getUsernameByAddress(msg.sender);\n        _setUserSettings(usernameHash, settingsInviteReset, _value);\n    }\n\n    function setGlobalOnlyInvites(string memory value) onlyOwner public {\n        _setGlobalSettings(settingsInvitesOnly, value);\n    }\n    /* End of public methods */\n\n    /* View methods */\n    function getApplication(uint64 _id) public view returns (GetLoginStorage.Application memory) {\n        validateAppExists(_id);\n\n        return getLoginStorage.getApplication(_id);\n    }\n\n    function getUserInfo(bytes32 _usernameHash) public view returns (GetLoginStorage.UserInfo memory) {\n        return getLoginStorage.getUser(_usernameHash);\n    }\n\n    function isUsernameExists(bytes32 _usernameHash) public view returns (bool) {\n        return getUserInfo(_usernameHash).isActive;\n    }\n\n    function isAddressRegistered(address _address) public view returns (bool) {\n        GetLoginStorage.Username memory currentUser = getLoginStorage.getUsersAddressUsername(_address);\n\n        return currentUser.isActive;\n    }\n\n    function isAppOwner(uint64 _appId, address _checkAddress) public view returns (bool) {\n        validateMainAddress(_checkAddress);\n\n        bytes32 currentUsernameHash = getUsernameByAddress(_checkAddress);\n        return getLoginStorage.getApplication(_appId).usernameHash == currentUsernameHash;\n    }\n\n    function getUserByAddress(address _address) public view returns (GetLoginStorage.UserInfo memory) {\n        GetLoginStorage.Username memory currentUser = getLoginStorage.getUsersAddressUsername(_address);\n        if (currentUser.appId > 0) {\n            GetLoginStorage.AppSession[] memory sessions = getAppSessions(currentUser.appId, currentUser.username);\n            require(sessions.length > 0, \"Sessions should not be empty\");\n            GetLoginStorage.AppSession memory session = sessions[sessions.length - 1];\n            require(session.wallet == _address, \"Session address should be the same\");\n            require(session.isActive, \"User session address is not active\");\n        }\n\n        require(currentUser.isActive, \"User with this address not found\");\n\n        return getLoginStorage.getUser(currentUser.username);\n    }\n\n    function getUsernameByAddress(address _address) public view returns (bytes32) {\n        return getUserByAddress(_address).username;\n    }\n\n    function isActiveInvite(address _address) public view returns (bool) {\n        GetLoginStorage.InviteInfo memory info = getLoginStorage.getInvite(_address);\n        return info.isActive;\n    }\n\n    function isInviteAddressUsed(address _address) public view returns (bool) {\n        GetLoginStorage.InviteInfo memory info = getLoginStorage.getInvite(_address);\n        return info.creatorUsername != '';\n    }\n\n    function getInvite(address _address) public view returns (GetLoginStorage.InviteInfo memory) {\n        return getLoginStorage.getInvite(_address);\n    }\n\n    function getAppSessions(uint64 _appId, bytes32 _usernameHash) public view returns (GetLoginStorage.AppSession[] memory) {\n        return getLoginStorage.getAppSessions(_appId, _usernameHash);\n    }\n\n    function getActiveAppSessions(bytes32 _usernameHash) public view returns (GetLoginStorage.AppSession[] memory) {\n        uint64[] memory sessionIndex = getLoginStorage.getAppSessionIndex(_usernameHash);\n        GetLoginStorage.AppSession[] memory result = new GetLoginStorage.AppSession[](sessionIndex.length);\n\n        for (uint i = 0; i < sessionIndex.length; i++) {\n            uint64 appId = sessionIndex[i];\n            GetLoginStorage.AppSession[] memory sessions = getAppSessions(appId, _usernameHash);\n            if (sessions.length > 0) {\n                GetLoginStorage.AppSession memory session = sessions[sessions.length - 1];\n                if (session.isActive) {\n                    result[i] = session;\n                }\n            }\n        }\n\n        return result;\n    }\n\n    function getAllSettings(bytes32 _usernameHash) public view returns (SettingsData memory) {\n        return SettingsData({inviteReset : getInviteReset(_usernameHash)});\n    }\n\n    function getSettings(bytes32 _usernameHash, string memory _key) public view returns (string memory) {\n        bytes32 keyHash = keccak256(abi.encode(_usernameHash, \"_\", _key));\n        return getLoginStorage.getSettings(keyHash);\n    }\n\n    function getGlobalSettings(string memory _key) public view returns (string memory) {\n        bytes32 keyHash = keccak256(abi.encode(\"global_\", _key));\n        return getLoginStorage.getSettings(keyHash);\n    }\n\n    function getInviteReset(bytes32 _usernameHash) public view returns (string memory) {\n        return getSettings(_usernameHash, settingsInviteReset);\n    }\n\n    /* End of view methods */\n}\n",
  "sourcePath": "/Users/sdancer/web/login/src/smart/contracts/GetLoginLogic.sol",
  "compiler": {
    "name": "solc",
    "version": "0.8.7+commit.e28d00a7.Emscripten.clang"
  },
  "schemaVersion": "3.4.3",
  "updatedAt": "2021-09-04T15:58:23.318Z",
  "networkType": "ethereum",
  "devdoc": {
    "kind": "dev",
    "methods": {},
    "version": 1
  },
  "userdoc": {
    "kind": "user",
    "methods": {
      "changeUserOwner(address)": {
        "notice": "Change main wallet for user which assigned to sender*"
      },
      "createUser(bytes32)": {
        "notice": "Create user without invite (if enabled by contract owner) It allows to signup with Metamask and similar systems*"
      },
      "resetPassword(address,string,string,string,string)": {
        "notice": "Assign new address for old username that created with invite address which call this method*"
      }
    },
    "version": 1
  }
}