{
  "contractName": "GetLoginStorage",
  "abi": [
    {
      "inputs": [],
      "stateMutability": "nonpayable",
      "type": "constructor"
    },
    {
      "anonymous": false,
      "inputs": [
        {
          "indexed": true,
          "internalType": "bytes32",
          "name": "creatorUsername",
          "type": "bytes32"
        },
        {
          "indexed": true,
          "internalType": "uint64",
          "name": "appId",
          "type": "uint64"
        }
      ],
      "name": "EventAppCreated",
      "type": "event"
    },
    {
      "anonymous": false,
      "inputs": [
        {
          "indexed": true,
          "internalType": "uint64",
          "name": "appId",
          "type": "uint64"
        },
        {
          "indexed": true,
          "internalType": "bytes32",
          "name": "username",
          "type": "bytes32"
        },
        {
          "indexed": false,
          "internalType": "string",
          "name": "iv",
          "type": "string"
        },
        {
          "indexed": false,
          "internalType": "string",
          "name": "ephemPublicKey",
          "type": "string"
        },
        {
          "indexed": false,
          "internalType": "string",
          "name": "ciphertext",
          "type": "string"
        },
        {
          "indexed": false,
          "internalType": "string",
          "name": "mac",
          "type": "string"
        }
      ],
      "name": "EventAppSession",
      "type": "event"
    },
    {
      "anonymous": false,
      "inputs": [
        {
          "indexed": true,
          "internalType": "uint64",
          "name": "appId",
          "type": "uint64"
        },
        {
          "indexed": true,
          "internalType": "bytes32",
          "name": "username",
          "type": "bytes32"
        },
        {
          "indexed": false,
          "internalType": "address",
          "name": "sessionAddress",
          "type": "address"
        }
      ],
      "name": "EventAppSession",
      "type": "event"
    },
    {
      "anonymous": false,
      "inputs": [
        {
          "indexed": true,
          "internalType": "bytes32",
          "name": "creatorUsername",
          "type": "bytes32"
        },
        {
          "indexed": false,
          "internalType": "address",
          "name": "inviteAddress",
          "type": "address"
        }
      ],
      "name": "EventInviteCreated",
      "type": "event"
    },
    {
      "anonymous": false,
      "inputs": [
        {
          "indexed": true,
          "internalType": "bytes32",
          "name": "username",
          "type": "bytes32"
        },
        {
          "indexed": true,
          "internalType": "address",
          "name": "walletAddress",
          "type": "address"
        },
        {
          "indexed": false,
          "internalType": "string",
          "name": "ciphertext",
          "type": "string"
        },
        {
          "indexed": false,
          "internalType": "string",
          "name": "iv",
          "type": "string"
        },
        {
          "indexed": false,
          "internalType": "string",
          "name": "salt",
          "type": "string"
        },
        {
          "indexed": false,
          "internalType": "string",
          "name": "mac",
          "type": "string"
        }
      ],
      "name": "EventStoreWallet",
      "type": "event"
    },
    {
      "anonymous": false,
      "inputs": [
        {
          "indexed": true,
          "internalType": "bytes32",
          "name": "username",
          "type": "bytes32"
        },
        {
          "indexed": true,
          "internalType": "address",
          "name": "walletAddress",
          "type": "address"
        }
      ],
      "name": "EventStoreWallet",
      "type": "event"
    },
    {
      "anonymous": false,
      "inputs": [
        {
          "indexed": true,
          "internalType": "bytes32",
          "name": "username",
          "type": "bytes32"
        }
      ],
      "name": "EventUserCreated",
      "type": "event"
    },
    {
      "inputs": [
        {
          "internalType": "bytes32",
          "name": "",
          "type": "bytes32"
        },
        {
          "internalType": "uint64",
          "name": "",
          "type": "uint64"
        },
        {
          "internalType": "uint256",
          "name": "",
          "type": "uint256"
        }
      ],
      "name": "AppSessions",
      "outputs": [
        {
          "internalType": "bytes32",
          "name": "username",
          "type": "bytes32"
        },
        {
          "internalType": "address",
          "name": "wallet",
          "type": "address"
        },
        {
          "internalType": "uint64",
          "name": "appId",
          "type": "uint64"
        },
        {
          "internalType": "bool",
          "name": "isActive",
          "type": "bool"
        }
      ],
      "stateMutability": "view",
      "type": "function"
    },
    {
      "inputs": [
        {
          "internalType": "uint64",
          "name": "",
          "type": "uint64"
        }
      ],
      "name": "Applications",
      "outputs": [
        {
          "internalType": "uint64",
          "name": "id",
          "type": "uint64"
        },
        {
          "internalType": "bytes32",
          "name": "usernameHash",
          "type": "bytes32"
        },
        {
          "internalType": "string",
          "name": "title",
          "type": "string"
        },
        {
          "internalType": "string",
          "name": "description",
          "type": "string"
        },
        {
          "internalType": "bool",
          "name": "isActive",
          "type": "bool"
        }
      ],
      "stateMutability": "view",
      "type": "function"
    },
    {
      "inputs": [
        {
          "internalType": "address",
          "name": "",
          "type": "address"
        }
      ],
      "name": "Invites",
      "outputs": [
        {
          "internalType": "address",
          "name": "inviteAddress",
          "type": "address"
        },
        {
          "internalType": "bytes32",
          "name": "creatorUsername",
          "type": "bytes32"
        },
        {
          "internalType": "bytes32",
          "name": "registeredUsername",
          "type": "bytes32"
        },
        {
          "internalType": "bool",
          "name": "isActive",
          "type": "bool"
        }
      ],
      "stateMutability": "view",
      "type": "function"
    },
    {
      "inputs": [
        {
          "internalType": "bytes32",
          "name": "",
          "type": "bytes32"
        }
      ],
      "name": "Users",
      "outputs": [
        {
          "internalType": "bytes32",
          "name": "username",
          "type": "bytes32"
        },
        {
          "internalType": "address",
          "name": "mainAddress",
          "type": "address"
        },
        {
          "internalType": "bool",
          "name": "isActive",
          "type": "bool"
        }
      ],
      "stateMutability": "view",
      "type": "function"
    },
    {
      "inputs": [
        {
          "internalType": "address",
          "name": "",
          "type": "address"
        }
      ],
      "name": "UsersAddressUsername",
      "outputs": [
        {
          "internalType": "bool",
          "name": "isActive",
          "type": "bool"
        },
        {
          "internalType": "bytes32",
          "name": "username",
          "type": "bytes32"
        },
        {
          "internalType": "uint64",
          "name": "appId",
          "type": "uint64"
        }
      ],
      "stateMutability": "view",
      "type": "function"
    },
    {
      "inputs": [
        {
          "internalType": "bytes32",
          "name": "",
          "type": "bytes32"
        }
      ],
      "name": "UsersSettings",
      "outputs": [
        {
          "internalType": "string",
          "name": "",
          "type": "string"
        }
      ],
      "stateMutability": "view",
      "type": "function"
    },
    {
      "inputs": [],
      "name": "applicationId",
      "outputs": [
        {
          "internalType": "uint64",
          "name": "",
          "type": "uint64"
        }
      ],
      "stateMutability": "view",
      "type": "function"
    },
    {
      "inputs": [],
      "name": "invites",
      "outputs": [
        {
          "internalType": "uint256",
          "name": "",
          "type": "uint256"
        }
      ],
      "stateMutability": "view",
      "type": "function"
    },
    {
      "inputs": [],
      "name": "logicAddress",
      "outputs": [
        {
          "internalType": "address",
          "name": "",
          "type": "address"
        }
      ],
      "stateMutability": "view",
      "type": "function"
    },
    {
      "inputs": [],
      "name": "owner",
      "outputs": [
        {
          "internalType": "address",
          "name": "",
          "type": "address"
        }
      ],
      "stateMutability": "view",
      "type": "function"
    },
    {
      "inputs": [],
      "name": "users",
      "outputs": [
        {
          "internalType": "uint256",
          "name": "",
          "type": "uint256"
        }
      ],
      "stateMutability": "view",
      "type": "function"
    },
    {
      "inputs": [
        {
          "internalType": "address",
          "name": "_address",
          "type": "address"
        }
      ],
      "name": "setLogicAddress",
      "outputs": [],
      "stateMutability": "nonpayable",
      "type": "function"
    },
    {
      "inputs": [
        {
          "internalType": "bytes32",
          "name": "_username",
          "type": "bytes32"
        },
        {
          "internalType": "address",
          "name": "_walletAddress",
          "type": "address"
        }
      ],
      "name": "emitEventStoreWallet",
      "outputs": [],
      "stateMutability": "nonpayable",
      "type": "function"
    },
    {
      "inputs": [
        {
          "internalType": "bytes32",
          "name": "_username",
          "type": "bytes32"
        },
        {
          "internalType": "address",
          "name": "_walletAddress",
          "type": "address"
        },
        {
          "internalType": "string",
          "name": "_ciphertext",
          "type": "string"
        },
        {
          "internalType": "string",
          "name": "_iv",
          "type": "string"
        },
        {
          "internalType": "string",
          "name": "_salt",
          "type": "string"
        },
        {
          "internalType": "string",
          "name": "_mac",
          "type": "string"
        }
      ],
      "name": "emitEventStoreWallet",
      "outputs": [],
      "stateMutability": "nonpayable",
      "type": "function"
    },
    {
      "inputs": [
        {
          "internalType": "bytes32",
          "name": "_creatorUsername",
          "type": "bytes32"
        },
        {
          "internalType": "address",
          "name": "_inviteAddress",
          "type": "address"
        }
      ],
      "name": "emitEventInviteCreated",
      "outputs": [],
      "stateMutability": "nonpayable",
      "type": "function"
    },
    {
      "inputs": [
        {
          "internalType": "uint64",
          "name": "_appId",
          "type": "uint64"
        },
        {
          "internalType": "bytes32",
          "name": "_username",
          "type": "bytes32"
        },
        {
          "internalType": "string",
          "name": "_iv",
          "type": "string"
        },
        {
          "internalType": "string",
          "name": "_ephemPublicKey",
          "type": "string"
        },
        {
          "internalType": "string",
          "name": "_ciphertext",
          "type": "string"
        },
        {
          "internalType": "string",
          "name": "_mac",
          "type": "string"
        }
      ],
      "name": "emitEventAppSession",
      "outputs": [],
      "stateMutability": "nonpayable",
      "type": "function"
    },
    {
      "inputs": [
        {
          "internalType": "uint64",
          "name": "_appId",
          "type": "uint64"
        },
        {
          "internalType": "bytes32",
          "name": "_username",
          "type": "bytes32"
        },
        {
          "internalType": "address",
          "name": "_sessionAddress",
          "type": "address"
        }
      ],
      "name": "emitEventSimpleAppSession",
      "outputs": [],
      "stateMutability": "nonpayable",
      "type": "function"
    },
    {
      "inputs": [
        {
          "internalType": "bytes32",
          "name": "_creatorUsername",
          "type": "bytes32"
        },
        {
          "internalType": "uint64",
          "name": "_appId",
          "type": "uint64"
        }
      ],
      "name": "emitEventAppCreated",
      "outputs": [],
      "stateMutability": "nonpayable",
      "type": "function"
    },
    {
      "inputs": [
        {
          "internalType": "bytes32",
          "name": "_username",
          "type": "bytes32"
        }
      ],
      "name": "emitEventUserCreated",
      "outputs": [],
      "stateMutability": "nonpayable",
      "type": "function"
    },
    {
      "inputs": [
        {
          "internalType": "bytes32",
          "name": "_usernameHash",
          "type": "bytes32"
        }
      ],
      "name": "getUser",
      "outputs": [
        {
          "components": [
            {
              "internalType": "bytes32",
              "name": "username",
              "type": "bytes32"
            },
            {
              "internalType": "address",
              "name": "mainAddress",
              "type": "address"
            },
            {
              "internalType": "bool",
              "name": "isActive",
              "type": "bool"
            }
          ],
          "internalType": "struct GetLoginStorage.UserInfo",
          "name": "",
          "type": "tuple"
        }
      ],
      "stateMutability": "view",
      "type": "function"
    },
    {
      "inputs": [
        {
          "internalType": "bytes32",
          "name": "_usernameHash",
          "type": "bytes32"
        },
        {
          "components": [
            {
              "internalType": "bytes32",
              "name": "username",
              "type": "bytes32"
            },
            {
              "internalType": "address",
              "name": "mainAddress",
              "type": "address"
            },
            {
              "internalType": "bool",
              "name": "isActive",
              "type": "bool"
            }
          ],
          "internalType": "struct GetLoginStorage.UserInfo",
          "name": "_info",
          "type": "tuple"
        }
      ],
      "name": "setUser",
      "outputs": [],
      "stateMutability": "nonpayable",
      "type": "function"
    },
    {
      "inputs": [
        {
          "internalType": "bytes32",
          "name": "_key",
          "type": "bytes32"
        }
      ],
      "name": "getSettings",
      "outputs": [
        {
          "internalType": "string",
          "name": "",
          "type": "string"
        }
      ],
      "stateMutability": "view",
      "type": "function"
    },
    {
      "inputs": [
        {
          "internalType": "bytes32",
          "name": "_key",
          "type": "bytes32"
        },
        {
          "internalType": "string",
          "name": "_value",
          "type": "string"
        }
      ],
      "name": "setSettings",
      "outputs": [],
      "stateMutability": "nonpayable",
      "type": "function"
    },
    {
      "inputs": [
        {
          "internalType": "address",
          "name": "_address",
          "type": "address"
        }
      ],
      "name": "getUsersAddressUsername",
      "outputs": [
        {
          "components": [
            {
              "internalType": "bool",
              "name": "isActive",
              "type": "bool"
            },
            {
              "internalType": "bytes32",
              "name": "username",
              "type": "bytes32"
            },
            {
              "internalType": "uint64",
              "name": "appId",
              "type": "uint64"
            }
          ],
          "internalType": "struct GetLoginStorage.Username",
          "name": "",
          "type": "tuple"
        }
      ],
      "stateMutability": "view",
      "type": "function"
    },
    {
      "inputs": [
        {
          "internalType": "address",
          "name": "_address",
          "type": "address"
        },
        {
          "components": [
            {
              "internalType": "bool",
              "name": "isActive",
              "type": "bool"
            },
            {
              "internalType": "bytes32",
              "name": "username",
              "type": "bytes32"
            },
            {
              "internalType": "uint64",
              "name": "appId",
              "type": "uint64"
            }
          ],
          "internalType": "struct GetLoginStorage.Username",
          "name": "_info",
          "type": "tuple"
        }
      ],
      "name": "setUsersAddressUsername",
      "outputs": [],
      "stateMutability": "nonpayable",
      "type": "function"
    },
    {
      "inputs": [
        {
          "internalType": "uint64",
          "name": "_id",
          "type": "uint64"
        }
      ],
      "name": "getApplication",
      "outputs": [
        {
          "components": [
            {
              "internalType": "uint64",
              "name": "id",
              "type": "uint64"
            },
            {
              "internalType": "bytes32",
              "name": "usernameHash",
              "type": "bytes32"
            },
            {
              "internalType": "string",
              "name": "title",
              "type": "string"
            },
            {
              "internalType": "string",
              "name": "description",
              "type": "string"
            },
            {
              "internalType": "string[]",
              "name": "allowedUrls",
              "type": "string[]"
            },
            {
              "internalType": "address[]",
              "name": "allowedContracts",
              "type": "address[]"
            },
            {
              "internalType": "bool",
              "name": "isActive",
              "type": "bool"
            }
          ],
          "internalType": "struct GetLoginStorage.Application",
          "name": "",
          "type": "tuple"
        }
      ],
      "stateMutability": "view",
      "type": "function"
    },
    {
      "inputs": [
        {
          "internalType": "uint64",
          "name": "_id",
          "type": "uint64"
        },
        {
          "components": [
            {
              "internalType": "uint64",
              "name": "id",
              "type": "uint64"
            },
            {
              "internalType": "bytes32",
              "name": "usernameHash",
              "type": "bytes32"
            },
            {
              "internalType": "string",
              "name": "title",
              "type": "string"
            },
            {
              "internalType": "string",
              "name": "description",
              "type": "string"
            },
            {
              "internalType": "string[]",
              "name": "allowedUrls",
              "type": "string[]"
            },
            {
              "internalType": "address[]",
              "name": "allowedContracts",
              "type": "address[]"
            },
            {
              "internalType": "bool",
              "name": "isActive",
              "type": "bool"
            }
          ],
          "internalType": "struct GetLoginStorage.Application",
          "name": "_data",
          "type": "tuple"
        }
      ],
      "name": "setApplication",
      "outputs": [],
      "stateMutability": "nonpayable",
      "type": "function"
    },
    {
      "inputs": [],
      "name": "incrementApplicationId",
      "outputs": [],
      "stateMutability": "nonpayable",
      "type": "function"
    },
    {
      "inputs": [],
      "name": "incrementUsers",
      "outputs": [],
      "stateMutability": "nonpayable",
      "type": "function"
    },
    {
      "inputs": [],
      "name": "incrementInvites",
      "outputs": [],
      "stateMutability": "nonpayable",
      "type": "function"
    },
    {
      "inputs": [
        {
          "internalType": "uint64",
          "name": "_id",
          "type": "uint64"
        },
        {
          "internalType": "string",
          "name": "_url",
          "type": "string"
        }
      ],
      "name": "pushApplicationUrl",
      "outputs": [],
      "stateMutability": "nonpayable",
      "type": "function"
    },
    {
      "inputs": [
        {
          "internalType": "uint64",
          "name": "_id",
          "type": "uint64"
        },
        {
          "internalType": "address",
          "name": "_wallet",
          "type": "address"
        }
      ],
      "name": "pushApplicationContract",
      "outputs": [],
      "stateMutability": "nonpayable",
      "type": "function"
    },
    {
      "inputs": [
        {
          "internalType": "uint64",
          "name": "_id",
          "type": "uint64"
        },
        {
          "internalType": "uint256",
          "name": "_index",
          "type": "uint256"
        }
      ],
      "name": "deleteApplicationUrl",
      "outputs": [],
      "stateMutability": "nonpayable",
      "type": "function"
    },
    {
      "inputs": [
        {
          "internalType": "uint64",
          "name": "_id",
          "type": "uint64"
        },
        {
          "internalType": "uint256",
          "name": "_index",
          "type": "uint256"
        }
      ],
      "name": "deleteApplicationContract",
      "outputs": [],
      "stateMutability": "nonpayable",
      "type": "function"
    },
    {
      "inputs": [
        {
          "internalType": "uint64",
          "name": "_appId",
          "type": "uint64"
        },
        {
          "internalType": "bytes32",
          "name": "_usernameHash",
          "type": "bytes32"
        },
        {
          "internalType": "address",
          "name": "_wallet",
          "type": "address"
        }
      ],
      "name": "pushAppSession",
      "outputs": [],
      "stateMutability": "nonpayable",
      "type": "function"
    },
    {
      "inputs": [
        {
          "internalType": "address",
          "name": "_address",
          "type": "address"
        }
      ],
      "name": "getInvite",
      "outputs": [
        {
          "components": [
            {
              "internalType": "address",
              "name": "inviteAddress",
              "type": "address"
            },
            {
              "internalType": "bytes32",
              "name": "creatorUsername",
              "type": "bytes32"
            },
            {
              "internalType": "bytes32",
              "name": "registeredUsername",
              "type": "bytes32"
            },
            {
              "internalType": "bool",
              "name": "isActive",
              "type": "bool"
            }
          ],
          "internalType": "struct GetLoginStorage.InviteInfo",
          "name": "",
          "type": "tuple"
        }
      ],
      "stateMutability": "view",
      "type": "function"
    },
    {
      "inputs": [
        {
          "internalType": "address",
          "name": "_address",
          "type": "address"
        },
        {
          "components": [
            {
              "internalType": "address",
              "name": "inviteAddress",
              "type": "address"
            },
            {
              "internalType": "bytes32",
              "name": "creatorUsername",
              "type": "bytes32"
            },
            {
              "internalType": "bytes32",
              "name": "registeredUsername",
              "type": "bytes32"
            },
            {
              "internalType": "bool",
              "name": "isActive",
              "type": "bool"
            }
          ],
          "internalType": "struct GetLoginStorage.InviteInfo",
          "name": "_data",
          "type": "tuple"
        }
      ],
      "name": "setInvite",
      "outputs": [],
      "stateMutability": "nonpayable",
      "type": "function"
    },
    {
      "inputs": [
        {
          "internalType": "uint64",
          "name": "_appId",
          "type": "uint64"
        },
        {
          "internalType": "bytes32",
          "name": "_usernameHash",
          "type": "bytes32"
        }
      ],
      "name": "getAppSessions",
      "outputs": [
        {
          "components": [
            {
              "internalType": "bytes32",
              "name": "username",
              "type": "bytes32"
            },
            {
              "internalType": "address",
              "name": "wallet",
              "type": "address"
            },
            {
              "internalType": "uint64",
              "name": "appId",
              "type": "uint64"
            },
            {
              "internalType": "bool",
              "name": "isActive",
              "type": "bool"
            }
          ],
          "internalType": "struct GetLoginStorage.AppSession[]",
          "name": "",
          "type": "tuple[]"
        }
      ],
      "stateMutability": "view",
      "type": "function"
    }
  ],
  "bytecode": "0x60806040526004805467ffffffffffffffff1916600117905534801561002457600080fd5b5060008054600160a060020a031916331790556126e1806100466000396000f3fe608060405234801561001057600080fd5b50600436106102355760003560e060020a900480636fb8905111610134578063c4ac0e48116100bc578063e7a6047211610080578063e7a60472146107e1578063ec46474c146107f4578063f0e881b714610807578063f20202751461082b578063fdcfc3ef1461083457600080fd5b8063c4ac0e48146106f2578063cf1d3e7c14610705578063d128c2a714610725578063dcac263e1461072d578063dce2dd17146107ce57600080fd5b80639c1fcc4c116101035780639c1fcc4c14610642578063ab0f7ab714610655578063abc040ca14610668578063b302e9511461067b578063b68baa15146106df57600080fd5b80636fb89051146105765780638ad10419146105895780638da0c6e3146105b65780638da5cb5b1461061757600080fd5b80632f23976c116101c25780635c22f47d116101865780635c22f47d146103da57806361c65e2c146103fa5780636517579c146104b95780636633e5b5146105505780636d822b441461056357600080fd5b80632f23976c146103585780633122da981461036b57806333a474141461037357806349d13f031461037b57806350d2c00e146103c757600080fd5b8063166189e111610209578063166189e114610291578063212109e4146102ff5780632226e438146103125780632d1ca281146103325780632ef9adc31461034557600080fd5b80622ef8d81461023a5780630198fec014610256578063036fbb741461026b5780630913be411461027e575b600080fd5b61024360035481565b6040519081526020015b60405180910390f35b610269610264366004612077565b610847565b005b6102696102793660046120f9565b6108cc565b61026961028c366004611d03565b61093e565b6102d361029f366004611ce1565b6009602052600090815260409020805460018201546002830154600390930154600160a060020a0390921692909160ff1684565b60408051600160a060020a0390951685526020850193909352918301521515606082015260800161024d565b61026961030d366004612023565b6109d5565b610325610320366004612008565b610a5c565b60405161024d919061243c565b610269610340366004611e20565b610d5e565b610269610353366004611e20565b610dc5565b6102696103663660046120b3565b610e34565b610269610eb2565b610269610f22565b61038e610389366004611fd3565b610f66565b60408051948552600160a060020a03909316602085015267ffffffffffffffff909116918301919091521515606082015260800161024d565b6102696103d5366004612131565b610fd5565b6103ed6103e836600461204d565b6110ce565b60405161024d919061232e565b61047b610408366004611ce1565b6040805160808082018352600080835260208084018290528385018290526060938401829052600160a060020a0395861682526009815290849020845192830185528054909516825260018501549082015260028401549281019290925260039092015460ff1615159181019190915290565b60405161024d91908151600160a060020a03168152602080830151908201526040808301519082015260609182015115159181019190915260800190565b6105236104c7366004611e07565b6040805160608082018352600080835260208084018290529284018190529384526005825292829020825193840183528054845260010154600160a060020a0381169184019190915260a060020a900460ff1615159082015290565b6040805182518152602080840151600160a060020a0316908201529181015115159082015260600161024d565b61026961055e366004611d99565b61118d565b610269610571366004611e4c565b611218565b610269610584366004611f12565b611285565b60045461059d9067ffffffffffffffff1681565b60405167ffffffffffffffff909116815260200161024d565b6105f26105c4366004611e07565b60056020526000908152604090208054600190910154600160a060020a0381169060a060020a900460ff1683565b60408051938452600160a060020a03909216602084015215159082015260600161024d565b60005461062a90600160a060020a031681565b604051600160a060020a03909116815260200161024d565b60015461062a90600160a060020a031681565b610269610663366004611f59565b6112d1565b61026961067636600461204d565b61135a565b6106b8610689366004611ce1565b60076020526000908152604090208054600182015460029092015460ff909116919067ffffffffffffffff1683565b604080519315158452602084019290925267ffffffffffffffff169082015260600161024d565b6102696106ed366004611fb0565b6113df565b610269610700366004612077565b611447565b610718610713366004611e07565b611558565b60405161024d919061239a565b6102696115f2565b6107a061073b366004611ce1565b604080516060808201835260008083526020808401829052928401819052600160a060020a03949094168452600782529282902082519384018352805460ff16151584526001810154918401919091526002015467ffffffffffffffff169082015290565b60408051825115158152602080840151908201529181015167ffffffffffffffff169082015260600161024d565b6107186107dc366004611e07565b61162f565b6102696107ef366004611e07565b6116d1565b61026961080236600461204d565b61172c565b61081a610815366004612008565b6117a1565b60405161024d9594939291906124ee565b61024360025481565b610269610842366004611ce1565b6118ee565b600154600160a060020a0316331461087d5760405160e560020a62461bcd02815260040161087490612405565b60405180910390fd5b604051600160a060020a0382168152829067ffffffffffffffff8516907f08091e8ddab09c314dbb39b232f2abb4bf144406f4ef7377638f202b305c318e9060200160405180910390a3505050565b600154600160a060020a031633146108f95760405160e560020a62461bcd02815260040161087490612405565b67ffffffffffffffff82166000908152600a602090815260408220600401805460018101825590835291819020835161093993919091019184019061197a565b505050565b600154600160a060020a0316331461096b5760405160e560020a62461bcd02815260040161087490612405565b600160a060020a039182166000908152600960209081526040918290208351815473ffffffffffffffffffffffffffffffffffffffff1916951694909417845582015160018401558101516002830155606001516003909101805460ff1916911515919091179055565b600154600160a060020a03163314610a025760405160e560020a62461bcd02815260040161087490612405565b67ffffffffffffffff919091166000908152600a6020908152604082206005018054600181018255908352912001805473ffffffffffffffffffffffffffffffffffffffff1916600160a060020a03909216919091179055565b610aab6040518060e00160405280600067ffffffffffffffff16815260200160008019168152602001606081526020016060815260200160608152602001606081526020016000151581525090565b67ffffffffffffffff8083166000908152600a6020908152604091829020825160e081018452815490941684526001810154918401919091526002810180549192840191610af8906125df565b80601f0160208091040260200160405190810160405280929190818152602001828054610b24906125df565b8015610b715780601f10610b4657610100808354040283529160200191610b71565b820191906000526020600020905b815481529060010190602001808311610b5457829003601f168201915b50505050508152602001600382018054610b8a906125df565b80601f0160208091040260200160405190810160405280929190818152602001828054610bb6906125df565b8015610c035780601f10610bd857610100808354040283529160200191610c03565b820191906000526020600020905b815481529060010190602001808311610be657829003601f168201915b5050505050815260200160048201805480602002602001604051908101604052809291908181526020016000905b82821015610cdd578382906000526020600020018054610c50906125df565b80601f0160208091040260200160405190810160405280929190818152602001828054610c7c906125df565b8015610cc95780601f10610c9e57610100808354040283529160200191610cc9565b820191906000526020600020905b815481529060010190602001808311610cac57829003601f168201915b505050505081526020019060010190610c31565b50505050815260200160058201805480602002602001604051908101604052809291908181526020018280548015610d3e57602002820191906000526020600020905b8154600160a060020a03168152600190910190602001808311610d20575b50505091835250506006919091015460ff16151560209091015292915050565b600154600160a060020a03163314610d8b5760405160e560020a62461bcd02815260040161087490612405565b604051600160a060020a0382169083907f4cdb4242a2f26347d1d9d43cc7e18af1472cd8eb22fd76686aa841c9a3805ba690600090a35050565b600154600160a060020a03163314610df25760405160e560020a62461bcd02815260040161087490612405565b604051600160a060020a038216815282907ffb9c09af146046471545036a9ad9501d4a212a27e1e3e0135faa553c9da7c64f9060200160405180910390a25050565b600154600160a060020a03163314610e615760405160e560020a62461bcd02815260040161087490612405565b848667ffffffffffffffff167fc6a8c53e4ea99f3df3fda387089554e433979928188cd5f060beef10f5097a3486868686604051610ea294939291906123ad565b60405180910390a3505050505050565b600154600160a060020a03163314610edf5760405160e560020a62461bcd02815260040161087490612405565b6004805467ffffffffffffffff16906000610ef983612638565b91906101000a81548167ffffffffffffffff021916908367ffffffffffffffff16021790555050565b600154600160a060020a03163314610f4f5760405160e560020a62461bcd02815260040161087490612405565b60038054906000610f5f8361261d565b9190505550565b60086020528260005260406000206020528160005260406000208181548110610f8e57600080fd5b600091825260209091206002909102018054600190910154909350600160a060020a038116925060a060020a810467ffffffffffffffff16915060e060020a900460ff1684565b600154600160a060020a031633146110025760405160e560020a62461bcd02815260040161087490612405565b67ffffffffffffffff8281166000908152600a60209081526040918290208451815467ffffffffffffffff1916941693909317835583810151600184015590830151805184939261105a92600285019291019061197a565b506060820151805161107691600384019160209091019061197a565b50608082015180516110929160048401916020909101906119fe565b5060a082015180516110ae916005840191602090910190611a57565b5060c091909101516006909101805460ff19169115159190911790555050565b600081815260086020908152604080832067ffffffffffffffff861684528252808320805482518185028101850190935280835260609492939192909184015b82821015611181576000848152602090819020604080516080810182526002860290920180548352600190810154600160a060020a0381168486015260a060020a810467ffffffffffffffff169284019290925260e060020a90910460ff1615156060830152908352909201910161110e565b50505050905092915050565b600154600160a060020a031633146111ba5760405160e560020a62461bcd02815260040161087490612405565b600160a060020a03919091166000908152600760209081526040918290208351815460ff19169015151781559083015160018201559101516002909101805467ffffffffffffffff191667ffffffffffffffff909216919091179055565b600154600160a060020a031633146112455760405160e560020a62461bcd02815260040161087490612405565b84600160a060020a0316867fa5cc3574bc05315d30d8c2a0c15550ca1a1f667fcc96f1612983e18fbdcee85d86868686604051610ea294939291906123ad565b600154600160a060020a031633146112b25760405160e560020a62461bcd02815260040161087490612405565b600082815260066020908152604090912082516109399284019061197a565b600154600160a060020a031633146112fe5760405160e560020a62461bcd02815260040161087490612405565b6000918252600560209081526040928390208251815590820151600190910180549390920151151560a060020a0274ffffffffffffffffffffffffffffffffffffffffff19909316600160a060020a0390911617919091179055565b600154600160a060020a031633146113875760405160e560020a62461bcd02815260040161087490612405565b67ffffffffffffffff82166000908152600a602052604090206005018054829081106113b5576113b5612679565b6000918252602090912001805473ffffffffffffffffffffffffffffffffffffffff191690555050565b600154600160a060020a0316331461140c5760405160e560020a62461bcd02815260040161087490612405565b60405167ffffffffffffffff82169083907f338314ce7f502e7ff312cf1d09a3cd6f5591aa25947b6dbba8da8cf4731e8d0590600090a35050565b600154600160a060020a031633146114745760405160e560020a62461bcd02815260040161087490612405565b600082815260086020908152604080832067ffffffffffffffff9687168085529083528184208251608081018452968752600160a060020a03958616878501908152928701918252600160608801818152825480830184559287529490952096516002909102909601958655905194909201805492519151151560e060020a027fffffff00ffffffffffffffffffffffffffffffffffffffffffffffffffffffff9290961660a060020a027fffffffff0000000000000000000000000000000000000000000000000000000090931694909316939093171791909116919091179055565b60066020526000908152604090208054611571906125df565b80601f016020809104026020016040519081016040528092919081815260200182805461159d906125df565b80156115ea5780601f106115bf576101008083540402835291602001916115ea565b820191906000526020600020905b8154815290600101906020018083116115cd57829003601f168201915b505050505081565b600154600160a060020a0316331461161f5760405160e560020a62461bcd02815260040161087490612405565b60028054906000610f5f8361261d565b600081815260066020526040902080546060919061164c906125df565b80601f0160208091040260200160405190810160405280929190818152602001828054611678906125df565b80156116c55780601f1061169a576101008083540402835291602001916116c5565b820191906000526020600020905b8154815290600101906020018083116116a857829003601f168201915b50505050509050919050565b600154600160a060020a031633146116fe5760405160e560020a62461bcd02815260040161087490612405565b60405181907f5130a08c2f43100f98d738a36e5742dccbb86bb6bf3ed538d2bd15cb632846d690600090a250565b600154600160a060020a031633146117595760405160e560020a62461bcd02815260040161087490612405565b67ffffffffffffffff82166000908152600a6020526040902060040180548290811061178757611787612679565b90600052602060002001600061179d9190611ab9565b5050565b600a6020526000908152604090208054600182015460028301805467ffffffffffffffff9093169391926117d4906125df565b80601f0160208091040260200160405190810160405280929190818152602001828054611800906125df565b801561184d5780601f106118225761010080835404028352916020019161184d565b820191906000526020600020905b81548152906001019060200180831161183057829003601f168201915b505050505090806003018054611862906125df565b80601f016020809104026020016040519081016040528092919081815260200182805461188e906125df565b80156118db5780601f106118b0576101008083540402835291602001916118db565b820191906000526020600020905b8154815290600101906020018083116118be57829003601f168201915b5050506006909301549192505060ff1685565b600054600160a060020a0316331461194b5760405160e560020a62461bcd02815260206004820152601760248201527f43616c6c6572206973206e6f7420746865206f776e65720000000000000000006044820152606401610874565b6001805473ffffffffffffffffffffffffffffffffffffffff1916600160a060020a0392909216919091179055565b828054611986906125df565b90600052602060002090601f0160209004810192826119a857600085556119ee565b82601f106119c157805160ff19168380011785556119ee565b828001600101855582156119ee579182015b828111156119ee5782518255916020019190600101906119d3565b506119fa929150611af6565b5090565b828054828255906000526020600020908101928215611a4b579160200282015b82811115611a4b5782518051611a3b91849160209091019061197a565b5091602001919060010190611a1e565b506119fa929150611b0b565b8280548282559060005260206000209081019282156119ee579160200282015b828111156119ee578251825473ffffffffffffffffffffffffffffffffffffffff1916600160a060020a03909116178255602090920191600190910190611a77565b508054611ac5906125df565b6000825580601f10611ad5575050565b601f016020900490600052602060002090810190611af39190611af6565b50565b5b808211156119fa5760008155600101611af7565b808211156119fa576000611b1f8282611ab9565b50600101611b0b565b8035600160a060020a0381168114611b3f57600080fd5b919050565b600082601f830112611b5557600080fd5b81356020611b6a611b65836125bb565b61258a565b8281528181019085830183850287018401881015611b8757600080fd5b60005b85811015611bad57611b9b82611b28565b84529284019290840190600101611b8a565b5090979650505050505050565b600082601f830112611bcb57600080fd5b81356020611bdb611b65836125bb565b8281528181019085830183850287018401881015611bf857600080fd5b6000805b86811015611c3b57823567ffffffffffffffff811115611c1a578283fd5b611c288b88838d0101611c59565b8652509385019391850191600101611bfc565b509198975050505050505050565b80358015158114611b3f57600080fd5b600082601f830112611c6a57600080fd5b813567ffffffffffffffff811115611c8457611c84612692565b611c97601f8201601f191660200161258a565b818152846020838601011115611cac57600080fd5b816020850160208301376000918101602001919091529392505050565b803567ffffffffffffffff81168114611b3f57600080fd5b600060208284031215611cf357600080fd5b611cfc82611b28565b9392505050565b60008082840360a0811215611d1757600080fd5b611d2084611b28565b92506080601f1982011215611d3457600080fd5b506040516080810181811067ffffffffffffffff82111715611d5857611d58612692565b604052611d6760208501611b28565b81526040840135602082015260608401356040820152611d8960808501611c49565b6060820152809150509250929050565b6000808284036080811215611dad57600080fd5b611db684611b28565b92506060601f1982011215611dca57600080fd5b50611dd361253e565b611ddf60208501611c49565b815260408401356020820152611df760608501611cc9565b6040820152809150509250929050565b600060208284031215611e1957600080fd5b5035919050565b60008060408385031215611e3357600080fd5b82359150611e4360208401611b28565b90509250929050565b60008060008060008060c08789031215611e6557600080fd5b86359550611e7560208801611b28565b9450604087013567ffffffffffffffff80821115611e9257600080fd5b611e9e8a838b01611c59565b95506060890135915080821115611eb457600080fd5b611ec08a838b01611c59565b94506080890135915080821115611ed657600080fd5b611ee28a838b01611c59565b935060a0890135915080821115611ef857600080fd5b50611f0589828a01611c59565b9150509295509295509295565b60008060408385031215611f2557600080fd5b82359150602083013567ffffffffffffffff811115611f4357600080fd5b611f4f85828601611c59565b9150509250929050565b6000808284036080811215611f6d57600080fd5b833592506060601f1982011215611f8357600080fd5b50611f8c61253e565b60208401358152611f9f60408501611b28565b6020820152611df760608501611c49565b60008060408385031215611fc357600080fd5b82359150611e4360208401611cc9565b600080600060608486031215611fe857600080fd5b83359250611ff860208501611cc9565b9150604084013590509250925092565b60006020828403121561201a57600080fd5b611cfc82611cc9565b6000806040838503121561203657600080fd5b61203f83611cc9565b9150611e4360208401611b28565b6000806040838503121561206057600080fd5b61206983611cc9565b946020939093013593505050565b60008060006060848603121561208c57600080fd5b61209584611cc9565b9250602084013591506120aa60408501611b28565b90509250925092565b60008060008060008060c087890312156120cc57600080fd5b6120d587611cc9565b955060208701359450604087013567ffffffffffffffff80821115611e9257600080fd5b6000806040838503121561210c57600080fd5b61211583611cc9565b9150602083013567ffffffffffffffff811115611f4357600080fd5b6000806040838503121561214457600080fd5b61214d83611cc9565b9150602083013567ffffffffffffffff8082111561216a57600080fd5b9084019060e0828703121561217e57600080fd5b612186612567565b61218f83611cc9565b8152602083013560208201526040830135828111156121ad57600080fd5b6121b988828601611c59565b6040830152506060830135828111156121d157600080fd5b6121dd88828601611c59565b6060830152506080830135828111156121f557600080fd5b61220188828601611bba565b60808301525060a08301358281111561221957600080fd5b61222588828601611b44565b60a08301525061223760c08401611c49565b60c08201528093505050509250929050565b600081518084526020808501945080840160005b83811015612282578151600160a060020a03168752958201959082019060010161225d565b509495945050505050565b600081518084526020808501808196508284028101915082860160005b858110156122d45782840389526122c28483516122e1565b988501989350908401906001016122aa565b5091979650505050505050565b6000815180845260005b81811015612307576020818501810151868301820152016122eb565b81811115612319576000602083870101525b50601f01601f19169290920160200192915050565b602080825282518282018190526000919060409081850190868401855b828110156122d45781518051855286810151600160a060020a0316878601528581015167ffffffffffffffff16868601526060908101511515908501526080909301929085019060010161234b565b602081526000611cfc60208301846122e1565b6080815260006123c060808301876122e1565b82810360208401526123d281876122e1565b905082810360408401526123e681866122e1565b905082810360608401526123fa81856122e1565b979650505050505050565b6020808252601f908201527f43616c6c6572206973206e6f7420746865206c6f676963206164647265737300604082015260600190565b6020815267ffffffffffffffff8251166020820152602082015160408201526000604083015160e060608401526124776101008401826122e1565b90506060840151601f198085840301608086015261249583836122e1565b925060808601519150808584030160a08601526124b2838361228d565b925060a08601519150808584030160c0860152506124d08282612249565b91505060c08401516124e660e085018215159052565b509392505050565b67ffffffffffffffff8616815284602082015260a06040820152600061251760a08301866122e1565b828103606084015261252981866122e1565b91505082151560808301529695505050505050565b6040516060810167ffffffffffffffff8111828210171561256157612561612692565b60405290565b60405160e0810167ffffffffffffffff8111828210171561256157612561612692565b604051601f8201601f1916810167ffffffffffffffff811182821017156125b3576125b3612692565b604052919050565b600067ffffffffffffffff8211156125d5576125d5612692565b5060209081020190565b6002810460018216806125f357607f821691505b602082108114156126175760e060020a634e487b7102600052602260045260246000fd5b50919050565b600060001982141561263157612631612660565b5060010190565b600067ffffffffffffffff8083168181141561265657612656612660565b6001019392505050565b60e060020a634e487b7102600052601160045260246000fd5b60e060020a634e487b7102600052603260045260246000fd5b60e060020a634e487b7102600052604160045260246000fdfea26469706673582212204fec4cd3976a499ab4c523296445eb1eed7db20680d19ac112fa8e96cec5247a64736f6c63430008070033",
  "immutableReferences": {},
  "source": "// SPDX-License-Identifier: UNLICENSED\npragma solidity ^0.8.7;\n\ncontract GetLoginStorage {\n    address public owner;\n    address public logicAddress;\n    uint256 public users;\n    uint256 public invites;\n\n    constructor () {\n        owner = msg.sender;\n    }\n\n    modifier onlyOwner() {\n        require(msg.sender == owner, \"Caller is not the owner\");\n        _;\n    }\n\n    modifier onlyLogicAddress() {\n        require(msg.sender == logicAddress, \"Caller is not the logic address\");\n        _;\n    }\n\n    // store encrypted wallet assigned to user\n    event EventStoreWallet(bytes32 indexed username, address indexed walletAddress, string ciphertext, string iv, string salt, string mac);\n    // store just address that assigned to user (in case Metamask and etc)\n    event EventStoreWallet(bytes32 indexed username, address indexed walletAddress);\n    // event created with inviteAddress\n    event EventInviteCreated(bytes32 indexed creatorUsername, address inviteAddress);\n    // store encrypted app session\n    event EventAppSession(uint64 indexed appId, bytes32 indexed username, string iv, string ephemPublicKey, string ciphertext, string mac);\n    // store just address that assigned to session and stored somewhere else\n    event EventAppSession(uint64 indexed appId, bytes32 indexed username, address sessionAddress);\n    // new dev app created\n    event EventAppCreated(bytes32 indexed creatorUsername, uint64 indexed appId);\n    // user created\n    event EventUserCreated(bytes32 indexed username);\n\n    struct Username\n    {\n        bool isActive;\n        // todo define a uniform variable name\n        bytes32 username;\n        uint64 appId;\n    }\n\n    struct UserInfo\n    {\n        // todo define a uniform variable name\n        bytes32 username;\n        address mainAddress;\n        bool isActive;\n    }\n\n    struct InviteInfo\n    {\n        address inviteAddress;\n        // todo define a uniform variable name\n        bytes32 creatorUsername;\n        bytes32 registeredUsername;\n        bool isActive;\n    }\n\n    struct AppSession\n    {\n        // todo define a uniform variable name\n        bytes32 username;\n        address wallet;\n        uint64 appId;\n        bool isActive;\n    }\n\n    struct Application\n    {\n        uint64 id;\n        // todo define a uniform variable name (usernameHash or username)\n        bytes32 usernameHash;\n        string title;\n        string description;\n        string[] allowedUrls;\n        address[] allowedContracts;\n        bool isActive;\n    }\n\n    uint64 public applicationId = 1;\n\n    mapping(bytes32 => UserInfo) public Users;\n    mapping(bytes32 => string) public UsersSettings;\n    mapping(address => Username) public UsersAddressUsername;\n    mapping(bytes32 => mapping(uint64 => AppSession[])) public AppSessions;\n    mapping(address => InviteInfo) public Invites;\n    mapping(uint64 => Application) public Applications;\n\n    function setLogicAddress(address _address) onlyOwner public {\n        logicAddress = _address;\n    }\n\n    function emitEventStoreWallet(bytes32 _username, address _walletAddress, string memory _ciphertext, string memory _iv, string memory _salt, string memory _mac) onlyLogicAddress public {\n        emit EventStoreWallet(_username, _walletAddress, _ciphertext, _iv, _salt, _mac);\n    }\n\n    function emitEventStoreWallet(bytes32 _username, address _walletAddress) onlyLogicAddress public {\n        emit EventStoreWallet(_username, _walletAddress);\n    }\n\n    function emitEventInviteCreated(bytes32 _creatorUsername, address _inviteAddress) onlyLogicAddress public {\n        emit EventInviteCreated(_creatorUsername, _inviteAddress);\n    }\n\n    function emitEventAppSession(uint64 _appId, bytes32 _username, string memory _iv, string memory _ephemPublicKey, string memory _ciphertext, string memory _mac) onlyLogicAddress public {\n        emit EventAppSession(_appId, _username, _iv, _ephemPublicKey, _ciphertext, _mac);\n    }\n\n    function emitEventSimpleAppSession(uint64 _appId, bytes32 _username, address _sessionAddress) onlyLogicAddress public {\n        emit EventAppSession(_appId, _username, _sessionAddress);\n    }\n\n    function emitEventAppCreated(bytes32 _creatorUsername, uint64 _appId) onlyLogicAddress public {\n        emit EventAppCreated(_creatorUsername, _appId);\n    }\n\n    function emitEventUserCreated(bytes32 _username) onlyLogicAddress public {\n        emit EventUserCreated(_username);\n    }\n\n    function getUser(bytes32 _usernameHash) public view returns (UserInfo memory) {\n        return Users[_usernameHash];\n    }\n\n    function setUser(bytes32 _usernameHash, UserInfo memory _info) onlyLogicAddress public {\n        Users[_usernameHash] = _info;\n    }\n\n    function getSettings(bytes32 _key) public view returns (string memory) {\n        return UsersSettings[_key];\n    }\n\n    function setSettings(bytes32 _key, string memory _value) onlyLogicAddress public {\n        UsersSettings[_key] = _value;\n    }\n\n    function getUsersAddressUsername(address _address) public view returns (Username memory) {\n        return UsersAddressUsername[_address];\n    }\n\n    function setUsersAddressUsername(address _address, Username memory _info) onlyLogicAddress public {\n        UsersAddressUsername[_address] = _info;\n    }\n\n    function getApplication(uint64 _id) public view returns (Application memory) {\n        return Applications[_id];\n    }\n\n    function setApplication(uint64 _id, Application memory _data) onlyLogicAddress public {\n        Applications[_id] = _data;\n    }\n\n    function incrementApplicationId() onlyLogicAddress public {\n        applicationId++;\n    }\n\n    function incrementUsers() onlyLogicAddress public {\n        users++;\n    }\n\n    function incrementInvites() onlyLogicAddress public {\n        invites++;\n    }\n\n    function pushApplicationUrl(uint64 _id, string memory _url) onlyLogicAddress public {\n        Applications[_id].allowedUrls.push(_url);\n    }\n\n    function pushApplicationContract(uint64 _id, address _wallet) onlyLogicAddress public {\n        Applications[_id].allowedContracts.push(_wallet);\n    }\n\n    function deleteApplicationUrl(uint64 _id, uint _index) onlyLogicAddress public {\n        delete Applications[_id].allowedUrls[_index];\n    }\n\n    function deleteApplicationContract(uint64 _id, uint _index) onlyLogicAddress public {\n        delete Applications[_id].allowedContracts[_index];\n    }\n\n    function pushAppSession(uint64 _appId, bytes32 _usernameHash, address _wallet) onlyLogicAddress public {\n        AppSessions[_usernameHash][_appId].push(AppSession({username : _usernameHash, wallet : _wallet, appId : _appId, isActive : true}));\n    }\n\n    function getInvite(address _address) public view returns (InviteInfo memory) {\n        return Invites[_address];\n    }\n\n    function setInvite(address _address, InviteInfo memory _data) onlyLogicAddress public {\n        Invites[_address] = _data;\n    }\n\n    function getAppSessions(uint64 _appId, bytes32 _usernameHash) public view returns (AppSession[] memory) {\n        return AppSessions[_usernameHash][_appId];\n    }\n}\n",
  "sourcePath": "/Users/sdancer/web/login/src/smart/contracts/GetLoginStorage.sol",
  "compiler": {
    "name": "solc",
    "version": "0.8.7+commit.e28d00a7.Emscripten.clang"
  },
  "schemaVersion": "3.4.3",
  "updatedAt": "2021-09-04T11:23:48.446Z",
  "devdoc": {
    "kind": "dev",
    "methods": {},
    "version": 1
  },
  "userdoc": {
    "kind": "user",
    "methods": {},
    "version": 1
  }
}