{
  "contractName": "GetLoginStorage",
  "abi": [
    {
      "inputs": [],
      "stateMutability": "nonpayable",
      "type": "constructor"
    },
    {
      "anonymous": false,
      "inputs": [
        {
          "indexed": true,
          "internalType": "bytes32",
          "name": "creatorUsername",
          "type": "bytes32"
        },
        {
          "indexed": true,
          "internalType": "uint64",
          "name": "appId",
          "type": "uint64"
        }
      ],
      "name": "EventAppCreated",
      "type": "event"
    },
    {
      "anonymous": false,
      "inputs": [
        {
          "indexed": true,
          "internalType": "uint64",
          "name": "appId",
          "type": "uint64"
        },
        {
          "indexed": true,
          "internalType": "bytes32",
          "name": "username",
          "type": "bytes32"
        },
        {
          "indexed": false,
          "internalType": "string",
          "name": "iv",
          "type": "string"
        },
        {
          "indexed": false,
          "internalType": "string",
          "name": "ephemPublicKey",
          "type": "string"
        },
        {
          "indexed": false,
          "internalType": "string",
          "name": "ciphertext",
          "type": "string"
        },
        {
          "indexed": false,
          "internalType": "string",
          "name": "mac",
          "type": "string"
        }
      ],
      "name": "EventAppSession",
      "type": "event"
    },
    {
      "anonymous": false,
      "inputs": [
        {
          "indexed": true,
          "internalType": "bytes32",
          "name": "creatorUsername",
          "type": "bytes32"
        },
        {
          "indexed": false,
          "internalType": "address",
          "name": "inviteAddress",
          "type": "address"
        }
      ],
      "name": "EventInviteCreated",
      "type": "event"
    },
    {
      "anonymous": false,
      "inputs": [
        {
          "indexed": true,
          "internalType": "bytes32",
          "name": "username",
          "type": "bytes32"
        },
        {
          "indexed": true,
          "internalType": "address",
          "name": "walletAddress",
          "type": "address"
        },
        {
          "indexed": false,
          "internalType": "string",
          "name": "ciphertext",
          "type": "string"
        },
        {
          "indexed": false,
          "internalType": "string",
          "name": "iv",
          "type": "string"
        },
        {
          "indexed": false,
          "internalType": "string",
          "name": "salt",
          "type": "string"
        },
        {
          "indexed": false,
          "internalType": "string",
          "name": "mac",
          "type": "string"
        }
      ],
      "name": "EventStoreWallet",
      "type": "event"
    },
    {
      "inputs": [
        {
          "internalType": "uint64",
          "name": "",
          "type": "uint64"
        }
      ],
      "name": "Applications",
      "outputs": [
        {
          "internalType": "uint64",
          "name": "id",
          "type": "uint64"
        },
        {
          "internalType": "bytes32",
          "name": "usernameHash",
          "type": "bytes32"
        },
        {
          "internalType": "string",
          "name": "title",
          "type": "string"
        },
        {
          "internalType": "string",
          "name": "description",
          "type": "string"
        },
        {
          "internalType": "bool",
          "name": "isActive",
          "type": "bool"
        }
      ],
      "stateMutability": "view",
      "type": "function",
      "constant": true
    },
    {
      "inputs": [
        {
          "internalType": "address",
          "name": "",
          "type": "address"
        }
      ],
      "name": "Invites",
      "outputs": [
        {
          "internalType": "address",
          "name": "inviteAddress",
          "type": "address"
        },
        {
          "internalType": "bytes32",
          "name": "creatorUsername",
          "type": "bytes32"
        },
        {
          "internalType": "bytes32",
          "name": "registeredUsername",
          "type": "bytes32"
        },
        {
          "internalType": "bool",
          "name": "isActive",
          "type": "bool"
        }
      ],
      "stateMutability": "view",
      "type": "function",
      "constant": true
    },
    {
      "inputs": [
        {
          "internalType": "bytes32",
          "name": "",
          "type": "bytes32"
        },
        {
          "internalType": "uint256",
          "name": "",
          "type": "uint256"
        }
      ],
      "name": "UserSessions",
      "outputs": [
        {
          "internalType": "bytes32",
          "name": "username",
          "type": "bytes32"
        },
        {
          "internalType": "address",
          "name": "wallet",
          "type": "address"
        },
        {
          "internalType": "uint8",
          "name": "sessionType",
          "type": "uint8"
        },
        {
          "internalType": "uint64",
          "name": "appId",
          "type": "uint64"
        }
      ],
      "stateMutability": "view",
      "type": "function",
      "constant": true
    },
    {
      "inputs": [
        {
          "internalType": "bytes32",
          "name": "",
          "type": "bytes32"
        }
      ],
      "name": "Users",
      "outputs": [
        {
          "internalType": "bytes32",
          "name": "username",
          "type": "bytes32"
        },
        {
          "internalType": "bool",
          "name": "isActive",
          "type": "bool"
        }
      ],
      "stateMutability": "view",
      "type": "function",
      "constant": true
    },
    {
      "inputs": [
        {
          "internalType": "address",
          "name": "",
          "type": "address"
        }
      ],
      "name": "UsersAddressUsername",
      "outputs": [
        {
          "internalType": "bool",
          "name": "isActive",
          "type": "bool"
        },
        {
          "internalType": "bytes32",
          "name": "username",
          "type": "bytes32"
        }
      ],
      "stateMutability": "view",
      "type": "function",
      "constant": true
    },
    {
      "inputs": [
        {
          "internalType": "bytes32",
          "name": "",
          "type": "bytes32"
        }
      ],
      "name": "UsersSettings",
      "outputs": [
        {
          "internalType": "string",
          "name": "",
          "type": "string"
        }
      ],
      "stateMutability": "view",
      "type": "function",
      "constant": true
    },
    {
      "inputs": [],
      "name": "applicationId",
      "outputs": [
        {
          "internalType": "uint64",
          "name": "",
          "type": "uint64"
        }
      ],
      "stateMutability": "view",
      "type": "function",
      "constant": true
    },
    {
      "inputs": [],
      "name": "logicAddress",
      "outputs": [
        {
          "internalType": "address",
          "name": "",
          "type": "address"
        }
      ],
      "stateMutability": "view",
      "type": "function",
      "constant": true
    },
    {
      "inputs": [],
      "name": "owner",
      "outputs": [
        {
          "internalType": "address",
          "name": "",
          "type": "address"
        }
      ],
      "stateMutability": "view",
      "type": "function",
      "constant": true
    },
    {
      "inputs": [
        {
          "internalType": "address",
          "name": "_address",
          "type": "address"
        }
      ],
      "name": "setLogicAddress",
      "outputs": [],
      "stateMutability": "nonpayable",
      "type": "function"
    },
    {
      "inputs": [
        {
          "internalType": "bytes32",
          "name": "username",
          "type": "bytes32"
        },
        {
          "internalType": "address",
          "name": "walletAddress",
          "type": "address"
        },
        {
          "internalType": "string",
          "name": "ciphertext",
          "type": "string"
        },
        {
          "internalType": "string",
          "name": "iv",
          "type": "string"
        },
        {
          "internalType": "string",
          "name": "salt",
          "type": "string"
        },
        {
          "internalType": "string",
          "name": "mac",
          "type": "string"
        }
      ],
      "name": "emitEventStoreWallet",
      "outputs": [],
      "stateMutability": "nonpayable",
      "type": "function"
    },
    {
      "inputs": [
        {
          "internalType": "bytes32",
          "name": "creatorUsername",
          "type": "bytes32"
        },
        {
          "internalType": "address",
          "name": "inviteAddress",
          "type": "address"
        }
      ],
      "name": "emitEventInviteCreated",
      "outputs": [],
      "stateMutability": "nonpayable",
      "type": "function"
    },
    {
      "inputs": [
        {
          "internalType": "uint64",
          "name": "appId",
          "type": "uint64"
        },
        {
          "internalType": "bytes32",
          "name": "username",
          "type": "bytes32"
        },
        {
          "internalType": "string",
          "name": "iv",
          "type": "string"
        },
        {
          "internalType": "string",
          "name": "ephemPublicKey",
          "type": "string"
        },
        {
          "internalType": "string",
          "name": "ciphertext",
          "type": "string"
        },
        {
          "internalType": "string",
          "name": "mac",
          "type": "string"
        }
      ],
      "name": "emitEventAppSession",
      "outputs": [],
      "stateMutability": "nonpayable",
      "type": "function"
    },
    {
      "inputs": [
        {
          "internalType": "bytes32",
          "name": "creatorUsername",
          "type": "bytes32"
        },
        {
          "internalType": "uint64",
          "name": "appId",
          "type": "uint64"
        }
      ],
      "name": "emitEventAppCreated",
      "outputs": [],
      "stateMutability": "nonpayable",
      "type": "function"
    },
    {
      "inputs": [
        {
          "internalType": "bytes32",
          "name": "usernameHash",
          "type": "bytes32"
        }
      ],
      "name": "getUser",
      "outputs": [
        {
          "components": [
            {
              "internalType": "bytes32",
              "name": "username",
              "type": "bytes32"
            },
            {
              "internalType": "bool",
              "name": "isActive",
              "type": "bool"
            }
          ],
          "internalType": "struct GetLoginStorage.UserInfo",
          "name": "",
          "type": "tuple"
        }
      ],
      "stateMutability": "view",
      "type": "function",
      "constant": true
    },
    {
      "inputs": [
        {
          "internalType": "bytes32",
          "name": "usernameHash",
          "type": "bytes32"
        },
        {
          "components": [
            {
              "internalType": "bytes32",
              "name": "username",
              "type": "bytes32"
            },
            {
              "internalType": "bool",
              "name": "isActive",
              "type": "bool"
            }
          ],
          "internalType": "struct GetLoginStorage.UserInfo",
          "name": "info",
          "type": "tuple"
        }
      ],
      "name": "setUser",
      "outputs": [],
      "stateMutability": "nonpayable",
      "type": "function"
    },
    {
      "inputs": [
        {
          "internalType": "bytes32",
          "name": "key",
          "type": "bytes32"
        }
      ],
      "name": "getSettings",
      "outputs": [
        {
          "internalType": "string",
          "name": "",
          "type": "string"
        }
      ],
      "stateMutability": "view",
      "type": "function",
      "constant": true
    },
    {
      "inputs": [
        {
          "internalType": "bytes32",
          "name": "key",
          "type": "bytes32"
        },
        {
          "internalType": "string",
          "name": "value",
          "type": "string"
        }
      ],
      "name": "setSettings",
      "outputs": [],
      "stateMutability": "nonpayable",
      "type": "function"
    },
    {
      "inputs": [
        {
          "internalType": "address",
          "name": "_address",
          "type": "address"
        }
      ],
      "name": "getUsersAddressUsername",
      "outputs": [
        {
          "components": [
            {
              "internalType": "bool",
              "name": "isActive",
              "type": "bool"
            },
            {
              "internalType": "bytes32",
              "name": "username",
              "type": "bytes32"
            }
          ],
          "internalType": "struct GetLoginStorage.Username",
          "name": "",
          "type": "tuple"
        }
      ],
      "stateMutability": "view",
      "type": "function",
      "constant": true
    },
    {
      "inputs": [
        {
          "internalType": "address",
          "name": "_address",
          "type": "address"
        },
        {
          "components": [
            {
              "internalType": "bool",
              "name": "isActive",
              "type": "bool"
            },
            {
              "internalType": "bytes32",
              "name": "username",
              "type": "bytes32"
            }
          ],
          "internalType": "struct GetLoginStorage.Username",
          "name": "info",
          "type": "tuple"
        }
      ],
      "name": "setUsersAddressUsername",
      "outputs": [],
      "stateMutability": "nonpayable",
      "type": "function"
    },
    {
      "inputs": [
        {
          "internalType": "uint64",
          "name": "id",
          "type": "uint64"
        }
      ],
      "name": "getApplication",
      "outputs": [
        {
          "components": [
            {
              "internalType": "uint64",
              "name": "id",
              "type": "uint64"
            },
            {
              "internalType": "bytes32",
              "name": "usernameHash",
              "type": "bytes32"
            },
            {
              "internalType": "string",
              "name": "title",
              "type": "string"
            },
            {
              "internalType": "string",
              "name": "description",
              "type": "string"
            },
            {
              "internalType": "string[]",
              "name": "allowedUrls",
              "type": "string[]"
            },
            {
              "internalType": "address[]",
              "name": "allowedContracts",
              "type": "address[]"
            },
            {
              "internalType": "bool",
              "name": "isActive",
              "type": "bool"
            }
          ],
          "internalType": "struct GetLoginStorage.Application",
          "name": "",
          "type": "tuple"
        }
      ],
      "stateMutability": "view",
      "type": "function",
      "constant": true
    },
    {
      "inputs": [
        {
          "internalType": "uint64",
          "name": "id",
          "type": "uint64"
        },
        {
          "components": [
            {
              "internalType": "uint64",
              "name": "id",
              "type": "uint64"
            },
            {
              "internalType": "bytes32",
              "name": "usernameHash",
              "type": "bytes32"
            },
            {
              "internalType": "string",
              "name": "title",
              "type": "string"
            },
            {
              "internalType": "string",
              "name": "description",
              "type": "string"
            },
            {
              "internalType": "string[]",
              "name": "allowedUrls",
              "type": "string[]"
            },
            {
              "internalType": "address[]",
              "name": "allowedContracts",
              "type": "address[]"
            },
            {
              "internalType": "bool",
              "name": "isActive",
              "type": "bool"
            }
          ],
          "internalType": "struct GetLoginStorage.Application",
          "name": "data",
          "type": "tuple"
        }
      ],
      "name": "setApplication",
      "outputs": [],
      "stateMutability": "nonpayable",
      "type": "function"
    },
    {
      "inputs": [],
      "name": "incrementApplicationId",
      "outputs": [],
      "stateMutability": "nonpayable",
      "type": "function"
    },
    {
      "inputs": [
        {
          "internalType": "uint64",
          "name": "id",
          "type": "uint64"
        },
        {
          "internalType": "string",
          "name": "url",
          "type": "string"
        }
      ],
      "name": "pushApplicationUrl",
      "outputs": [],
      "stateMutability": "nonpayable",
      "type": "function"
    },
    {
      "inputs": [
        {
          "internalType": "uint64",
          "name": "id",
          "type": "uint64"
        },
        {
          "internalType": "address",
          "name": "wallet",
          "type": "address"
        }
      ],
      "name": "pushApplicationContract",
      "outputs": [],
      "stateMutability": "nonpayable",
      "type": "function"
    },
    {
      "inputs": [
        {
          "internalType": "uint64",
          "name": "id",
          "type": "uint64"
        },
        {
          "internalType": "uint256",
          "name": "index",
          "type": "uint256"
        }
      ],
      "name": "deleteApplicationUrl",
      "outputs": [],
      "stateMutability": "nonpayable",
      "type": "function"
    },
    {
      "inputs": [
        {
          "internalType": "uint64",
          "name": "id",
          "type": "uint64"
        },
        {
          "internalType": "uint256",
          "name": "index",
          "type": "uint256"
        }
      ],
      "name": "deleteApplicationContract",
      "outputs": [],
      "stateMutability": "nonpayable",
      "type": "function"
    },
    {
      "inputs": [
        {
          "internalType": "bytes32",
          "name": "usernameHash",
          "type": "bytes32"
        },
        {
          "internalType": "address",
          "name": "wallet",
          "type": "address"
        },
        {
          "internalType": "uint8",
          "name": "sessionType",
          "type": "uint8"
        },
        {
          "internalType": "uint64",
          "name": "appId",
          "type": "uint64"
        }
      ],
      "name": "pushUserSession",
      "outputs": [],
      "stateMutability": "nonpayable",
      "type": "function"
    },
    {
      "inputs": [
        {
          "internalType": "address",
          "name": "_address",
          "type": "address"
        }
      ],
      "name": "getInvite",
      "outputs": [
        {
          "components": [
            {
              "internalType": "address",
              "name": "inviteAddress",
              "type": "address"
            },
            {
              "internalType": "bytes32",
              "name": "creatorUsername",
              "type": "bytes32"
            },
            {
              "internalType": "bytes32",
              "name": "registeredUsername",
              "type": "bytes32"
            },
            {
              "internalType": "bool",
              "name": "isActive",
              "type": "bool"
            }
          ],
          "internalType": "struct GetLoginStorage.InviteInfo",
          "name": "",
          "type": "tuple"
        }
      ],
      "stateMutability": "view",
      "type": "function",
      "constant": true
    },
    {
      "inputs": [
        {
          "internalType": "address",
          "name": "_address",
          "type": "address"
        },
        {
          "components": [
            {
              "internalType": "address",
              "name": "inviteAddress",
              "type": "address"
            },
            {
              "internalType": "bytes32",
              "name": "creatorUsername",
              "type": "bytes32"
            },
            {
              "internalType": "bytes32",
              "name": "registeredUsername",
              "type": "bytes32"
            },
            {
              "internalType": "bool",
              "name": "isActive",
              "type": "bool"
            }
          ],
          "internalType": "struct GetLoginStorage.InviteInfo",
          "name": "data",
          "type": "tuple"
        }
      ],
      "name": "setInvite",
      "outputs": [],
      "stateMutability": "nonpayable",
      "type": "function"
    },
    {
      "inputs": [
        {
          "internalType": "bytes32",
          "name": "usernameHash",
          "type": "bytes32"
        }
      ],
      "name": "getUserSessions",
      "outputs": [
        {
          "components": [
            {
              "internalType": "bytes32",
              "name": "username",
              "type": "bytes32"
            },
            {
              "internalType": "address",
              "name": "wallet",
              "type": "address"
            },
            {
              "internalType": "uint8",
              "name": "sessionType",
              "type": "uint8"
            },
            {
              "internalType": "uint64",
              "name": "appId",
              "type": "uint64"
            }
          ],
          "internalType": "struct GetLoginStorage.UserSession[]",
          "name": "",
          "type": "tuple[]"
        }
      ],
      "stateMutability": "view",
      "type": "function",
      "constant": true
    }
  ],
  "bytecode": "0x60806040526001805460a060020a60e060020a0319167401000000000000000000000000000000000000000017905534801561003a57600080fd5b5060008054600160a060020a031916331790556123868061005c6000396000f3fe608060405234801561001057600080fd5b5060043610610202576000357c0100000000000000000000000000000000000000000000000000000000900480638da0c6e31161012c578063b68baa15116100bf578063dce2dd171161008e578063dce2dd17146106c1578063ec46474c146106d4578063f0e881b7146106e7578063fdcfc3ef1461070b57600080fd5b8063b68baa1514610604578063c17b528914610617578063cf1d3e7c1461062a578063dcac263e1461064a57600080fd5b8063a091acb2116100fb578063a091acb214610540578063abc040ca1461058d578063b302e951146105a0578063b3d8b20e146105e457600080fd5b80638da0c6e3146104b05780638da5cb5b146104ef5780639931f4f21461051a5780639c1fcc4c1461052d57600080fd5b80633122da98116101a45780636517579c116101735780636517579c146103e85780636d822b44146104565780636fb89051146104695780638ad104191461047c57600080fd5b80633122da98146102fb57806350d2c00e1461030357806358ad50221461031657806361c65e2c1461032957600080fd5b8063212109e4116101e0578063212109e4146102a25780632226e438146102b55780632ef9adc3146102d55780632f23976c146102e857600080fd5b8063036fbb74146102075780630913be411461021c578063166189e11461022f575b600080fd5b61021a610215366004611d96565b61071e565b005b61021a61022a3660046119d8565b610799565b61027161023d3660046119b6565b6006602052600090815260409020805460018201546002830154600390930154600160a060020a0390921692909160ff1684565b60408051600160a060020a039095168552602085019390935291830152151560608201526080015b60405180910390f35b61021a6102b0366004611d26565b610830565b6102c86102c3366004611d0b565b6108b7565b6040516102999190612104565b61021a6102e3366004611ae2565b610bb9565b61021a6102f6366004611d50565b610c28565b61021a610ca6565b61021a610311366004611dce565b610d1d565b61021a610324366004611c70565b610e16565b6103aa6103373660046119b6565b6040805160808082018352600080835260208084018290528385018290526060938401829052600160a060020a0395861682526006815290849020845192830185528054909516825260018501549082015260028401549281019290925260039092015460ff1615159181019190915290565b60405161029991908151600160a060020a03168152602080830151908201526040808301519082015260609182015115159181019190915260800190565b6104396103f6366004611ac9565b6040805180820190915260008082526020820152506000908152600260209081526040918290208251808401909352805483526001015460ff1615159082015290565b604080518251815260209283015115159281019290925201610299565b61021a610464366004611b0e565b610e71565b61021a610477366004611c29565b610ede565b6001546104979060a060020a900467ffffffffffffffff1681565b60405167ffffffffffffffff9091168152602001610299565b6104da6104be366004611ac9565b6002602052600090815260409020805460019091015460ff1682565b60408051928352901515602083015201610299565b60005461050290600160a060020a031681565b604051600160a060020a039091168152602001610299565b61021a610528366004611bd4565b610f2a565b60015461050290600160a060020a031681565b61055361054e366004611cc6565b61103e565b60408051948552600160a060020a03909316602085015260ff9091169183019190915267ffffffffffffffff166060820152608001610299565b61021a61059b366004611ee6565b6110b2565b6105cd6105ae3660046119b6565b6004602052600090815260409020805460019091015460ff9091169082565b604080519215158352602083019190915201610299565b6105f76105f2366004611ac9565b611137565b6040516102999190611ff5565b61021a610612366004611ce8565b6111fa565b61021a610625366004611a6e565b611262565b61063d610638366004611ac9565b6112c5565b6040516102999190612062565b6106a46106583660046119b6565b604080518082019091526000808252602082015250600160a060020a03166000908152600460209081526040918290208251808401909352805460ff1615158352600101549082015290565b604080518251151581526020928301519281019290925201610299565b61063d6106cf366004611ac9565b61135f565b61021a6106e2366004611ee6565b611401565b6106fa6106f5366004611d0b565b611476565b6040516102999594939291906121b6565b61021a6107193660046119b6565b6115c3565b600154600160a060020a031633146107545760405160e560020a62461bcd02815260040161074b906120cd565b60405180910390fd5b67ffffffffffffffff821660009081526007602090815260408220600401805460018101825590835291819020835161079493919091019184019061164f565b505050565b600154600160a060020a031633146107c65760405160e560020a62461bcd02815260040161074b906120cd565b600160a060020a039182166000908152600660209081526040918290208351815473ffffffffffffffffffffffffffffffffffffffff1916951694909417845582015160018401558101516002830155606001516003909101805460ff1916911515919091179055565b600154600160a060020a0316331461085d5760405160e560020a62461bcd02815260040161074b906120cd565b67ffffffffffffffff91909116600090815260076020908152604082206005018054600181018255908352912001805473ffffffffffffffffffffffffffffffffffffffff1916600160a060020a03909216919091179055565b6109066040518060e00160405280600067ffffffffffffffff16815260200160008019168152602001606081526020016060815260200160608152602001606081526020016000151581525090565b67ffffffffffffffff808316600090815260076020908152604091829020825160e081018452815490941684526001810154918401919091526002810180549192840191610953906122a7565b80601f016020809104026020016040519081016040528092919081815260200182805461097f906122a7565b80156109cc5780601f106109a1576101008083540402835291602001916109cc565b820191906000526020600020905b8154815290600101906020018083116109af57829003601f168201915b505050505081526020016003820180546109e5906122a7565b80601f0160208091040260200160405190810160405280929190818152602001828054610a11906122a7565b8015610a5e5780601f10610a3357610100808354040283529160200191610a5e565b820191906000526020600020905b815481529060010190602001808311610a4157829003601f168201915b5050505050815260200160048201805480602002602001604051908101604052809291908181526020016000905b82821015610b38578382906000526020600020018054610aab906122a7565b80601f0160208091040260200160405190810160405280929190818152602001828054610ad7906122a7565b8015610b245780601f10610af957610100808354040283529160200191610b24565b820191906000526020600020905b815481529060010190602001808311610b0757829003601f168201915b505050505081526020019060010190610a8c565b50505050815260200160058201805480602002602001604051908101604052809291908181526020018280548015610b9957602002820191906000526020600020905b8154600160a060020a03168152600190910190602001808311610b7b575b50505091835250506006919091015460ff16151560209091015292915050565b600154600160a060020a03163314610be65760405160e560020a62461bcd02815260040161074b906120cd565b604051600160a060020a038216815282907ffb9c09af146046471545036a9ad9501d4a212a27e1e3e0135faa553c9da7c64f9060200160405180910390a25050565b600154600160a060020a03163314610c555760405160e560020a62461bcd02815260040161074b906120cd565b848667ffffffffffffffff167fc6a8c53e4ea99f3df3fda387089554e433979928188cd5f060beef10f5097a3486868686604051610c969493929190612075565b60405180910390a3505050505050565b600154600160a060020a03163314610cd35760405160e560020a62461bcd02815260040161074b906120cd565b6001805460a060020a900467ffffffffffffffff16906014610cf4836122e5565b91906101000a81548167ffffffffffffffff021916908367ffffffffffffffff16021790555050565b600154600160a060020a03163314610d4a5760405160e560020a62461bcd02815260040161074b906120cd565b67ffffffffffffffff8281166000908152600760209081526040918290208451815467ffffffffffffffff19169416939093178355838101516001840155908301518051849392610da292600285019291019061164f565b5060608201518051610dbe91600384019160209091019061164f565b5060808201518051610dda9160048401916020909101906116d3565b5060a08201518051610df691600584019160209091019061172c565b5060c091909101516006909101805460ff19169115159190911790555050565b600154600160a060020a03163314610e435760405160e560020a62461bcd02815260040161074b906120cd565b6000918252600260209081526040909220815181559101516001909101805460ff1916911515919091179055565b600154600160a060020a03163314610e9e5760405160e560020a62461bcd02815260040161074b906120cd565b84600160a060020a0316867fa5cc3574bc05315d30d8c2a0c15550ca1a1f667fcc96f1612983e18fbdcee85d86868686604051610c969493929190612075565b600154600160a060020a03163314610f0b5760405160e560020a62461bcd02815260040161074b906120cd565b600082815260036020908152604090912082516107949284019061164f565b600154600160a060020a03163314610f575760405160e560020a62461bcd02815260040161074b906120cd565b60008481526005602090815260408083208151608081018352978852600160a060020a0396871688840190815260ff96871692890192835267ffffffffffffffff95861660608a0190815282546001818101855593875294909520985160029094029098019283559651919096018054965192519093167501000000000000000000000000000000000000000000027fffffff0000000000000000ffffffffffffffffffffffffffffffffffffffffff9290941660a060020a0274ffffffffffffffffffffffffffffffffffffffffff199096169416939093179390931791909116179055565b6005602052816000526040600020818154811061105a57600080fd5b600091825260209091206002909102018054600190910154909250600160a060020a038116915060a060020a810460ff16907501000000000000000000000000000000000000000000900467ffffffffffffffff1684565b600154600160a060020a031633146110df5760405160e560020a62461bcd02815260040161074b906120cd565b67ffffffffffffffff8216600090815260076020526040902060050180548290811061110d5761110d61231e565b6000918252602090912001805473ffffffffffffffffffffffffffffffffffffffff191690555050565b606060056000838152602001908152602001600020805480602002602001604051908101604052809291908181526020016000905b828210156111ef576000848152602090819020604080516080810182526002860290920180548352600190810154600160a060020a0381168486015260a060020a810460ff1692840192909252750100000000000000000000000000000000000000000090910467ffffffffffffffff166060830152908352909201910161116c565b505050509050919050565b600154600160a060020a031633146112275760405160e560020a62461bcd02815260040161074b906120cd565b60405167ffffffffffffffff82169083907f338314ce7f502e7ff312cf1d09a3cd6f5591aa25947b6dbba8da8cf4731e8d0590600090a35050565b600154600160a060020a0316331461128f5760405160e560020a62461bcd02815260040161074b906120cd565b600160a060020a039190911660009081526004602090815260409091208251815460ff1916901515178155910151600190910155565b600360205260009081526040902080546112de906122a7565b80601f016020809104026020016040519081016040528092919081815260200182805461130a906122a7565b80156113575780601f1061132c57610100808354040283529160200191611357565b820191906000526020600020905b81548152906001019060200180831161133a57829003601f168201915b505050505081565b600081815260036020526040902080546060919061137c906122a7565b80601f01602080910402602001604051908101604052809291908181526020018280546113a8906122a7565b80156113f55780601f106113ca576101008083540402835291602001916113f5565b820191906000526020600020905b8154815290600101906020018083116113d857829003601f168201915b50505050509050919050565b600154600160a060020a0316331461142e5760405160e560020a62461bcd02815260040161074b906120cd565b67ffffffffffffffff8216600090815260076020526040902060040180548290811061145c5761145c61231e565b906000526020600020016000611472919061178e565b5050565b60076020526000908152604090208054600182015460028301805467ffffffffffffffff9093169391926114a9906122a7565b80601f01602080910402602001604051908101604052809291908181526020018280546114d5906122a7565b80156115225780601f106114f757610100808354040283529160200191611522565b820191906000526020600020905b81548152906001019060200180831161150557829003601f168201915b505050505090806003018054611537906122a7565b80601f0160208091040260200160405190810160405280929190818152602001828054611563906122a7565b80156115b05780601f10611585576101008083540402835291602001916115b0565b820191906000526020600020905b81548152906001019060200180831161159357829003601f168201915b5050506006909301549192505060ff1685565b600054600160a060020a031633146116205760405160e560020a62461bcd02815260206004820152601760248201527f43616c6c6572206973206e6f7420746865206f776e6572000000000000000000604482015260640161074b565b6001805473ffffffffffffffffffffffffffffffffffffffff1916600160a060020a0392909216919091179055565b82805461165b906122a7565b90600052602060002090601f01602090048101928261167d57600085556116c3565b82601f1061169657805160ff19168380011785556116c3565b828001600101855582156116c3579182015b828111156116c35782518255916020019190600101906116a8565b506116cf9291506117cb565b5090565b828054828255906000526020600020908101928215611720579160200282015b82811115611720578251805161171091849160209091019061164f565b50916020019190600101906116f3565b506116cf9291506117e0565b8280548282559060005260206000209081019282156116c3579160200282015b828111156116c3578251825473ffffffffffffffffffffffffffffffffffffffff1916600160a060020a0390911617825560209092019160019091019061174c565b50805461179a906122a7565b6000825580601f106117aa575050565b601f0160209004906000526020600020908101906117c891906117cb565b50565b5b808211156116cf57600081556001016117cc565b808211156116cf5760006117f4828261178e565b506001016117e0565b8035600160a060020a038116811461181457600080fd5b919050565b600082601f83011261182a57600080fd5b8135602061183f61183a83612283565b612252565b828152818101908583018385028701840188101561185c57600080fd5b60005b8581101561188257611870826117fd565b8452928401929084019060010161185f565b5090979650505050505050565b600082601f8301126118a057600080fd5b813560206118b061183a83612283565b82815281810190858301838502870184018810156118cd57600080fd5b6000805b8681101561191057823567ffffffffffffffff8111156118ef578283fd5b6118fd8b88838d010161192e565b86525093850193918501916001016118d1565b509198975050505050505050565b8035801515811461181457600080fd5b600082601f83011261193f57600080fd5b813567ffffffffffffffff81111561195957611959612337565b61196c601f8201601f1916602001612252565b81815284602083860101111561198157600080fd5b816020850160208301376000918101602001919091529392505050565b803567ffffffffffffffff8116811461181457600080fd5b6000602082840312156119c857600080fd5b6119d1826117fd565b9392505050565b60008082840360a08112156119ec57600080fd5b6119f5846117fd565b92506080601f1982011215611a0957600080fd5b506040516080810181811067ffffffffffffffff82111715611a2d57611a2d612337565b604052611a3c602085016117fd565b81526040840135602082015260608401356040820152611a5e6080850161191e565b6060820152809150509250929050565b6000808284036060811215611a8257600080fd5b611a8b846117fd565b92506040601f1982011215611a9f57600080fd5b50611aa8612206565b611ab46020850161191e565b81526040939093013560208401525092909150565b600060208284031215611adb57600080fd5b5035919050565b60008060408385031215611af557600080fd5b82359150611b05602084016117fd565b90509250929050565b60008060008060008060c08789031215611b2757600080fd5b86359550611b37602088016117fd565b9450604087013567ffffffffffffffff80821115611b5457600080fd5b611b608a838b0161192e565b95506060890135915080821115611b7657600080fd5b611b828a838b0161192e565b94506080890135915080821115611b9857600080fd5b611ba48a838b0161192e565b935060a0890135915080821115611bba57600080fd5b50611bc789828a0161192e565b9150509295509295509295565b60008060008060808587031215611bea57600080fd5b84359350611bfa602086016117fd565b9250604085013560ff81168114611c1057600080fd5b9150611c1e6060860161199e565b905092959194509250565b60008060408385031215611c3c57600080fd5b82359150602083013567ffffffffffffffff811115611c5a57600080fd5b611c668582860161192e565b9150509250929050565b6000808284036060811215611c8457600080fd5b833592506040601f1982011215611c9a57600080fd5b50611ca3612206565b60208401358152611cb66040850161191e565b6020820152809150509250929050565b60008060408385031215611cd957600080fd5b50508035926020909101359150565b60008060408385031215611cfb57600080fd5b82359150611b056020840161199e565b600060208284031215611d1d57600080fd5b6119d18261199e565b60008060408385031215611d3957600080fd5b611d428361199e565b9150611b05602084016117fd565b60008060008060008060c08789031215611d6957600080fd5b611d728761199e565b955060208701359450604087013567ffffffffffffffff80821115611b5457600080fd5b60008060408385031215611da957600080fd5b611db28361199e565b9150602083013567ffffffffffffffff811115611c5a57600080fd5b60008060408385031215611de157600080fd5b611dea8361199e565b9150602083013567ffffffffffffffff80821115611e0757600080fd5b9084019060e08287031215611e1b57600080fd5b611e2361222f565b611e2c8361199e565b815260208301356020820152604083013582811115611e4a57600080fd5b611e568882860161192e565b604083015250606083013582811115611e6e57600080fd5b611e7a8882860161192e565b606083015250608083013582811115611e9257600080fd5b611e9e8882860161188f565b60808301525060a083013582811115611eb657600080fd5b611ec288828601611819565b60a083015250611ed460c0840161191e565b60c08201528093505050509250929050565b60008060408385031215611ef957600080fd5b611f028361199e565b946020939093013593505050565b600081518084526020808501945080840160005b83811015611f49578151600160a060020a031687529582019590820190600101611f24565b509495945050505050565b600081518084526020808501808196508284028101915082860160005b85811015611f9b578284038952611f89848351611fa8565b98850198935090840190600101611f71565b5091979650505050505050565b6000815180845260005b81811015611fce57602081850181015186830182015201611fb2565b81811115611fe0576000602083870101525b50601f01601f19169290920160200192915050565b602080825282518282018190526000919060409081850190868401855b82811015611f9b5781518051855286810151600160a060020a0316878601528581015160ff168686015260609081015167ffffffffffffffff169085015260809093019290850190600101612012565b6020815260006119d16020830184611fa8565b6080815260006120886080830187611fa8565b828103602084015261209a8187611fa8565b905082810360408401526120ae8186611fa8565b905082810360608401526120c28185611fa8565b979650505050505050565b6020808252601f908201527f43616c6c6572206973206e6f7420746865206c6f676963206164647265737300604082015260600190565b6020815267ffffffffffffffff8251166020820152602082015160408201526000604083015160e0606084015261213f610100840182611fa8565b90506060840151601f198085840301608086015261215d8383611fa8565b925060808601519150808584030160a086015261217a8383611f54565b925060a08601519150808584030160c0860152506121988282611f10565b91505060c08401516121ae60e085018215159052565b509392505050565b67ffffffffffffffff8616815284602082015260a0604082015260006121df60a0830186611fa8565b82810360608401526121f18186611fa8565b91505082151560808301529695505050505050565b6040805190810167ffffffffffffffff8111828210171561222957612229612337565b60405290565b60405160e0810167ffffffffffffffff8111828210171561222957612229612337565b604051601f8201601f1916810167ffffffffffffffff8111828210171561227b5761227b612337565b604052919050565b600067ffffffffffffffff82111561229d5761229d612337565b5060209081020190565b6002810460018216806122bb57607f821691505b602082108114156122df5760e060020a634e487b7102600052602260045260246000fd5b50919050565b600067ffffffffffffffff808316818114156123145760e060020a634e487b7102600052601160045260246000fd5b6001019392505050565b60e060020a634e487b7102600052603260045260246000fd5b60e060020a634e487b7102600052604160045260246000fdfea26469706673582212204d48ab533cb052f8bab2c6bb68c52bc5bce315ac4bb854138503e28bc911ed4164736f6c63430008070033",
  "immutableReferences": {},
  "source": "// SPDX-License-Identifier: UNLICENSED\npragma solidity ^0.8.7;\n//pragma experimental ABIEncoderV2;\n\ncontract GetLoginStorage {\n    address public owner;\n    address public logicAddress;\n\n    constructor () {\n        owner = msg.sender;\n    }\n\n    modifier onlyOwner() {\n        require(msg.sender == owner, \"Caller is not the owner\");\n        _;\n    }\n\n    modifier onlyLogicAddress() {\n        require(msg.sender == logicAddress, \"Caller is not the logic address\");\n        _;\n    }\n\n    event EventStoreWallet(bytes32 indexed username, address indexed walletAddress, string ciphertext, string iv, string salt, string mac);\n    event EventInviteCreated(bytes32 indexed creatorUsername, address inviteAddress);\n    event EventAppSession(uint64 indexed appId, bytes32 indexed username, string iv, string ephemPublicKey, string ciphertext, string mac);\n    event EventAppCreated(bytes32 indexed creatorUsername, uint64 indexed appId);\n\n    struct Username\n    {\n        bool isActive;\n        // todo define a uniform variable name\n        bytes32 username;\n    }\n\n    struct UserInfo\n    {\n        // todo define a uniform variable name\n        bytes32 username;\n        bool isActive;\n    }\n\n    struct InviteInfo\n    {\n        address inviteAddress;\n        // todo define a uniform variable name\n        bytes32 creatorUsername;\n        bytes32 registeredUsername;\n        bool isActive;\n    }\n\n    struct UserSession\n    {\n        // todo define a uniform variable name\n        bytes32 username;\n        address wallet;\n        uint8 sessionType;\n        uint64 appId;\n    }\n\n    struct Application\n    {\n        uint64 id;\n        // todo define a uniform variable name (usernameHash or username)\n        bytes32 usernameHash;\n        string title;\n        string description;\n        string[] allowedUrls;\n        address[] allowedContracts;\n        bool isActive;\n    }\n\n    uint64 public applicationId = 1;\n\n    mapping(bytes32 => UserInfo) public Users;\n    mapping(bytes32 => string) public UsersSettings;\n    mapping(address => Username) public UsersAddressUsername;\n    mapping(bytes32 => UserSession[]) public UserSessions;\n    mapping(address => InviteInfo) public Invites;\n    mapping(uint64 => Application) public Applications;\n\n    function setLogicAddress(address _address) onlyOwner public {\n        logicAddress = _address;\n    }\n\n    function emitEventStoreWallet(bytes32 username, address walletAddress, string memory ciphertext, string memory iv, string memory salt, string memory mac) onlyLogicAddress public {\n        emit EventStoreWallet(username, walletAddress, ciphertext, iv, salt, mac);\n    }\n\n    function emitEventInviteCreated(bytes32 creatorUsername, address inviteAddress) onlyLogicAddress public {\n        emit EventInviteCreated(creatorUsername, inviteAddress);\n    }\n\n    function emitEventAppSession(uint64 appId, bytes32 username, string memory iv, string memory ephemPublicKey, string memory ciphertext, string memory mac) onlyLogicAddress public {\n        emit EventAppSession(appId, username, iv, ephemPublicKey, ciphertext, mac);\n    }\n\n    function emitEventAppCreated(bytes32 creatorUsername, uint64 appId) onlyLogicAddress public {\n        emit EventAppCreated(creatorUsername, appId);\n    }\n\n    function getUser(bytes32 usernameHash) public view returns (UserInfo memory){\n        return Users[usernameHash];\n    }\n\n    function setUser(bytes32 usernameHash, UserInfo memory info) onlyLogicAddress public {\n        Users[usernameHash] = info;\n    }\n\n    function getSettings(bytes32 key) public view returns (string memory){\n        return UsersSettings[key];\n    }\n\n    function setSettings(bytes32 key, string memory value) onlyLogicAddress public {\n        UsersSettings[key] = value;\n    }\n\n    function getUsersAddressUsername(address _address) public view returns (Username memory){\n        return UsersAddressUsername[_address];\n    }\n\n    function setUsersAddressUsername(address _address, Username memory info) onlyLogicAddress public {\n        UsersAddressUsername[_address] = info;\n    }\n\n    function getApplication(uint64 id) public view returns (Application memory){\n        return Applications[id];\n    }\n\n    function setApplication(uint64 id, Application memory data) onlyLogicAddress public {\n        Applications[id] = data;\n    }\n\n    function incrementApplicationId() onlyLogicAddress public {\n        applicationId++;\n    }\n\n    function pushApplicationUrl(uint64 id, string memory url) onlyLogicAddress public {\n        Applications[id].allowedUrls.push(url);\n    }\n\n    function pushApplicationContract(uint64 id, address wallet) onlyLogicAddress public {\n        Applications[id].allowedContracts.push(wallet);\n    }\n\n    function deleteApplicationUrl(uint64 id, uint index) onlyLogicAddress public {\n        delete Applications[id].allowedUrls[index];\n    }\n\n    function deleteApplicationContract(uint64 id, uint index) onlyLogicAddress public {\n        delete Applications[id].allowedContracts[index];\n    }\n\n    function pushUserSession(bytes32 usernameHash, address wallet, uint8 sessionType, uint64 appId) onlyLogicAddress public {\n        UserSessions[usernameHash].push(UserSession({username : usernameHash, wallet : wallet, sessionType : sessionType, appId : appId}));\n    }\n\n    function getInvite(address _address) public view returns (InviteInfo memory){\n        return Invites[_address];\n    }\n\n    function setInvite(address _address, InviteInfo memory data) onlyLogicAddress public {\n        Invites[_address] = data;\n    }\n\n    function getUserSessions(bytes32 usernameHash) public view returns (UserSession[] memory){\n        return UserSessions[usernameHash];\n    }\n}\n",
  "sourcePath": "/Users/sdancer/web/login/src/smart/contracts/GetLoginStorage.sol",
  "compiler": {
    "name": "solc",
    "version": "0.8.7+commit.e28d00a7.Emscripten.clang"
  },
  "schemaVersion": "3.4.3",
  "updatedAt": "2021-08-18T08:56:35.937Z",
  "networkType": "ethereum",
  "devdoc": {
    "kind": "dev",
    "methods": {},
    "version": 1
  },
  "userdoc": {
    "kind": "user",
    "methods": {},
    "version": 1
  }
}