{
  "contractName": "GetLoginLogic",
  "abi": [
    {
      "inputs": [
        {
          "internalType": "contract GetLoginStorage",
          "name": "_getLoginStorage",
          "type": "address"
        }
      ],
      "stateMutability": "nonpayable",
      "type": "constructor"
    },
    {
      "inputs": [],
      "name": "getLoginStorage",
      "outputs": [
        {
          "internalType": "contract GetLoginStorage",
          "name": "",
          "type": "address"
        }
      ],
      "stateMutability": "view",
      "type": "function"
    },
    {
      "inputs": [],
      "name": "owner",
      "outputs": [
        {
          "internalType": "address",
          "name": "",
          "type": "address"
        }
      ],
      "stateMutability": "view",
      "type": "function"
    },
    {
      "inputs": [
        {
          "internalType": "address",
          "name": "_address",
          "type": "address"
        }
      ],
      "name": "setOwner",
      "outputs": [],
      "stateMutability": "nonpayable",
      "type": "function"
    },
    {
      "inputs": [
        {
          "internalType": "contract GetLoginStorage",
          "name": "_address",
          "type": "address"
        }
      ],
      "name": "setStorageAddress",
      "outputs": [],
      "stateMutability": "nonpayable",
      "type": "function"
    },
    {
      "inputs": [],
      "name": "init",
      "outputs": [],
      "stateMutability": "nonpayable",
      "type": "function"
    },
    {
      "inputs": [
        {
          "internalType": "uint64",
          "name": "_appId",
          "type": "uint64"
        },
        {
          "internalType": "address",
          "name": "_wallet",
          "type": "address"
        }
      ],
      "name": "validateAppOwner",
      "outputs": [],
      "stateMutability": "view",
      "type": "function"
    },
    {
      "inputs": [
        {
          "internalType": "uint64",
          "name": "_appId",
          "type": "uint64"
        }
      ],
      "name": "validateAppExists",
      "outputs": [],
      "stateMutability": "view",
      "type": "function"
    },
    {
      "inputs": [
        {
          "internalType": "address",
          "name": "_address",
          "type": "address"
        }
      ],
      "name": "validateInviteActive",
      "outputs": [],
      "stateMutability": "view",
      "type": "function"
    },
    {
      "inputs": [
        {
          "internalType": "address",
          "name": "_address",
          "type": "address"
        }
      ],
      "name": "validateAddressRegistered",
      "outputs": [],
      "stateMutability": "view",
      "type": "function"
    },
    {
      "inputs": [
        {
          "internalType": "address",
          "name": "_address",
          "type": "address"
        }
      ],
      "name": "validateMainAddress",
      "outputs": [],
      "stateMutability": "view",
      "type": "function"
    },
    {
      "inputs": [
        {
          "internalType": "address",
          "name": "_address",
          "type": "address"
        }
      ],
      "name": "validateAddressAvailable",
      "outputs": [],
      "stateMutability": "view",
      "type": "function"
    },
    {
      "inputs": [
        {
          "internalType": "address",
          "name": "_address",
          "type": "address"
        }
      ],
      "name": "validateInviteAvailable",
      "outputs": [],
      "stateMutability": "view",
      "type": "function"
    },
    {
      "inputs": [
        {
          "internalType": "string",
          "name": "_title",
          "type": "string"
        },
        {
          "internalType": "string",
          "name": "_description",
          "type": "string"
        },
        {
          "internalType": "string[]",
          "name": "_allowedUrls",
          "type": "string[]"
        },
        {
          "internalType": "address[]",
          "name": "_allowedContracts",
          "type": "address[]"
        }
      ],
      "name": "createApplication",
      "outputs": [
        {
          "internalType": "uint64",
          "name": "",
          "type": "uint64"
        }
      ],
      "stateMutability": "nonpayable",
      "type": "function"
    },
    {
      "inputs": [
        {
          "internalType": "uint64",
          "name": "_appId",
          "type": "uint64"
        },
        {
          "internalType": "string",
          "name": "_title",
          "type": "string"
        },
        {
          "internalType": "string",
          "name": "_description",
          "type": "string"
        },
        {
          "internalType": "string[]",
          "name": "_allowedUrls",
          "type": "string[]"
        },
        {
          "internalType": "address[]",
          "name": "_allowedContracts",
          "type": "address[]"
        }
      ],
      "name": "editApplication",
      "outputs": [],
      "stateMutability": "nonpayable",
      "type": "function"
    },
    {
      "inputs": [
        {
          "internalType": "uint64",
          "name": "_appId",
          "type": "uint64"
        },
        {
          "internalType": "string",
          "name": "_url",
          "type": "string"
        }
      ],
      "name": "addApplicationUrl",
      "outputs": [],
      "stateMutability": "nonpayable",
      "type": "function"
    },
    {
      "inputs": [
        {
          "internalType": "uint64",
          "name": "_appId",
          "type": "uint64"
        },
        {
          "internalType": "address",
          "name": "_address",
          "type": "address"
        }
      ],
      "name": "addApplicationContract",
      "outputs": [],
      "stateMutability": "nonpayable",
      "type": "function"
    },
    {
      "inputs": [
        {
          "internalType": "uint64",
          "name": "_appId",
          "type": "uint64"
        },
        {
          "internalType": "uint256",
          "name": "_index",
          "type": "uint256"
        }
      ],
      "name": "deleteApplicationUrl",
      "outputs": [],
      "stateMutability": "nonpayable",
      "type": "function"
    },
    {
      "inputs": [
        {
          "internalType": "uint64",
          "name": "_appId",
          "type": "uint64"
        },
        {
          "internalType": "uint256",
          "name": "_index",
          "type": "uint256"
        }
      ],
      "name": "deleteApplicationContract",
      "outputs": [],
      "stateMutability": "nonpayable",
      "type": "function"
    },
    {
      "inputs": [
        {
          "internalType": "uint64",
          "name": "_appId",
          "type": "uint64"
        }
      ],
      "name": "deleteApplication",
      "outputs": [],
      "stateMutability": "nonpayable",
      "type": "function"
    },
    {
      "inputs": [
        {
          "internalType": "uint64",
          "name": "_appId",
          "type": "uint64"
        }
      ],
      "name": "restoreApplication",
      "outputs": [],
      "stateMutability": "nonpayable",
      "type": "function"
    },
    {
      "inputs": [
        {
          "internalType": "bytes32",
          "name": "_usernameHash",
          "type": "bytes32"
        }
      ],
      "name": "createUser",
      "outputs": [],
      "stateMutability": "payable",
      "type": "function"
    },
    {
      "inputs": [
        {
          "internalType": "address payable",
          "name": "_newOwner",
          "type": "address"
        }
      ],
      "name": "changeUserOwner",
      "outputs": [],
      "stateMutability": "payable",
      "type": "function"
    },
    {
      "inputs": [
        {
          "internalType": "address payable[]",
          "name": "_invites",
          "type": "address[]"
        }
      ],
      "name": "createInvite",
      "outputs": [],
      "stateMutability": "payable",
      "type": "function"
    },
    {
      "inputs": [
        {
          "internalType": "bytes32",
          "name": "_usernameHash",
          "type": "bytes32"
        },
        {
          "internalType": "address payable",
          "name": "_walletAddress",
          "type": "address"
        },
        {
          "internalType": "string",
          "name": "_ciphertext",
          "type": "string"
        },
        {
          "internalType": "string",
          "name": "_iv",
          "type": "string"
        },
        {
          "internalType": "string",
          "name": "_salt",
          "type": "string"
        },
        {
          "internalType": "string",
          "name": "_mac",
          "type": "string"
        },
        {
          "internalType": "bool",
          "name": "_allowReset",
          "type": "bool"
        }
      ],
      "name": "createUserFromInvite",
      "outputs": [],
      "stateMutability": "payable",
      "type": "function"
    },
    {
      "inputs": [
        {
          "internalType": "address payable",
          "name": "_newAddress",
          "type": "address"
        },
        {
          "internalType": "string",
          "name": "_ciphertext",
          "type": "string"
        },
        {
          "internalType": "string",
          "name": "_iv",
          "type": "string"
        },
        {
          "internalType": "string",
          "name": "_salt",
          "type": "string"
        },
        {
          "internalType": "string",
          "name": "_mac",
          "type": "string"
        },
        {
          "components": [
            {
              "internalType": "uint64",
              "name": "appId",
              "type": "uint64"
            },
            {
              "internalType": "string",
              "name": "iv",
              "type": "string"
            },
            {
              "internalType": "string",
              "name": "ephemPublicKey",
              "type": "string"
            },
            {
              "internalType": "string",
              "name": "ciphertext",
              "type": "string"
            },
            {
              "internalType": "string",
              "name": "mac",
              "type": "string"
            }
          ],
          "internalType": "struct GetLoginLogic.SessionData[]",
          "name": "_sessions",
          "type": "tuple[]"
        }
      ],
      "name": "changePassword",
      "outputs": [],
      "stateMutability": "payable",
      "type": "function"
    },
    {
      "inputs": [
        {
          "internalType": "address payable",
          "name": "_newAddress",
          "type": "address"
        },
        {
          "internalType": "string",
          "name": "_ciphertext",
          "type": "string"
        },
        {
          "internalType": "string",
          "name": "_iv",
          "type": "string"
        },
        {
          "internalType": "string",
          "name": "_salt",
          "type": "string"
        },
        {
          "internalType": "string",
          "name": "_mac",
          "type": "string"
        }
      ],
      "name": "resetPassword",
      "outputs": [],
      "stateMutability": "payable",
      "type": "function"
    },
    {
      "inputs": [
        {
          "internalType": "uint64",
          "name": "_appId",
          "type": "uint64"
        },
        {
          "internalType": "address payable",
          "name": "_sessionAddress",
          "type": "address"
        },
        {
          "internalType": "string",
          "name": "_iv",
          "type": "string"
        },
        {
          "internalType": "string",
          "name": "_ephemPublicKey",
          "type": "string"
        },
        {
          "internalType": "string",
          "name": "_ciphertext",
          "type": "string"
        },
        {
          "internalType": "string",
          "name": "_mac",
          "type": "string"
        }
      ],
      "name": "createAppSession",
      "outputs": [],
      "stateMutability": "payable",
      "type": "function"
    },
    {
      "inputs": [
        {
          "internalType": "uint64",
          "name": "_appId",
          "type": "uint64"
        },
        {
          "internalType": "address payable",
          "name": "_sessionAddress",
          "type": "address"
        }
      ],
      "name": "createSimpleAppSession",
      "outputs": [],
      "stateMutability": "payable",
      "type": "function"
    },
    {
      "inputs": [
        {
          "internalType": "string",
          "name": "_value",
          "type": "string"
        }
      ],
      "name": "setInviteReset",
      "outputs": [],
      "stateMutability": "nonpayable",
      "type": "function"
    },
    {
      "inputs": [
        {
          "internalType": "string",
          "name": "value",
          "type": "string"
        }
      ],
      "name": "setGlobalOnlyInvites",
      "outputs": [],
      "stateMutability": "nonpayable",
      "type": "function"
    },
    {
      "inputs": [
        {
          "internalType": "uint64",
          "name": "_id",
          "type": "uint64"
        }
      ],
      "name": "getApplication",
      "outputs": [
        {
          "components": [
            {
              "internalType": "uint64",
              "name": "id",
              "type": "uint64"
            },
            {
              "internalType": "bytes32",
              "name": "usernameHash",
              "type": "bytes32"
            },
            {
              "internalType": "string",
              "name": "title",
              "type": "string"
            },
            {
              "internalType": "string",
              "name": "description",
              "type": "string"
            },
            {
              "internalType": "string[]",
              "name": "allowedUrls",
              "type": "string[]"
            },
            {
              "internalType": "address[]",
              "name": "allowedContracts",
              "type": "address[]"
            },
            {
              "internalType": "bool",
              "name": "isActive",
              "type": "bool"
            }
          ],
          "internalType": "struct GetLoginStorage.Application",
          "name": "",
          "type": "tuple"
        }
      ],
      "stateMutability": "view",
      "type": "function"
    },
    {
      "inputs": [
        {
          "internalType": "bytes32",
          "name": "_usernameHash",
          "type": "bytes32"
        }
      ],
      "name": "getUserInfo",
      "outputs": [
        {
          "components": [
            {
              "internalType": "bytes32",
              "name": "username",
              "type": "bytes32"
            },
            {
              "internalType": "address",
              "name": "mainAddress",
              "type": "address"
            },
            {
              "internalType": "bool",
              "name": "isActive",
              "type": "bool"
            }
          ],
          "internalType": "struct GetLoginStorage.UserInfo",
          "name": "",
          "type": "tuple"
        }
      ],
      "stateMutability": "view",
      "type": "function"
    },
    {
      "inputs": [
        {
          "internalType": "bytes32",
          "name": "_usernameHash",
          "type": "bytes32"
        }
      ],
      "name": "isUsernameExists",
      "outputs": [
        {
          "internalType": "bool",
          "name": "",
          "type": "bool"
        }
      ],
      "stateMutability": "view",
      "type": "function"
    },
    {
      "inputs": [
        {
          "internalType": "address",
          "name": "_address",
          "type": "address"
        }
      ],
      "name": "isAddressRegistered",
      "outputs": [
        {
          "internalType": "bool",
          "name": "",
          "type": "bool"
        }
      ],
      "stateMutability": "view",
      "type": "function"
    },
    {
      "inputs": [
        {
          "internalType": "uint64",
          "name": "_appId",
          "type": "uint64"
        },
        {
          "internalType": "address",
          "name": "_checkAddress",
          "type": "address"
        }
      ],
      "name": "isAppOwner",
      "outputs": [
        {
          "internalType": "bool",
          "name": "",
          "type": "bool"
        }
      ],
      "stateMutability": "view",
      "type": "function"
    },
    {
      "inputs": [
        {
          "internalType": "address",
          "name": "_address",
          "type": "address"
        }
      ],
      "name": "getUserByAddress",
      "outputs": [
        {
          "components": [
            {
              "internalType": "bytes32",
              "name": "username",
              "type": "bytes32"
            },
            {
              "internalType": "address",
              "name": "mainAddress",
              "type": "address"
            },
            {
              "internalType": "bool",
              "name": "isActive",
              "type": "bool"
            }
          ],
          "internalType": "struct GetLoginStorage.UserInfo",
          "name": "",
          "type": "tuple"
        }
      ],
      "stateMutability": "view",
      "type": "function"
    },
    {
      "inputs": [
        {
          "internalType": "address",
          "name": "_address",
          "type": "address"
        }
      ],
      "name": "getUsernameByAddress",
      "outputs": [
        {
          "internalType": "bytes32",
          "name": "",
          "type": "bytes32"
        }
      ],
      "stateMutability": "view",
      "type": "function"
    },
    {
      "inputs": [
        {
          "internalType": "address",
          "name": "_address",
          "type": "address"
        }
      ],
      "name": "isActiveInvite",
      "outputs": [
        {
          "internalType": "bool",
          "name": "",
          "type": "bool"
        }
      ],
      "stateMutability": "view",
      "type": "function"
    },
    {
      "inputs": [
        {
          "internalType": "address",
          "name": "_address",
          "type": "address"
        }
      ],
      "name": "isInviteAddressUsed",
      "outputs": [
        {
          "internalType": "bool",
          "name": "",
          "type": "bool"
        }
      ],
      "stateMutability": "view",
      "type": "function"
    },
    {
      "inputs": [
        {
          "internalType": "address",
          "name": "_address",
          "type": "address"
        }
      ],
      "name": "getInvite",
      "outputs": [
        {
          "components": [
            {
              "internalType": "address",
              "name": "inviteAddress",
              "type": "address"
            },
            {
              "internalType": "bytes32",
              "name": "creatorUsername",
              "type": "bytes32"
            },
            {
              "internalType": "bytes32",
              "name": "registeredUsername",
              "type": "bytes32"
            },
            {
              "internalType": "bool",
              "name": "isActive",
              "type": "bool"
            }
          ],
          "internalType": "struct GetLoginStorage.InviteInfo",
          "name": "",
          "type": "tuple"
        }
      ],
      "stateMutability": "view",
      "type": "function"
    },
    {
      "inputs": [
        {
          "internalType": "uint64",
          "name": "_appId",
          "type": "uint64"
        },
        {
          "internalType": "bytes32",
          "name": "_usernameHash",
          "type": "bytes32"
        }
      ],
      "name": "getAppSessions",
      "outputs": [
        {
          "components": [
            {
              "internalType": "bytes32",
              "name": "username",
              "type": "bytes32"
            },
            {
              "internalType": "address",
              "name": "wallet",
              "type": "address"
            },
            {
              "internalType": "uint64",
              "name": "appId",
              "type": "uint64"
            },
            {
              "internalType": "bool",
              "name": "isActive",
              "type": "bool"
            }
          ],
          "internalType": "struct GetLoginStorage.AppSession[]",
          "name": "",
          "type": "tuple[]"
        }
      ],
      "stateMutability": "view",
      "type": "function"
    },
    {
      "inputs": [
        {
          "internalType": "bytes32",
          "name": "_usernameHash",
          "type": "bytes32"
        }
      ],
      "name": "getAllSettings",
      "outputs": [
        {
          "components": [
            {
              "internalType": "string",
              "name": "inviteReset",
              "type": "string"
            }
          ],
          "internalType": "struct GetLoginLogic.SettingsData",
          "name": "",
          "type": "tuple"
        }
      ],
      "stateMutability": "view",
      "type": "function"
    },
    {
      "inputs": [
        {
          "internalType": "bytes32",
          "name": "_usernameHash",
          "type": "bytes32"
        },
        {
          "internalType": "string",
          "name": "_key",
          "type": "string"
        }
      ],
      "name": "getSettings",
      "outputs": [
        {
          "internalType": "string",
          "name": "",
          "type": "string"
        }
      ],
      "stateMutability": "view",
      "type": "function"
    },
    {
      "inputs": [
        {
          "internalType": "string",
          "name": "_key",
          "type": "string"
        }
      ],
      "name": "getGlobalSettings",
      "outputs": [
        {
          "internalType": "string",
          "name": "",
          "type": "string"
        }
      ],
      "stateMutability": "view",
      "type": "function"
    },
    {
      "inputs": [
        {
          "internalType": "bytes32",
          "name": "_usernameHash",
          "type": "bytes32"
        }
      ],
      "name": "getInviteReset",
      "outputs": [
        {
          "internalType": "string",
          "name": "",
          "type": "string"
        }
      ],
      "stateMutability": "view",
      "type": "function"
    }
  ],
  "bytecode": "0x60c0604052600c60808190527f696e766974655f7265736574000000000000000000000000000000000000000060a0908152620000409160029190620000fb565b5060408051808201909152600c8082527f696e76697465735f6f6e6c79000000000000000000000000000000000000000060209092019182526200008791600391620000fb565b506004805461ffff1916610201179055348015620000a457600080fd5b506040516200517c3803806200517c833981016040819052620000c791620001a1565b6001805433600160a060020a03199182161790915560008054909116600160a060020a039290921691909117905562000229565b8280546200010990620001d3565b90600052602060002090601f0160209004810192826200012d576000855562000178565b82601f106200014857805160ff191683800117855562000178565b8280016001018555821562000178579182015b82811115620001785782518255916020019190600101906200015b565b50620001869291506200018a565b5090565b5b808211156200018657600081556001016200018b565b600060208284031215620001b457600080fd5b8151600160a060020a0381168114620001cc57600080fd5b9392505050565b600281046001821680620001e857607f821691505b6020821081141562000223577f4e487b7100000000000000000000000000000000000000000000000000000000600052602260045260246000fd5b50919050565b614f4380620002396000396000f3fe60806040526004361061028f576000357c0100000000000000000000000000000000000000000000000000000000900480637419d9341161016c578063b94f28d2116100de578063e90d038e11610097578063e90d038e14610797578063ec46474c146107b7578063ed1a998d146107d7578063ef32358d14610805578063fd8991cc14610825578063ff6e97401461084557600080fd5b8063b94f28d2146106ef578063c5ee27401461070f578063cc35c9fc14610722578063db939c7514610742578063df8c18d114610762578063e1c7392a1461078257600080fd5b80638da5cb5b116101305780638da5cb5b1461063c578063a182c7361461065c578063abc040ca1461067c578063abf7bfd81461069c578063ac7a3cc0146106af578063adff8b0f146106cf57600080fd5b80637419d934146105845780637b06c09c146105bc578063863f99b6146105dc578063880faf6f146105fc5780638c3ab3811461061c57600080fd5b80634cb818031161020557806364e34e11116101c957806364e34e11146104d15780636768fcd3146104f157806369c212f6146105045780636b51503b146105315780636f79bc801461055157806370eb88661461057157600080fd5b80634cb81803146104175780634d96d3b51461044457806359b910d6146104575780635c22f47d1461047757806361c65e2c146104a457600080fd5b80631be7c3bd116102575780631be7c3bd1461034b5780631c964f971461038457806320909093146103a45780632226e438146103b757806338b6a3a1146103e457806349395fe71461040457600080fd5b8063117714be1461029457806313af4035146102c957806314332258146102eb5780631618ddab1461030b57806316e4f57a1461031e575b600080fd5b3480156102a057600080fd5b506102b46102af366004613def565b610865565b60405190151581526020015b60405180910390f35b3480156102d557600080fd5b506102e96102e4366004613def565b6108f1565b005b3480156102f757600080fd5b506102e9610306366004613def565b610956565b6102e9610319366004613ecc565b6109d7565b34801561032a57600080fd5b5061033e610339366004614133565b610ba5565b6040516102c09190614c03565b34801561035757600080fd5b5061036b6103663660046142d5565b610bd0565b60405167ffffffffffffffff90911681526020016102c0565b34801561039057600080fd5b506102e961039f3660046146e5565b610bff565b6102e96103b236600461414c565b610c20565b3480156103c357600080fd5b506103d76103d2366004614586565b610f72565b6040516102c09190614bba565b3480156103f057600080fd5b506102b46103ff366004613def565b61105c565b6102e9610412366004613fad565b6111a1565b34801561042357600080fd5b5061043761043236600461426b565b611439565b6040516102c09190614b29565b6102e9610452366004613def565b611505565b34801561046357600080fd5b506102e9610472366004613def565b6115dd565b34801561048357600080fd5b506104976104923660046146b9565b611639565b6040516102c091906149a8565b3480156104b057600080fd5b506104c46104bf366004613def565b6116e3565b6040516102c09190614bcd565b3480156104dd57600080fd5b506102b46104ec3660046145c0565b611787565b6102e96104ff366004613e0c565b611831565b34801561051057600080fd5b5061052461051f366004613def565b611c11565b6040516102c09190614c1e565b34801561053d57600080fd5b5061043761054c366004614133565b611da3565b34801561055d57600080fd5b506102e961056c36600461426b565b611e39565b6102e961057f3660046145c0565b611efa565b34801561059057600080fd5b506000546105a490600160a060020a031681565b604051600160a060020a0390911681526020016102c0565b3480156105c857600080fd5b506102b46105d7366004613def565b612078565b3480156105e857600080fd5b506102e96105f73660046145c0565b612106565b34801561060857600080fd5b506102e96106173660046145c0565b61218e565b34801561062857600080fd5b506102e9610637366004614586565b6121ab565b34801561064857600080fd5b506001546105a490600160a060020a031681565b34801561066857600080fd5b506102e9610677366004613def565b6121c9565b34801561068857600080fd5b506102e96106973660046146b9565b612221565b6102e96106aa366004614133565b61223e565b3480156106bb57600080fd5b506102e96106ca366004613def565b6123cd565b3480156106db57600080fd5b506105246106ea366004614133565b612425565b3480156106fb57600080fd5b506102e961070a366004614586565b6124bd565b6102e961071d3660046145f9565b6125a0565b34801561072e57600080fd5b506102e961073d36600461471f565b612722565b34801561074e57600080fd5b5061043761075d366004614224565b612864565b34801561076e57600080fd5b506102e961077d366004613def565b612933565b34801561078e57600080fd5b506102e961298c565b3480156107a357600080fd5b506102e96107b2366004613def565b612c21565b3480156107c357600080fd5b506102e96107d23660046146b9565b612db6565b3480156107e357600080fd5b506107f76107f2366004613def565b612dd3565b6040519081526020016102c0565b34801561081157600080fd5b506102b4610820366004614133565b612de5565b34801561083157600080fd5b506102e9610840366004614586565b612dfa565b34801561085157600080fd5b506102e961086036600461426b565b612e0f565b6000805460405160e260020a631871978b028152600160a060020a038481166004830152839216906361c65e2c9060240160806040518083038186803b1580156108ae57600080fd5b505afa1580156108c2573d6000803e3d6000fd5b505050506040513d601f19601f820116820180604052508101906108e69190614487565b606001519392505050565b600154600160a060020a031633146109275760405160e560020a62461bcd02815260040161091e90614b3c565b60405180910390fd5b6001805473ffffffffffffffffffffffffffffffffffffffff1916600160a060020a0392909216919091179055565b61095f81612078565b156109d45760405160e560020a62461bcd028152602060048201526024808201527f54686973206164647265737320616c7265616479207573656420666f7220696e60448201527f7669746500000000000000000000000000000000000000000000000000000000606482015260840161091e565b50565b6109e033612c21565b6109e986612933565b60006109f433612dd3565b9050610a003388612eba565b3415610a3d57604051600160a060020a038816903480156108fc02916000818181858888f19350505050158015610a3b573d6000803e3d6000fd5b505b6000546040517f6d822b44000000000000000000000000000000000000000000000000000000008152600160a060020a0390911690636d822b4490610a909084908b908b908b908b908b90600401614a21565b600060405180830381600087803b158015610aaa57600080fd5b505af1158015610abe573d6000803e3d6000fd5b5050505060005b8251811015610b9b576000838281518110610ae257610ae2614ea2565b6020908102919091018101516000548151928201516040808401516060850151608086015192517f2f23976c000000000000000000000000000000000000000000000000000000008152959750600160a060020a0390941695632f23976c95610b559591948b9490939291600401614c4a565b600060405180830381600087803b158015610b6f57600080fd5b505af1158015610b83573d6000803e3d6000fd5b50505050508080610b9390614e6e565b915050610ac5565b5050505050505050565b6040805160208101909152606081526040518060200160405280610bc884611da3565b905292915050565b6000610bdb33612c21565b6000610be633612dd3565b9050610bf5818787878761305e565b9695505050505050565b610c08826124bd565b610c128233612106565b610c1c82826132b8565b5050565b610c29336123cd565b610c328661105c565b15610c825760405160e560020a62461bcd02815260206004820152601a60248201527f4164647265737320616c72656164792072656769737465726564000000000000604482015260640161091e565b6000805460405160e260020a631871978b028152336004820152600160a060020a03909116906361c65e2c9060240160806040518083038186803b158015610cc957600080fd5b505afa158015610cdd573d6000803e3d6000fd5b505050506040513d601f19601f82011682018060405250810190610d019190614487565b9050610d0d8888613303565b60006060820181905260408083018a9052905490517f0913be41000000000000000000000000000000000000000000000000000000008152600160a060020a0390911690630913be4190610d679033908590600401614922565b600060405180830381600087803b158015610d8157600080fd5b505af1158015610d95573d6000803e3d6000fd5b505050506000341115610dd957604051600160a060020a038816903480156108fc02916000818181858888f19350505050158015610dd7573d6000803e3d6000fd5b505b610ee38860028054610dea90614e30565b80601f0160208091040260200160405190810160405280929190818152602001828054610e1690614e30565b8015610e635780601f10610e3857610100808354040283529160200191610e63565b820191906000526020600020905b815481529060010190602001808311610e4657829003601f168201915b505050505084610ea8576040518060400160405280600581526020017f66616c736500000000000000000000000000000000000000000000000000000081525061359e565b6040518060400160405280600481526020017f747275650000000000000000000000000000000000000000000000000000000081525061359e565b6000546040517f6d822b44000000000000000000000000000000000000000000000000000000008152600160a060020a0390911690636d822b4490610f36908b908b908b908b908b908b90600401614a21565b600060405180830381600087803b158015610f5057600080fd5b505af1158015610f64573d6000803e3d6000fd5b505050505050505050505050565b610fc16040518060e00160405280600067ffffffffffffffff16815260200160008019168152602001606081526020016060815260200160608152602001606081526020016000151581525090565b610fca826124bd565b60005460405160e360020a630444dc8702815267ffffffffffffffff84166004820152600160a060020a0390911690632226e4389060240160006040518083038186803b15801561101a57600080fd5b505afa15801561102e573d6000803e3d6000fd5b505050506040513d6000823e601f3d908101601f191682016040526110569190810190614382565b92915050565b600080546040517fdcac263e000000000000000000000000000000000000000000000000000000008152600160a060020a0384811660048301528392169063dcac263e9060240160606040518083038186803b1580156110bb57600080fd5b505afa1580156110cf573d6000803e3d6000fd5b505050506040513d601f19601f820116820180604052508101906110f39190614547565b8051909150151560011461110a5750600092915050565b60008054602083015160405160e260020a631945d5e7028152600160a060020a0390921691636517579c916111459160040190815260200190565b60606040518083038186803b15801561115d57600080fd5b505afa158015611171573d6000803e3d6000fd5b505050506040513d601f19601f8201168201806040525081019061119591906144fc565b60400151949350505050565b6111aa33612c21565b60005b81518110156111ea576111d88282815181106111cb576111cb614ea2565b6020026020010151610956565b806111e281614e6e565b9150506111ad565b5060006111f633612dd3565b90506000803411801561120a575060008351115b1561121e57825161121b9034614dc8565b90505b60005b835181101561143357600084828151811061123e5761123e614ea2565b6020908102919091018101516000805460408051608081018252600160a060020a0380861682529581018a90528082019390935260016060840152517f0913be410000000000000000000000000000000000000000000000000000000081529294509290921691630913be41916112b9918591600401614922565b600060405180830381600087803b1580156112d357600080fd5b505af11580156112e7573d6000803e3d6000fd5b50505050600083111561132c57604051600160a060020a0382169084156108fc029085906000818181858888f1935050505015801561132a573d6000803e3d6000fd5b505b6000546040517f2ef9adc300000000000000000000000000000000000000000000000000000000815260048101869052600160a060020a03838116602483015290911690632ef9adc390604401600060405180830381600087803b15801561139357600080fd5b505af11580156113a7573d6000803e3d6000fd5b505060008054604080517f33a474140000000000000000000000000000000000000000000000000000000081529051600160a060020a0390921694506333a474149350600480820193929182900301818387803b15801561140757600080fd5b505af115801561141b573d6000803e3d6000fd5b5050505050808061142b90614e6e565b915050611221565b50505050565b606060008260405160200161144e9190614b73565b60408051808303601f190181529082905280516020909101206000547fdce2dd1700000000000000000000000000000000000000000000000000000000835260048301829052909250600160a060020a03169063dce2dd179060240160006040518083038186803b1580156114c257600080fd5b505afa1580156114d6573d6000803e3d6000fd5b505050506040513d6000823e601f3d908101601f191682016040526114fe91908101906142a0565b9392505050565b61150f3382612eba565b341561154c57604051600160a060020a038216903480156108fc02916000818181858888f1935050505015801561154a573d6000803e3d6000fd5b505b600061155733612dd3565b6000546040517f2d1ca28100000000000000000000000000000000000000000000000000000000815260048101839052600160a060020a038581166024830152929350911690632d1ca281906044015b600060405180830381600087803b1580156115c157600080fd5b505af11580156115d5573d6000803e3d6000fd5b505050505050565b600154600160a060020a0316331461160a5760405160e560020a62461bcd02815260040161091e90614b3c565b6000805473ffffffffffffffffffffffffffffffffffffffff1916600160a060020a0392909216919091179055565b6000546040517f5c22f47d00000000000000000000000000000000000000000000000000000000815267ffffffffffffffff8416600482015260248101839052606091600160a060020a031690635c22f47d9060440160006040518083038186803b1580156116a757600080fd5b505afa1580156116bb573d6000803e3d6000fd5b505050506040513d6000823e601f3d908101601f191682016040526114fe919081019061404b565b60408051608081018252600080825260208201819052918101829052606081019190915260005460405160e260020a631871978b028152600160a060020a038481166004830152909116906361c65e2c9060240160806040518083038186803b15801561174f57600080fd5b505afa158015611763573d6000803e3d6000fd5b505050506040513d601f19601f820116820180604052508101906110569190614487565b60008061179383612dd3565b60005460405160e360020a630444dc8702815267ffffffffffffffff871660048201529192508291600160a060020a0390911690632226e4389060240160006040518083038186803b1580156117e857600080fd5b505afa1580156117fc573d6000803e3d6000fd5b505050506040513d6000823e601f3d908101601f191682016040526118249190810190614382565b6020015114949350505050565b6000805460405160e260020a631871978b028152336004820152600160a060020a03909116906361c65e2c9060240160806040518083038186803b15801561187857600080fd5b505afa15801561188c573d6000803e3d6000fd5b505050506040513d601f19601f820116820180604052508101906118b09190614487565b60608101519091501561192e5760405160e560020a62461bcd02815260206004820152602760248201527f4f6e6c7920696e61637469766520696e766974652063616e207265736574207060448201527f617373776f726400000000000000000000000000000000000000000000000000606482015260840161091e565b60408101516119a85760405160e560020a62461bcd02815260206004820152602c60248201527f4f6e6c7920696e76697465207769746820757365726e616d652063616e20726560448201527f7365742070617373776f72640000000000000000000000000000000000000000606482015260840161091e565b6040516020016119e99060208082526004908201527f7472756500000000000000000000000000000000000000000000000000000000604082015260600190565b60405160208183030381529060405280519060200120611a0c8260400151611da3565b604051602001611a1c9190614b29565b6040516020818303038152906040528051906020012014611aa85760405160e560020a62461bcd02815260206004820152602160248201527f53657474696e6773206e6f7420616c6c6f772072657365742070617373776f7260448201527f6400000000000000000000000000000000000000000000000000000000000000606482015260840161091e565b60008054604080840151905160e260020a631945d5e7028152600160a060020a0390921691636517579c91611ae39160040190815260200190565b60606040518083038186803b158015611afb57600080fd5b505afa158015611b0f573d6000803e3d6000fd5b505050506040513d601f19601f82011682018060405250810190611b3391906144fc565b9050611b43816020015188612eba565b3415611b8057604051600160a060020a038816903480156108fc02916000818181858888f19350505050158015611b7e573d6000803e3d6000fd5b505b60005460408084015190517f6d822b44000000000000000000000000000000000000000000000000000000008152600160a060020a0390921691636d822b4491611bd6918b908b908b908b908b90600401614a21565b600060405180830381600087803b158015611bf057600080fd5b505af1158015611c04573d6000803e3d6000fd5b5050505050505050505050565b6040805160608101825260008082526020820181905291810191909152600080546040517fdcac263e000000000000000000000000000000000000000000000000000000008152600160a060020a0385811660048301529091169063dcac263e9060240160606040518083038186803b158015611c8d57600080fd5b505afa158015611ca1573d6000803e3d6000fd5b505050506040513d601f19601f82011682018060405250810190611cc59190614547565b8051909150611d195760405160e560020a62461bcd02815260206004820181905260248201527f55736572207769746820746869732061646472657373206e6f7420666f756e64604482015260640161091e565b600054602082015160405160e260020a631945d5e7028152600160a060020a0390921691636517579c91611d539160040190815260200190565b60606040518083038186803b158015611d6b57600080fd5b505afa158015611d7f573d6000803e3d6000fd5b505050506040513d601f19601f820116820180604052508101906114fe91906144fc565b60606110568260028054611db690614e30565b80601f0160208091040260200160405190810160405280929190818152602001828054611de290614e30565b8015611e2f5780601f10611e0457610100808354040283529160200191611e2f565b820191906000526020600020905b815481529060010190602001808311611e1257829003601f168201915b5050505050612864565b600154600160a060020a03163314611e665760405160e560020a62461bcd02815260040161091e90614b3c565b6109d460038054611e7690614e30565b80601f0160208091040260200160405190810160405280929190818152602001828054611ea290614e30565b8015611eef5780601f10611ec457610100808354040283529160200191611eef565b820191906000526020600020905b815481529060010190602001808311611ed257829003601f168201915b505050505082613615565b611f0333612c21565b611f0c826124bd565b6000611f1733612dd3565b60008054604080516060810182526001815260208101859052808201939093525160e060020a636633e5b5028152929350600160a060020a031691636633e5b591611f679186919060040161496b565b600060405180830381600087803b158015611f8157600080fd5b505af1158015611f95573d6000803e3d6000fd5b505050506000341115611fd957604051600160a060020a038316903480156108fc02916000818181858888f19350505050158015611fd7573d6000803e3d6000fd5b505b6000546040517f0198fec000000000000000000000000000000000000000000000000000000000815267ffffffffffffffff8516600482015260248101839052600160a060020a03848116604483015290911690630198fec090606401600060405180830381600087803b15801561205057600080fd5b505af1158015612064573d6000803e3d6000fd5b505050506120738382846136b8565b505050565b6000805460405160e260020a631871978b028152600160a060020a038481166004830152839216906361c65e2c9060240160806040518083038186803b1580156120c157600080fd5b505afa1580156120d5573d6000803e3d6000fd5b505050506040513d601f19601f820116820180604052508101906120f99190614487565b6020015115159392505050565b61210f81612c21565b6121198282611787565b610c1c5760405160e560020a62461bcd02815260206004820152602a60248201527f596f7520646f206e6f7420686176652061636365737320746f2074686973206160448201527f70706c69636174696f6e00000000000000000000000000000000000000000000606482015260840161091e565b612197826124bd565b6121a18233612106565b610c1c8282613804565b6121b4816124bd565b6121be8133612106565b6109d481600061385f565b6121d28161105c565b6109d45760405160e560020a62461bcd02815260206004820152601660248201527f41646472657373206e6f74207265676973746572656400000000000000000000604482015260640161091e565b61222a826124bd565b6122348233612106565b610c1c8282613940565b60405160200161227f9060208082526005908201527f66616c7365000000000000000000000000000000000000000000000000000000604082015260600190565b60405160208183030381529060405280519060200120612328600380546122a590614e30565b80601f01602080910402602001604051908101604052809291908181526020018280546122d190614e30565b801561231e5780601f106122f35761010080835404028352916020019161231e565b820191906000526020600020905b81548152906001019060200180831161230157829003601f168201915b5050505050611439565b6040516020016123389190614b29565b60405160208183030381529060405280519060200120146123c35760405160e560020a62461bcd028152602060048201526024808201527f4e6f7420616c6c6f77656420746f207369676e757020776974686f757420696e60448201527f7669746500000000000000000000000000000000000000000000000000000000606482015260840161091e565b6109d48133613303565b6123d681610865565b6109d45760405160e560020a62461bcd02815260206004820152601160248201527f496e76697465206e6f7420616374697665000000000000000000000000000000604482015260640161091e565b6040805160608101825260008082526020820181905281830181905254915160e260020a631945d5e7028152600481018490529091600160a060020a031690636517579c9060240160606040518083038186803b15801561248557600080fd5b505afa158015612499573d6000803e3d6000fd5b505050506040513d601f19601f8201168201806040525081019061105691906144fc565b6000805460405160e360020a630444dc8702815267ffffffffffffffff84166004820152600160a060020a0390911690632226e4389060240160006040518083038186803b15801561250e57600080fd5b505afa158015612522573d6000803e3d6000fd5b505050506040513d6000823e601f3d908101601f1916820160405261254a9190810190614382565b90508060c00151610c1c5760405160e560020a62461bcd02815260206004820152600d60248201527f417070206e6f7420666f756e6400000000000000000000000000000000000000604482015260640161091e565b6125a933612c21565b6125b2866124bd565b60006125bd33612dd3565b60005460408051606081018252600181526020810184905267ffffffffffffffff8b1681830152905160e060020a636633e5b5028152929350600160a060020a0390911691636633e5b591612617918a919060040161496b565b600060405180830381600087803b15801561263157600080fd5b505af1158015612645573d6000803e3d6000fd5b50505050600034111561268957604051600160a060020a038716903480156108fc02916000818181858888f19350505050158015612687573d6000803e3d6000fd5b505b6000546040517f2f23976c000000000000000000000000000000000000000000000000000000008152600160a060020a0390911690632f23976c906126dc908a9085908a908a908a908a90600401614c4a565b600060405180830381600087803b1580156126f657600080fd5b505af115801561270a573d6000803e3d6000fd5b505050506127198782886136b8565b50505050505050565b61272b856124bd565b6127358533612106565b6000805460405160e360020a630444dc8702815267ffffffffffffffff88166004820152600160a060020a0390911690632226e4389060240160006040518083038186803b15801561278657600080fd5b505afa15801561279a573d6000803e3d6000fd5b505050506040513d6000823e601f3d908101601f191682016040526127c29190810190614382565b6040808201879052606082018690526080820185905260a0820184905260005490517f50d2c00e000000000000000000000000000000000000000000000000000000008152919250600160a060020a0316906350d2c00e9061282a9089908590600401614c96565b600060405180830381600087803b15801561284457600080fd5b505af1158015612858573d6000803e3d6000fd5b50505050505050505050565b60606000838360405160200161287b929190614aa9565b60408051808303601f190181529082905280516020909101206000547fdce2dd1700000000000000000000000000000000000000000000000000000000835260048301829052909250600160a060020a03169063dce2dd179060240160006040518083038186803b1580156128ef57600080fd5b505afa158015612903573d6000803e3d6000fd5b505050506040513d6000823e601f3d908101601f1916820160405261292b91908101906142a0565b949350505050565b61293c8161105c565b156109d45760405160e560020a62461bcd02815260206004820152601a60248201527f4164647265737320616c72656164792072656769737465726564000000000000604482015260640161091e565b600154600160a060020a031633146129b95760405160e560020a62461bcd02815260040161091e90614b3c565b6000805460405160e260020a631945d5e70281527ff23ec0bb4210edd5cba85afd05127efcd2fc6a781bfed49188da1081670b22d8600482018190529291600160a060020a031690636517579c9060240160606040518083038186803b158015612a2257600080fd5b505afa158015612a36573d6000803e3d6000fd5b505050506040513d601f19601f82011682018060405250810190612a5a91906144fc565b9050806040015115156001151514610c1c57612a768233613303565b6060806000612af2856040518060400160405280600881526020017f4765744c6f67696e0000000000000000000000000000000000000000000000008152506040518060400160405280601381526020017f4765744c6f67696e202d20617574682061707000000000000000000000000000815250868661305e565b9050612b33816040518060400160405280601581526020017f68747470733a2f2f6765746c6f67696e2e6f72672f00000000000000000000008152506132b8565b612b5181739a0cde760277dc3a4b2ac6e9d333af45148ebb60613804565b612c1a60038054612b6190614e30565b80601f0160208091040260200160405190810160405280929190818152602001828054612b8d90614e30565b8015612bda5780601f10612baf57610100808354040283529160200191612bda565b820191906000526020600020905b815481529060010190602001808311612bbd57829003601f168201915b50505050506040518060400160405280600581526020017f66616c7365000000000000000000000000000000000000000000000000000000815250613615565b5050505050565b612c2a816121c9565b600080546040517fdcac263e000000000000000000000000000000000000000000000000000000008152600160a060020a0384811660048301529091169063dcac263e9060240160606040518083038186803b158015612c8957600080fd5b505afa158015612c9d573d6000803e3d6000fd5b505050506040513d601f19601f82011682018060405250810190612cc19190614547565b60008054602083015160405160e260020a631945d5e702815260048101919091529293509091600160a060020a0390911690636517579c9060240160606040518083038186803b158015612d1457600080fd5b505afa158015612d28573d6000803e3d6000fd5b505050506040513d601f19601f82011682018060405250810190612d4c91906144fc565b905082600160a060020a03168160200151600160a060020a0316146120735760405160e560020a62461bcd02815260206004820152601a60248201527f57616c6c6574206973206e6f74206d61696e2061646472657373000000000000604482015260640161091e565b612dbf826124bd565b612dc98233612106565b610c1c828261399a565b6000612dde82611c11565b5192915050565b6000612df082612425565b6040015192915050565b612e048133612106565b6109d481600161385f565b612e1833612c21565b6000612e2333612dd3565b9050610c1c8160028054612e3690614e30565b80601f0160208091040260200160405190810160405280929190818152602001828054612e6290614e30565b8015612eaf5780601f10612e8457610100808354040283529160200191612eaf565b820191906000526020600020905b815481529060010190602001808311612e9257829003601f168201915b50505050508461359e565b612ec382612c21565b612ecc81612933565b6000612ed783611c11565b8051600080546040805160608101825283815260208101859052808201939093525160e060020a636633e5b50281529394509192600160a060020a0390921691636633e5b591612f2c9188919060040161496b565b600060405180830381600087803b158015612f4657600080fd5b505af1158015612f5a573d6000803e3d6000fd5b505060008054604080516060810182526001815260208101879052808201939093525160e060020a636633e5b5028152600160a060020a039091169350636633e5b59250612fac91879160040161496b565b600060405180830381600087803b158015612fc657600080fd5b505af1158015612fda573d6000803e3d6000fd5b505050600160a060020a0380851660208501526000546040517fab0f7ab70000000000000000000000000000000000000000000000000000000081529116915063ab0f7ab7906130309084908690600401614af6565b600060405180830381600087803b15801561304a57600080fd5b505af1158015610b9b573d6000803e3d6000fd5b60008054604080517f8ad1041900000000000000000000000000000000000000000000000000000000815290518392600160a060020a031691638ad10419916004808301926020929190829003018186803b1580156130bc57600080fd5b505afa1580156130d0573d6000803e3d6000fd5b505050506040513d601f19601f820116820180604052508101906130f491906145a3565b6000546040805160e08101825267ffffffffffffffff84168152602081018b90528082018a9052606081018990526080810188905260a08101879052600160c082015290517f50d2c00e000000000000000000000000000000000000000000000000000000008152929350600160a060020a03909116916350d2c00e9161318091859190600401614c96565b600060405180830381600087803b15801561319a57600080fd5b505af11580156131ae573d6000803e3d6000fd5b505060008054604080517f3122da980000000000000000000000000000000000000000000000000000000081529051600160a060020a039092169450633122da989350600480820193929182900301818387803b15801561320e57600080fd5b505af1158015613222573d6000803e3d6000fd5b50506000546040517fb68baa15000000000000000000000000000000000000000000000000000000008152600481018b905267ffffffffffffffff85166024820152600160a060020a03909116925063b68baa159150604401600060405180830381600087803b15801561329557600080fd5b505af11580156132a9573d6000803e3d6000fd5b50929998505050505050505050565b6000546040517f036fbb74000000000000000000000000000000000000000000000000000000008152600160a060020a039091169063036fbb74906115a79085908590600401614c73565b61330c82612de5565b1561335c5760405160e560020a62461bcd02815260206004820152601560248201527f557365726e616d6520616c726561647920757365640000000000000000000000604482015260640161091e565b6133658161105c565b156133b55760405160e560020a62461bcd02815260206004820152601360248201527f57616c6c657420616c7265616479207573656400000000000000000000000000604482015260640161091e565b60005460408051606081018252848152600160a060020a03848116602083015260018284015291517fab0f7ab7000000000000000000000000000000000000000000000000000000008152919092169163ab0f7ab791613419918691600401614af6565b600060405180830381600087803b15801561343357600080fd5b505af1158015613447573d6000803e3d6000fd5b505060008054604080516060810182526001815260208101889052808201939093525160e060020a636633e5b5028152600160a060020a039091169350636633e5b5925061349991859160040161496b565b600060405180830381600087803b1580156134b357600080fd5b505af11580156134c7573d6000803e3d6000fd5b50506000546040517fe7a6047200000000000000000000000000000000000000000000000000000000815260048101869052600160a060020a03909116925063e7a604729150602401600060405180830381600087803b15801561352a57600080fd5b505af115801561353e573d6000803e3d6000fd5b505060008054604080517fd128c2a70000000000000000000000000000000000000000000000000000000081529051600160a060020a03909216945063d128c2a79350600480820193929182900301818387803b1580156115c157600080fd5b600083836040516020016135b3929190614aa9565b60408051601f198184030181529082905280516020909101206000547f6fb89051000000000000000000000000000000000000000000000000000000008352909250600160a060020a031690636fb89051906130309084908690600401614a90565b6000826040516020016136289190614b73565b60408051601f198184030181529082905280516020909101206000547f6fb89051000000000000000000000000000000000000000000000000000000008352909250600160a060020a031690636fb890519061368a9084908690600401614a90565b600060405180830381600087803b1580156136a457600080fd5b505af1158015612719573d6000803e3d6000fd5b600080546040517f5c22f47d00000000000000000000000000000000000000000000000000000000815267ffffffffffffffff8616600482015260248101859052600160a060020a0390911690635c22f47d9060440160006040518083038186803b15801561372657600080fd5b505afa15801561373a573d6000803e3d6000fd5b505050506040513d6000823e601f3d908101601f19168201604052613762919081019061404b565b8051909150156137a2576000816001835161377d9190614ded565b8151811061378d5761378d614ea2565b60209081029190910101519015156060909101525b6000546040517fc4ac0e4800000000000000000000000000000000000000000000000000000000815267ffffffffffffffff8616600482015260248101859052600160a060020a0384811660448301529091169063c4ac0e4890606401613030565b6000546040517f212109e400000000000000000000000000000000000000000000000000000000815267ffffffffffffffff84166004820152600160a060020a0383811660248301529091169063212109e4906044016115a7565b6000805460405160e360020a630444dc8702815267ffffffffffffffff85166004820152600160a060020a0390911690632226e4389060240160006040518083038186803b1580156138b057600080fd5b505afa1580156138c4573d6000803e3d6000fd5b505050506040513d6000823e601f3d908101601f191682016040526138ec9190810190614382565b82151560c08201526000546040517f50d2c00e000000000000000000000000000000000000000000000000000000008152919250600160a060020a0316906350d2c00e9061368a9086908590600401614c96565b6000546040517fabc040ca00000000000000000000000000000000000000000000000000000000815267ffffffffffffffff8416600482015260248101839052600160a060020a039091169063abc040ca906044016115a7565b6000546040517fec46474c00000000000000000000000000000000000000000000000000000000815267ffffffffffffffff8416600482015260248101839052600160a060020a039091169063ec46474c906044016115a7565b80356139ff81614ed4565b919050565b600082601f830112613a1557600080fd5b81356020613a2a613a2583614d7c565b614d4b565b8281528181019085830183850287018401881015613a4757600080fd5b60005b85811015613a6f578135613a5d81614ed4565b84529284019290840190600101613a4a565b5090979650505050505050565b600082601f830112613a8d57600080fd5b81516020613a9d613a2583614d7c565b8281528181019085830183850287018401881015613aba57600080fd5b60005b85811015613a6f578151613ad081614ed4565b84529284019290840190600101613abd565b600082601f830112613af357600080fd5b81356020613b03613a2583614d7c565b8281528181019085830183850287018401881015613b2057600080fd5b6000805b86811015613b6357823567ffffffffffffffff811115613b42578283fd5b613b508b88838d0101613d43565b8652509385019391850191600101613b24565b509198975050505050505050565b600082601f830112613b8257600080fd5b81516020613b92613a2583614d7c565b8281528181019085830183850287018401881015613baf57600080fd5b6000805b86811015613b6357825167ffffffffffffffff811115613bd1578283fd5b613bdf8b88838d0101613d94565b8652509385019391850191600101613bb3565b600082601f830112613c0357600080fd5b81356020613c13613a2583614d7c565b8281528181019085830183850287018401881015613c3057600080fd5b60005b85811015613a6f57813567ffffffffffffffff80821115613c5357600080fd5b9089019060a0828c03601f1901811315613c6c57600080fd5b613c74614cb9565b613c7f898501613dd9565b815260408085013584811115613c9457600080fd5b613ca28f8c83890101613d43565b8b84015250606085013584811115613cb957600080fd5b613cc78f8c83890101613d43565b828401525050608084013583811115613cdf57600080fd5b613ced8e8b83880101613d43565b606083015250908301359082821115613d0557600080fd5b613d138d8a84870101613d43565b608082015287525050509284019290840190600101613c33565b80356139ff81614ee9565b80516139ff81614ee9565b600082601f830112613d5457600080fd5b8135613d62613a2582614da0565b818152846020838601011115613d7757600080fd5b816020850160208301376000918101602001919091529392505050565b600082601f830112613da557600080fd5b8151613db3613a2582614da0565b818152846020838601011115613dc857600080fd5b61292b826020830160208701614e04565b80356139ff81614ef7565b80516139ff81614ef7565b600060208284031215613e0157600080fd5b81356114fe81614ed4565b600080600080600060a08688031215613e2457600080fd5b8535613e2f81614ed4565b9450602086013567ffffffffffffffff80821115613e4c57600080fd5b613e5889838a01613d43565b95506040880135915080821115613e6e57600080fd5b613e7a89838a01613d43565b94506060880135915080821115613e9057600080fd5b613e9c89838a01613d43565b93506080880135915080821115613eb257600080fd5b50613ebf88828901613d43565b9150509295509295909350565b60008060008060008060c08789031215613ee557600080fd5b613eee876139f4565b9550602087013567ffffffffffffffff80821115613f0b57600080fd5b613f178a838b01613d43565b96506040890135915080821115613f2d57600080fd5b613f398a838b01613d43565b95506060890135915080821115613f4f57600080fd5b613f5b8a838b01613d43565b94506080890135915080821115613f7157600080fd5b613f7d8a838b01613d43565b935060a0890135915080821115613f9357600080fd5b50613fa089828a01613bf2565b9150509295509295509295565b60006020808385031215613fc057600080fd5b823567ffffffffffffffff811115613fd757600080fd5b8301601f81018513613fe857600080fd5b8035613ff6613a2582614d7c565b818152838101908385018584028501860189101561401357600080fd5b600094505b8385101561403f57803561402b81614ed4565b835260019490940193918501918501614018565b50979650505050505050565b6000602080838503121561405e57600080fd5b825167ffffffffffffffff81111561407557600080fd5b8301601f8101851361408657600080fd5b8051614094613a2582614d7c565b818152838101908385016080808502860187018a10156140b357600080fd5b60009550855b858110156141245781838c0312156140cf578687fd5b6140d7614ce2565b83518152888401516140e881614ed4565b818a01526040848101516140fb81614ef7565b9082015260608481015161410e81614ee9565b90820152855293870193918101916001016140b9565b50919998505050505050505050565b60006020828403121561414557600080fd5b5035919050565b600080600080600080600060e0888a03121561416757600080fd5b87359650614177602089016139f4565b9550604088013567ffffffffffffffff8082111561419457600080fd5b6141a08b838c01613d43565b965060608a01359150808211156141b657600080fd5b6141c28b838c01613d43565b955060808a01359150808211156141d857600080fd5b6141e48b838c01613d43565b945060a08a01359150808211156141fa57600080fd5b506142078a828b01613d43565b92505061421660c08901613d2d565b905092959891949750929550565b6000806040838503121561423757600080fd5b82359150602083013567ffffffffffffffff81111561425557600080fd5b61426185828601613d43565b9150509250929050565b60006020828403121561427d57600080fd5b813567ffffffffffffffff81111561429457600080fd5b61292b84828501613d43565b6000602082840312156142b257600080fd5b815167ffffffffffffffff8111156142c957600080fd5b61292b84828501613d94565b600080600080608085870312156142eb57600080fd5b843567ffffffffffffffff8082111561430357600080fd5b61430f88838901613d43565b9550602087013591508082111561432557600080fd5b61433188838901613d43565b9450604087013591508082111561434757600080fd5b61435388838901613ae2565b9350606087013591508082111561436957600080fd5b5061437687828801613a04565b91505092959194509250565b60006020828403121561439457600080fd5b815167ffffffffffffffff808211156143ac57600080fd5b9083019060e082860312156143c057600080fd5b6143c8614d05565b6143d183613de4565b8152602083015160208201526040830151828111156143ef57600080fd5b6143fb87828601613d94565b60408301525060608301518281111561441357600080fd5b61441f87828601613d94565b60608301525060808301518281111561443757600080fd5b61444387828601613b71565b60808301525060a08301518281111561445b57600080fd5b61446787828601613a7c565b60a08301525061447960c08401613d38565b60c082015295945050505050565b60006080828403121561449957600080fd5b6040516080810181811067ffffffffffffffff821117156144bc576144bc614ebb565b60405282516144ca81614ed4565b80825250602083015160208201526040830151604082015260608301516144f081614ee9565b60608201529392505050565b60006060828403121561450e57600080fd5b614516614d28565b82518152602083015161452881614ed4565b6020820152604083015161453b81614ee9565b60408201529392505050565b60006060828403121561455957600080fd5b614561614d28565b825161456c81614ee9565b815260208381015190820152604083015161453b81614ef7565b60006020828403121561459857600080fd5b81356114fe81614ef7565b6000602082840312156145b557600080fd5b81516114fe81614ef7565b600080604083850312156145d357600080fd5b82356145de81614ef7565b915060208301356145ee81614ed4565b809150509250929050565b60008060008060008060c0878903121561461257600080fd5b61461b87613dd9565b9550614629602088016139f4565b9450604087013567ffffffffffffffff8082111561464657600080fd5b6146528a838b01613d43565b9550606089013591508082111561466857600080fd5b6146748a838b01613d43565b9450608089013591508082111561468a57600080fd5b6146968a838b01613d43565b935060a08901359150808211156146ac57600080fd5b50613fa089828a01613d43565b600080604083850312156146cc57600080fd5b82356146d781614ef7565b946020939093013593505050565b600080604083850312156146f857600080fd5b823561470381614ef7565b9150602083013567ffffffffffffffff81111561425557600080fd5b600080600080600060a0868803121561473757600080fd5b853561474281614ef7565b9450602086013567ffffffffffffffff8082111561475f57600080fd5b61476b89838a01613d43565b9550604088013591508082111561478157600080fd5b61478d89838a01613d43565b945060608801359150808211156147a357600080fd5b6147af89838a01613ae2565b935060808801359150808211156147c557600080fd5b50613ebf88828901613a04565b600081518084526020808501945080840160005b8381101561480b578151600160a060020a0316875295820195908201906001016147e6565b509495945050505050565b6000815180845261482e816020860160208601614e04565b601f01601f19169290920160200192915050565b67ffffffffffffffff8151168252600060208083015181850152604083015160e0604086015261487560e0860182614816565b90506060840151858203606087015261488e8282614816565b91505060808401518582036080870152818151808452848401915084858202850101858401935060005b828110156148e657601f198683030184526148d4828651614816565b948701949387019391506001016148b8565b5060a0880151955088810360a08a015261490081876147d2565b9550505050505060c083015161491a60c086018215159052565b509392505050565b600160a060020a038316815260a081016114fe6020830184600160a060020a03815116825260208101516020830152604081015160408301526060810151151560608301525050565b600160a060020a0383168152608081016114fe60208301848051151582526020808201519083015260409081015167ffffffffffffffff16910152565b602080825282518282018190526000919060409081850190868401855b82811015614a145781518051855286810151600160a060020a0316878601528581015167ffffffffffffffff1686860152606090810151151590850152608090930192908501906001016149c5565b5091979650505050505050565b868152600160a060020a038616602082015260c060408201526000614a4960c0830187614816565b8281036060840152614a5b8187614816565b90508281036080840152614a6f8186614816565b905082810360a0840152614a838185614816565b9998505050505050505050565b82815260406020820152600061292b6040830184614816565b82815260606020820152600160608201527f5f00000000000000000000000000000000000000000000000000000000000000608082015260a06040820152600061292b60a0830184614816565b828152608081016114fe602083018480518252602080820151600160a060020a0316908301526040908101511515910152565b6020815260006114fe6020830184614816565b60208082526017908201527f43616c6c6572206973206e6f7420746865206f776e6572000000000000000000604082015260600190565b60408152600760408201527f676c6f62616c5f0000000000000000000000000000000000000000000000000060608201526080602082015260006114fe6080830184614816565b6020815260006114fe6020830184614842565b8151600160a060020a03168152602080830151908201526040808301519082015260608083015115159082015260808101611056565b602081526000825160208084015261292b6040840182614816565b81518152602080830151600160a060020a03169082015260408083015115159082015260608101611056565b67ffffffffffffffff8716815285602082015260c060408201526000614a4960c0830187614816565b67ffffffffffffffff8316815260406020820152600061292b6040830184614816565b67ffffffffffffffff8316815260406020820152600061292b6040830184614842565b60405160a0810167ffffffffffffffff81118282101715614cdc57614cdc614ebb565b60405290565b6040516080810167ffffffffffffffff81118282101715614cdc57614cdc614ebb565b60405160e0810167ffffffffffffffff81118282101715614cdc57614cdc614ebb565b6040516060810167ffffffffffffffff81118282101715614cdc57614cdc614ebb565b604051601f8201601f1916810167ffffffffffffffff81118282101715614d7457614d74614ebb565b604052919050565b600067ffffffffffffffff821115614d9657614d96614ebb565b5060209081020190565b600067ffffffffffffffff821115614dba57614dba614ebb565b50601f01601f191660200190565b600082614de85760e060020a634e487b7102600052601260045260246000fd5b500490565b600082821015614dff57614dff614e89565b500390565b60005b83811015614e1f578181015183820152602001614e07565b838111156114335750506000910152565b600281046001821680614e4457607f821691505b60208210811415614e685760e060020a634e487b7102600052602260045260246000fd5b50919050565b6000600019821415614e8257614e82614e89565b5060010190565b60e060020a634e487b7102600052601160045260246000fd5b60e060020a634e487b7102600052603260045260246000fd5b60e060020a634e487b7102600052604160045260246000fd5b600160a060020a03811681146109d457600080fd5b80151581146109d457600080fd5b67ffffffffffffffff811681146109d457600080fdfea264697066735822122040d4ca9127ed2d8a8883788c7c4c3807668f7aabc8108a5b9abaf7bc5f7b5f5364736f6c63430008070033",
  "immutableReferences": {},
  "source": "// SPDX-License-Identifier: UNLICENSED\npragma solidity ^0.8.7;\n\nimport './GetLoginStorage.sol';\n\ncontract GetLoginLogic {\n    GetLoginStorage public getLoginStorage;\n    address public owner;\n\n    // user settings\n    string settingsInviteReset = \"invite_reset\";\n    // global settings\n    string settingsInvitesOnly = \"invites_only\";\n\n    struct SessionData\n    {\n        uint64 appId;\n        string iv;\n        string ephemPublicKey;\n        string ciphertext;\n        string mac;\n    }\n\n    struct SettingsData\n    {\n        string inviteReset;\n    }\n\n    uint8 SESSION_MAIN = 1;\n    uint8 SESSION_APP = 2;\n\n    modifier onlyOwner() {\n        require(msg.sender == owner, \"Caller is not the owner\");\n        _;\n    }\n\n    function setOwner(address _address) onlyOwner public {\n        owner = _address;\n    }\n\n    function setStorageAddress(GetLoginStorage _address) onlyOwner public {\n        getLoginStorage = _address;\n    }\n\n    constructor(GetLoginStorage _getLoginStorage) {\n        owner = msg.sender;\n        getLoginStorage = _getLoginStorage;\n    }\n\n    function init() onlyOwner public {\n        bytes32 usernameHash = keccak256('admin');\n        GetLoginStorage.UserInfo memory info = getLoginStorage.getUser(usernameHash);\n        if (info.isActive != true) {\n            _createUser(usernameHash, msg.sender);\n            string[] memory allowedUrls;\n            address[] memory allowedContracts;\n            uint64 newAppId = _createApplication(usernameHash, 'GetLogin', 'GetLogin - auth app', allowedUrls, allowedContracts);\n            _addApplicationUrl(newAppId, 'https://getlogin.org/');\n            _addApplicationContract(newAppId, 0x9A0CDE760277DC3A4B2aC6E9D333Af45148eBb60);\n\n            _setGlobalSettings(settingsInvitesOnly, \"false\");\n        }\n    }\n\n    /* Private methods */\n    function _createUser(bytes32 _usernameHash, address _ownerWallet) private {\n        require(isUsernameExists(_usernameHash) == false, \"Username already used\");\n        require(isAddressRegistered(_ownerWallet) == false, \"Wallet already used\");\n\n        getLoginStorage.setUser(_usernameHash, GetLoginStorage.UserInfo({username : _usernameHash, isActive : true, mainAddress : _ownerWallet}));\n        getLoginStorage.setUsersAddressUsername(_ownerWallet, GetLoginStorage.Username({username : _usernameHash, isActive : true, appId : 0}));\n        getLoginStorage.emitEventUserCreated(_usernameHash);\n        getLoginStorage.incrementUsers();\n    }\n\n    function _changeUserOwner(address _oldAddress, address _newAddress) private {\n        validateMainAddress(_oldAddress);\n        validateAddressAvailable(_newAddress);\n\n        GetLoginStorage.UserInfo memory user = getUserByAddress(_oldAddress);\n        bytes32 usernameHash = user.username;\n        // deactivate old main address\n        getLoginStorage.setUsersAddressUsername(_oldAddress, GetLoginStorage.Username({username : usernameHash, isActive : false, appId : 0}));\n        // activate new address\n        getLoginStorage.setUsersAddressUsername(_newAddress, GetLoginStorage.Username({username : usernameHash, isActive : true, appId : 0}));\n        // set new main address and store changed user info\n        user.mainAddress = _newAddress;\n        getLoginStorage.setUser(usernameHash, user);\n    }\n\n    function _createApplication(bytes32 _usernameHash, string memory _title, string memory _description, string[] memory _allowedUrls, address[] memory _allowedContracts) private returns (uint64) {\n        uint64 appId = getLoginStorage.applicationId();\n        getLoginStorage.setApplication(appId, GetLoginStorage.Application({id : appId, usernameHash : _usernameHash, title : _title, description : _description, allowedUrls : _allowedUrls, allowedContracts : _allowedContracts, isActive : true}));\n        getLoginStorage.incrementApplicationId();\n        getLoginStorage.emitEventAppCreated(_usernameHash, appId);\n\n        return appId;\n    }\n\n    function _addApplicationUrl(uint64 _appId, string memory _url) private {\n        getLoginStorage.pushApplicationUrl(_appId, _url);\n    }\n\n    function _addApplicationContract(uint64 _appId, address _wallet) private {\n        getLoginStorage.pushApplicationContract(_appId, _wallet);\n    }\n\n    function _deleteApplicationUrl(uint64 _appId, uint _index) private {\n        getLoginStorage.deleteApplicationUrl(_appId, _index);\n    }\n\n    function _deleteApplicationContract(uint64 _appId, uint _index) private {\n        getLoginStorage.deleteApplicationContract(_appId, _index);\n    }\n\n    function _setApplicationActive(uint64 _appId, bool _isActive) private {\n        GetLoginStorage.Application memory app = getLoginStorage.getApplication(_appId);\n        app.isActive = _isActive;\n        getLoginStorage.setApplication(_appId, app);\n    }\n\n    function _pushAppSession(uint64 _appId, bytes32 _usernameHash, address _wallet) private {\n        GetLoginStorage.AppSession[] memory sessions = getLoginStorage.getAppSessions(_appId, _usernameHash);\n        if (sessions.length > 0) {\n            // todo check with tests is deactivation works\n            sessions[sessions.length - 1].isActive = false;\n        }\n\n        getLoginStorage.pushAppSession(_appId, _usernameHash, _wallet);\n    }\n\n    function _setUserSettings(bytes32 _usernameHash, string memory _key, string memory _value) private {\n        bytes32 keyHash = keccak256(abi.encode(_usernameHash, \"_\", _key));\n        getLoginStorage.setSettings(keyHash, _value);\n    }\n\n    function _setGlobalSettings(string memory _key, string memory _value) private {\n        bytes32 keyHash = keccak256(abi.encode(\"global_\", _key));\n        getLoginStorage.setSettings(keyHash, _value);\n    }\n\n    /* End of private methods */\n\n    /* Validators */\n    function validateAppOwner(uint64 _appId, address _wallet) public view {\n        validateMainAddress(_wallet);\n\n        require(isAppOwner(_appId, _wallet), \"You do not have access to this application\");\n    }\n\n    function validateAppExists(uint64 _appId) public view {\n        GetLoginStorage.Application memory app = getLoginStorage.getApplication(_appId);\n        require(app.isActive, \"App not found\");\n    }\n\n    function validateInviteActive(address _address) public view {\n        require(isActiveInvite(_address), \"Invite not active\");\n    }\n\n    function validateAddressRegistered(address _address) public view {\n        require(isAddressRegistered(_address), \"Address not registered\");\n    }\n\n    function validateMainAddress(address _address) public view {\n        validateAddressRegistered(_address);\n        GetLoginStorage.Username memory usernameInfo = getLoginStorage.getUsersAddressUsername(_address);\n        GetLoginStorage.UserInfo memory user = getLoginStorage.getUser(usernameInfo.username);\n        require(user.mainAddress == _address, \"Wallet is not main address\");\n    }\n\n    function validateAddressAvailable(address _address) public view {\n        require(isAddressRegistered(_address) == false, \"Address already registered\");\n    }\n\n    function validateInviteAvailable(address _address) public view {\n        require(isInviteAddressUsed(_address) == false, \"This address already used for invite\");\n    }\n    /* End validators */\n\n    /* Public methods */\n    function createApplication(string memory _title, string memory _description, string[] memory _allowedUrls, address[] memory _allowedContracts) public returns (uint64) {\n        validateMainAddress(msg.sender);\n\n        bytes32 usernameHash = getUsernameByAddress(msg.sender);\n\n        return _createApplication(usernameHash, _title, _description, _allowedUrls, _allowedContracts);\n    }\n\n    function editApplication(uint64 _appId, string memory _title, string memory _description, string[] memory _allowedUrls, address[] memory _allowedContracts) public {\n        validateAppExists(_appId);\n        validateAppOwner(_appId, msg.sender);\n\n        GetLoginStorage.Application memory app = getLoginStorage.getApplication(_appId);\n        app.title = _title;\n        app.description = _description;\n        app.allowedUrls = _allowedUrls;\n        app.allowedContracts = _allowedContracts;\n        getLoginStorage.setApplication(_appId, app);\n    }\n\n    function addApplicationUrl(uint64 _appId, string memory _url) public {\n        validateAppExists(_appId);\n        validateAppOwner(_appId, msg.sender);\n\n        _addApplicationUrl(_appId, _url);\n    }\n\n    function addApplicationContract(uint64 _appId, address _address) public {\n        validateAppExists(_appId);\n        validateAppOwner(_appId, msg.sender);\n\n        _addApplicationContract(_appId, _address);\n    }\n\n    function deleteApplicationUrl(uint64 _appId, uint _index) public {\n        validateAppExists(_appId);\n        validateAppOwner(_appId, msg.sender);\n\n        _deleteApplicationUrl(_appId, _index);\n    }\n\n    function deleteApplicationContract(uint64 _appId, uint _index) public {\n        validateAppExists(_appId);\n        validateAppOwner(_appId, msg.sender);\n\n        _deleteApplicationContract(_appId, _index);\n    }\n\n    function deleteApplication(uint64 _appId) public {\n        validateAppExists(_appId);\n        validateAppOwner(_appId, msg.sender);\n\n        _setApplicationActive(_appId, false);\n    }\n\n    function restoreApplication(uint64 _appId) public {\n        validateAppOwner(_appId, msg.sender);\n\n        _setApplicationActive(_appId, true);\n    }\n\n    /**\n        Create user without invite (if enabled by contract owner)\n        It allows to signup with Metamask and similar systems\n    **/\n    function createUser(bytes32 _usernameHash) public payable {\n        require(keccak256(abi.encode(getGlobalSettings(settingsInvitesOnly))) == keccak256(abi.encode(\"false\")), \"Not allowed to signup without invite\");\n\n        _createUser(_usernameHash, msg.sender);\n    }\n\n    /**\n        Change main wallet for user which assigned to sender\n    **/\n    function changeUserOwner(address payable _newOwner) public payable {\n        _changeUserOwner(msg.sender, _newOwner);\n        if (msg.value > 0) {\n            _newOwner.transfer(msg.value);\n        }\n\n        bytes32 usernameHash = getUsernameByAddress(msg.sender);\n        getLoginStorage.emitEventStoreWallet(usernameHash, _newOwner);\n    }\n\n    // todo check every method with correct and incorrect behaviour\n    // todo validate events creation\n\n    function createInvite(address payable[] memory _invites) public payable {\n        validateMainAddress(msg.sender);\n\n        for (uint i = 0; i < _invites.length; i++) {\n            validateInviteAvailable(_invites[i]);\n        }\n\n        bytes32 creatorUsernameHash = getUsernameByAddress(msg.sender);\n        uint256 val = 0;\n        if (msg.value > 0 && _invites.length > 0) {\n            val = msg.value / _invites.length;\n        }\n\n        for (uint i = 0; i < _invites.length; i++) {\n            address payable inviteAddress = _invites[i];\n            getLoginStorage.setInvite(inviteAddress, GetLoginStorage.InviteInfo({inviteAddress : inviteAddress, creatorUsername : creatorUsernameHash, registeredUsername : '', isActive : true}));\n            if (val > 0) {\n                inviteAddress.transfer(val);\n            }\n\n            getLoginStorage.emitEventInviteCreated(creatorUsernameHash, inviteAddress);\n            getLoginStorage.incrementInvites();\n        }\n    }\n\n    function createUserFromInvite(bytes32 _usernameHash, address payable _walletAddress, string memory _ciphertext, string memory _iv, string memory _salt, string memory _mac, bool _allowReset) public payable {\n        validateInviteActive(msg.sender);\n        require(isAddressRegistered(_walletAddress) == false, \"Address already registered\");\n\n        GetLoginStorage.InviteInfo memory invite = getLoginStorage.getInvite(msg.sender);\n        _createUser(_usernameHash, _walletAddress);\n        invite.isActive = false;\n        invite.registeredUsername = _usernameHash;\n        getLoginStorage.setInvite(msg.sender, invite);\n        if (msg.value > 0) {\n            _walletAddress.transfer(msg.value);\n        }\n\n        _setUserSettings(_usernameHash, settingsInviteReset, _allowReset ? \"true\" : \"false\");\n        getLoginStorage.emitEventStoreWallet(_usernameHash, _walletAddress, _ciphertext, _iv, _salt, _mac);\n    }\n\n    function changePassword(address payable _newAddress, string memory _ciphertext, string memory _iv, string memory _salt, string memory _mac, SessionData[] memory _sessions) public payable {\n        validateMainAddress(msg.sender);\n        validateAddressAvailable(_newAddress);\n\n        bytes32 usernameHash = getUsernameByAddress(msg.sender);\n        _changeUserOwner(msg.sender, _newAddress);\n        // move all received funds to the new address\n        if (msg.value > 0) {\n            _newAddress.transfer(msg.value);\n        }\n\n        getLoginStorage.emitEventStoreWallet(usernameHash, _newAddress, _ciphertext, _iv, _salt, _mac);\n        // replace all sessions with re-encoded ones\n        for (uint i = 0; i < _sessions.length; i++) {\n            SessionData memory session = _sessions[i];\n            getLoginStorage.emitEventAppSession(session.appId, usernameHash, session.iv, session.ephemPublicKey, session.ciphertext, session.mac);\n        }\n    }\n\n    /**\n        Assign new address for old username that created with invite address which call this method\n    **/\n    function resetPassword(address payable _newAddress, string memory _ciphertext, string memory _iv, string memory _salt, string memory _mac) public payable {\n        GetLoginStorage.InviteInfo memory invite = getLoginStorage.getInvite(msg.sender);\n        require(invite.isActive == false, \"Only inactive invite can reset password\");\n        require(invite.registeredUsername != \"\", \"Only invite with username can reset password\");\n        require(keccak256(abi.encode(getInviteReset(invite.registeredUsername))) == keccak256(abi.encode(\"true\")), \"Settings not allow reset password\");\n\n        GetLoginStorage.UserInfo memory user = getLoginStorage.getUser(invite.registeredUsername);\n        _changeUserOwner(user.mainAddress, _newAddress);\n\n        // transfer all received funds\n        if (msg.value > 0) {\n            _newAddress.transfer(msg.value);\n        }\n\n        getLoginStorage.emitEventStoreWallet(invite.registeredUsername, _newAddress, _ciphertext, _iv, _salt, _mac);\n    }\n\n    function createAppSession(uint64 _appId, address payable _sessionAddress, string memory _iv, string memory _ephemPublicKey, string memory _ciphertext, string memory _mac) public payable {\n        validateMainAddress(msg.sender);\n        validateAppExists(_appId);\n        // todo check that `_sessionAddress` previously not used\n\n\n        bytes32 usernameHash = getUsernameByAddress(msg.sender);\n        // add new address to the global scope\n        getLoginStorage.setUsersAddressUsername(_sessionAddress, GetLoginStorage.Username({isActive : true, username : usernameHash, appId : _appId}));\n        if (msg.value > 0) {\n            _sessionAddress.transfer(msg.value);\n        }\n\n        getLoginStorage.emitEventAppSession(_appId, usernameHash, _iv, _ephemPublicKey, _ciphertext, _mac);\n        _pushAppSession(_appId, usernameHash, _sessionAddress);\n    }\n\n    function createSimpleAppSession(uint64 _appId, address payable _sessionAddress) public payable {\n        validateMainAddress(msg.sender);\n        validateAppExists(_appId);\n        // todo check that `_sessionAddress` previously not used\n\n        bytes32 usernameHash = getUsernameByAddress(msg.sender);\n        // add new address to the global scope\n        getLoginStorage.setUsersAddressUsername(_sessionAddress, GetLoginStorage.Username({isActive : true, username : usernameHash, appId : 0}));\n        if (msg.value > 0) {\n            _sessionAddress.transfer(msg.value);\n        }\n\n        getLoginStorage.emitEventSimpleAppSession(_appId, usernameHash, _sessionAddress);\n        _pushAppSession(_appId, usernameHash, _sessionAddress);\n    }\n\n    function setInviteReset(string memory _value) public {\n        validateMainAddress(msg.sender);\n\n        bytes32 usernameHash = getUsernameByAddress(msg.sender);\n        _setUserSettings(usernameHash, settingsInviteReset, _value);\n    }\n\n    function setGlobalOnlyInvites(string memory value) onlyOwner public {\n        _setGlobalSettings(settingsInvitesOnly, value);\n    }\n\n    /* End of public methods */\n\n    /* View methods */\n    function getApplication(uint64 _id) public view returns (GetLoginStorage.Application memory) {\n        validateAppExists(_id);\n\n        return getLoginStorage.getApplication(_id);\n    }\n\n    function getUserInfo(bytes32 _usernameHash) public view returns (GetLoginStorage.UserInfo memory) {\n        return getLoginStorage.getUser(_usernameHash);\n    }\n\n    function isUsernameExists(bytes32 _usernameHash) public view returns (bool) {\n        return getUserInfo(_usernameHash).isActive;\n    }\n\n    function isAddressRegistered(address _address) public view returns (bool) {\n        GetLoginStorage.Username memory currentUser = getLoginStorage.getUsersAddressUsername(_address);\n        if (currentUser.isActive != true) {\n            return false;\n        }\n\n        GetLoginStorage.UserInfo memory info = getLoginStorage.getUser(currentUser.username);\n\n        return info.isActive;\n    }\n\n    function isAppOwner(uint64 _appId, address _checkAddress) public view returns (bool) {\n        // todo check that `checkAddress` is mainAddress of user\n        // todo remove validation from `validateAppOwner`\n        bytes32 currentUsernameHash = getUsernameByAddress(_checkAddress);\n        return getLoginStorage.getApplication(_appId).usernameHash == currentUsernameHash;\n    }\n\n    function getUserByAddress(address _address) public view returns (GetLoginStorage.UserInfo memory) {\n        // todo check that `_wallet` is not expired session address. maybe split getUser.. method to mainwallet/session wallet\n        GetLoginStorage.Username memory currentUser = getLoginStorage.getUsersAddressUsername(_address);\n        require(currentUser.isActive, \"User with this address not found\");\n        return getLoginStorage.getUser(currentUser.username);\n    }\n\n    function getUsernameByAddress(address _address) public view returns (bytes32) {\n        return getUserByAddress(_address).username;\n    }\n\n    function isActiveInvite(address _address) public view returns (bool) {\n        GetLoginStorage.InviteInfo memory info = getLoginStorage.getInvite(_address);\n        return info.isActive;\n    }\n\n    function isInviteAddressUsed(address _address) public view returns (bool) {\n        GetLoginStorage.InviteInfo memory info = getLoginStorage.getInvite(_address);\n        return info.creatorUsername != '';\n    }\n\n    function getInvite(address _address) public view returns (GetLoginStorage.InviteInfo memory) {\n        return getLoginStorage.getInvite(_address);\n    }\n\n    function getAppSessions(uint64 _appId, bytes32 _usernameHash) public view returns (GetLoginStorage.AppSession[] memory) {\n        return getLoginStorage.getAppSessions(_appId, _usernameHash);\n    }\n\n    function getAllSettings(bytes32 _usernameHash) public view returns (SettingsData memory) {\n        return SettingsData({inviteReset : getInviteReset(_usernameHash)});\n    }\n\n    function getSettings(bytes32 _usernameHash, string memory _key) public view returns (string memory) {\n        bytes32 keyHash = keccak256(abi.encode(_usernameHash, \"_\", _key));\n        return getLoginStorage.getSettings(keyHash);\n    }\n\n    function getGlobalSettings(string memory _key) public view returns (string memory) {\n        bytes32 keyHash = keccak256(abi.encode(\"global_\", _key));\n        return getLoginStorage.getSettings(keyHash);\n    }\n\n    function getInviteReset(bytes32 _usernameHash) public view returns (string memory) {\n        return getSettings(_usernameHash, settingsInviteReset);\n    }\n\n    /* End of view methods */\n}\n",
  "sourcePath": "/Users/sdancer/web/login/src/smart/contracts/GetLoginLogic.sol",
  "compiler": {
    "name": "solc",
    "version": "0.8.7+commit.e28d00a7.Emscripten.clang"
  },
  "schemaVersion": "3.4.3",
  "updatedAt": "2021-09-04T11:23:48.354Z",
  "devdoc": {
    "kind": "dev",
    "methods": {},
    "version": 1
  },
  "userdoc": {
    "kind": "user",
    "methods": {
      "changeUserOwner(address)": {
        "notice": "Change main wallet for user which assigned to sender*"
      },
      "createUser(bytes32)": {
        "notice": "Create user without invite (if enabled by contract owner) It allows to signup with Metamask and similar systems*"
      },
      "resetPassword(address,string,string,string,string)": {
        "notice": "Assign new address for old username that created with invite address which call this method*"
      }
    },
    "version": 1
  }
}